:020000040000FA
:060000006DEF12F012008A
:020006001200E6
:0600080015EF0BF01200E1
:02000E000300ED
:1000100034250000E10000001C000000282500003D
:10002000000100000C00000026250000FD0000007B
:0400300002000000CA
:0C00340056EC05F0FB0EDBCFF3FFDB0603
:10004000F35000090AE0A4EC05F0FA0E0FEC06F0FC
:10005000F3E11F1CF1E1010E01D0000E85EF05F068
:1000600056EC05F03B0EE12402E3E168E652E16E56
:10007000010EDB6A020EDB6AF90EDBCFF6FFFA0E29
:10008000DBCFF7FFFB0EDBCFF8FF0800F550DF6E8C
:10009000DF5002E1A9EF04F0250EDF5C02E09CEFE7
:1000A00004F0030EDB6A040EDB6A050EDB6A060E43
:1000B000DB6A070EDB6ABEEC04F02D0EDF5C0CE0A1
:1000C0002B0EDF5C09E0200EDF5C06E0230EDF5C18
:1000D00003E0300EDF5C1AE1DF50300A14E0130A4F
:1000E0000FE0030A0AE00B0A05E0060AE4E1030E4A
:1000F000DB80E1D7030EDB82DED7030EDB84DBD7A8
:10010000030EDB86D8D7030EDB88D5D72A0EDF5C3B
:100110001BE1BAEC04F008EC05F010E0030EDB8004
:1001200008680968130EDBCF0DF0140EDBCF0EF05C
:100130008FEC0FF0040E06C0DBFF03D0130EF1ECC2
:1001400004F0BEEC04F00BD0090EDB6A5FEC05F0A6
:1001500003E0D3EC05F0FAD7090EF1EC04F0030E3E
:10016000DBB0DB982E0EDF5C1BE1BEEC04F02A0E48
:10017000DF5C0BE1BAEC04F008EC05F003E1130ED0
:1001800043EC05F0BEEC04F00BD0090EDB6A5FEC2B
:1001900005F003E0D3EC05F0FAD7090E43EC05F0C7
:1001A000680EDF5C07E1BEEC04F0680EDF5C1DE169
:1001B000030E18D0740EDF5C17E07A0EDF5C14E0DB
:1001C000480EDF5C06E0540EDF5C03E05A0EDF5C95
:1001D00002E1020E07D06C0EDF5C03E06A0EDF5C0A
:1001E00004E1010E96EC05F0C9DBDF506E0A01E177
:1001F0007FD31E0A01E192D1200A01E18FD13F0A8B
:1002000001E149D11A0A01E146D10D0A01E143D1C8
:10021000200A01E140D13A0A01E13DD1200A01E181
:100220003AD1260A01E135D10D0A01E132D11A0A8B
:1002300001E1D9D0200A4AE0300A1FE0460A0EE068
:10024000250A01E083D3D950F90FE96EFF0EDA20B9
:10025000EA6E010EEE5E000EEE5AEE5AA4EC05F0C8
:10026000250EE66E95DB03E11F1C01E169D3A0ECCE
:1002700005F001E26BD3DB2A69D3080EDB6A040EBA
:10028000DB50010806E2040EDB0468EC05F0DB50ED
:100290008BDB080EDB5009E0030EDB50010B05E1A0
:1002A00072DB01E04DD3080EDB6A64DBEFCFDFFFCA
:1002B00018EC06F003E11F1C01E142D3A0EC05F0AD
:1002C00001E3DB2A60DB01E141D33AD3070EDB50C7
:1002D00002080FE1E4EC05F0030EABEC05F00E0EA6
:1002E000EECFDBFF0F0EEECFDBFF100EEECFDBFF0E
:1002F00020D0F70EDBCF21F0F80EDBCF22F0020E7C
:10030000215E000E225AF70E21C0DBFFF80E22C03C
:10031000DBFF21C0E9FF22C0EAFF9BEC05F0206A69
:100320000E0E1EC0DBFF0F0E1FC0DBFF100E20C025
:10033000DBFF0E0EDBCFE6FF0F0EDBCFE6FF100E6E
:10034000DBCFE6FFD4EC11F0E552E552E552130E97
:1003500007C0DBFF140E08C0DBFF060EDB5005E014
:10036000130EDFEC05F001E26ADB03EC06F002E2BB
:10037000130E37DBC6EC05F006E0040EDFEC05F0EB
:1003800002E2050E2EDB030EDBB005D0FCDA01E045
:10039000D7D2080EDB6A090EDB6A0E0EDBCFF6FF42
:1003A0000F0EDBCFF7FF100EDBCFF8FF0800F55084
:1003B000DF6EDF5014E009EC06F011E218EC06F0F5
:1003C00003E11F1C01E1BCD2BBDB01E3DB2A090E08
:1003D000DB2AD9500E0FE96E000ECBDBE7D7D3DA5C
:1003E00001E1B4D2ADD2C6DA110EEECFDBFF120EB0
:1003F000EDCFDBFF110EDBCFE6FF120EDBCFE6FF0A
:10040000C6EC11F0E552E552130EF3CFDBFF140EEC
:10041000F4CFDBFF060EDB5004E0130ED0DB01E26D
:100420000EDB03EC06F002E2130EDBDAAFDB05E0D5
:10043000040EC5DB02E2050ED4DA030EDBB005D0F4
:10044000A2DA01E07DD2080EDB6A090EDB6A110E2A
:10045000DBCFE9FF120EDBCFEAFFEFCFDFFFDF508C
:1004600014E0D7DB12E2E4DB03E11F1C01E168D2F8
:1004700067DB01E3DB2A090EDB2A110EDB2ADBCF67
:10048000E9FF120EE8E3DB2AE6D77DDA01E15ED26E
:1004900057D2030EDB8E070EDB0410E195DB040E52
:1004A0005ADB0A0EEECFDBFF0B0EEECFDBFF0C0E9E
:1004B000EECFDBFF0D0EEECFDBFF6CD0070EDB5077
:1004C00003082CE1030EDBAE0DD0B2DA020E76DAB1
:1004D000EFCF1EF01F6A206A216A1EAE39D01F6856
:1004E000206835D0F70EDBCF1FF0F80EDBCF20F001
:1004F000020E1F5E000E205AF70E1FC0DBFFF80E23
:1005000020C0DBFF1FC0E9FF20C0EAFFEFCF1EF0D5
:100510000A0E1EC0DBFF0B0EDB6A38D0070EDB5065
:10052000020809E1030EDBAE04D059DB20AE10D087
:100530000ED055DB0DD0030EDBAE12D079DA020EF1
:100540003DDAF9DA206A216A1FAE02D020682168FC
:10055000E2DA0C0E20C0DBFF0D0E21C0DBFF1AD04B
:10056000F70EDBCF20F0F80EDBCF21F0020E205E7D
:10057000000E215AF70E20C0DBFFF80E21C0DBFF72
:1005800020C0E9FF21C0EAFFD6DAC5DA0C0EDB6A2B
:100590000D0EDB6A060EDB5005E1010EF36E050E53
:1005A000F3CFDBFF150EDB6A160EDB6AD950370F6F
:1005B0001E6E000EDA201F6E390E1EC0DBFF3A0ED3
:1005C0001FC0DBFF380EDB6A080EDB6A0A0EAEDAEC
:1005D000DF50780A12E0200A10E0280A0CE0200A16
:1005E0000AE03F0A06E00D0A02E0200A08E1020ED6
:1005F00005D0080E03D0080EDF26100E97DA030E82
:10060000DBBE02D0DB92DB94DB50800B24E08ADA85
:10061000D890030EEB50000A08E6000EEE5C000EC8
:10062000EE58000EEE58000EEE5815E213DA0B6885
:100630000C680D680E688EEC11F00A0E02C0DBFF2C
:100640000B0E03C0DBFF0C0E04C0DBFF0D0E05C05C
:10065000DBFF2D0E08D0030EDBA202D02B0E03D041
:10066000DBA408D0200EF36E170EF3CFDBFF150EC0
:10067000DB2A02D0170EDB6A050EDB5003E1B7D987
:1006800001E189D0120E1E6E250E1F6E000E206E27
:10069000070EDBCF21F0226A236A246A21C00BF007
:1006A00022C00CF023C00DF024C00EF0D3D927ECEB
:1006B00012F01E500224F36E1F500320F46E2050DF
:1006C0000420F86EF4CFF7FFF3CFF6FF0800090E11
:1006D000F5CFDBFF580EDF5C0FE1610EF36E090E04
:1006E0007BD90AE3200E1E6E090EDBCFE7FF1E50FA
:1006F000E75E090EE7CFDBFF070EDBCF1EF01F6AB8
:10070000206A216A0FDA1EC00BF01FC00CF020C057
:100710000DF021C00EF0EECF06F0EECF07F0EECFD9
:1007200008F0EFCF09F027EC12F009C0EDFF08C088
:10073000EDFF07C0EDFF06C0EFFF390EDBCFE9FF8D
:10074000DB063A0EDBCFEAFF01E2DB06090EDBCF68
:10075000EFFF150EDB2A4BD995E1030EDBA61DD06A
:100760006F0EDF5C06E1C1D918E3150EDB285BDAFA
:1007700014D0780EDF5C09E0580EDF5C06E0620EF4
:10078000DF5C03E0420EDF5C08E1020EF36E160E42
:10079000F3CFDBFF02D0150EDB6A030EDB50100B2C
:1007A0000EE0040EDBCF1EF0050EDB50D8801E5489
:1007B00006E2060EDB5003E1040EDB5034DA95D975
:1007C0000AE2050EDBCFE7FF150EDB50E75E050EF4
:1007D000E7CFDBFF02D0050EDB6A040EDBCF1EF095
:1007E000160E45D9D8801E5414E2160EDBCFE6FF54
:1007F000150EDBCFE6FF040EDBCFE6FF050EDB5068
:10080000E552E75CE552D880E754E552D880E754DA
:100810005FD9030EDB50010B0BE1080EDB5008E043
:10082000B2D801E08DD0080EDB50BED8080EDB6ACE
:10083000170EDB5007E088D9170EF1D903E11F1C12
:1008400001E17ED0160EDB5016E07ED9300EE66E4A
:100850009FD802E11F1C74E077D9DFCFE6FF0CECD4
:1008600011F0E552E552E552F4CF1FF00001F31C00
:1008700002E11F1C65E0050EDBCF1EF0160EDB50FB
:10088000D8801E5409E2050EDBCFE7FF160EDB50C1
:10089000E75E050EE7CFDBFF300EE66E050ECBD927
:1008A0004FE1390EDB2ADBCFE9FF3A0E01E3DB2A09
:1008B000DBCFEAFF090EEFCFDBFFDB500EE044D9C0
:1008C000090EADD902E11F1C3BE0390EDB2ADBCF5C
:1008D000E9FF3A0EEDE3DB2AEBD755D831E1160EEE
:1008E000DBCFE6FF080EC3D8E552E7245DD82ED053
:1008F000070EDB50030A1CE0010A14E0030A07E0BC
:100900007BD9DBCFEEFF020EDBCFEDFF1FD0F5D89A
:10091000236A21AE02D0226823682CD8BCD823C019
:10092000EEFF14D0EAD821BE226824D8B4D80ED065
:1009300063D9DBCFEFFF0AD07BD905E11F1C03E1B0
:10094000F368F46810D0FCD801E3DB2A79D945EFCD
:1009500000F0010EDBCF1EF0020EDBCF1FF01EC039
:10096000F3FF1FC0F4FF3B0EE15C02E2E16AE552D7
:10097000E16ECBD029D9020EABEF05F061D90800AA
:10098000F550DF6E1200200EE66E080E1BEF06F02B
:100990000CEC11F0E552E552E552F3CF1EF0F4CF26
:1009A0001FF00001F31C12001E6E1F6AD950010FC8
:1009B0004DD91E50EE261F50ED221200225E000E71
:1009C000235AF70E22C0DBFFF80E23C0DBFF22C044
:1009D000E9FF23C0EAFF1200DBCFF4FFF350F45C21
:1009E0001200DB50E76E040EE7CFDBFF12000A0EA9
:1009F000DBCF1EF00B0EDBCF1FF00C0EDBCF20F099
:100A00000D0EDBCF21F01E501F1020102110120000
:100A1000130EEECFDBFF140EEDCFDBFF130EDBCF9B
:100A20001EF0140EDBCF1FF00001800E1F14120009
:100A3000F70EDBCF22F0F80EDBCF23F01200050E0D
:100A4000DB50E66ED950130F01D9E552E750EE6E38
:100A5000ED6A12000A0EDBCF06F00B0EDBCF07F0BB
:100A60000C0EDBCF08F00D0EDBCF09F01200DBCF50
:100A7000E6FF150EDBCFE6FF050EDB50E552E7245F
:100A8000E552E7241200DB50CED8010EF36E060EBD
:100A9000F3CFDBFF1200EE50EFCFEAFFE96E20C08C
:100AA000EEFF21C0EEFF22C0EEFF1200D9CFE6FF1D
:100AB000DACFE6FFE1CFD9FFE2CFDAFF1200DFCFD6
:100AC000E6FFE66A4BEC12F0E552E552F3501200F5
:100AD000E76E080EE7CFDBFF1200EECF1EF0EECF81
:100AE0001FF0EFCF20F0216A1200050EDBCF1EF0C1
:100AF000150EDB50D8801E541200010EDBCF20F003
:100B0000020EDBCF21F0226A1200E552E5CFDAFFB8
:100B1000E7CFD9FF12000A0E1EC0DBFF0B0E1FC06D
:100B2000DBFF1200D9500A0F26EF06F0F36E070E16
:100B3000F3CFDBFF1200EECF1EF0EFCF1FF012005D
:100B4000010EDB2A020E1200FC0EDBCFE6FFFD0ECB
:100B5000DBCFE6FF12001E5E000E1F5AF70E1EC00E
:100B6000DBFFF80E1FC0DBFF1EC0E9FF1FC0EAFF5E
:100B70001200DA20EA6EEF2AEECFF6FF000EEF2227
:100B8000EECFF7FFEF22EECFF8FF1200040EDBCF1F
:100B9000E6FF130EDB50E552E75C9ADFDB5004DF23
:100BA000060EDB501200090EDB500A0DF350DF2455
:100BB000D00FE76E090EE7CFDBFFBEEF04F0DB508E
:100BC000F36E050EECEF04F0F70EDBCF1EF0F80E1F
:100BD000DBCF1FF01200DFCFE6FFC8EF04F028DF05
:100BE000030EECDE6DEF05F01AEC00F0E552E55275
:100BF000E552E55200091200BDDEEE50EFCFEAFFEC
:100C0000E96E010E1200130EDB50F36E040EECEFD2
:100C100004F0040EDB50F36E090EECEF04F0DBCFB2
:100C2000E6FFC8EF04F0E76E050EE7CFDBFF12002A
:100C30008BDFEBEF05F0DBCFE6FF86DFF4EF05F0AF
:100C4000D950F90FE96EFF0EB9EF05F0E96E000E0D
:060C5000DA20EA6E12003A
:0A0C5600520ED36ED3A4FED7120095
:100C60000F01386B896A92683A6B8B6AF00E946E4A
:100C7000396B8A6A936E1200400EB86E260EAC6E07
:100C8000900EAB6E190EAF6EB06A1200D9CFE6FFB0
:100C9000E1CFD9FFF294FD0EDBCF1EF0FE0EDBCFCD
:100CA0001FF01FC01EF01F6A1E50D76EFD0EDB50D6
:100CB000D66EE552E7CFD9FF1200D9CFE6FFE1CFDC
:100CC000D9FFFD0EDBCFE6FFFE0EDBCFE6FFDEDF5A
:100CD000E552E552900ED56EE552E7CFD9FF1200EE
:100CE000010EC26EC16AA90EC06E1200F194F29498
:100CF000F28A9F9A9E9A9D8AD09EC00EF21212008E
:100D0000D9CFE6FFE1CFD9FF020EE126DE6ADD6A28
:100D1000DE6ADD6ADECF1EF0DDCF1FF0D8901F50F7
:100D200004E60A0E1E5C000E1F5820E2FD0EDBCF0B
:100D3000E9FFFE0EDBCFEAFFE9CF1EF0EACF1FF09E
:100D4000020E086E096ADECF0DF0DDCF0EF08FECDB
:100D50000FF01E500624E96E1F500720EA6EEE6A5F
:100D6000ED6ADF2A010E01E3DB2AD4D7FD0EDBCFCB
:100D7000E9FFFE0EDBCFEAFF140EEB6A150EEB6AFD
:100D8000FD0EDBCFE9FFFE0EDBCFEAFF1A0EE926F0
:100D9000000EEA22EF6AFD0EDBCFE9FFFE0EDBCF8D
:100DA000EAFF1B0EE926000EEA22EF6A020EE15C62
:100DB00002E2E16AE552E16EE552E7CFD9FF1200A7
:100DC000D9CFE6FFE1CFD9FF020EE126DE6ADD6A68
:100DD00042DF46DFB00EE66E3C0EE66E6EDFE55299
:100DE000E5524ADF7DDF82DFDE6ADD6ADECF1EF09C
:100DF000DDCF1FF0D8901F5004E6030E1E5C000EDE
:100E00001F586DE2DECF1EF0DDCF1FF01C0E1F025B
:100E1000F3CF1FF01E02F3CF1EF0F4501F26600E1A
:100E20001E26000E1F221EC0E6FF1FC0E6FF68DF61
:100E3000E552E552DECFE9FFDDCFEAFFD890E93693
:100E4000EA36F70EE926000EEA22EECF1EF0EFCFCB
:100E50001FF0DECFE9FFDDCFEAFF1C0EEA02F3CF81
:100E6000EAFFE902F3CFE9FFF450EA26600EE92633
:100E7000000EEA22160EE926000EEA221EC0EEFF40
:100E80001FC0EDFFDECFE9FFDDCFEAFFD890E936E6
:100E9000EA36F10EE926000EEA22EECF1EF0EFCF81
:100EA0001FF0DECFE9FFDDCFEAFF1C0EEA02F3CF31
:100EB000EAFFE902F3CFE9FFF450EA26600EE926E3
:100EC000000EEA22180EE926000EEA221EC0EEFFEE
:100ED0001FC0EDFFDF2A010E01E3DB2A87D7B60E24
:100EE000E66E000EE66E85D9E552E552B40EE66E6A
:100EF000000EE66E66D9E552E552C20EE66E000EB1
:100F0000E66EB0D9E552E552BB0EE66E000EE66E17
:100F1000A9D9E552E552C90EE66E000EE66EE9D992
:100F2000E552E552D50EE66E000EE66EE2D9E552C8
:100F3000E552020EE15C02E2E16AE552E16EE55241
:100F4000E7CFD9FF1200D9CFE6FFE1CFD9FFFE0EE0
:100F5000DB501F0BF36EF346F346830EC214F310FF
:100F6000C26EC282C2B2FED7C3CFF3FFC4CFF4FFBA
:100F700000D0E552E7CFD9FF1200D9CFE6FFE1CF8D
:100F8000D9FF020EE126040E1E6E230E1F6E206A8C
:100F90001EC0E6FF1FC0E6FF20C0E6FFC0EC10F059
:100FA000E552E552E552C2C01EF01F6A1EBE1F6820
:100FB0001EC0E6FF1FC0E6FFF80E206E220E216E57
:100FC000226A20C0E6FF21C0E6FF22C0E6FFC0EC97
:100FD00010F0236E050EE15E2350C3C01EF01F6AA1
:100FE0001EBE1F681EC0E6FF1FC0E6FFE70E206E94
:100FF000220E216E226A20C0E6FF21C0E6FF22C039
:10100000E6FFC0EC10F0236E050EE15E2350DE6AB1
:10101000DD6ADECF1EF0DDCF1FF0C3C020F0216AF5
:1010200020BE21681F502118E8AE02D0213404D020
:1010300020501E5C21501F5852E20001D3511CE089
:10104000D4C01EF01F6A1EBE1F68DF501E1803E1C9
:10105000DE52DD501F1810E1DE0E1E6E220E1F6ED6
:10106000206A1EC0E6FF1FC0E6FF20C0E6FFC0ECFE
:1010700010F0E552E552E552DECFE9FFDDCFEAFFA1
:10108000C90EE926000EEA22EFCF1EF01F6A1EBE2F
:101090001F681EC0E6FF1FC0E6FFDECF20F0DDCFD9
:1010A00021F0010E2026000E212220C0E6FF21C0E3
:1010B000E6FFCC0E226E220E236E246A22C0E6FFCB
:1010C00023C0E6FF24C0E6FFC0EC10F0256E070E3B
:1010D000E15E2550DF2A010E01E3DB2A9AD7C4C066
:1010E0001EF01F6A1EBE1F681EC0E6FF1FC0E6FF7F
:1010F000BF0E206E220E216E226A20C0E6FF21C0A4
:10110000E6FF22C0E6FFC0EC10F0236E050EE15EA4
:101110002350C5C01EF01F6A1EBE1F681EC0E6FF1A
:101120001FC0E6FFB30E206E220E216E226A20C081
:10113000E6FF21C0E6FF22C0E6FFC0EC10F0236E00
:10114000050EE15E2350C6C01EF01F6A1EBE1F685A
:101150001EC0E6FF1FC0E6FFA80E206E220E216E05
:10116000226A20C0E6FF21C0E6FF22C0E6FFC0ECF5
:1011700010F0236E050EE15E2350C7C01EF01F6AFB
:101180001EBE1F681EC0E6FF1FC0E6FF9C0E206E3D
:10119000220E216E226A20C0E6FF21C0E6FF22C097
:1011A000E6FFC0EC10F0236E050EE15E2350020E48
:1011B000E15C02E2E16AE552E16EE552E7CFD9FF78
:1011C0001200D9CFE6FFE1CFD9FFFD0EDBCFE9FF5B
:1011D000FE0EDBCFEAFFEF6AFD0EDBCFE9FFFE0E6E
:1011E000DBCFEAFFEE52F00EEF6EE552E7CFD9FF0C
:1011F0001200D9CFE6FFE1CFD9FFFD0EDBCFE9FF2B
:10120000FE0EDBCFEAFF010EEF6EFD0EDBCFE9FF36
:10121000FE0EDBCFEAFFEE52EF6AFD0EDBCFE9FFF9
:10122000FE0EDBCFEAFF020EE926000EEA22EF6A8D
:10123000FD0EDBCFE9FFFE0EDBCFEAFF030EE92652
:10124000000EEA22EF6AFD0EDBCFE9FFFE0EDBCFD8
:10125000EAFF040EE926000EEA22EF6AE552E7CF24
:10126000D9FF1200D9CFE6FFE1CFD9FFFD0EDBCFCA
:10127000E9FFFE0EDBCFEAFF010EEF6EFD0EDBCFC6
:10128000E9FFFE0EDBCFEAFFEE52020EEF6EFD0E1F
:10129000DBCFE9FFFE0EDBCFEAFF020EE926000EF0
:1012A000EA22030EEF6EFD0EDBCFE9FFFE0EDBCF71
:1012B000EAFF030EE926000EEA22EF6AFD0EDBCFFD
:1012C000E9FFFE0EDBCFEAFF040EE926000EEA225C
:1012D000EF6AFD0EDBCFE9FFFE0EDBCFEAFF050E66
:1012E000E926000EEA22140EEF6EE552E7CFD9FF91
:1012F0001200D9CFE6FFE1CFD9FF020EE126FD0EA5
:10130000DBCFE9FFFE0EDBCFEAFF0B0EE926000E76
:10131000EA22010EEF6EFD0EDBCFE9FFFE0EDBCF02
:10132000EAFF0A0EE926000EEA22EF6ADE6ADD6AAB
:10133000DECF1EF0DDCF1FF0D8901F5004E60A0E5E
:101340001E5C000E1F5816E2FD0EDBCFE9FFFE0EFD
:10135000DBCFEAFFE9CF1EF0EACF1FF0DE501E24FC
:10136000E96EDD501F20EA6EEF6ADF2A010E01E30D
:10137000DB2ADED7020EE15C02E2E16AE552E16EB1
:10138000E552E7CFD9FF1200020E0001C25D15E160
:101390000001D42B0001C3510001E76ED419E8AE5F
:1013A00002D0E73402D0E750D45D03E2010ED36FE0
:1013B00003D0D36B0001C22B47D0C22B060EE76EC1
:1013C000C219E8AE02D0C23503D0E750D880C2556A
:1013D00002E2010EC26FC20537E1C2C0BBF0C3C05A
:1013E000BCF0C4C0BDF0C5C0BEF0C6C0BFF0C7C031
:1013F000C0F0010EC86F0001E06B0001C351000195
:10140000E76EE019E8AE02D0E73402D0E750E05DC5
:1014100019E2E0C0E9FFEA6AE9BEEA68C90EE92616
:10142000000EEA22EF50E66EE0C0E9FFEA6AE9BE8C
:10143000EA68D50EE926000EEA22E552E750EF6E83
:10144000E02BDBD70001D469120012000001D35158
:101450002BE0D4C0E9FFEA6AE9BEEA68C90EE926D2
:10146000000EEA22EF2AD4C0E9FFEA6AE9BEEA6880
:10147000C90EE926000EEA22EFCF1EF0170EE76E26
:101480001E18E8AE02D01E3403D0E750D8801E5498
:101490000AE2D4C0E9FFEA6AE9BEEA68C90EE926B1
:1014A000000EEA22EF6A56D00001C251060A43E05C
:1014B000030A33E0010A23E0070A12E0010A01E00F
:1014C00049D0C32B0A0EE76EC319E8AE02D0C3356C
:1014D00003D0E750D880C35502E2010EC36F3AD063
:1014E000C42B050EE76EC419E8AE02D0C43503D094
:1014F000E750D880C45502E2010EC46F2BD0C52B33
:10150000170EE76EC519E8AE02D0C53503D0E75017
:10151000D880C55501E2C56B1DD0C62B3B0EE76ECA
:10152000C619E8AE02D0C63503D0E750D880C655FC
:1015300001E2C66B0FD0C72B190EE76EC719E8AED4
:1015400002D0C73503D0E750D880C75502E2120E4B
:10155000C76F00D012000001D35123E0D4C0E9FFCF
:10156000EA6AE9BEEA68C90EE926000EEA22EF0639
:10157000D4C0E9FFEA6AE9BEEA68C90EE926000EAE
:10158000EA22EFCF1EF01E340BE3D4C0E9FFEA6A73
:10159000E9BEEA68C90EE926000EEA22170EEF6ED0
:1015A00043D00001C251060A31E0030A29E0010AD2
:1015B00021E0070A11E0010A01E036D0C307010E5D
:1015C000E76EC319E8AE02D0E73402D0E750C35D3E
:1015D00002E20A0EC36F28D0C407010EE76EC419D9
:1015E000E8AE02D0E73402D0E750C45D02E2050E57
:1015F000C46F1AD0C507C53502E3170EC56F14D0E6
:10160000C607C63502E33B0EC66F0ED0C707120EE3
:10161000E76EC719E8AE02D0E73402D0E750C75DE5
:0A16200002E2190EC76F00D012009D
:06162A00DACFE4FFE2CF7D
:10163000DAFFE9CFE4FFEACFE4FFF6CFE4FFF7CF2C
:10164000E4FFF5CFE4FFF3CFE4FFF4CFE4FFFACFFC
:10165000E4FF00EE00F0140EE80403E3EECFE4FF35
:10166000FBD700EE1EF0080EE80403E3EECFE4FF24
:10167000FBD7E652F2A48BD2B00EE66E3C0EE66EBD
:1016800046EC06F0E552E5520101002B050EE76E2F
:101690000019E8AE02D0E73402D0E750005D01E265
:1016A00076D2006B016B030EE76E0119E8AE02D033
:1016B000E73402D0E750015D01E366D201C1E6FFE5
:1016C000A3EC07F0E552F3CF18F0F4CF19F001C105
:1016D000E9FFEA6AE9BEEA681C0EEA02F3CFEAFF14
:1016E000E902F3CFE9FFF450EA26600EE926000E86
:1016F000EA22E9CF14F0EACF15F001C1E9FFEA6A66
:10170000E9BEEA681C0EEA02F3CFEAFFE902F3CF72
:10171000E9FFF450EA26600EE926000EEA221A0ECE
:10172000E926000EEA22EFCF16F0176A16BE1768F8
:10173000D8901636173614501624E96E1550172017
:10174000EA6E18C0EEFF19C0EDFF01C1E9FFEA6AB9
:10175000E9BEEA681C0EEA02F3CFEAFFE902F3CF22
:10176000E9FFF450EA26600EE926000EEA221A0E7E
:10177000E926000EEA22EF2A01C1E9FFEA6AE9BE82
:10178000EA681C0EEA02F3CFEAFFE902F3CFE9FFB1
:10179000F450EA26600EE926000EEA221A0EE92627
:1017A000000EEA22EFCF14F00A0EE76E1418E8AE2E
:1017B00002D0E73402D0E750145C2FE301C1E9FF07
:1017C000EA6AE9BEEA681C0EEA02F3CFEAFFE90220
:1017D000F3CFE9FFF450EA26600EE926000EEA2274
:1017E0001A0EE926000EEA22EF6A01C1E9FFEA6A51
:1017F000E9BEEA681C0EEA02F3CFEAFFE902F3CF82
:10180000E9FFF450EA26600EE926000EEA221B0EDC
:10181000E926000EEA22010EEF6E01C1E9FFEA6A35
:10182000E9BEEA681C0EEA02F3CFEAFFE902F3CF51
:10183000E9FFF450EA26600EE926000EEA221B0EAC
:10184000E926000EEA22EF5001E19BD10101086B6D
:10185000096B0A6B0B6B026B036B046B056B066BFE
:10186000076B0A0E07AF02D0D89003D0065D000EBA
:1018700007593CE201C1E9FFEA6AE9BEEA681C0EC9
:10188000EA02F3CFEAFFE902F3CFE9FFF450EA26D8
:10189000600EE926000EEA22E9CF18F0EACF19F02F
:1018A000020E086E096A06C10DF007C10EF08FEC3A
:1018B0000FF018500624E96E19500720EA6EEECF9B
:1018C00014F0EFCF15F0166A176A15AE02D016683D
:1018D00017681450010102271550032316500423E2
:1018E00017500523062B000E0723BBD702C114F0A7
:1018F00003C115F004C116F005C117F00A0E0B6EF6
:101900000C6A0D6A0E6A14C006F015C007F016C006
:1019100008F017C009F05BEC0FF006C014F007C028
:1019200015F008C016F009C017F001C1E9FFEA6A16
:10193000E9BEEA681C0EEA02F3CFEAFFE902F3CF40
:10194000E9FFF450EA26600EE926000EEA22140EA2
:10195000E926000EEA2214C0EEFF15C0EDFF01C11A
:10196000E9FFEA6AE9BEEA681C0EEA02F3CFEAFF81
:10197000E902F3CFE9FFF450EA26600EE926000EF3
:10198000EA22140EE926000EEA22EECF1CF0EFCF79
:101990001DF01CC008F01DC009F0F1EC0DF007C0EF
:1019A00018F008C019F009C01AF00AC01BF00C6A40
:1019B0000D6AA00E0E6E400E0F6E18C007F019C013
:1019C00008F01AC009F01BC00AF057EC0EF007C06F
:1019D00014F008C015F009C016F00AC017F00C6A20
:1019E0000D6A800E0E6E440E0F6E14C007F015C007
:1019F00008F016C009F017C00AF004EC0EF007C09A
:101A000008F108C009F109C00AF10AC00BF101018F
:101A10000151020A01E182D0030A4DE0010A01E00E
:101A2000B0D00C6A0D6A0E6A3F0E0F6E08C107F047
:101A300009C108F00AC109F00BC10AF0C4EC0EF0AC
:101A400007C008F108C009F109C00AF10AC00BF18A
:101A50000A0E0C6ED70E0D6E230E0E6E3C0E0F6E20
:101A600008C107F009C108F00AC109F00BC10AF06A
:101A700004EC0EF0BCEC0FF008C014F009C015F037
:101A800001C1E9FFEA6AE9BEEA681C0EEA02F3CF87
:101A9000EAFFE902F3CFE9FFF450EA26600EE926F7
:101AA000000EEA22140EE926000EEA2214C0EEFF10
:101AB00015C0EDFF66D0CD0E0C6ECC0E0D6E4C0E2B
:101AC0000E6E3D0E0F6E08C107F009C108F00AC185
:101AD00009F00BC10AF004EC0EF0BCEC0FF008C0EA
:101AE00014F009C015F001C1E9FFEA6AE9BEEA682D
:101AF0001C0EEA02F3CFEAFFE902F3CFE9FFF4504C
:101B0000EA26600EE926000EEA22140EE926000EEF
:101B1000EA2214C0EEFF15C0EDFF33D09C0E0C6E10
:101B20005B0E0D6EB60E0E6E390E0F6E08C107F00D
:101B300009C108F00AC109F00BC10AF004EC0EF06B
:101B4000BCEC0FF008C014F009C015F001C1E9FFAA
:101B5000EA6AE9BEEA681C0EEA02F3CFEAFFE9028C
:101B6000F3CFE9FFF450EA26600EE926000EEA22E0
:101B7000140EE926000EEA2214C0EEFF15C0EDFF98
:101B800000D00101012B8FD5BDEC07F000D09EAA3B
:101B900000D0C00EF212E55200EE25F0080EE80467
:101BA00003E3E5CFEDFFFBD700EE13F0140EE804DE
:101BB00003E3E5CFEDFFFBD7E5CFFAFFE5CFF4FF79
:101BC000E5CFF3FFE5CFF5FFE5CFF7FFE5CFF6FF74
:0E1BD000E5CFEAFFE5CFE9FFE5CFDAFF110030
:021BDE00019E66
:101BE00008D0019E09AE05D0086C091EE86A0922DA
:101BF000018E09C003F008C002F0136A126A8E0E4B
:101C0000046E056A07EF10F0016A43EC10F05BEC1C
:101C100010F001B6EBEF0FF001A205D001BAEBEF27
:101C20000FF0F2EF0FF001BAFEEF0FF001A005D0B8
:101C300001B8EBEF0FF0FEEF0FF001B8F2EF0FF08D
:101C4000056A7F0E0A24046EE86A05220F50045EBE
:101C5000E86A055A1A0E106E0A6A126A136A026A54
:101C6000036A0C50075E0D50085A0E50095A000EB8
:101C70000A5A09E70C5007260D5008220E50092277
:101C8000000E0A2201D0128AD8900736083609368B
:101C90000A36D8901236133602360336102EE1D7A4
:101CA000095008100710D8A4128A07EF10F0016A33
:101CB00043EC10F05BEC10F001B6EBEF0FF001A27B
:101CC00005D001B8EBEF0FF0F2EF0FF001AA05D04D
:101CD00001B0EBEF0FF0F2EF0FF001B002D001A86E
:101CE00002D0FEEF0FF0056A0F500A24046EE86A76
:101CF00005227E0E045EE86A055A126A136A026AB9
:101D0000036A0E500902F4CF03F0F3CF02F00D5036
:101D10000902F3501326F4500222000E03220E5043
:101D20000802F3501326F4500222000E03220C5036
:101D30000902F3501226F4501322000E022203224D
:101D40000D500802F3501226F4501322000E022206
:101D500003220E500702F3501226F4501322000EF5
:101D6000022203220C500802F4501226000E132205
:101D7000022203220D500702F4501226000E1322F5
:101D80000222032207EF10F00F7E016A43EC10F0ED
:101D90005BEC10F001B6EBEF0FF001A20AD001AA44
:101DA00003D001BEEBEF0FF001A4F7EF0FF0F4EF5B
:101DB0000FF001AA05D001ACF7EF0FF0F4EF0FF030
:101DC00001A00AD001A808D001BE04D001A402D00D
:101DD00000EF10F004EF10F0126A056A0F500A5C71
:101DE000116E10E307C013F008C002F009C003F041
:101DF0000AC010F00CC007F00DC008F00EC009F0CA
:101E0000013A09D00CC013F00DC002F00EC003F06F
:101E10000FC010F0116C019E01BC018E10C004F0C7
:101E200001B033EF10F01A0E116033EF10F0046AB6
:101E30000A6A01A408D0076C081E091E0A1EE86A77
:101E4000082209220A2201AC08D0136C021E031ECC
:101E5000041EE86A022203220422066A115207E0E5
:101E60000A340932083207320632112EF9D70750E8
:101E7000132608500222095003220A50042206C0E9
:101E800012F0019E04AE0BD0126C131E021E031E34
:101E9000041EE86A1322022203220422018E04A0F7
:101EA00006D0D8800332023213321232102A10C008
:101EB00004F007EF10F0006AE86A0EAE68EF0FF06A
:101EC0000B6C0C1E0D1E0E1E0C220D220E22001E6F
:101ED00009AE73EF0FF0066C071E081E091E0722DD
:101EE00008220922001E27EC12F009BE8AEF0FF02B
:101EF00000AE000C066C071E081E091EE86A0722C9
:101F000008220922026C031E041E051E032204225D
:101F10000522000C00BE7AEF0FF00188FF0C09C00B
:101F200013F008C012F008500D02F4CF07F0F3CF01
:101F300006F009500E02F4CF09F0F3CF08F00D02BD
:101F4000F3500726F4500822E86A092212500E02C4
:101F5000F3500726F4500822E86A09220EAEB5EFC6
:101F60000FF01250085E1350095A13AE000C0D50BA
:101F7000085E0E50095A000C016A43EC10F001B6DD
:101F8000C6EF0FF001A20ED001B405D07F0E096E8E
:101F9000FF0E086E1FD0800E096E086A1BD0096AFA
:101FA000086A18D001B0FBD78F0E0A60EDD77E0EFD
:101FB0000A64F5D78E0E0A5C05E0D8900932083223
:101FC0000A2AF8D701A406D0086C091EE86A09227B
:101FD00009AEE5D712007F0E0A6EFF0E096E086E7D
:101FE000076E12007F0E01BEFF0E0A6E02D07F0E3A
:101FF0000A6E800E096E086A076AF3D701AE04D034
:10200000800E0A6E096AF7D70A6A096AF4D7035084
:10201000021013101210F8E005BEF0D703BE0CD06A
:1020200004500510EBE0D890123613360236033612
:102030000406D8A00506F2D70550D4E10428D2E062
:1020400012AE11D07F0E121402E113A00CD0132A8D
:10205000E86A0222032207E3D880033202321332F5
:10206000042A0428BFE00450C9E013C007F002C0EE
:1020700008F00334096E04300A6E09320A9E01BE6C
:102080000A8EF1EF0FF009360A3602E30184017E71
:1020900006E101800A6A096A086A076A12000A28CA
:1020A00003E0D88009321200D890093202E101829F
:1020B0001200018612000E360F3602E3018C017EFB
:1020C00006E101880F6A0E6A0D6A0C6A12000F2879
:1020D00003E0D8800E321200D8900E32EAE1018A75
:0220E0001200EC
:0E20E2000E0EF66E000EF76E000EF86E010187
:1020F0000900F550116F0900F550126F03E11167E7
:1021000001D03DD00900F5500C6F0900F5500D6F5E
:102110000900F5500E6F09000900F550E96E09003D
:10212000F550EA6E090009000900F5500F6F09002B
:10213000F550106F09000900F6CF13F1F7CF14F135
:10214000F8CF15F10CC1F6FF0DC1F7FF0EC1F8FF76
:1021500001010F5302E1105307E00900F550EE6E44
:102160000F07F8E21007F9D713C1F6FF14C1F7FF04
:1021700015C1F8FF01011107000E125BBFD7120055
:10218000D9CFE6FFDACFE6FFE1CFD9FFE2CFDAFF22
:10219000E652E652E652E652D950FB0F1E6EFF0E93
:1021A000DA201F6E1EC0DEFFDD6EDECFE6FFDDCF64
:1021B000E6FFFB0EDBCFE6FFFC0EDBCFE6FFFD0EFE
:1021C000DBCFE6FFFDC0E6FFFEC0E6FF30EC00F02F
:1021D0001E6E070EE15C02E2E16AE552E16E1E50FE
:1021E000020EF3CFDBFF030EF4CFDBFF020EDBCFDB
:1021F0001EF0030EDBCF1FF01EC0F3FF1FC0F4FF65
:10220000040EE15C02E2E16AE552E16EE552E5CFDF
:08221000DAFFE7CFD9FF12004D
:08221800D9CFE6FFDACFE6FFA3
:10222000E1CFD9FFE2CFDAFFFB0EDBCF1EF0FC0ED1
:10223000DBCF1FF00001800E1F141AE1FB0EDBCF75
:10224000E9FFFC0EDBCFEAFFEECFF3FFEDCFF4FFAB
:10225000EE2A000EEF22F3CFE9FFF4CFEAFFFD0EE6
:10226000DBCFEFFFEF501F6AF36E1FC0F4FF10D0FB
:10227000FB0EDB50FE0806E1FD0EDBCFE6FF7BEC3C
:1022800012F005D0FD0EDBCFE6FF03EC00F0E552C7
:0C229000E552E5CFDAFFE7CFD9FF1200DE
:04229C000A0D54656E
:1022A0006D703A20253369000A0D4D696E3A20257C
:1022B0003369000A0D486F75723A20253369005062
:1022C0006F7274696F6E3A202533690053686564D4
:1022D000756C655F25693A202533690A0D005365E1
:1022E0007474696E6720000A0D53686564756C65C7
:1022F0003A202533690A0D000A0D4D6F64653A20B6
:10230000253369001B5B324A1B5B48506574487576
:0B23100062205374617475730A0D00A5
:04231C0006500B025A
:10232000F3CF02F0F4CF03F00C02F3500326000EBB
:10233000F420046E06500D02F3500426000EF42023
:10234000056E06500E02F350052607500B02F3509F
:102350000326F4500422000E052207500C02F3500D
:102360000426F450052207500D02F35005260850AC
:102370000B02F3500426F450052208500C02F350CF
:0C238000052609500B02F3500526120040
:04238C00FE0EE3CF8F
:10239000E9FFFF0EE3CFEAFFF36AF46AEE5203E0CF
:1023A000F34AF42AFBD71200FF0EE3CFF8FFE55201
:1023B000FF0EE3CFF7FFE552FF0EE3CFF6FFE55246
:1023C000E66AE66AE66A0900F55209E0FD0EE32ACC
:1023D00005E1FE0EE32A02E1FF0EE32AF4D7FD0E2B
:1023E000E3CF07F0FE0EE3CF08F0FF0EE3CF09F0D6
:0223F0001200D9
:0E23F200E0EC06F0F00E80140001B46FB5515F
:10240000B45D1CE0F00EB45D19E0B4C0B5F0B45199
:10241000700A10E0C00A0BE0600A06E0300A01E032
:102420000CD0C4EC09F009D026EC0AF006D0ABECD5
:102430000AF003D025EC0AF000D005D0F00EB45D10
:0E24400002E1F00EB56FF2A400D0D5D7120065
:02244E00056A1D
:10245000046A036A026A200EE76ED89006360736D1
:102460000836093602360336043605360B50025C50
:102470000C5003580D5004580E50055809E30B50EA
:10248000025E0C50035A0D50045A0E50055A062A8B
:06249000E72EE4D7120064
:0A249600F36AF46AFF0EE124E96E18
:1024A000FF0EE220EA6EED6607D02F0EEF6404D037
:0A24B0003A0EEF6001D0F32A12008B
:0624BA00000EF36E00EEBF
:1024C00000F0060E01D81200EA6002D0EE6AFCD7D6
:0A24D000F350E9601200EE6AFCD739
:0624DA0015EE00F025EEF6
:1024E00000F0F86A019C71EC10F092EC12F0F9EC3B
:0624F00011F0FBD7120001
:0A24F600FF0EE350ACBA04D0AF6A49
:10250000AB8EAC8A949CACA2FED7AD6EF36EF46A2F
:022510001200B7
:0E251200303132333435363738396162636424
:03252000656600ED
:022524001200A3
:02252600FEFFB6
:082528000000000000000000AB
:0425300000000000A7
:0C25340001020408C20164007017CEFF11
:102540000000A60423003C00B0040F002800200374
:020000040030CA
:0100010028D6
:0100020003FA
:010003003CC0
:01000500BD3D
:010006008178
:00000001FF
