:020000040000FA
:0600000003EF11F01200F5
:0A000600020056220000C1000000B5
:100010001C00000054220000E70000000200000065
:100020004CEC05F0FB0EDBCFF3FFDB06F3500009D1
:100030000AE09AEC05F0FA0E05EC06F0F3E1151C67
:10004000F1E1010E01D0000E7BEF05F04CEC05F064
:100050003B0EE12402E3E168E652E16E010EDB6A49
:10006000020EDB6AF90EDBCFF6FFFA0EDBCFF7FFED
:10007000FB0EDBCFF8FF0800F550DF6EDF5002E12A
:100080009FEF04F0250EDF5C02E092EF04F0030E18
:10009000DB6A040EDB6A050EDB6A060EDB6A070EFE
:1000A000DB6AB4EC04F02D0EDF5C0CE02B0EDF5CA1
:1000B00009E0200EDF5C06E0230EDF5C03E0300E7B
:1000C000DF5C1AE1DF50300A14E0130A0FE0030A84
:1000D0000AE00B0A05E0060AE4E1030EDB80E1D743
:1000E000030EDB82DED7030EDB84DBD7030EDB8659
:1000F000D8D7030EDB88D5D72A0EDF5C1BE1B0EC26
:1001000004F0FEEC04F010E0030EDB8008680968E0
:10011000130EDBCF0DF0140EDBCF0EF061EC0EF002
:10012000040E06C0DBFF03D0130EE7EC04F0B4ECC2
:1001300004F00BD0090EDB6A55EC05F003E0C9ECC6
:1001400005F0FAD7090EE7EC04F0030EDBB0DB98FC
:100150002E0EDF5C1BE1B4EC04F02A0EDF5C0BE139
:10016000B0EC04F0FEEC04F003E1130E39EC05F002
:10017000B4EC04F00BD0090EDB6A55EC05F003E09B
:10018000C9EC05F0FAD7090E39EC05F0680EDF5C12
:1001900007E1B4EC04F0680EDF5C1DE1030E18D03B
:1001A000740EDF5C17E07A0EDF5C14E0480EDF5C53
:1001B00006E0540EDF5C03E05A0EDF5C02E1020E43
:1001C00007D06C0EDF5C03E06A0EDF5C04E1010E19
:1001D0008CEC05F0C9DBDF506E0A01E17FD31E0A0B
:1001E00001E192D1200A01E18FD13F0A01E149D119
:1001F0001A0A01E146D10D0A01E143D1200A01E1C9
:1002000040D13A0A01E13DD1200A01E13AD1260A62
:1002100001E135D10D0A01E132D11A0A01E1D9D04B
:10022000200A4AE0300A1FE0460A0EE0250A01E0F3
:1002300083D3D950F90FE96EFF0EDA20EA6E010E72
:10024000EE5E000EEE5AEE5A9AEC05F0250EE66EC2
:1002500095DB03E1151C01E169D396EC05F001E2A1
:100260006BD3DB2A69D3080EDB6A040EDB5001086E
:1002700006E2040EDB045EEC05F0DB508BDB080EBF
:10028000DB5009E0030EDB50010B05E172DB01E0FE
:100290004DD3080EDB6A64DBEFCFDFFF0EEC06F018
:1002A00003E1151C01E142D396EC05F001E3DB2AE2
:1002B00060DB01E141D33AD3070EDB5002080FE1C6
:1002C000DAEC05F0030EA1EC05F00E0EEECFDBFF2D
:1002D0000F0EEECFDBFF100EEECFDBFF20D0F70EC0
:1002E000DBCF17F0F80EDBCF18F0020E175E000E12
:1002F000185AF70E17C0DBFFF80E18C0DBFF17C047
:10030000E9FF18C0EAFF91EC05F0166A0E0E14C062
:10031000DBFF0F0E15C0DBFF100E16C0DBFF0E0E4D
:10032000DBCFE6FF0F0EDBCFE6FF100EDBCFE6FFE5
:1003300066EC10F0E552E552E552130E07C0DBFF04
:10034000140E08C0DBFF060EDB5005E0130ED5ECE3
:1003500005F001E26ADBF9EC05F002E2130E37DB8F
:10036000BCEC05F006E0040ED5EC05F002E2050E4B
:100370002EDB030EDBB005D0FCDA01E0D7D2080E8D
:10038000DB6A090EDB6A0E0EDBCFF6FF0F0EDBCF4A
:10039000F7FF100EDBCFF8FF0800F550DF6EDF50DF
:1003A00014E0FFEC05F011E20EEC06F003E1151C81
:1003B00001E1BCD2BBDB01E3DB2A090EDB2AD95009
:1003C0000E0FE96E000ECBDBE7D7D3DA01E1B4D232
:1003D000ADD2C6DA110EEECFDBFF120EEDCFDBFF92
:1003E000110EDBCFE6FF120EDBCFE6FF58EC10F06C
:1003F000E552E552130EF3CFDBFF140EF4CFDBFF13
:10040000060EDB5004E0130ED0DB01E20EDBF9EC4C
:1004100005F002E2130EDBDAAFDB05E0040EC5DB0C
:1004200002E2050ED4DA030EDBB005D0A2DA01E059
:100430007DD2080EDB6A090EDB6A110EDBCFE9FF05
:10044000120EDBCFEAFFEFCFDFFFDF5014E0D7DB88
:1004500012E2E4DB03E1151C01E168D267DB01E392
:10046000DB2A090EDB2A110EDB2ADBCFE9FF120E95
:10047000E8E3DB2AE6D77DDA01E15ED257D2030E4C
:10048000DB8E070EDB0410E195DB040E5ADB0A0E4F
:10049000EECFDBFF0B0EEECFDBFF0C0EEECFDBFF64
:1004A0000D0EEECFDBFF6CD0070EDB5003082CE106
:1004B000030EDBAE0DD0B2DA020E76DAEFCF14F017
:1004C000156A166A176A14AE39D01568166835D0E1
:1004D000F70EDBCF15F0F80EDBCF16F0020E155E2F
:1004E000000E165AF70E15C0DBFFF80E16C0DBFF24
:1004F00015C0E9FF16C0EAFFEFCF14F00A0E14C0D2
:10050000DBFF0B0EDB6A38D0070EDB50020809E177
:10051000030EDBAE04D059DB16AE10D00ED055DB87
:100520000DD0030EDBAE12D079DA020E3DDAF9DA25
:10053000166A176A15AE02D016681768E2DA0C0E52
:1005400016C0DBFF0D0E17C0DBFF1AD0F70EDBCF96
:1005500016F0F80EDBCF17F0020E165E000E175ADB
:10056000F70E16C0DBFFF80E17C0DBFF16C0E9FF61
:1005700017C0EAFFD6DAC5DA0C0EDB6A0D0EDB6AAD
:10058000060EDB5005E1010EF36E050EF3CFDBFF27
:10059000150EDB6A160EDB6AD950370F146E000E8B
:1005A000DA20156E390E14C0DBFF3A0E15C0DBFFE2
:1005B000380EDB6A080EDB6A0A0EAEDADF50780A04
:1005C00012E0200A10E0280A0CE0200A0AE03F0AA4
:1005D00006E00D0A02E0200A08E1020E05D0080E2E
:1005E00003D0080EDF26100E97DA030EDBBE02D012
:1005F000DB92DB94DB50800B24E08ADAD890030E88
:10060000EB50000A08E6000EEE5C000EEE58000EFD
:10061000EE58000EEE5815E213DA0B680C680D6800
:100620000E6820EC10F00A0E02C0DBFF0B0E03C0B8
:10063000DBFF0C0E04C0DBFF0D0E05C0DBFF2D0E33
:1006400008D0030EDBA202D02B0E03D0DBA408D00F
:10065000200EF36E170EF3CFDBFF150EDB2A02D050
:10066000170EDB6A050EDB5003E1B7D901E189D033
:100670003E0E146E220E156E000E166E070EDBCFA8
:1006800017F0186A196A1A6A17C00BF018C00CF034
:1006900019C00DF01AC00EF0D3D9BDEC10F01450F3
:1006A0000224F36E15500320F46E16500420F86EE9
:1006B000F4CFF7FFF3CFF6FF0800090EF5CFDBFF0D
:1006C000580EDF5C0FE1610EF36E090E7BD90AE371
:1006D000200E146E090EDBCFE7FF1450E75E090E03
:1006E000E7CFDBFF070EDBCF14F0156A166A176A37
:1006F0000FDA14C00BF015C00CF016C00DF017C0C7
:100700000EF0EECF06F0EECF07F0EECF08F0EFCF11
:1007100009F0BDEC10F009C0EDFF08C0EDFF07C007
:10072000EDFF06C0EFFF390EDBCFE9FFDB063A0E27
:10073000DBCFEAFF01E2DB06090EDBCFEFFF150E90
:10074000DB2A4BD995E1030EDBA61DD06F0EDF5CD3
:1007500006E1C1D918E3150EDB285BDA14D0780E58
:10076000DF5C09E0580EDF5C06E0620EDF5C03E050
:10077000420EDF5C08E1020EF36E160EF3CFDBFFD4
:1007800002D0150EDB6A030EDB50100B0EE0040ED8
:10079000DBCF14F0050EDB50D880145406E2060EB1
:1007A000DB5003E1040EDB5034DA95D90AE2050E82
:1007B000DBCFE7FF150EDB50E75E050EE7CFDBFF73
:1007C00002D0050EDB6A040EDBCF14F0160E45D9FD
:1007D000D880145414E2160EDBCFE6FF150EDBCFE3
:1007E000E6FF040EDBCFE6FF050EDB50E552E75CCB
:1007F000E552D880E754E552D880E7545FD9030E1C
:10080000DB50010B0BE1080EDB5008E0B2D801E031
:100810008DD0080EDB50BED8080EDB6A170EDB50F9
:1008200007E088D9170EF1D903E1151C01E17ED04C
:10083000160EDB5016E07ED9300EE66E9FD802E130
:10084000151C74E077D9DFCFE6FFDEEC0FF0E55240
:10085000E552E552F4CF15F00001F31C02E1151C3E
:1008600065E0050EDBCF14F0160EDB50D880145473
:1008700009E2050EDBCFE7FF160EDB50E75E050E43
:10088000E7CFDBFF300EE66E050ECBD94FE1390E18
:10089000DB2ADBCFE9FF3A0E01E3DB2ADBCFEAFFFD
:1008A000090EEFCFDBFFDB500EE044D9090EADD9C6
:1008B00002E1151C3BE0390EDB2ADBCFE9FF3A0EE3
:1008C000EDE3DB2AEBD755D831E1160EDBCFE6FF9F
:1008D000080EC3D8E552E7245DD82ED0070EDB50B2
:1008E000030A1CE0010A14E0030A07E07BD9DBCF0E
:1008F000EEFF020EDBCFEDFF1FD0F5D8196A17AE61
:1009000002D0186819682CD8BCD819C0EEFF14D0D2
:10091000EAD817BE186824D8B4D80ED063D9DBCF74
:10092000EFFF0AD07BD905E1151C03E1F368F468F9
:1009300010D0FCD801E3DB2A79D93BEF00F0010E9F
:10094000DBCF14F0020EDBCF15F014C0F3FF15C09F
:10095000F4FF3B0EE15C02E2E16AE552E16ECBD0CE
:1009600029D9020EA1EF05F061D90800F550DF6E1C
:100970001200200EE66E080E11EF06F0DEEC0FF00E
:10098000E552E552E552F3CF14F0F4CF15F0000133
:10099000F31C1200146E156AD950010F4DD9145072
:1009A000EE261550ED221200185E000E195AF70EB1
:1009B00018C0DBFFF80E19C0DBFF18C0E9FF19C033
:1009C000EAFF1200DBCFF4FFF350F45C1200DB50BF
:1009D000E76E040EE7CFDBFF12000A0EDBCF14F048
:1009E0000B0EDBCF15F00C0EDBCF16F00D0EDBCFB0
:1009F00017F014501510161017101200130EEECF2A
:100A0000DBFF140EEDCFDBFF130EDBCF14F0140E63
:100A1000DBCF15F00001800E15141200F70EDBCFAE
:100A200018F0F80EDBCF19F01200050EDB50E66E61
:100A3000D950130F01D9E552E750EE6EED6A12005E
:100A40000A0EDBCF06F00B0EDBCF07F00C0EDBCF70
:100A500008F00D0EDBCF09F01200DBCFE6FF150E1C
:100A6000DBCFE6FF050EDB50E552E724E552E72435
:100A70001200DB50CED8010EF36E060EF3CFDBFF73
:100A80001200EE50EFCFEAFFE96E16C0EEFF17C07E
:100A9000EEFF18C0EEFF1200D9CFE6FFDACFE6FF77
:100AA000E1CFD9FFE2CFDAFF1200DFCFE6FFE66A3F
:100AB000E1EC10F0E552E552F3501200E76E080E3B
:100AC000E7CFDBFF1200EECF14F0EECF15F0EFCF43
:100AD00016F0176A1200050EDBCF14F0150EDB506E
:100AE000D88014541200010EDBCF16F0020EDBCFBB
:100AF00017F0186A1200E552E5CFDAFFE7CFD9FF09
:100B000012000A0E14C0DBFF0B0E15C0DBFF120033
:100B1000D9500A0F1CEF06F0F36E070EF3CFDBFF80
:100B20001200EECF14F0EFCF15F01200010EDB2A09
:100B3000020E1200FC0EDBCFE6FFFD0EDBCFE6FF60
:100B40001200145E000E155AF70E14C0DBFFF80EEB
:100B500015C0DBFF14C0E9FF15C0EAFF1200DA2060
:100B6000EA6EEF2AEECFF6FF000EEF22EECFF7FF90
:100B7000EF22EECFF8FF1200040EDBCFE6FF130EDC
:100B8000DB50E552E75C9ADFDB5004DF060EDB50FA
:100B90001200090EDB500A0DF350DF24D00FE76E70
:100BA000090EE7CFDBFFB4EF04F0DB50F36E050E68
:100BB000E2EF04F0F70EDBCF14F0F80EDBCF15F008
:100BC0001200DFCFE6FFBEEF04F028DF030EECDEFD
:100BD00063EF05F010EC00F0E552E552E552E55206
:100BE00000091200BDDEEE50EFCFEAFFE96E010E04
:100BF0001200130EDB50F36E040EE2EF04F0040E4D
:100C0000DB50F36E090EE2EF04F0DBCFE6FFBEEF40
:100C100004F0E76E050EE7CFDBFF12008BDFE1EF9C
:100C200005F0DBCFE6FF86DFEAEF05F0D950F90FDC
:100C3000E96EFF0EAFEF05F0E96E000EDA20EA6E06
:020C40001200A0
:0E0C4200520ED36ED3A4FED712000F01386BF2
:100C5000896A92683A6B8B6AF00E946E396B8A6A75
:100C6000936E1200400EB86E260EAC6E900EAB6EF8
:100C7000190EAF6EB06A1200D9CFE6FFE1CFD9FFEF
:100C8000F294FD0EDBCF14F0FE0EDBCF15F015C095
:100C900014F0156A1450D76EFD0EDB50D66EE55277
:100CA000E7CFD9FF1200D9CFE6FFE1CFD9FFFD0E84
:100CB000DBCFE6FFFE0EDBCFE6FFDEDFE552E552DF
:100CC000900ED56EE552E7CFD9FF1200010EC26E2D
:100CD000C16AA90EC06E1200D9CFE6FFE1CFD9FFDD
:100CE000020EE126DE6ADD6ADE6ADD6ADECF14F01E
:100CF000DDCF15F0D890155004E60A0E145C000EF6
:100D0000155820E2FD0EDBCFE9FFFE0EDBCFEAFF38
:100D1000E9CF14F0EACF15F0020E086E096ADECFB3
:100D20000DF0DDCF0EF061EC0EF014500624E96EEC
:100D300015500720EA6EEE6AED6ADF2A010E01E324
:100D4000DB2AD4D7FD0EDBCFE9FFFE0EDBCFEAFFB7
:100D5000140EEB6A150EEB6AFD0EDBCFE9FFFE0EFB
:100D6000DBCFEAFF1A0EE926000EEA22EF6AFD0E3B
:100D7000DBCFE9FFFE0EDBCFEAFF1B0EE926000EFC
:100D8000EA22EF6A020EE15C02E2E16AE552E16EFC
:100D9000E552E7CFD9FF1200D9CFE6FFE1CFD9FF67
:100DA000020EE126DE6ADD6A4CDF50DFB00EE66E31
:100DB0003C0EE66E78DFE552E55254DF87DFDE6AEF
:100DC000DD6ADECF14F0DDCF15F0D890155004E6C3
:100DD000030E145C000E15586DE2DECF14F0DDCF6B
:100DE00015F01C0E1502F3CF15F01402F3CF14F01A
:100DF000F4501526600E1426000E152214C0E6FFCE
:100E000015C0E6FF69DFE552E552DECFE9FFDDCF31
:100E1000EAFFD890E936EA36D70EE926000EEA2234
:100E2000EECF14F0EFCF15F0DECFE9FFDDCFEAFF14
:100E30001C0EEA02F3CFEAFFE902F3CFE9FFF45018
:100E4000EA26600EE926000EEA22160EE926000EBA
:100E5000EA2214C0EEFF15C0EDFFDECFE9FFDDCFC3
:100E6000EAFFD890E936EA36D10EE926000EEA22EA
:100E7000EECF14F0EFCF15F0DECFE9FFDDCFEAFFC4
:100E80001C0EEA02F3CFEAFFE902F3CFE9FFF450C8
:100E9000EA26600EE926000EEA22180EE926000E68
:100EA000EA2214C0EEFF15C0EDFFDF2A010E01E3B8
:100EB000DB2A87D7B60EE66E000EE66EF9D8E5524D
:100EC000E552B40EE66E000EE66EDAD8E552E55253
:100ED000BB0EE66E000EE66E24D9E552E552020E18
:100EE000E15C02E2E16AE552E16EE552E7CFD9FF4B
:100EF0001200D9CFE6FFE1CFD9FFFE0EDB501F0B6A
:100F0000F36EF346F346830EC214F310C26EC28230
:100F1000C2B2FED7C3CFF3FFC4CFF4FF00D0E55277
:100F2000E7CFD9FF1200630E146E210E156E166AFC
:100F300014C0E6FF15C0E6FF16C0E6FF92EC0FF006
:100F4000E552E552E552BBC014F0156A14BE1568AF
:100F500014C0E6FF15C0E6FF570E166E210E176E81
:100F6000186A16C0E6FF17C0E6FF18C0E6FF92EC4D
:100F70000FF0196E050EE15E1950BCC014F0156A31
:100F800014BE156814C0E6FF15C0E6FF480E166EC5
:100F9000210E176E186A16C0E6FF17C0E6FF18C0CC
:100FA000E6FF92EC0FF0196E050EE15E1950BDC020
:100FB00014F0156A14BE156814C0E6FF15C0E6FFEC
:100FC000390E166E210E176E186A16C0E6FF17C08E
:100FD000E6FF18C0E6FF92EC0FF0196E050EE15E19
:100FE0001950BEC014F0156A14BE156814C0E6FF8F
:100FF00015C0E6FF2D0E166E210E176E186A16C06C
:10100000E6FF17C0E6FF18C0E6FF92EC0FF0196E7E
:10101000050EE15E1950BFC014F0156A14BE1568C4
:1010200014C0E6FF15C0E6FF220E166E210E176EE5
:10103000186A16C0E6FF17C0E6FF18C0E6FF92EC7C
:101040000FF0196E050EE15E1950C0C014F0156A5C
:1010500014BE156814C0E6FF15C0E6FF160E166E26
:10106000210E176E186A16C0E6FF17C0E6FF18C0FB
:10107000E6FF92EC0FF0196E050EE15E19501200BA
:10108000D9CFE6FFE1CFD9FFFD0EDBCFE9FFFE0EA2
:10109000DBCFEAFFEF6AFD0EDBCFE9FFFE0EDBCF11
:1010A000EAFFEE52F00EEF6EE552E7CFD9FF1200E5
:1010B000D9CFE6FFE1CFD9FFFD0EDBCFE9FFFE0E72
:1010C000DBCFEAFF010EEF6EFD0EDBCFE9FFFE0E78
:1010D000DBCFEAFFEE52EF6AFD0EDBCFE9FFFE0E3B
:1010E000DBCFEAFF020EE926000EEA22EF6AFD0ED0
:1010F000DBCFE9FFFE0EDBCFEAFF030EE926000E91
:10110000EA22EF6AFD0EDBCFE9FFFE0EDBCFEAFF3E
:10111000040EE926000EEA22EF6AE552E7CFD9FF76
:101120001200D9CFE6FFE1CFD9FFFD0EDBCFE9FFFB
:10113000FE0EDBCFEAFF010EEF6EFD0EDBCFE9FF07
:10114000FE0EDBCFEAFFEE52020EEF6EFD0EDBCF9E
:10115000E9FFFE0EDBCFEAFF020EE926000EEA22CF
:10116000030EEF6EFD0EDBCFE9FFFE0EDBCFEAFFD5
:10117000030EE926000EEA22EF6AFD0EDBCFE9FF3F
:10118000FE0EDBCFEAFF040EE926000EEA22EF6A2C
:10119000FD0EDBCFE9FFFE0EDBCFEAFF050EE926F1
:1011A000000EEA22140EEF6EE552E7CFD9FF1200CF
:1011B0000001BB2B060EE76EBB19E8AE02D0BB35B3
:1011C00003D0E750D880BB5502E2010EBB6F12007E
:1011D00012000001BB51060A43E0030A33E0010A92
:1011E00023E0070A12E0010A01E049D0BC2B050EFA
:1011F000E76EBC19E8AE02D0BC3503D0E750D8800A
:10120000BC5502E2010EBC6F3AD0BD2B050EE76E55
:10121000BD19E8AE02D0BD3503D0E750D880BD552A
:1012200002E2010EBD6F2BD0BE2B180EE76EBE1969
:10123000E8AE02D0BE3503D0E750D880BE5501E2FB
:10124000BE6B1DD0BF2B3C0EE76EBF19E8AE02D0BF
:10125000BF3503D0E750D880BF5501E2BF6B0FD038
:10126000C02B190EE76EC019E8AE02D0C03503D00E
:10127000E750D880C05502E2120EC06F00D01200B5
:101280000001BB51060A31E0030A29E0010A21E00E
:10129000070A11E0010A01E036D0BC07010EE76E33
:1012A000BC19E8AE02D0E73402D0E750BC5D02E2E0
:1012B000050EBC6F28D0BD07010EE76EBD19E8AE64
:1012C00002D0E73402D0E750BD5D02E2050EBD6FEB
:1012D0001AD0BE07BE3502E3170EBE6F14D0BF078B
:1012E000BF3502E33B0EBF6F0ED0C007120EE76E94
:1012F000C019E8AE02D0E73402D0E750C05D02E288
:08130000190EC06F00D01200AD
:08130800D9CFE6FFE1CFD9FFC8
:101310000C0EE126DF6A010EDB6A020EDB6A030EA9
:10132000DB6A040EDB6A050EDB6A060EDB6A070E5B
:10133000DB6A080EDB6A090EDB6A0A0EDB6A0B0E3B
:10134000DB6ACCEC06F0F00E80140001B46FB551EE
:10135000B45D18E0B4C0B5F0B451700A10E0C00A32
:101360000BE0600A06E0300A01E00CD0D8EC08F08F
:1013700009D0E9EC08F006D040EC09F003D0E8EC25
:1013800008F000D0F00E0001B45D02E1F00EB56F80
:10139000F2A4ECD2B00EE66E3C0EE66E3CEC06F02B
:1013A000E552E552DF2ADFCF14F0050EE76E141880
:1013B000E8AE02D0E73402D0E750145C01E2D6D2A6
:1013C000DF6A010EDB6ADBCF14F0030EE76E141840
:1013D000E8AE02D0E73402D0E750145C01E3C3D298
:1013E000010EDBCFE6FF79EC07F0E552F3CF18F002
:1013F000F4CF19F0010EDBCFE9FFEA6AE9BEEA6833
:101400001C0EEA02F3CFEAFFE902F3CFE9FFF45042
:10141000EA26600EE926000EEA22E9CF14F0EACFB0
:1014200015F0010EDBCFE9FFEA6AE9BEEA681C0E9F
:10143000EA02F3CFEAFFE902F3CFE9FFF450EA262C
:10144000600EE926000EEA221A0EE926000EEA22B4
:10145000EFCF16F0176A16BE1768D89016361736F3
:1014600014501624E96E15501720EA6E18C0EEFFCE
:1014700019C0EDFF010EDBCFE9FFEA6AE9BEEA68B9
:101480001C0EEA02F3CFEAFFE902F3CFE9FFF450C2
:10149000EA26600EE926000EEA221A0EE926000E60
:1014A000EA22EF2A010EDBCFE9FFEA6AE9BEEA6829
:1014B0001C0EEA02F3CFEAFFE902F3CFE9FFF45092
:1014C000EA26600EE926000EEA221A0EE926000E30
:1014D000EA22EFCF14F00A0EE76E1418E8AE02D03D
:1014E000E73402D0E750145C31E3010EDBCFE9FFB3
:1014F000EA6AE9BEEA681C0EEA02F3CFEAFFE902F3
:10150000F3CFE9FFF450EA26600EE926000EEA2246
:101510001A0EE926000EEA22EF6A010EDBCFE9FF80
:10152000EA6AE9BEEA681C0EEA02F3CFEAFFE902C2
:10153000F3CFE9FFF450EA26600EE926000EEA2216
:101540001B0EE926000EEA22010EEF6E010EDBCF24
:10155000E9FFEA6AE9BEEA681C0EEA02F3CFEAFF95
:10156000E902F3CFE9FFF450EA26600EE926000E07
:10157000EA221B0EE926000EEA22EF5001E1F0D12B
:10158000080EDB6A090EDB6A0A0EDB6A0B0EDB6AE9
:10159000020EDB6A030EDB6A040EDB6A050EDB6AF1
:1015A000060EDB6A070EDB6A060EDBCF14F0070EB1
:1015B000DBCF15F0D890155004E60A0E145C000E2F
:1015C000155845E2010EDBCFE9FFEA6AE9BEEA6899
:1015D0001C0EEA02F3CFEAFFE902F3CFE9FFF45071
:1015E000EA26600EE926000EEA22E9CF18F0EACFDB
:1015F00019F0020E086E096A060EDBCF0DF0070E19
:10160000DBCF0EF061EC0EF018500624E96E195095
:101610000720EA6EEECF14F0EFCF15F0166A176AC6
:1016200015AE02D016681768D950020FE96EDACFEE
:10163000EAFF1450EE261550EE221650EE221750F7
:10164000EE22060EDB2A070E01E3DB2AADD7020EDF
:10165000DBCF14F0030EDBCF15F0040EDBCF16F05A
:10166000050EDBCF17F00A0E0B6E0C6A0D6A0E6AC0
:1016700014C006F015C007F016C008F017C009F036
:101680002DEC0EF006C014F007C015F008C016F0DF
:1016900009C017F0010EDBCFE9FFEA6AE9BEEA688C
:1016A0001C0EEA02F3CFEAFFE902F3CFE9FFF450A0
:1016B000EA26600EE926000EEA22140EE926000E44
:1016C000EA2214C0EEFF15C0EDFF010EDBCFE9FFEB
:1016D000EA6AE9BEEA681C0EEA02F3CFEAFFE90211
:1016E000F3CFE9FFF450EA26600EE926000EEA2265
:1016F000140EE926000EEA22EECF1CF0EFCF1DF00B
:101700001CC008F01DC009F0C3EC0CF007C018F0B5
:1017100008C019F009C01AF00AC01BF00C6A0D6A63
:10172000A00E0E6E400E0F6E18C007F019C008F024
:101730001AC009F01BC00AF029EC0DF007C014F024
:1017400008C015F009C016F00AC017F00C6A0D6A3F
:10175000800E0E6E440E0F6E14C007F015C008F018
:1017600016C009F017C00AF0D6EC0CF0080E07C03E
:10177000DBFF090E08C0DBFF0A0E09C0DBFF0B0E02
:101780000AC0DBFF010EDB50020A01E1A9D0030A07
:1017900067E0010A01E0E4D0146A156A166A3F0E98
:1017A000176ED950080FE96EDACFEAFFEECF07F0D7
:1017B000EECF08F0EECF09F0EFCF0AF014C00CF036
:1017C00015C00DF016C00EF017C00FF096EC0DF01E
:1017D0000AC0EDFF09C0EDFF08C0EDFF07C0EFFF35
:1017E000080EDBCF16F0090EDBCF17F00A0EDBCFA9
:1017F00018F00B0EDBCF19F00A0E0C6ED70E0D6E23
:10180000230E0E6E3C0E0F6E16C007F017C008F0C8
:1018100018C009F019C00AF0D6EC0CF08EEC0EF0EE
:1018200008C014F009C015F0010EDBCFE9FFEA6A29
:10183000E9BEEA681C0EEA02F3CFEAFFE902F3CF41
:10184000E9FFF450EA26600EE926000EEA22140EA3
:10185000E926000EEA2214C0EEFF15C0EDFF80D08D
:10186000080EDBCF16F0090EDBCF17F00A0EDBCF28
:1018700018F00B0EDBCF19F0CD0E0C6ECC0E0D6EEA
:101880004C0E0E6E3D0E0F6E16C007F017C008F01E
:1018900018C009F019C00AF0D6EC0CF08EEC0EF06E
:1018A00008C014F009C015F0010EDBCFE9FFEA6AA9
:1018B000E9BEEA681C0EEA02F3CFEAFFE902F3CFC1
:1018C000E9FFF450EA26600EE926000EEA22140E23
:1018D000E926000EEA2214C0EEFF15C0EDFF40D04D
:1018E000080EDBCF16F0090EDBCF17F00A0EDBCFA8
:1018F00018F00B0EDBCF19F09C0E0C6E5B0E0D6E0C
:10190000B60E0E6E390E0F6E16C007F017C008F037
:1019100018C009F019C00AF0D6EC0CF08EEC0EF0ED
:1019200008C014F009C015F0010EDBCFE9FFEA6A28
:10193000E9BEEA681C0EEA02F3CFEAFFE902F3CF40
:10194000E9FFF450EA26600EE926000EEA22140EA2
:10195000E926000EEA2214C0EEFF15C0EDFF00D00C
:10196000010EDB2A30D593EC07F000D0ECD40C0E3E
:10197000E15C02E2E16AE552E16EE552E7CFD9FFB0
:02198000120053
:0E198200019E08D0019E09AE05D0086C091E1A
:10199000E86A0922018E09C003F008C002F0136A48
:1019A000126A8E0E046E056AD9EF0EF0016A15EC0C
:1019B0000FF02DEC0FF001B6BDEF0EF001A205D037
:1019C00001BABDEF0EF0C4EF0EF001BAD0EF0EF089
:1019D00001A005D001B8BDEF0EF0D0EF0EF001B8B8
:1019E000C4EF0EF0056A7F0E0A24046EE86A052231
:1019F0000F50045EE86A055A1A0E106E0A6A126ADF
:101A0000136A026A036A0C50075E0D50085A0E50A2
:101A1000095A000E0A5A09E70C5007260D500822F1
:101A20000E500922000E0A2201D0128AD8900736E1
:101A3000083609360A36D89012361336023603367F
:101A4000102EE1D7095008100710D8A4128AD9EF38
:101A50000EF0016A15EC0FF02DEC0FF001B6BDEFA2
:101A60000EF001A205D001B8BDEF0EF0C4EF0EF0EC
:101A700001AA05D001B0BDEF0EF0C4EF0EF001B029
:101A800002D001A802D0D0EF0EF0056A0F500A2450
:101A9000046EE86A05227E0E045EE86A055A126A40
:101AA000136A026A036A0E500902F4CF03F0F3CFFF
:101AB00002F00D500902F3501326F4500222000EDA
:101AC00003220E500802F3501326F4500222000E97
:101AD00003220C500902F3501226F4501322000E78
:101AE000022203220D500802F3501226F450132252
:101AF000000E022203220E500702F3501226F45069
:101B00001322000E022203220C500802F450122667
:101B1000000E1322022203220D500702F450122657
:101B2000000E132202220322D9EF0EF00F7E016A6B
:101B300015EC0FF02DEC0FF001B6BDEF0EF001A289
:101B40000AD001AA03D001BEBDEF0EF001A4C9EF77
:101B50000EF0C6EF0EF001AA05D001ACC9EF0EF0F1
:101B6000C6EF0EF001A00AD001A808D001BE04D033
:101B700001A402D0D2EF0EF0D6EF0EF0126A056A81
:101B80000F500A5C116E10E307C013F008C002F09A
:101B900009C003F00AC010F00CC007F00DC008F037
:101BA0000EC009F0013A09D00CC013F00DC002F0CC
:101BB0000EC003F00FC010F0116C019E01BC018E2D
:101BC00010C004F001B005EF0FF01A0E116005EF20
:101BD0000FF0046A0A6A01A408D0076C081E091EE7
:101BE0000A1EE86A082209220A2201AC08D0136CF6
:101BF000021E031E041EE86A022203220422066A51
:101C0000115207E00A340932083207320632112E27
:101C1000F9D70750132608500222095003220A5010
:101C2000042206C012F0019E04AE0BD0126C131EEB
:101C3000021E031E041EE86A13220222032204224B
:101C4000018E04A006D0D880033202321332123241
:101C5000102A10C004F0D9EF0EF0006AE86A0EAE48
:101C60003AEF0EF00B6C0C1E0D1E0E1E0C220D22F8
:101C70000E22001E09AE45EF0EF0066C071E081E70
:101C8000091E072208220922001EBDEC10F009BE21
:101C90005CEF0EF000AE000C066C071E081E091E5D
:101CA000E86A072208220922026C031E041E051E90
:101CB000032204220522000C00BE4CEF0EF0018826
:101CC000FF0C09C013F008C012F008500D02F4CF49
:101CD00007F0F3CF06F009500E02F4CF09F0F3CF6E
:101CE00008F00D02F3500726F4500822E86A092292
:101CF00012500E02F3500726F4500822E86A092217
:101D00000EAE87EF0EF01250085E1350095A13AE54
:101D1000000C0D50085E0E50095A000C016A15ECBB
:101D20000FF001B698EF0EF001A20ED001B405D06D
:101D30007F0E096EFF0E086E1FD0800E096E086AB6
:101D40001BD0096A086A18D001B0FBD78F0E0A6051
:101D5000EDD77E0E0A64F5D78E0E0A5C05E0D890AA
:101D6000093208320A2AF8D701A406D0086C091EE5
:101D7000E86A092209AEE5D712007F0E0A6EFF0E4F
:101D8000096E086E076E12007F0E01BEFF0E0A6E0E
:101D900002D07F0E0A6E800E096E086A076AF3D7BA
:101DA00001AE04D0800E0A6E096AF7D70A6A096A82
:101DB000F4D70350021013101210F8E005BEF0D74C
:101DC00003BE0CD004500510EBE0D8901236133649
:101DD000023603360406D8A00506F2D70550D4E132
:101DE0000428D2E012AE11D07F0E121402E113A02B
:101DF0000CD0132AE86A0222032207E3D8800332B8
:101E000002321332042A0428BFE00450C9E013C090
:101E100007F002C008F00334096E04300A6E09327C
:101E20000A9E01BE0A8EC3EF0EF009360A3602E39F
:101E30000184017E06E101800A6A096A086A076A6C
:101E400012000A2803E0D88009321200D890093223
:101E500002E101821200018612000E360F3602E303
:101E6000018C017E06E101880F6A0E6A0D6A0C6A18
:101E700012000F2803E0D8800E321200D8900E32E4
:061E8000EAE1018A1200F4
:0A1E8600060EF66E000EF76E000E59
:101E9000F86E00010900F550E26F0900F550E36F9C
:101EA00003E1E26701D03DD00900F550DD6F090084
:101EB000F550DE6F0900F550DF6F09000900F5509D
:101EC000E96E0900F550EA6E090009000900F550B5
:101ED000E06F0900F550E16F09000900F6CFE4F06A
:101EE000F7CFE5F0F8CFE6F0DDC0F6FFDEC0F7FF94
:101EF000DFC0F8FF0001E05302E1E15307E0090011
:101F0000F550EE6EE007F8E2E107F9D7E4C0F6FF1E
:101F1000E5C0F7FFE6C0F8FF0001E207000EE35B53
:041F2000BFD7120015
:0C1F2400D9CFE6FFDACFE6FFE1CFD9FF0E
:101F3000E2CFDAFFE652E652E652E652D950FB0F04
:101F4000146EFF0EDA20156E14C0DEFFDD6EDECFDC
:101F5000E6FFDDCFE6FFFB0EDBCFE6FFFC0EDBCFBF
:101F6000E6FFFD0EDBCFE6FFE7C0E6FFE8C0E6FFD9
:101F700026EC00F0146E070EE15C02E2E16AE55225
:101F8000E16E1450020EF3CFDBFF030EF4CFDBFF44
:101F9000020EDBCF14F0030EDBCF15F014C0F3FFFD
:101FA00015C0F4FF040EE15C02E2E16AE552E16E65
:0C1FB000E552E5CFDAFFE7CFD9FF1200C1
:041FBC00D9CFE6FF94
:101FC000DACFE6FFE1CFD9FFE2CFDAFFFB0EDBCFBE
:101FD00014F0FC0EDBCF15F00001800E15141AE191
:101FE000FB0EDBCFE9FFFC0EDBCFEAFFEECFF3FF0A
:101FF000EDCFF4FFEE2A000EEF22F3CFE9FFF4CF8E
:10200000EAFFFD0EDBCFEFFFEF50156AF36E15C050
:10201000F4FF10D0FB0EDB50FE0806E1FD0EDBCF17
:10202000E6FF11EC11F005D0FD0EDBCFE6FF28EC4A
:1020300011F0E552E552E5CFDAFFE7CFD9FF120004
:1020400006500B02F3CF02F0F4CF03F00C02F35072
:102050000326000EF420046E06500D02F3500426F1
:10206000000EF420056E06500E02F35005260750B0
:102070000B02F3500326F4500422000E05220750F1
:102080000C02F3500426F450052207500D02F350C1
:10209000052608500B02F3500426F4500522085080
:1020A0000C02F350052609500B02F35005261200CE
:1020B000FE0EE3CFE9FFFF0EE3CFEAFFF36AF46A17
:1020C000EE5203E0F34AF42AFBD71200FF0EE3CFEF
:1020D000F8FFE552FF0EE3CFF7FFE552FF0EE3CF27
:1020E000F6FFE552E66AE66AE66A0900F55209E09B
:1020F000FD0EE32A05E1FE0EE32A02E1FF0EE32ACC
:10210000F4D7FD0EE3CF07F0FE0EE3CF08F0FF0E8D
:06211000E3CF09F012000C
:0A2116000A0D54656D703A20253360
:1021200069000A0D4D696E3A20253369000A0D4891
:102130006F75723A20253369000A0D506F72746909
:102140006F6E3A20253369000A0D53686564756C1B
:10215000653A20253369000A0D4D6F64653A2025E4
:102160003369001B5B324A1B5B48506574487562DB
:0A217000205374617475730A0D00AA
:06217A00056A046A036A15
:10218000026A200EE76ED890063607360836093602
:1021900002360336043605360B50025C0C500358E9
:1021A0000D5004580E50055809E30B50025E0C50B8
:1021B000035A0D50045A0E50055A062AE72EE4D74A
:0221C00012000B
:0E21C200F36AF46AFF0EE124E96EFF0EE220DC
:1021D000EA6EED6607D02F0EEF6404D03A0EEF6082
:0621E00001D0F32A1200F9
:0A21E600000EF36E00EE00F0060E8E
:1021F00001D81200EA6002D0EE6AFCD7F350E96021
:062200001200EE6AFCD79B
:0A22060015EE00F025EE00F0F86A76
:10221000019C43EC0FF029EC11F084EC09F0FBD7A2
:022220001200AA
:0E222200FF0EE350ACBA04D0AF6AAB8EAC8AAC
:0E223000949CACA2FED7AD6EF36EF46A120061
:02223E0030313D
:0F2240003233343536373839616263646566008E
:0222500012007A
:02225200120078
:02225400FEFF8B
:0A22560001020408C20164007017C1
:10226000CEFF0000A60423003C00B0040F002800AD
:02227000200349
:020000040030CA
:0100010028D6
:0100020003FA
:010003003CC0
:01000500BD3D
:010006008178
:00000001FF
