:020000040000FA
:0600000090EF12F0120067
:0A000600020070250000E100000078
:100010001C0000006E250000FD0000000200000032
:100020004CEC05F0FB0EDBCFF3FFDB06F3500009D1
:100030000AE09AEC05F0FA0E05EC06F0F3E1151C67
:10004000F1E1010E01D0000E7BEF05F04CEC05F064
:100050003B0EE12402E3E168E652E16E010EDB6A49
:10006000020EDB6AF90EDBCFF6FFFA0EDBCFF7FFED
:10007000FB0EDBCFF8FF0800F550DF6EDF5002E12A
:100080009FEF04F0250EDF5C02E092EF04F0030E18
:10009000DB6A040EDB6A050EDB6A060EDB6A070EFE
:1000A000DB6AB4EC04F02D0EDF5C0CE02B0EDF5CA1
:1000B00009E0200EDF5C06E0230EDF5C03E0300E7B
:1000C000DF5C1AE1DF50300A14E0130A0FE0030A84
:1000D0000AE00B0A05E0060AE4E1030EDB80E1D743
:1000E000030EDB82DED7030EDB84DBD7030EDB8659
:1000F000D8D7030EDB88D5D72A0EDF5C1BE1B0EC26
:1001000004F0FEEC04F010E0030EDB8008680968E0
:10011000130EDBCF0DF0140EDBCF0EF0E0EC0FF082
:10012000040E06C0DBFF03D0130EE7EC04F0B4ECC2
:1001300004F00BD0090EDB6A55EC05F003E0C9ECC6
:1001400005F0FAD7090EE7EC04F0030EDBB0DB98FC
:100150002E0EDF5C1BE1B4EC04F02A0EDF5C0BE139
:10016000B0EC04F0FEEC04F003E1130E39EC05F002
:10017000B4EC04F00BD0090EDB6A55EC05F003E09B
:10018000C9EC05F0FAD7090E39EC05F0680EDF5C12
:1001900007E1B4EC04F0680EDF5C1DE1030E18D03B
:1001A000740EDF5C17E07A0EDF5C14E0480EDF5C53
:1001B00006E0540EDF5C03E05A0EDF5C02E1020E43
:1001C00007D06C0EDF5C03E06A0EDF5C04E1010E19
:1001D0008CEC05F0C9DBDF506E0A01E17FD31E0A0B
:1001E00001E192D1200A01E18FD13F0A01E149D119
:1001F0001A0A01E146D10D0A01E143D1200A01E1C9
:1002000040D13A0A01E13DD1200A01E13AD1260A62
:1002100001E135D10D0A01E132D11A0A01E1D9D04B
:10022000200A4AE0300A1FE0460A0EE0250A01E0F3
:1002300083D3D950F90FE96EFF0EDA20EA6E010E72
:10024000EE5E000EEE5AEE5A9AEC05F0250EE66EC2
:1002500095DB03E1151C01E169D396EC05F001E2A1
:100260006BD3DB2A69D3080EDB6A040EDB5001086E
:1002700006E2040EDB045EEC05F0DB508BDB080EBF
:10028000DB5009E0030EDB50010B05E172DB01E0FE
:100290004DD3080EDB6A64DBEFCFDFFF0EEC06F018
:1002A00003E1151C01E142D396EC05F001E3DB2AE2
:1002B00060DB01E141D33AD3070EDB5002080FE1C6
:1002C000DAEC05F0030EA1EC05F00E0EEECFDBFF2D
:1002D0000F0EEECFDBFF100EEECFDBFF20D0F70EC0
:1002E000DBCF17F0F80EDBCF18F0020E175E000E12
:1002F000185AF70E17C0DBFFF80E18C0DBFF17C047
:10030000E9FF18C0EAFF91EC05F0166A0E0E14C062
:10031000DBFF0F0E15C0DBFF100E16C0DBFF0E0E4D
:10032000DBCFE6FF0F0EDBCFE6FF100EDBCFE6FFE5
:1003300025EC12F0E552E552E552130E07C0DBFF43
:10034000140E08C0DBFF060EDB5005E0130ED5ECE3
:1003500005F001E26ADBF9EC05F002E2130E37DB8F
:10036000BCEC05F006E0040ED5EC05F002E2050E4B
:100370002EDB030EDBB005D0FCDA01E0D7D2080E8D
:10038000DB6A090EDB6A0E0EDBCFF6FF0F0EDBCF4A
:10039000F7FF100EDBCFF8FF0800F550DF6EDF50DF
:1003A00014E0FFEC05F011E20EEC06F003E1151C81
:1003B00001E1BCD2BBDB01E3DB2A090EDB2AD95009
:1003C0000E0FE96E000ECBDBE7D7D3DA01E1B4D232
:1003D000ADD2C6DA110EEECFDBFF120EEDCFDBFF92
:1003E000110EDBCFE6FF120EDBCFE6FF17EC12F0AB
:1003F000E552E552130EF3CFDBFF140EF4CFDBFF13
:10040000060EDB5004E0130ED0DB01E20EDBF9EC4C
:1004100005F002E2130EDBDAAFDB05E0040EC5DB0C
:1004200002E2050ED4DA030EDBB005D0A2DA01E059
:100430007DD2080EDB6A090EDB6A110EDBCFE9FF05
:10044000120EDBCFEAFFEFCFDFFFDF5014E0D7DB88
:1004500012E2E4DB03E1151C01E168D267DB01E392
:10046000DB2A090EDB2A110EDB2ADBCFE9FF120E95
:10047000E8E3DB2AE6D77DDA01E15ED257D2030E4C
:10048000DB8E070EDB0410E195DB040E5ADB0A0E4F
:10049000EECFDBFF0B0EEECFDBFF0C0EEECFDBFF64
:1004A0000D0EEECFDBFF6CD0070EDB5003082CE106
:1004B000030EDBAE0DD0B2DA020E76DAEFCF14F017
:1004C000156A166A176A14AE39D01568166835D0E1
:1004D000F70EDBCF15F0F80EDBCF16F0020E155E2F
:1004E000000E165AF70E15C0DBFFF80E16C0DBFF24
:1004F00015C0E9FF16C0EAFFEFCF14F00A0E14C0D2
:10050000DBFF0B0EDB6A38D0070EDB50020809E177
:10051000030EDBAE04D059DB16AE10D00ED055DB87
:100520000DD0030EDBAE12D079DA020E3DDAF9DA25
:10053000166A176A15AE02D016681768E2DA0C0E52
:1005400016C0DBFF0D0E17C0DBFF1AD0F70EDBCF96
:1005500016F0F80EDBCF17F0020E165E000E175ADB
:10056000F70E16C0DBFFF80E17C0DBFF16C0E9FF61
:1005700017C0EAFFD6DAC5DA0C0EDB6A0D0EDB6AAD
:10058000060EDB5005E1010EF36E050EF3CFDBFF27
:10059000150EDB6A160EDB6AD950370F146E000E8B
:1005A000DA20156E390E14C0DBFF3A0E15C0DBFFE2
:1005B000380EDB6A080EDB6A0A0EAEDADF50780A04
:1005C00012E0200A10E0280A0CE0200A0AE03F0AA4
:1005D00006E00D0A02E0200A08E1020E05D0080E2E
:1005E00003D0080EDF26100E97DA030EDBBE02D012
:1005F000DB92DB94DB50800B24E08ADAD890030E88
:10060000EB50000A08E6000EEE5C000EEE58000EFD
:10061000EE58000EEE5815E213DA0B680C680D6800
:100620000E68DFEC11F00A0E02C0DBFF0B0E03C0F8
:10063000DBFF0C0E04C0DBFF0D0E05C0DBFF2D0E33
:1006400008D0030EDBA202D02B0E03D0DBA408D00F
:10065000200EF36E170EF3CFDBFF150EDB2A02D050
:10066000170EDB6A050EDB5003E1B7D901E189D033
:10067000580E146E250E156E000E166E070EDBCF8B
:1006800017F0186A196A1A6A17C00BF018C00CF034
:1006900019C00DF01AC00EF0D3D94AEC12F0145064
:1006A0000224F36E15500320F46E16500420F86EE9
:1006B000F4CFF7FFF3CFF6FF0800090EF5CFDBFF0D
:1006C000580EDF5C0FE1610EF36E090E7BD90AE371
:1006D000200E146E090EDBCFE7FF1450E75E090E03
:1006E000E7CFDBFF070EDBCF14F0156A166A176A37
:1006F0000FDA14C00BF015C00CF016C00DF017C0C7
:100700000EF0EECF06F0EECF07F0EECF08F0EFCF11
:1007100009F04AEC12F009C0EDFF08C0EDFF07C078
:10072000EDFF06C0EFFF390EDBCFE9FFDB063A0E27
:10073000DBCFEAFF01E2DB06090EDBCFEFFF150E90
:10074000DB2A4BD995E1030EDBA61DD06F0EDF5CD3
:1007500006E1C1D918E3150EDB285BDA14D0780E58
:10076000DF5C09E0580EDF5C06E0620EDF5C03E050
:10077000420EDF5C08E1020EF36E160EF3CFDBFFD4
:1007800002D0150EDB6A030EDB50100B0EE0040ED8
:10079000DBCF14F0050EDB50D880145406E2060EB1
:1007A000DB5003E1040EDB5034DA95D90AE2050E82
:1007B000DBCFE7FF150EDB50E75E050EE7CFDBFF73
:1007C00002D0050EDB6A040EDBCF14F0160E45D9FD
:1007D000D880145414E2160EDBCFE6FF150EDBCFE3
:1007E000E6FF040EDBCFE6FF050EDB50E552E75CCB
:1007F000E552D880E754E552D880E7545FD9030E1C
:10080000DB50010B0BE1080EDB5008E0B2D801E031
:100810008DD0080EDB50BED8080EDB6A170EDB50F9
:1008200007E088D9170EF1D903E1151C01E17ED04C
:10083000160EDB5016E07ED9300EE66E9FD802E130
:10084000151C74E077D9DFCFE6FF5DEC11F0E552BF
:10085000E552E552F4CF15F00001F31C02E1151C3E
:1008600065E0050EDBCF14F0160EDB50D880145473
:1008700009E2050EDBCFE7FF160EDB50E75E050E43
:10088000E7CFDBFF300EE66E050ECBD94FE1390E18
:10089000DB2ADBCFE9FF3A0E01E3DB2ADBCFEAFFFD
:1008A000090EEFCFDBFFDB500EE044D9090EADD9C6
:1008B00002E1151C3BE0390EDB2ADBCFE9FF3A0EE3
:1008C000EDE3DB2AEBD755D831E1160EDBCFE6FF9F
:1008D000080EC3D8E552E7245DD82ED0070EDB50B2
:1008E000030A1CE0010A14E0030A07E07BD9DBCF0E
:1008F000EEFF020EDBCFEDFF1FD0F5D8196A17AE61
:1009000002D0186819682CD8BCD819C0EEFF14D0D2
:10091000EAD817BE186824D8B4D80ED063D9DBCF74
:10092000EFFF0AD07BD905E1151C03E1F368F468F9
:1009300010D0FCD801E3DB2A79D93BEF00F0010E9F
:10094000DBCF14F0020EDBCF15F014C0F3FF15C09F
:10095000F4FF3B0EE15C02E2E16AE552E16ECBD0CE
:1009600029D9020EA1EF05F061D90800F550DF6E1C
:100970001200200EE66E080E11EF06F05DEC11F08D
:10098000E552E552E552F3CF14F0F4CF15F0000133
:10099000F31C1200146E156AD950010F4DD9145072
:1009A000EE261550ED221200185E000E195AF70EB1
:1009B00018C0DBFFF80E19C0DBFF18C0E9FF19C033
:1009C000EAFF1200DBCFF4FFF350F45C1200DB50BF
:1009D000E76E040EE7CFDBFF12000A0EDBCF14F048
:1009E0000B0EDBCF15F00C0EDBCF16F00D0EDBCFB0
:1009F00017F014501510161017101200130EEECF2A
:100A0000DBFF140EEDCFDBFF130EDBCF14F0140E63
:100A1000DBCF15F00001800E15141200F70EDBCFAE
:100A200018F0F80EDBCF19F01200050EDB50E66E61
:100A3000D950130F01D9E552E750EE6EED6A12005E
:100A40000A0EDBCF06F00B0EDBCF07F00C0EDBCF70
:100A500008F00D0EDBCF09F01200DBCFE6FF150E1C
:100A6000DBCFE6FF050EDB50E552E724E552E72435
:100A70001200DB50CED8010EF36E060EF3CFDBFF73
:100A80001200EE50EFCFEAFFE96E16C0EEFF17C07E
:100A9000EEFF18C0EEFF1200D9CFE6FFDACFE6FF77
:100AA000E1CFD9FFE2CFDAFF1200DFCFE6FFE66A3F
:100AB0006EEC12F0E552E552F3501200E76E080EAC
:100AC000E7CFDBFF1200EECF14F0EECF15F0EFCF43
:100AD00016F0176A1200050EDBCF14F0150EDB506E
:100AE000D88014541200010EDBCF16F0020EDBCFBB
:100AF00017F0186A1200E552E5CFDAFFE7CFD9FF09
:100B000012000A0E14C0DBFF0B0E15C0DBFF120033
:100B1000D9500A0F1CEF06F0F36E070EF3CFDBFF80
:100B20001200EECF14F0EFCF15F01200010EDB2A09
:100B3000020E1200FC0EDBCFE6FFFD0EDBCFE6FF60
:100B40001200145E000E155AF70E14C0DBFFF80EEB
:100B500015C0DBFF14C0E9FF15C0EAFF1200DA2060
:100B6000EA6EEF2AEECFF6FF000EEF22EECFF7FF90
:100B7000EF22EECFF8FF1200040EDBCFE6FF130EDC
:100B8000DB50E552E75C9ADFDB5004DF060EDB50FA
:100B90001200090EDB500A0DF350DF24D00FE76E70
:100BA000090EE7CFDBFFB4EF04F0DB50F36E050E68
:100BB000E2EF04F0F70EDBCF14F0F80EDBCF15F008
:100BC0001200DFCFE6FFBEEF04F028DF030EECDEFD
:100BD00063EF05F010EC00F0E552E552E552E55206
:100BE00000091200BDDEEE50EFCFEAFFE96E010E04
:100BF0001200130EDB50F36E040EE2EF04F0040E4D
:100C0000DB50F36E090EE2EF04F0DBCFE6FFBEEF40
:100C100004F0E76E050EE7CFDBFF12008BDFE1EF9C
:100C200005F0DBCFE6FF86DFEAEF05F0D950F90FDC
:100C3000E96EFF0EAFEF05F0E96E000EDA20EA6E06
:020C40001200A0
:0E0C4200520ED36ED3A4FED712000F01386BF2
:100C5000896A92683A6B8B6AF00E946E396B8A6A75
:100C6000936E1200400EB86E260EAC6E900EAB6EF8
:100C7000190EAF6EB06A1200D9CFE6FFE1CFD9FFEF
:100C8000F294FD0EDBCF14F0FE0EDBCF15F015C095
:100C900014F0156A1450D76EFD0EDB50D66EE55277
:100CA000E7CFD9FF1200D9CFE6FFE1CFD9FFFD0E84
:100CB000DBCFE6FFFE0EDBCFE6FFDEDFE552E552DF
:100CC000900ED56EE552E7CFD9FF1200010EC26E2D
:100CD000C16AA90EC06E1200D9CFE6FFE1CFD9FFDD
:100CE000020EE126DE6ADD6ADE6ADD6ADECF14F01E
:100CF000DDCF15F0D890155004E60A0E145C000EF6
:100D0000155820E2FD0EDBCFE9FFFE0EDBCFEAFF38
:100D1000E9CF14F0EACF15F0020E086E096ADECFB3
:100D20000DF0DDCF0EF0E0EC0FF014500624E96E6C
:100D300015500720EA6EEE6AED6ADF2A010E01E324
:100D4000DB2AD4D7FD0EDBCFE9FFFE0EDBCFEAFFB7
:100D5000140EEB6A150EEB6AFD0EDBCFE9FFFE0EFB
:100D6000DBCFEAFF1A0EE926000EEA22EF6AFD0E3B
:100D7000DBCFE9FFFE0EDBCFEAFF1B0EE926000EFC
:100D8000EA22EF6A020EE15C02E2E16AE552E16EFC
:100D9000E552E7CFD9FF1200D9CFE6FFE1CFD9FF67
:100DA000020EE126DE6ADD6A4CDF50DFB00EE66E31
:100DB0003C0EE66E78DFE552E55254DF87DFDE6AEF
:100DC000DD6ADECF14F0DDCF15F0D890155004E6C3
:100DD000030E145C000E15586DE2DECF14F0DDCF6B
:100DE00015F01C0E1502F3CF15F01402F3CF14F01A
:100DF000F4501526600E1426000E152214C0E6FFCE
:100E000015C0E6FF69DFE552E552DECFE9FFDDCF31
:100E1000EAFFD890E936EA36F70EE926000EEA2214
:100E2000EECF14F0EFCF15F0DECFE9FFDDCFEAFF14
:100E30001C0EEA02F3CFEAFFE902F3CFE9FFF45018
:100E4000EA26600EE926000EEA22160EE926000EBA
:100E5000EA2214C0EEFF15C0EDFFDECFE9FFDDCFC3
:100E6000EAFFD890E936EA36F10EE926000EEA22CA
:100E7000EECF14F0EFCF15F0DECFE9FFDDCFEAFFC4
:100E80001C0EEA02F3CFEAFFE902F3CFE9FFF450C8
:100E9000EA26600EE926000EEA22180EE926000E68
:100EA000EA2214C0EEFF15C0EDFFDF2A010E01E3B8
:100EB000DB2A87D7B60EE66E000EE66E85D9E552C0
:100EC000E552B40EE66E000EE66E66D9E552E552C6
:100ED000C20EE66E000EE66EB0D9E552E552BB0ECC
:100EE000E66E000EE66EA9D9E552E552C90EE66E31
:100EF000000EE66EE9D9E552E552D50EE66E000E1B
:100F0000E66EE2D9E552E552020EE15C02E2E16AE8
:100F1000E552E16EE552E7CFD9FF1200D9CFE6FFE7
:100F2000E1CFD9FFFE0EDB501F0BF36EF346F34605
:100F3000830EC214F310C26EC282C2B2FED7C3CFF8
:100F4000F3FFC4CFF4FF00D0E552E7CFD9FF120082
:100F5000D9CFE6FFE1CFD9FF020EE126A60E146E2F
:100F6000230E156E166A14C0E6FF15C0E6FF16C004
:100F7000E6FF11EC11F0E552E552E552C2C014F063
:100F8000156A14BE156814C0E6FF15C0E6FF9A0E78
:100F9000166E230E176E186A16C0E6FF17C0E6FF1E
:100FA00018C0E6FF11EC11F0196E050EE15E195044
:100FB000C3C014F0156A14BE156814C0E6FF15C04E
:100FC000E6FF890E166E230E176E186A16C0E6FF2E
:100FD00017C0E6FF18C0E6FF11EC11F0196E050E00
:100FE000E15E1950DE6ADD6ADECF14F0DDCF15F068
:100FF000C3C016F0176A16BE176815501718E8AE6A
:1010000002D0173404D01650145C1750155852E211
:101010000001D3511CE0D4C014F0156A14BE156849
:10102000DF50141803E1DE52DD50151810E1800E78
:10103000146E230E156E166A14C0E6FF15C0E6FF87
:1010400016C0E6FF11EC11F0E552E552E552DECF95
:10105000E9FFDDCFEAFFC90EE926000EEA22EFCF55
:1010600014F0156A14BE156814C0E6FF15C0E6FF3B
:10107000DECF16F0DDCF17F0010E1626000E172278
:1010800016C0E6FF17C0E6FF6E0E186E230E196E2F
:101090001A6A18C0E6FF19C0E6FF1AC0E6FF11EC95
:1010A00011F01B6E070EE15E1B50DF2A010E01E3FB
:1010B000DB2A9AD7C4C014F0156A14BE156814C090
:1010C000E6FF15C0E6FF610E166E230E176E186A56
:1010D00016C0E6FF17C0E6FF18C0E6FF11EC11F0DE
:1010E000196E050EE15E1950C5C014F0156A14BEE4
:1010F000156814C0E6FF15C0E6FF550E166E230EE8
:10110000176E186A16C0E6FF17C0E6FF18C0E6FFA4
:1011100011EC11F0196E050EE15E1950C6C014F005
:10112000156A14BE156814C0E6FF15C0E6FF4A0E26
:10113000166E230E176E186A16C0E6FF17C0E6FF7C
:1011400018C0E6FF11EC11F0196E050EE15E1950A2
:10115000C7C014F0156A14BE156814C0E6FF15C0A8
:10116000E6FF3E0E166E230E176E186A16C0E6FFD7
:1011700017C0E6FF18C0E6FF11EC11F0196E050E5E
:10118000E15E1950020EE15C02E2E16AE552E16EB5
:10119000E552E7CFD9FF1200D9CFE6FFE1CFD9FF63
:1011A000FD0EDBCFE9FFFE0EDBCFEAFFEF6AFD0E9F
:1011B000DBCFE9FFFE0EDBCFEAFFEE52F00EEF6E63
:1011C000E552E7CFD9FF1200D9CFE6FFE1CFD9FF33
:1011D000FD0EDBCFE9FFFE0EDBCFEAFF010EEF6E67
:1011E000FD0EDBCFE9FFFE0EDBCFEAFFEE52EF6A2A
:1011F000FD0EDBCFE9FFFE0EDBCFEAFF020EE92694
:10120000000EEA22EF6AFD0EDBCFE9FFFE0EDBCF18
:10121000EAFF030EE926000EEA22EF6AFD0EDBCF9D
:10122000E9FFFE0EDBCFEAFF040EE926000EEA22FC
:10123000EF6AE552E7CFD9FF1200D9CFE6FFE1CF41
:10124000D9FFFD0EDBCFE9FFFE0EDBCFEAFF010E7B
:10125000EF6EFD0EDBCFE9FFFE0EDBCFEAFFEE52B5
:10126000020EEF6EFD0EDBCFE9FFFE0EDBCFEAFFD5
:10127000020EE926000EEA22030EEF6EFD0EDBCF12
:10128000E9FFFE0EDBCFEAFF030EE926000EEA229D
:10129000EF6AFD0EDBCFE9FFFE0EDBCFEAFF040EA7
:1012A000E926000EEA22EF6AFD0EDBCFE9FFFE0E13
:1012B000DBCFEAFF050EE926000EEA22140EEF6EE0
:1012C000E552E7CFD9FF1200D9CFE6FFE1CFD9FF32
:1012D000020EE126FD0EDBCFE9FFFE0EDBCFEAFFBB
:1012E0000B0EE926000EEA22010EEF6EFD0EDBCF9B
:1012F000E9FFFE0EDBCFEAFF0A0EE926000EEA2226
:10130000EF6ADE6ADD6ADECF14F0DDCF15F0D8902B
:10131000155004E60A0E145C000E155816E2FD0E78
:10132000DBCFE9FFFE0EDBCFEAFFE9CF14F0EACF17
:1013300015F0DE501424E96EDD501520EA6EEF6AD8
:10134000DF2A010E01E3DB2ADED7020EE15C02E2B6
:10135000E16AE552E16EE552E7CFD9FF1200020ED5
:101360000001C25D15E10001D42B0001C351000151
:10137000E76ED419E8AE02D0E73402D0E750D45D6E
:1013800003E2010ED36F03D0D36B0001C22B47D011
:10139000C22B060EE76EC219E8AE02D0C23503D0EA
:1013A000E750D880C25502E2010EC26FC20537E194
:1013B000C2C0BBF0C3C0BCF0C4C0BDF0C5C0BEF06D
:1013C000C6C0BFF0C7C0C0F0010EC86F0001E06B1F
:1013D0000001C3510001E76EE019E8AE02D0E73426
:1013E00002D0E750E05D19E2E0C0E9FFEA6AE9BE39
:1013F000EA68C90EE926000EEA22EF50E66EE0C068
:10140000E9FFEA6AE9BEEA68D50EE926000EEA229B
:10141000E552E750EF6EE02BDBD70001D4691200F4
:1014200012000001D3512BE0D4C0E9FFEA6AE9BE03
:10143000EA68C90EE926000EEA22EF2AD4C0E9FFC5
:10144000EA6AE9BEEA68C90EE926000EEA22EFCF91
:1014500014F0170EE76E1418E8AE02D0143403D05F
:10146000E750D88014540AE2D4C0E9FFEA6AE9BE22
:10147000EA68C90EE926000EEA22EF6A56D000019A
:10148000C251060A43E0030A33E0010A23E0070AD7
:1014900012E0010A01E049D0C32B0A0EE76EC3191E
:1014A000E8AE02D0C33503D0E750D880C35502E27E
:1014B000010EC36F3AD0C42B050EE76EC419E8AE17
:1014C00002D0C43503D0E750D880C45502E2010EE3
:1014D000C46F2BD0C52B170EE76EC519E8AE02D02E
:1014E000C53503D0E750D880C55501E2C56B1DD086
:1014F000C62B3B0EE76EC619E8AE02D0C63503D048
:10150000E750D880C65501E2C66B0FD0C72B190E25
:10151000E76EC719E8AE02D0C73503D0E750D880D0
:10152000C75502E2120EC76F00D012000001D3515E
:1015300023E0D4C0E9FFEA6AE9BEEA68C90EE926F9
:10154000000EEA22EF06D4C0E9FFEA6AE9BEEA68C3
:10155000C90EE926000EEA22EFCF14F014340BE393
:10156000D4C0E9FFEA6AE9BEEA68C90EE926000EBE
:10157000EA22170EEF6E43D00001C251060A31E095
:10158000030A29E0010A21E0070A11E0010A01E04B
:1015900036D0C307010EE76EC319E8AE02D0E734B8
:1015A00002D0E750C35D02E20A0EC36F28D0C40721
:1015B000010EE76EC419E8AE02D0E73402D0E7505E
:1015C000C45D02E2050EC46F1AD0C507C53502E33B
:1015D000170EC56F14D0C607C63502E33B0EC66FA3
:1015E0000ED0C707120EE76EC719E8AE02D0E73477
:1015F00002D0E750C75D02E2190EC76F00D012009B
:10160000D9CFE6FFE1CFD9FF0C0EE126DF6A010E4C
:10161000DB6A020EDB6A030EDB6A040EDB6A050E70
:10162000DB6A060EDB6A070EDB6A080EDB6A090E50
:10163000DB6A0A0EDB6A0B0EDB6ACCEC06F0F00EFE
:1016400080140001B46FB551B45D1CE0F00EB45DC0
:1016500019E0B4C0B5F0B451700A10E0C00A0BE054
:10166000600A06E0300A01E00CD0AFEC09F009D0C6
:1016700011EC0AF006D096EC0AF003D010EC0AF058
:1016800000D005D0F00EB45D02E1F00EB56FF2A40B
:10169000ECD2B00EE66E3C0EE66E3CEC06F0E55287
:1016A000E552DF2ADFCF14F0050EE76E1418E8AE1E
:1016B00002D0E73402D0E750145C01E2D6D2DF6AF0
:1016C000010EDB6ADBCF14F0030EE76E1418E8AEF0
:1016D00002D0E73402D0E750145C01E3C3D2010E1C
:1016E000DBCFE6FF8EEC07F0E552F3CF18F0F4CF36
:1016F00019F0010EDBCFE9FFEA6AE9BEEA681C0EC9
:10170000EA02F3CFEAFFE902F3CFE9FFF450EA2659
:10171000600EE926000EEA22E9CF14F0EACF15F0B8
:10172000010EDBCFE9FFEA6AE9BEEA681C0EEA02B5
:10173000F3CFEAFFE902F3CFE9FFF450EA26600EA7
:10174000E926000EEA221A0EE926000EEA22EFCF61
:1017500016F0176A16BE1768D8901636173614504A
:101760001624E96E15501720EA6E18C0EEFF19C056
:10177000EDFF010EDBCFE9FFEA6AE9BEEA681C0E65
:10178000EA02F3CFEAFFE902F3CFE9FFF450EA26D9
:10179000600EE926000EEA221A0EE926000EEA2261
:1017A000EF2A010EDBCFE9FFEA6AE9BEEA681C0E08
:1017B000EA02F3CFEAFFE902F3CFE9FFF450EA26A9
:1017C000600EE926000EEA221A0EE926000EEA2231
:1017D000EFCF14F00A0EE76E1418E8AE02D0E7342B
:1017E00002D0E750145C31E3010EDBCFE9FFEA6A77
:1017F000E9BEEA681C0EEA02F3CFEAFFE902F3CF82
:10180000E9FFF450EA26600EE926000EEA221A0EDD
:10181000E926000EEA22EF6A010EDBCFE9FFEA6A51
:10182000E9BEEA681C0EEA02F3CFEAFFE902F3CF51
:10183000E9FFF450EA26600EE926000EEA221B0EAC
:10184000E926000EEA22010EEF6E010EDBCFE9FF62
:10185000EA6AE9BEEA681C0EEA02F3CFEAFFE9028F
:10186000F3CFE9FFF450EA26600EE926000EEA22E3
:101870001B0EE926000EEA22EF5001E1F0D1080E1E
:10188000DB6A090EDB6A0A0EDB6A0B0EDB6A020EEC
:10189000DB6A030EDB6A040EDB6A050EDB6A060EEA
:1018A000DB6A070EDB6A060EDBCF14F0070EDBCF18
:1018B00015F0D890155004E60A0E145C000E155869
:1018C00045E2010EDBCFE9FFEA6AE9BEEA681C0ED9
:1018D000EA02F3CFEAFFE902F3CFE9FFF450EA2688
:1018E000600EE926000EEA22E9CF18F0EACF19F0DF
:1018F000020E086E096A060EDBCF0DF0070EDBCF75
:101900000EF0E0EC0FF018500624E96E1950072095
:10191000EA6EEECF14F0EFCF15F0166A176A15AE27
:1019200002D016681768D950020FE96EDACFEAFFC5
:101930001450EE261550EE221650EE221750EE22CD
:10194000060EDB2A070E01E3DB2AADD7020EDBCF42
:1019500014F0030EDBCF15F0040EDBCF16F0050EEE
:10196000DBCF17F00A0E0B6E0C6A0D6A0E6A14C0FC
:1019700006F015C007F016C008F017C009F0ACEC6F
:101980000FF006C014F007C015F008C016F009C02B
:1019900017F0010EDBCFE9FFEA6AE9BEEA681C0E28
:1019A000EA02F3CFEAFFE902F3CFE9FFF450EA26B7
:1019B000600EE926000EEA22140EE926000EEA2245
:1019C00014C0EEFF15C0EDFF010EDBCFE9FFEA6AA0
:1019D000E9BEEA681C0EEA02F3CFEAFFE902F3CFA0
:1019E000E9FFF450EA26600EE926000EEA22140E02
:1019F000E926000EEA22EECF1CF0EFCF1DF01CC04E
:101A000008F01DC009F042EC0EF007C018F008C045
:101A100019F009C01AF00AC01BF00C6A0D6AA00E7A
:101A20000E6E400E0F6E18C007F019C008F01AC0F5
:101A300009F01BC00AF0A8EC0EF007C014F008C0B3
:101A400015F009C016F00AC017F00C6A0D6A800E76
:101A50000E6E440E0F6E14C007F015C008F016C0CD
:101A600009F017C00AF055EC0EF0080E07C0DBFFB6
:101A7000090E08C0DBFF0A0E09C0DBFF0B0E0AC00F
:101A8000DBFF010EDB50020A01E1A9D0030A67E087
:101A9000010A01E0E4D0146A156A166A3F0E176E57
:101AA000D950080FE96EDACFEAFFEECF07F0EECF9C
:101AB00008F0EECF09F0EFCF0AF014C00CF015C01B
:101AC0000DF016C00EF017C00FF015EC0FF00AC0A5
:101AD000EDFF09C0EDFF08C0EDFF07C0EFFF080EE6
:101AE000DBCF16F0090EDBCF17F00A0EDBCF18F0B4
:101AF0000B0EDBCF19F00A0E0C6ED70E0D6E230EF7
:101B00000E6E3C0E0F6E16C007F017C008F018C01E
:101B100009F019C00AF055EC0EF00DEC10F008C0F9
:101B200014F009C015F0010EDBCFE9FFEA6AE9BE47
:101B3000EA681C0EEA02F3CFEAFFE902F3CFE9FFFD
:101B4000F450EA26600EE926000EEA22140EE92679
:101B5000000EEA2214C0EEFF15C0EDFF80D0080E83
:101B6000DBCF16F0090EDBCF17F00A0EDBCF18F033
:101B70000B0EDBCF19F0CD0E0C6ECC0E0D6E4C0E95
:101B80000E6E3D0E0F6E16C007F017C008F018C09D
:101B900009F019C00AF055EC0EF00DEC10F008C079
:101BA00014F009C015F0010EDBCFE9FFEA6AE9BEC7
:101BB000EA681C0EEA02F3CFEAFFE902F3CFE9FF7D
:101BC000F450EA26600EE926000EEA22140EE926F9
:101BD000000EEA2214C0EEFF15C0EDFF40D0080E43
:101BE000DBCF16F0090EDBCF17F00A0EDBCF18F0B3
:101BF0000B0EDBCF19F09C0E0C6E5B0E0D6EB60E4D
:101C00000E6E390E0F6E16C007F017C008F018C020
:101C100009F019C00AF055EC0EF00DEC10F008C0F8
:101C200014F009C015F0010EDBCFE9FFEA6AE9BE46
:101C3000EA681C0EEA02F3CFEAFFE902F3CFE9FFFC
:101C4000F450EA26600EE926000EEA22140EE92678
:101C5000000EEA2214C0EEFF15C0EDFF00D0010E09
:101C6000DB2A30D5A8EC07F000D0E9D40C0EE15CFB
:101C700002E2E16AE552E16EE552E7CFD9FF1200D8
:101C8000019E08D0019E09AE05D0086C091EE86AC5
:101C90000922018E09C003F008C002F0136A126A1B
:101CA0008E0E046E056A58EF10F0016A94EC10F085
:101CB000ACEC10F001B63CEF10F001A205D001BA77
:101CC0003CEF10F043EF10F001BA4FEF10F001A01D
:101CD00005D001B83CEF10F04FEF10F001B843EF22
:101CE00010F0056A7F0E0A24046EE86A05220F5080
:101CF000045EE86A055A1A0E106E0A6A126A136ABE
:101D0000026A036A0C50075E0D50085A0E50095AB9
:101D1000000E0A5A09E70C5007260D5008220E50F3
:101D20000922000E0A2201D0128AD89007360836FE
:101D300009360A36D8901236133602360336102E7C
:101D4000E1D7095008100710D8A4128A58EF10F0F4
:101D5000016A94EC10F0ACEC10F001B63CEF10F01E
:101D600001A205D001B83CEF10F043EF10F001AA3A
:101D700005D001B03CEF10F043EF10F001B002D0FD
:101D800001A802D04FEF10F0056A0F500A24046E2C
:101D9000E86A05227E0E045EE86A055A126A136A32
:101DA000026A036A0E500902F4CF03F0F3CF02F087
:101DB0000D500902F3501326F4500222000E0322A4
:101DC0000E500802F3501326F4500222000E032294
:101DD0000C500902F3501226F4501322000E022276
:101DE00003220D500802F3501226F4501322000E65
:101DF000022203220E500702F3501226F45013223F
:101E0000000E022203220C500802F4501226000E8B
:101E10001322022203220D500702F4501226000E54
:101E200013220222032258EF10F00F7E016A94EC75
:101E300010F0ACEC10F001B63CEF10F001A20AD0AB
:101E400001AA03D001BE3CEF10F001A448EF10F04E
:101E500045EF10F001AA05D001AC48EF10F045EFB6
:101E600010F001A00AD001A808D001BE04D001A43E
:101E700002D051EF10F055EF10F0126A056A0F50C2
:101E80000A5C116E10E307C013F008C002F009C02D
:101E900003F00AC010F00CC007F00DC008F00EC02F
:101EA00009F0013A09D00CC013F00DC002F00EC0C9
:101EB00003F00FC010F0116C019E01BC018E10C028
:101EC00004F001B084EF10F01A0E116084EF10F0EE
:101ED000046A0A6A01A408D0076C081E091E0A1EBB
:101EE000E86A082209220A2201AC08D0136C021EFB
:101EF000031E041EE86A022203220422066A11520B
:101F000007E00A340932083207320632112EF9D7B7
:101F10000750132608500222095003220A500422B7
:101F200006C012F0019E04AE0BD0126C131E021EEE
:101F3000031E041EE86A1322022203220422018ED9
:101F400004A006D0D8800332023213321232102A93
:101F500010C004F058EF10F0006AE86A0EAEB9EF56
:101F60000FF00B6C0C1E0D1E0E1E0C220D220E22ED
:101F7000001E09AEC4EF0FF0066C071E081E091EF6
:101F8000072208220922001E4AEC12F009BEDBEFEC
:101F90000FF000AE000C066C071E081E091EE86A52
:101FA000072208220922026C031E041E051E0322BA
:101FB00004220522000C00BECBEF0FF00188FF0CBD
:101FC00009C013F008C012F008500D02F4CF07F05A
:101FD000F3CF06F009500E02F4CF09F0F3CF08F06A
:101FE0000D02F3500726F4500822E86A0922125025
:101FF0000E02F3500726F4500822E86A09220EAEBA
:1020000006EF10F01250085E1350095A13AE000C80
:102010000D50085E0E50095A000C016A94EC10F045
:1020200001B617EF10F001A20ED001B405D07F0E5B
:10203000096EFF0E086E1FD0800E096E086A1BD055
:10204000096A086A18D001B0FBD78F0E0A60EDD775
:102050007E0E0A64F5D78E0E0A5C05E0D890093230
:1020600008320A2AF8D701A406D0086C091EE86ACB
:10207000092209AEE5D712007F0E0A6EFF0E096E27
:10208000086E076E12007F0E01BEFF0E0A6E02D0B0
:102090007F0E0A6E800E096E086A076AF3D701AEDA
:1020A00004D0800E0A6E096AF7D70A6A096AF4D763
:1020B0000350021013101210F8E005BEF0D703BE53
:1020C0000CD004500510EBE0D890123613360236CF
:1020D00003360406D8A00506F2D70550D4E104283B
:1020E000D2E012AE11D07F0E121402E113A00CD078
:1020F000132AE86A0222032207E3D880033202325D
:102100001332042A0428BFE00450C9E013C007F0CA
:1021100002C008F00334096E04300A6E09320A9EC8
:1021200001BE0A8E42EF10F009360A3602E301843E
:10213000017E06E101800A6A096A086A076A1200DC
:102140000A2803E0D88009321200D890093202E14F
:1021500001821200018612000E360F3602E3018C56
:10216000017E06E101880F6A0E6A0D6A0C6A120090
:102170000F2803E0D8800E321200D8900E32EAE128
:04218000018A1200BE
:0C218400060EF66E000EF76E000EF86EF0
:1021900001010900F550056F0900F550066F03E1D4
:1021A000056701D03DD00900F550006F0900F550DA
:1021B000016F0900F550026F09000900F550E96E42
:1021C0000900F550EA6E090009000900F550036F97
:1021D0000900F550046F09000900F6CF07F1F7CFA9
:1021E00008F1F8CF09F100C1F6FF01C1F7FF02C104
:1021F000F8FF0101035302E1045307E00900F55021
:10220000EE6E0307F8E20407F9D707C1F6FF08C12D
:10221000F7FF09C1F8FF01010507000E065BBFD7F4
:022220001200AA
:0E222200D9CFE6FFDACFE6FFE1CFD9FFE2CF5A
:10223000DAFFE652E652E652E652D950FB0F146E30
:10224000FF0EDA20156E14C0DEFFDD6EDECFE6FF76
:10225000DDCFE6FFFB0EDBCFE6FFFC0EDBCFE6FFBC
:10226000FD0EDBCFE6FFFDC0E6FFFEC0E6FF26EC7D
:1022700000F0146E070EE15C02E2E16AE552E16EE5
:102280001450020EF3CFDBFF030EF4CFDBFF020E80
:10229000DBCF14F0030EDBCF15F014C0F3FF15C035
:1022A000F4FF040EE15C02E2E16AE552E16EE55200
:0A22B000E5CFDAFFE7CFD9FF1200F7
:0622BA00D9CFE6FFDACFE8
:1022C000E6FFE1CFD9FFE2CFDAFFFB0EDBCF14F060
:1022D000FC0EDBCF15F00001800E15141AE1FB0E89
:1022E000DBCFE9FFFC0EDBCFEAFFEECFF3FFEDCF54
:1022F000F4FFEE2A000EEF22F3CFE9FFF4CFEAFF5E
:10230000FD0EDBCFEFFFEF50156AF36E15C0F4FF43
:1023100010D0FB0EDB50FE0806E1FD0EDBCFE6FF22
:102320009EEC12F005D0FD0EDBCFE6FFB5EC12F00F
:0E233000E552E552E5CFDAFFE7CFD9FF120004
:02233E000A0D86
:1023400054656D703A20253369000A0D4D696E3A67
:1023500020253369000A0D486F75723A20253369CC
:1023600000506F7274696F6E3A20253369005368AC
:102370006564756C655F25693A202533690A0D002F
:1023800053657474696E6720000A0D53686564753F
:102390006C653A202533690A0D000A0D4D6F64659E
:1023A0003A20253369001B5B324A1B5B4850657439
:0D23B000487562205374617475730A0D0046
:0223BE000650C7
:1023C0000B02F3CF02F0F4CF03F00C02F35003261C
:1023D000000EF420046E06500D02F3500426000E89
:1023E000F420056E06500E02F350052607500B022E
:1023F000F3500326F4500422000E052207500C026D
:10240000F3500426F450052207500D02F350052620
:1024100008500B02F3500426F450052208500C0219
:0E242000F350052609500B02F350052612005A
:02242E00FE0EA0
:10243000E3CFE9FFFF0EE3CFEAFFF36AF46AEE525F
:1024400003E0F34AF42AFBD71200FF0EE3CFF8FFB4
:10245000E552FF0EE3CFF7FFE552FF0EE3CFF6FFA5
:10246000E552E66AE66AE66A0900F55209E0FD0E01
:10247000E32A05E1FE0EE32A02E1FF0EE32AF4D788
:10248000FD0EE3CF07F0FE0EE3CF08F0FF0EE3CF23
:0424900009F012003D
:0C249400056A046A036A026A200EE76E03
:1024A000D890063607360836093602360336043623
:1024B00005360B50025C0C5003580D5004580E505A
:1024C000055809E30B50025E0C50035A0D50045A94
:0C24D0000E50055A062AE72EE4D7120031
:0424DC00F36AF46A41
:1024E000FF0EE124E96EFF0EE220EA6EED6607D0F2
:1024F0002F0EEF6404D03A0EEF6001D0F32A1200E1
:10250000000EF36E00EE00F0060E01D81200EA6035
:1025100002D0EE6AFCD7F350E9601200EE6AFCD7F5
:1025200015EE00F025EE00F0F86A019CC2EC10F008
:0C253000B6EC12F000EC0BF0FBD7120030
:04253C00FF0EE3505B
:10254000ACBA04D0AF6AAB8EAC8A949CACA2FED776
:08255000AD6EF36EF46A120097
:082558003031323334353637DF
:09256000383961626364656600AC
:02256A0012005D
:02256C0012005B
:02256E00FEFF6E
:1025700001020408C20164007017CEFF0000A60427
:0C25800023003C00B0040F0028002003E2
:020000040030CA
:0100010028D6
:0100020003FA
:010003003CC0
:01000500BD3D
:010006008178
:00000001FF
