:020000040000FA
:06000000CCEF23F012001A
:020006001200E6
:0600080047EF1FF012009B
:02000E000200EE
:10001000FC470000A800000013000000FA470000A1
:08002000C50000000200000011
:08002800D9CFE6FFE1CFD9FFBB
:10003000F294FD0EDBCF14F0FE0EDBCF15F015C0F1
:1000400014F0156A1450D76EFD0EDB50D66EE552D3
:10005000E7CFD9FF1200D9CFE6FFE1CFD9FF020EDB
:10006000E126DE6ADD6A520ED36ED3A4FED70F01FD
:10007000386B896A92683A6B8B6AC00E946E396BE2
:100080008A6AC30E936E3B958C949594DC0EE66E53
:100090000B0EE66EC9DFE552E552930ED56E400EAB
:1000A000B86E260EAC6E900EAB6E190EAF6EB06AC7
:1000B000F194F294F28A9F9A9E9A9D9AD09EC00ED5
:1000C000F212620EE66E000EE66E00DAE552E552BE
:1000D000600EE66E000EE66EE1D9E552E5526C0E5A
:1000E000E66E000EE66E71DAE552E552670EE66ED8
:1000F000000EE66E6ADAE552E552710EE66E000E0B
:10010000E66EC1DAE552E5527D0EE66E000EE66E51
:10011000BADAE552E552890EE66E000EE66E91DA25
:10012000E552E5528C0EE66E000EE66E8ADAE55276
:10013000E55203EC16F081EC1BF0020EE15C02E2EA
:10014000E16AE552E16EE552E7CFD9FF1200D9CF5F
:10015000E6FFE1CFD9FF020EE126D10E146E410E6B
:10016000156E166A14C0E6FF15C0E6FF16C0E6FF5E
:10017000E7EC21F0E552E552E5528BC014F0156A28
:1001800014BE156814C0E6FF15C0E6FF8AC016F05D
:10019000176A16BE176816C0E6FF17C0E6FF89C0CB
:1001A00018F0196A18BE196818C0E6FF19C0E6FFF2
:1001B000B20E1A6E410E1B6E1C6A1AC0E6FF1BC0FF
:1001C000E6FF1CC0E6FFE7EC21F01D6E090EE15EC4
:1001D0001D50A80E146E410E156E166A14C0E6FF6F
:1001E00015C0E6FF16C0E6FFE7EC21F0E552E55248
:1001F000E55200016C51060A60E0030A4DE0010A75
:100200003AE0070A27E0010A14E0030A01E066D099
:10021000A00E146E410E156E166A14C0E6FF15C0CE
:10022000E6FF16C0E6FFE7EC21F0E552E552E552A5
:1002300055D0970E146E410E156E166A14C0E6FF67
:1002400015C0E6FF16C0E6FFE7EC21F0E552E552E7
:10025000E55244D08F0E146E410E156E166A14C00E
:10026000E6FF15C0E6FF16C0E6FFE7EC21F0E55219
:10027000E552E55233D08A0E146E410E156E166AA1
:1002800014C0E6FF15C0E6FF16C0E6FFE7EC21F05C
:10029000E552E552E55222D0830E146E410E156EE2
:1002A000166A14C0E6FF15C0E6FF16C0E6FFE7ECCD
:1002B00021F0E552E552E55211D0780E146E410E50
:1002C000156E166A14C0E6FF15C0E6FF16C0E6FFFD
:1002D000E7EC21F0E552E552E55200D000016D5106
:1002E000E66EE66A660E146E410E156E166A14C04E
:1002F000E6FF15C0E6FF16C0E6FFE7EC21F0176E3B
:10030000050EE15E1750DE6ADD6ADECF14F0DDCF48
:1003100015F000016D51000115AE02D0D89003D048
:10032000145C000E155852E200017B511CE07CC0A9
:1003300014F0156A14BE1568DF50141803E1DE527C
:10034000DD50151810E15D0E146E410E156E166A23
:1003500014C0E6FF15C0E6FF16C0E6FFE7EC21F08B
:10036000E552E552E552DECFE9FFDDCFEAFF710E3F
:10037000E926000EEA22EFCF14F0156A14BE1568C4
:1003800014C0E6FF15C0E6FFDECF16F0DDCF17F094
:10039000010E1626000E172216C0E6FF17C0E6FF54
:1003A0004A0E186E410E196E1A6A18C0E6FF19C07F
:1003B000E6FF1AC0E6FFE7EC21F01B6E070EE15ED8
:1003C0001B50DF2A010E01E3DB2A9FD700016E518B
:1003D000E66EE66A3D0E146E410E156E166A14C086
:1003E000E6FF15C0E6FF16C0E6FFE7EC21F0176E4A
:1003F000050EE15E175089C014F0156A14BE156829
:1004000014C0E6FF15C0E6FF310E166E410E176EE2
:10041000186A16C0E6FF17C0E6FF18C0E6FFE7EC53
:1004200021F0196E050EE15E19508AC014F0156AAC
:1004300014BE156814C0E6FF15C0E6FF260E166E42
:10044000410E176E186A16C0E6FF17C0E6FF18C007
:10045000E6FFE7EC21F0196E050EE15E1950000190
:100460006F51E66EE66A1A0E146E410E156E166A2C
:1004700014C0E6FF15C0E6FF16C0E6FFE7EC21F06A
:10048000176E050EE15E1750020EE15C02E2E16AB2
:10049000E552E16EE552E7CFD9FF1200D9CFE6FF72
:1004A000E1CFD9FFFD0EDBCFE9FFFE0EDBCFEAFF88
:1004B000EF6AFD0EDBCFE9FFFE0EDBCFEAFFEE5267
:1004C000F00EEF6EE552E7CFD9FF1200D9CFE6FF6D
:1004D000E1CFD9FFFD0EDBCFE9FFFE0EDBCFEAFF58
:1004E000010EEF6EFD0EDBCFE9FFFE0EDBCFEAFF64
:1004F000EE52EF6AFD0EDBCFE9FFFE0EDBCFEAFF27
:10050000020EE926000EEA22EF6AFD0EDBCFE9FFBC
:10051000FE0EDBCFEAFF030EE926000EEA22EF6AA9
:10052000FD0EDBCFE9FFFE0EDBCFEAFF040EE9266E
:10053000000EEA22EF6AE552E7CFD9FF1200D9CFC9
:10054000E6FFE1CFD9FFA650010B03E1A650020B55
:1005500001E0F9D7FE0EDB50A96EFD0EDB50A86E50
:10056000A69EA69CA684F29E550EA76EAA0EA76E06
:10057000A682A6B2FED7F28EA694E552E7CFD9FFA7
:100580001200D9CFE6FFE1CFD9FFA650010B03E15E
:10059000A650020B01E0F9D7FE0EDB50A96EA69E15
:1005A000A69CA680A650010B03E1A650020B01E019
:1005B000F9D7A850146E156A14C0F3FF15C0F4FFE4
:1005C00000D0E552E7CFD9FF1200D9CFE6FFE1CF47
:1005D000D9FFFD0EDBCFE9FFFE0EDBCFEAFF010EF8
:1005E000EF6EFD0EDBCFE9FFFE0EDBCFEAFFEE5232
:1005F000020EEF6EFD0EDBCFE9FFFE0EDBCFEAFF52
:10060000020EE926000EEA22030EEF6EFD0EDBCF8E
:10061000E9FFFE0EDBCFEAFF030EE926000EEA2219
:10062000190EEF6EFD0EDBCFE9FFFE0EDBCFEAFF0A
:10063000040EE926000EEA22EF6AE552E7CFD9FF61
:100640001200D9CFE6FFE1CFD9FFFD0EDBCFE9FFE6
:10065000FE0EDBCFEAFFEF6AFD0EDBCFE9FFFE0EF9
:10066000DBCFEAFFEE52EF6AFD0EDBCFE9FFFE0EB5
:10067000DBCFEAFF020EE926000EEA22EF6AE5521E
:10068000E7CFD9FF1200D9CFE6FFE1CFD9FF020EA5
:10069000E126FD0EDBCFE9FFFE0EDBCFEAFF0B0EFE
:1006A000E926000EEA22EF68FD0EDBCFE9FFFE0E21
:1006B000DBCFEAFF0A0EE926000EEA22EF6ADE6AC5
:1006C000DD6ADECF14F0DDCF15F0D890155004E6CA
:1006D0000A0E145C000E15581FE2DECF16F0DDCFB7
:1006E00017F0010E1626000E1722FD0EDBCFE9FFD4
:1006F000FE0EDBCFEAFFE9CF14F0EACF15F0DE50B3
:100700001424E96EDD501520EA6E16C0EFFFDF2AD3
:10071000010E01E3DB2AD5D7020EE15C02E2E16AB9
:10072000E552E16EE552E7CFD9FF1200D9CFE6FFDF
:10073000E1CFD9FF020EE126FE0EDB0470E10001DD
:100740006A51E66EE66A6951E66EE66A0A0E146E52
:10075000410E156E166A14C0E6FF15C0E6FF16C0FE
:10076000E6FFE7EC21F0176E070EE15E1750070E6B
:10077000146E410E156E166A14C0E6FF15C0E6FF32
:1007800016C0E6FFE7EC21F0E552E552E552DE6ADD
:10079000DD6ADECF14F0DDCF15F000016D510001F0
:1007A00015AE02D0D89003D0145C000E155827E285
:1007B000DECFE9FFDDCFEAFF7D0EE926000EEA225B
:1007C000EFCF14F0156A14BE156814C0E6FF15C00B
:1007D000E6FF010E166E410E176E186A16C0E6FF90
:1007E00017C0E6FF18C0E6FFE7EC21F0196E050E12
:1007F000E15E1950DF2A010E01E3DB2ACAD7FD0EA4
:10080000146E400E156E166A14C0E6FF15C0E6FFA2
:1008100016C0E6FFE7EC21F0E552E552E552FE0E88
:10082000DB50020817E1FC0EDBCFE6FFFD0EDBCF4D
:10083000E6FFEF0E146E400E156E166A14C0E6FF4A
:1008400015C0E6FF16C0E6FFE7EC21F0176E050EB7
:10085000E15E1750FE0EDB50030817E1FC0EDBCF04
:10086000E6FFFD0EDBCFE6FFE10E146E400E156EC7
:10087000166A14C0E6FF15C0E6FF16C0E6FFE7ECF7
:1008800021F0176E050EE15E1750FE0EDB500408D6
:1008900017E1FC0EDBCFE6FFFD0EDBCFE6FFD30E4C
:1008A000146E400E156E166A14C0E6FF15C0E6FF02
:1008B00016C0E6FFE7EC21F0176E050EE15E17505B
:1008C000FE0EDB50050817E1FC0EDBCFE6FFFD0E48
:1008D000DBCFE6FFC50E146E400E156E166A14C00F
:1008E000E6FF15C0E6FF16C0E6FFE7EC21F0176E45
:1008F000050EE15E1750020EE15C02E2E16AE5528C
:10090000E16EE552E7CFD9FF1200020E0001B819DF
:1009100001E1B9514DE0010EB81901E1B9513CE0D6
:10092000B85101E1B95101E07FD00001D890B75131
:1009300004E6000EB65D020EB75924E20001632BF7
:10094000040EE76E6319E8AE02D0E73402D0E75038
:10095000635D01E3636B63C0E9FFEA6AE9BEEA68CD
:10096000240EE926460EEA22EF50040DF350816E64
:10097000030EE66EACEC23F0E5520001B62B000E40
:10098000B72309D0010E0001B86FB96B0001B66B37
:10099000B76B0001BA6B48D0000169290001D8800B
:1009A000BA5505E2020E0001B86FB96B00D03CD019
:1009B0000001D890B75104E6000EB65D020EB7599B
:1009C0001DE200016307633502E3030E636F63C03A
:1009D000E9FFEA6AE9BEEA68240EE926460EEA2241
:1009E000EF50040DF350816E030EE66EACEC23F075
:1009F000E5520001B62B000EB72315D00001B86BED
:100A0000B96B0001B66BB76B0001AD5102E0AD6B85
:100A10000AD00001882B000168510001885D03E3C2
:100A2000886B0001AC6B00D01200020E00016C5DFF
:100A300012E100017C2B00016D5100017C5D05E29B
:100A4000010E7B6F17EC10F005D07B6B00016C2B57
:100A50007AEC10F090D06C050FE1030EE66E6CECB2
:100A600017F0E552040EE66E6CEC17F0E552050E39
:100A7000E66E6CEC17F0E55200016C2B040E6C5D19
:100A800003E189C08CF00BD0050E6C5D03E18AC0D8
:100A90008DF005D06C51060802E2010E6C6F6C05FA
:100AA00068E16CC067F06DC068F06EC069F06FC03F
:100AB0006AF06DC0E6FF010EE66E41DDE552E552DB
:100AC0006EC0E6FF020EE66E3ADDE552E5526FC0FB
:100AD000E6FF030EE66E33DDE552E5528CC0E6FF1D
:100AE000040EE66E2CDDE552E5528DC0E6FF050EE4
:100AF000E66E25DDE552E5520001010E6B6F000147
:100B00007C6B00016D5100017C5D2BE27CC0E9FF34
:100B1000EA6AE9BEEA68710EE926000EEA22EF50A1
:100B2000E66E7CC0E9FFEA6AE9BEEA687D0EE92666
:100B3000000EEA22E552E750EF6E7CC0E9FFEA6A58
:100B4000E9BEEA68710EE926000EEA22EF50E66E71
:100B5000100E7C25E66EF3DCE552E55200017C2B9D
:100B6000D0D77C698CC089F08DC08AF0C8EC0FF0BA
:100B700002D07AEC10F0120000017B513FE07CC003
:100B8000E9FFEA6AE9BEEA68710EE926000EEA2288
:100B9000EF2A7CC0E9FFEA6AE9BEEA68710EE9263D
:100BA000000EEA22EFCF14F0170EE76E1418E8AE2D
:100BB00002D0143403D0E750D88014540AE27CC029
:100BC000E9FFEA6AE9BEEA68710EE926000EEA2248
:100BD000EF6A7CC0E9FFEA6AE9BEEA68710EE926BD
:100BE000000EEA22EF50E66E040EE66E0C0EE66E84
:100BF00030EC0FF0E552E552E552EBD000016C51BC
:100C0000060A01E1B9D0030A01E17BD0010A5FE0E5
:100C1000070A30E0010A01E0DCD06D2B6D510A08B3
:100C200002E2010E6D6F6D51E66EE66AC10E146E42
:100C3000400E156E166A14C0E6FF15C0E6FF16C01A
:100C4000E6FF8F0EE66E000EE66E42EC21F0176EA8
:100C5000070EE15E17508F0EE66E000EE66E040E74
:100C6000E66E0C0EE66ED6EC17F0E552E552E55254
:100C7000E552AFD06E2B6E51050802E2010E6E6F89
:100C80006E51E66EE66AC10E146E400E156E166A5F
:100C900014C0E6FF15C0E6FF16C0E6FF8F0EE66E35
:100CA000000EE66E42EC21F0176E070EE15E175063
:100CB0008F0EE66E000EE66E040EE66E0C0EE66E0D
:100CC000D6EC17F0E552E552E552E55282D000012C
:100CD0008C2B170EE76E8C19E8AE02D08C3503D042
:100CE000E750D8808C5501E28C6B8CC0E6FF040E77
:100CF000E66E0C0EE66E30EC0FF0E552E552E55272
:100D000068D000018D2B3B0EE76E8D19E8AE02D046
:100D10008D3503D0E750D8808D5501E28D6B8DC0A5
:100D200014F0156A14BE156814C0E6FF15C0E6FF7E
:100D3000C10E166E400E176E186A16C0E6FF17C079
:100D4000E6FF18C0E6FF8F0EE66E000EE66E42EC80
:100D500021F0196E070EE15E19508F0EE66E000E3F
:100D6000E66E040EE66E0C0EE66ED6EC17F0E5525B
:100D7000E552E552E5522DD06F2B6F511E0802E26D
:100D8000120E6F6F6F51E66EE66AC10E146E400E62
:100D9000156E166A14C0E6FF15C0E6FF16C0E6FF22
:100DA0008F0EE66E000EE66E42EC21F0176E070E17
:100DB000E15E17508F0EE66E000EE66E040EE66ED4
:100DC0000C0EE66ED6EC17F0E552E552E552E55210
:100DD00000D0120000017B5137E07CC0E9FFEA6AD5
:100DE000E9BEEA68710EE926000EEA22EF067CC031
:100DF000E9FFEA6AE9BEEA68710EE926000EEA2216
:100E0000EFCF14F014340BE37CC0E9FFEA6AE9BECB
:100E1000EA68710EE926000EEA22170EEF6E7CC01A
:100E2000E9FFEA6AE9BEEA68710EE926000EEA22E5
:100E3000EF50E66E040EE66E0C0EE66E30EC0FF030
:100E4000E552E552E552DAD000016C51060A01E1A3
:100E5000A8D0030A73E0010A5FE0070A30E0010A44
:100E600001E0CCD06D07010E6D5D02E20A0E6D6FE0
:100E70006D51E66EE66AC10E146E400E156E166A6E
:100E800014C0E6FF15C0E6FF16C0E6FF8F0EE66E43
:100E9000000EE66E42EC21F0176E070EE15E175071
:100EA0008F0EE66E000EE66E040EE66E0C0EE66E1B
:100EB000D6EC17F0E552E552E552E5529FD06E07A9
:100EC000010E6E5D02E2050E6E6F6E51E66EE66A11
:100ED000C10E146E400E156E166A14C0E6FF15C0E2
:100EE000E6FF16C0E6FF8F0EE66E000EE66E42ECE1
:100EF00021F0176E070EE15E17508F0EE66E000EA2
:100F0000E66E040EE66E0C0EE66ED6EC17F0E552B9
:100F1000E552E552E55272D000018C078C3502E3B0
:100F2000170E8C6F8CC0E6FF040EE66E0C0EE66E9C
:100F300030EC0FF0E552E552E55260D000018D072C
:100F40008D3502E33B0E8D6F8DC014F0156A14BE13
:100F5000156814C0E6FF15C0E6FFC10E166E400E00
:100F6000176E186A16C0E6FF17C0E6FF18C0E6FF46
:100F70008F0EE66E000EE66E42EC21F0196E070E43
:100F8000E15E19508F0EE66E000EE66E040EE66E00
:100F90000C0EE66ED6EC17F0E552E552E552E5523E
:100FA0002DD06F07120E6F5D02E21E0E6F6F6F5134
:100FB000E66EE66AC10E146E400E156E166A14C017
:100FC000E6FF15C0E6FF16C0E6FF8F0EE66E000EC8
:100FD000E66E42EC21F0176E070EE15E17508F0EA1
:100FE000E66E000EE66E040EE66E0C0EE66ED6ECB5
:0E0FF00017F0E552E552E552E55200D012002E
:020FFE003BECCA
:101000000DF0FB0EDBCFF3FFDB06F35000090AE027
:1010100089EC0DF0FA0EF4EC0DF0F3E1151CF1E1A2
:10102000010E01D0000E6AEF0DF03BEC0DF03B0E0F
:10103000E12402E3E168E652E16E010EDB6A020E92
:10104000DB6AF90EDBCFF6FFFA0EDBCFF7FFFB0E04
:10105000DBCFF8FF0800F550DF6EDF5002E18EEFC6
:101060000CF0250EDF5C02E081EF0CF0030EDB6A72
:10107000040EDB6A050EDB6A060EDB6A070EDB6A0E
:10108000A3EC0CF02D0EDF5C0CE02B0EDF5C09E016
:10109000200EDF5C06E0230EDF5C03E0300EDF5C39
:1010A0001AE1DF50300A14E0130A0FE0030A0AE0E5
:1010B0000B0A05E0060AE4E1030EDB80E1D7030E2C
:1010C000DB82DED7030EDB84DBD7030EDB86D8D7CB
:1010D000030EDB88D5D72A0EDF5C1BE19FEC0CF0FA
:1010E000EDEC0CF010E0030EDB8006680768130ED1
:1010F000DBCF0BF0140EDBCF0CF054EC1BF0040E26
:1011000004C0DBFF03D0130ED6EC0CF0A3EC0CF004
:101110000BD0090EDB6A44EC0DF003E0B8EC0DF0E7
:10112000FAD7090ED6EC0CF0030EDBB0DB982E0ECE
:10113000DF5C1BE1A3EC0CF02A0EDF5C0BE19FEC03
:101140000CF0EDEC0CF003E1130E28EC0DF0A3EC29
:101150000CF00BD0090EDB6A44EC0DF003E0B8ECA8
:101160000DF0FAD7090E28EC0DF0680EDF5C07E1F0
:10117000A3EC0CF0680EDF5C1DE1030E18D0740EBA
:10118000DF5C17E07A0EDF5C14E0480EDF5C06E0FF
:10119000540EDF5C03E05A0EDF5C02E1020E07D062
:1011A0006C0EDF5C03E06A0EDF5C04E1010E7BEC99
:1011B0000DF0C9DBDF506E0A01E17FD31E0A01E1A9
:1011C00092D1200A01E18FD13F0A01E149D11A0AE7
:1011D00001E146D10D0A01E143D1200A01E140D1EC
:1011E0003A0A01E13DD1200A01E13AD1260A01E1A2
:1011F00035D10D0A01E132D11A0A01E1D9D0200A14
:101200004AE0300A1FE0460A0EE0250A01E083D3D7
:10121000D950F90FE96EFF0EDA20EA6E010EEE5E8C
:10122000000EEE5AEE5A89EC0DF0250EE66E95DBB7
:1012300003E1151C01E169D385EC0DF001E26BD3EC
:10124000DB2A69D3080EDB6A040EDB50010806E2D4
:10125000040EDB044DEC0DF0DB508BDB080EDB5095
:1012600009E0030EDB50010B05E172DB01E04DD319
:10127000080EDB6A64DBEFCFDFFFFDEC0DF003E16E
:10128000151C01E142D385EC0DF001E3DB2A60DBA4
:1012900001E141D33AD3070EDB5002080FE1C9EC5C
:1012A0000DF0030E90EC0DF00E0EEECFDBFF0F0EE7
:1012B000EECFDBFF100EEECFDBFF20D0F70EDBCF43
:1012C00017F0F80EDBCF18F0020E175E000E185A5A
:1012D000F70E17C0DBFFF80E18C0DBFF17C0E9FFE1
:1012E00018C0EAFF80EC0DF0166A0E0E14C0DBFF8A
:1012F0000F0E15C0DBFF100E16C0DBFF0E0EDBCF8E
:10130000E6FF0F0EDBCFE6FF100EDBCFE6FFBBECF8
:1013100022F0E552E552E552130E05C0DBFF140E34
:1013200006C0DBFF060EDB5005E0130EC4EC0DF02B
:1013300001E26ADBE8EC0DF002E2130E37DBABEC06
:101340000DF006E0040EC4EC0DF002E2050E2EDBFB
:10135000030EDBB005D0FCDA01E0D7D2080EDB6A61
:10136000090EDB6A0E0EDBCFF6FF0F0EDBCFF7FFA9
:10137000100EDBCFF8FF0800F550DF6EDF5014E0F1
:10138000EEEC0DF011E2FDEC0DF003E1151C01E1B6
:10139000BCD2BBDB01E3DB2A090EDB2AD9500E0FDE
:1013A000E96E000ECBDBE7D7D3DA01E1B4D2ADD2E0
:1013B000C6DA110EEECFDBFF120EEDCFDBFF110E02
:1013C000DBCFE6FF120EDBCFE6FFADEC22F0E552FD
:1013D000E552130EF3CFDBFF140EF4CFDBFF060E46
:1013E000DB5004E0130ED0DB01E20EDBE8EC0DF085
:1013F00002E2130EDBDAAFDB05E0040EC5DB02E22E
:10140000050ED4DA030EDBB005D0A2DA01E07DD2FE
:10141000080EDB6A090EDB6A110EDBCFE9FF120E44
:10142000DBCFEAFFEFCFDFFFDF5014E0D7DB12E2C4
:10143000E4DB03E1151C01E168D267DB01E3DB2A91
:10144000090EDB2A110EDB2ADBCFE9FF120EE8E3DF
:10145000DB2AE6D77DDA01E15ED257D2030EDB8EBE
:10146000070EDB0410E195DB040E5ADB0A0EEECF0B
:10147000DBFF0B0EEECFDBFF0C0EEECFDBFF0D0E16
:10148000EECFDBFF6CD0070EDB5003082CE1030E20
:10149000DBAE0DD0B2DA020E76DAEFCF14F0156AB9
:1014A000166A176A14AE39D01568166835D0F70E6B
:1014B000DBCF15F0F80EDBCF16F0020E155E000E36
:1014C000165AF70E15C0DBFFF80E16C0DBFF15C06D
:1014D000E9FF16C0EAFFEFCF14F00A0E14C0DBFFDD
:1014E0000B0EDB6A38D0070EDB50020809E1030E51
:1014F000DBAE04D059DB16AE10D00ED055DB0DD0CC
:10150000030EDBAE12D079DA020E3DDAF9DA166A92
:10151000176A15AE02D016681768E2DA0C0E16C00C
:10152000DBFF0D0E17C0DBFF1AD0F70EDBCF16F076
:10153000F80EDBCF17F0020E165E000E175AF70EEC
:1015400016C0DBFFF80E17C0DBFF16C0E9FF17C09F
:10155000EAFFD6DAC5DA0C0EDB6A0D0EDB6A060E80
:10156000DB5005E1010EF36E050EF3CFDBFF150E28
:10157000DB6A160EDB6AD950370F146E000EDA20C4
:10158000156E390E14C0DBFF3A0E15C0DBFF380EA6
:10159000DB6A080EDB6A0A0EAEDADF50780A12E068
:1015A000200A10E0280A0CE0200A0AE03F0A06E0C0
:1015B0000D0A02E0200A08E1020E05D0080E03D051
:1015C000080EDF26100E97DA030EDBBE02D0DB9288
:1015D000DB94DB50800B24E08ADAD890030EEB50CA
:1015E000000A08E6000EEE5C000EEE58000EEE5803
:1015F000000EEE5815E213DA09680A680B680C68E9
:1016000075EC22F00A0E00C0DBFF0B0E01C0DBFF01
:101610000C0E02C0DBFF0D0E03C0DBFF2D0E08D049
:10162000030EDBA202D02B0E03D0DBA408D0200EC9
:10163000F36E170EF3CFDBFF150EDB2A02D0170E69
:10164000DB6A050EDB5003E1B7D901E189D0E60E74
:10165000146E470E156E000E166E070EDBCF17F0D8
:10166000186A196A1A6A17C009F018C00AF019C076
:101670000BF01AC00CF0D3D941EC23F01450002425
:10168000F36E15500120F46E16500220F86EF4CF60
:10169000F7FFF3CFF6FF0800090EF5CFDBFF580E7A
:1016A000DF5C0FE1610EF36E090E7BD90AE3200EB9
:1016B000146E090EDBCFE7FF1450E75E090EE7CF8B
:1016C000DBFF070EDBCF14F0156A166A176A0FDA14
:1016D00014C009F015C00AF016C00BF017C00CF0CA
:1016E000EECF04F0EECF05F0EECF06F0EFCF07F02F
:1016F00041EC23F007C0EDFF06C0EDFF05C0EDFF94
:1017000004C0EFFF390EDBCFE9FFDB063A0EDBCF7B
:10171000EAFF01E2DB06090EDBCFEFFF150EDB2A45
:101720004BD995E1030EDBA61DD06F0EDF5C06E101
:10173000C1D918E3150EDB285BDA14D0780EDF5C14
:1017400009E0580EDF5C06E0620EDF5C03E0420E4B
:10175000DF5C08E1020EF36E160EF3CFDBFF02D062
:10176000150EDB6A030EDB50100B0EE0040EDBCF10
:1017700014F0050EDB50D880145406E2060EDB5040
:1017800003E1040EDB5034DA95D90AE2050EDBCF13
:10179000E7FF150EDB50E75E050EE7CFDBFF02D05B
:1017A000050EDB6A040EDBCF14F0160E45D9D88087
:1017B000145414E2160EDBCFE6FF150EDBCFE6FF66
:1017C000040EDBCFE6FF050EDB50E552E75CE55289
:1017D000D880E754E552D880E7545FD9030EDB5038
:1017E000010B0BE1080EDB5008E0B2D801E08DD010
:1017F000080EDB50BED8080EDB6A170EDB5007E080
:1018000088D9170EF1D903E1151C01E17ED0160E1F
:10181000DB5016E07ED9300EE66E9FD802E1151C33
:1018200074E077D9DFCFE6FF33EC22F0E552E552E2
:10183000E552F4CF15F00001F31C02E1151C65E040
:10184000050EDBCF14F0160EDB50D880145409E2DD
:10185000050EDBCFE7FF160EDB50E75E050EE7CF88
:10186000DBFF300EE66E050ECBD94FE1390EDB2AD9
:10187000DBCFE9FF3A0E01E3DB2ADBCFEAFF090EFB
:10188000EFCFDBFFDB500EE044D9090EADD902E10A
:10189000151C3BE0390EDB2ADBCFE9FF3A0EEDE306
:1018A000DB2AEBD755D831E1160EDBCFE6FF080E69
:1018B000C3D8E552E7245DD82ED0070EDB50030ACB
:1018C0001CE0010A14E0030A07E07BD9DBCFEEFF3E
:1018D000020EDBCFEDFF1FD0F5D8196A17AE02D08C
:1018E000186819682CD8BCD819C0EEFF14D0EAD8F3
:1018F00017BE186824D8B4D80ED063D9DBCFEFFF59
:101900000AD07BD905E1151C03E1F368F46810D017
:10191000FCD801E3DB2A79D92AEF08F0010EDBCFEE
:1019200014F0020EDBCF15F014C0F3FF15C0F4FF66
:101930003B0EE15C02E2E16AE552E16ECBD029D9CF
:10194000020E90EF0DF061D90800F550DF6E120025
:10195000200EE66E080E00EF0EF033EC22F0E5529A
:10196000E552E552F3CF14F0F4CF15F00001F31C6B
:101970001200146E156AD950010F4DD91450EE267D
:101980001550ED221200185E000E195AF70E18C0FD
:10199000DBFFF80E19C0DBFF18C0E9FF19C0EAFF32
:1019A0001200DBCFF4FFF350F45C1200DB50E76E63
:1019B000040EE7CFDBFF12000A0EDBCF14F00B0E94
:1019C000DBCF15F00C0EDBCF16F00D0EDBCF17F0D2
:1019D00014501510161017101200130EEECFDBFF67
:1019E000140EEDCFDBFF130EDBCF14F0140EDBCFA4
:1019F00015F00001800E15141200F70EDBCF18F061
:101A0000F80EDBCF19F01200050EDB50E66ED95050
:101A1000130F01D9E552E750EE6EED6A12000A0E7F
:101A2000DBCF04F00B0EDBCF05F00C0EDBCF06F0A6
:101A30000D0EDBCF07F01200DBCFE6FF150EDBCF7C
:101A4000E6FF050EDB50E552E724E552E7241200DD
:101A5000DB50CED8010EF36E060EF3CFDBFF120083
:101A6000EE50EFCFEAFFE96E16C0EEFF17C0EEFFB3
:101A700018C0EEFF1200D9CFE6FFDACFE6FFE1CFC4
:101A8000D9FFE2CFDAFF1200DFCFE6FFE66A9AEC79
:101A900023F0E552E552F3501200E76E080EE7CF4F
:101AA000DBFF1200EECF14F0EECF15F0EFCF16F003
:101AB000176A1200050EDBCF14F0150EDB50D8802C
:101AC00014541200010EDBCF16F0020EDBCF17F01C
:101AD000186A1200E552E5CFDAFFE7CFD9FF12000E
:101AE0000A0E14C0DBFF0B0E15C0DBFF1200D9502D
:101AF0000A0F0BEF0EF0F36E070EF3CFDBFF1200B1
:101B0000EECF14F0EFCF15F01200010EDB2A020E1B
:101B10001200FC0EDBCFE6FFFD0EDBCFE6FF12006E
:101B2000145E000E155AF70E14C0DBFFF80E15C038
:101B3000DBFF14C0E9FF15C0EAFF1200DA20EA6EED
:101B4000EF2AEECFF6FF000EEF22EECFF7FFEF22E7
:101B5000EECFF8FF1200040EDBCFE6FF130EDB50D2
:101B6000E552E75C9ADFDB5004DF060EDB50120023
:101B7000090EDB500A0DF350DF24D00FE76E090E7B
:101B8000E7CFDBFFA3EF0CF0DB50F36E050ED1EFD8
:101B90000CF0F70EDBCF14F0F80EDBCF15F01200CF
:101BA000DFCFE6FFADEF0CF028DF030EECDE52EFE7
:101BB0000DF0FFEC07F0E552E552E552E552000961
:101BC0001200BDDEEE50EFCFEAFFE96E010E12000B
:101BD000130EDB50F36E040ED1EF0CF0040EDB504D
:101BE000F36E090ED1EF0CF0DBCFE6FFADEF0CF09A
:101BF000E76E050EE7CFDBFF12008BDFD0EF0DF0B5
:101C0000DBCFE6FF86DFD9EF0DF0D950F90FE96E93
:101C1000FF0E9EEF0DF0E96E000EDA20EA6E120064
:101C2000D9CFE6FFE1CFD9FF020EE12679EC1CF017
:101C3000F3CFDEFFF4CFDDFFDECF14F0DDCF15F004
:101C400000016A51166E176A17501518E8AE02D0D7
:101C5000153404D01450165C1550175802E28C84C9
:101C600001D08C94DECFE6FFDDCFE6FF7F0E146E51
:101C7000420E156E166A14C0E6FF15C0E6FF16C0C8
:101C8000E6FF8F0EE66E000EE66E42EC21F0176E58
:101C9000070EE15E1750DECFE6FFDDCFE6FF020E56
:101CA000E66E96EC03F0E552E552E5528F0EE66ED5
:101CB000000EE66E010EE66E0F0EE66ED6EC17F025
:101CC000E552E552E552E552E66A010EE66E110E66
:101CD000E66E8FEC17F0E552E552E552430EE66EE4
:101CE000010EE66E120EE66EC7EC16F0E552E552F6
:101CF000E552020EE15C02E2E16AE552E16EE55274
:101D0000E7CFD9FF1200000189511FE18AC014F00A
:101D1000156A14BE156814C0E6FF15C0E6FF750EFF
:101D2000166E420E176E186A16C0E6FF17C0E6FF61
:101D300018C0E6FF8F0EE66E000EE66E42EC21F054
:101D4000196E070EE15E19507CD00C0E895D1FE103
:101D50008AC014F0156A14BE156814C0E6FF15C0D9
:101D6000E6FF6B0E166E420E176E186A16C0E6FF7F
:101D700017C0E6FF18C0E6FF8F0EE66E000EE66E97
:101D800042EC21F0196E070EE15E19505AD00C0E8C
:101D9000E76E8919E8AE02D0E73402D0E750895DDA
:101DA00028E28AC014F0156A14BE156814C0E6FF54
:101DB00015C0E6FF89C016F0176A16BE176816C070
:101DC000E6FF17C0E6FF5F0E186E420E196E1A6A24
:101DD00018C0E6FF19C0E6FF1AC0E6FF8F0EE66ED8
:101DE000000EE66E42EC21F01B6E090EE15E1B5008
:101DF00028D08AC014F0156A14BE156814C0E6FF16
:101E000015C0E6FF0C0E895D166E176A16BE1768C0
:101E100016C0E6FF17C0E6FF530E186E420E196E8D
:101E20001A6A18C0E6FF19C0E6FF1AC0E6FF8F0E57
:101E3000E66E000EE66E42EC21F01B6E090EE15ECE
:101E40001B508F0EE66E000EE66E010EE66E020E61
:101E5000E66ED6EC17F0E552E552E552E552120077
:101E6000D9CFE6FFE1CFD9FFFC0EDB5016E14E0ED5
:101E7000146E420E156E166A14C0E6FF15C0E6FF1A
:101E800016C0E6FF8F0EE66E000EE66E42EC21F005
:101E9000176E050EE15E175067D0FC0EDB500C0884
:101EA00016E1490E146E420E156E166A14C0E6FF56
:101EB00015C0E6FF16C0E6FF8F0EE66E000EE66E5A
:101EC00042EC21F0176E050EE15E17504DD0FC0E6E
:101ED000DBCF14F00C0EE76E1418E8AE02D0E73436
:101EE00002D0E750145C20E2FC0EDBCF14F0156A40
:101EF00014BE156814C0E6FF15C0E6FF430E166E4B
:101F0000420E176E186A16C0E6FF17C0E6FF18C02B
:101F1000E6FF8F0EE66E000EE66E42EC21F0196EC3
:101F2000070EE15E195020D0FC0EDB50F40F146E4A
:101F3000156A14BE156814C0E6FF15C0E6FF3D0E15
:101F4000166E420E176E186A16C0E6FF17C0E6FF3F
:101F500018C0E6FF8F0EE66E000EE66E42EC21F032
:101F6000196E070EE15E19508F0EE66E000EE66EDA
:101F7000FD0EDBCFE6FFFE0EDBCFE6FFD6EC17F063
:101F8000E552E552E552E552E552E7CFD9FF12009E
:101F9000BADE00016851E66EE66A2F0E146E420E3C
:101FA000156E166A14C0E6FF15C0E6FF16C0E6FF00
:101FB0008F0EE66E000EE66E42EC21F0176E070EF5
:101FC000E15E17508F0EE66E000EE66E030EE66EB3
:101FD000040EE66ED6EC17F0E552E552E552E552F6
:101FE00000016951E66EE66A210E146E420E156E0E
:101FF000166A14C0E6FF15C0E6FF16C0E6FF8F0E96
:10200000E66E000EE66E42EC21F0176E070EE15E02
:1020100017508F0EE66E000EE66E040EE66EE66E4C
:10202000D6EC17F0E552E552E552E55212000001F8
:102030007C29146E156A14BE156814C0E6FF15C01D
:10204000E6FF0F0E166E420E176E186A16C0E6FFF8
:1020500017C0E6FF18C0E6FF8F0EE66E000EE66EB4
:1020600042EC21F0196E070EE15E19508F0EE66EFC
:10207000000EE66E030EE66E040EE66ED6EC17F06A
:10208000E552E552E552E552020E146E420E156E0F
:10209000166A14C0E6FF15C0E6FF16C0E6FF8F0EF5
:1020A000E66E000EE66E42EC21F0176E050EE15E64
:1020B00017508F0EE66E000EE66E040EE66EE66EAC
:1020C000D6EC17F0E552E552E552E5527CC0E9FF47
:1020D000EA6AE9BEEA68710EE926000EEA22EF50CC
:1020E000E66E040EE66E0C0EE66EBADEE552E552C2
:1020F000E552120000016C050F0DF3CF14F0F4CF80
:1021000015F0280E1426460E152214C0E6FF15C041
:10211000E6FFFA0E166E410E176E186A16C0E6FF3D
:1021200017C0E6FF18C0E6FF8F0EE66E000EE66EE3
:1021300042EC21F0196E070EE15E19508F0EE66E2B
:10214000000EE66E030EE66E040EE66ED6EC17F099
:10215000E552E552E552E552EC0E146E410E156E55
:10216000166A14C0E6FF15C0E6FF16C0E6FF8F0E24
:10217000E66E000EE66E42EC21F0176E050EE15E93
:1021800017508F0EE66E000EE66E040EE66EE66EDB
:10219000D6EC17F0E552E552E552E55200016C51DC
:1021A000060A01E18FD0030A60E0010A53E0070A42
:1021B0002AE0010A01E0ADD06D51E66EE66AE80E54
:1021C000146E410E156E166A14C0E6FF15C0E6FFC8
:1021D00016C0E6FF8F0EE66E000EE66E42EC21F0B2
:1021E000176E070EE15E17508F0EE66E000EE66E5C
:1021F000040EE66E0C0EE66ED6EC17F0E552E552D4
:10220000E552E55286D06E51E66EE66AE80E146E2F
:10221000410E156E166A14C0E6FF15C0E6FF16C023
:10222000E6FF8F0EE66E000EE66E42EC21F0176EB2
:10223000070EE15E17508F0EE66E000EE66E040E7E
:10224000E66E0C0EE66ED6EC17F0E552E552E5525E
:10225000E5525FD08CC0E6FF040EE66E0C0EE66E13
:10226000FFDDE552E552E55254D08AC014F0156AFC
:1022700014BE156814C0E6FF15C0E6FFE80E166E22
:10228000410E176E186A16C0E6FF17C0E6FF18C0A9
:10229000E6FF8F0EE66E000EE66E42EC21F0196E40
:1022A000070EE15E19508F0EE66E000EE66E040E0C
:1022B000E66E0C0EE66ED6EC17F0E552E552E552EE
:1022C000E55227D06F51E66EE66AE80E146E410EB5
:1022D000156E166A14C0E6FF15C0E6FF16C0E6FFCD
:1022E0008F0EE66E000EE66E42EC21F0176E070EC2
:1022F000E15E17508F0EE66E000EE66E040EE66E7F
:102300000C0EE66ED6EC17F0E552E552E552E552BA
:1023100000D01200D9CFE6FFE1CFD9FF050EE126AC
:10232000DE6ADE6ADE6ADD6ADD52DD52040EDB6AD9
:102330000001AB51030A01E1A8D0010A01E19BD0E1
:10234000030A0DE0010A01E02BD1010EE66EE66AF8
:10235000A4EC1BF0E552E5520001AB2B21D1D6ECE9
:102360001BF004C0DEFF05C0DEFF06C0DEFF07C0B5
:10237000DDFFDD52DD52D9CFE9FFDACFEAFF000EF3
:10238000EE5C000EEE58000EEE58000EEE5806E21F
:10239000040EF36EF3CFDBFF03D14DD0D9CFE9FFAD
:1023A000DACFEAFF030EEE5C000EEE58000EEE5898
:1023B000000EEE5805E2040EF36EF3CFDBFF3BD0C8
:1023C000D9CFE9FFDACFEAFF060EEE5C000EEE5839
:1023D000000EEE58000EEE5806E2030EF36E040EE9
:1023E000F3CFDBFF28D0D9CFE9FFDACFEAFF090E20
:1023F000EE5C000EEE58000EEE58000EEE5806E2AF
:10240000020EF36E040EF3CFDBFF15D0D9CFE9FF38
:10241000DACFEAFF0D0EEE5C000EEE58000EEE581D
:10242000000EEE5806E2010EF36E040EF3CFDBFF52
:1024300002D0040EDB6A0001AB2B040EDBCFE6FFFB
:10244000140EE66E060EE66E41EC18F0E552E5520B
:10245000E552040EDBCF14F0156A14BE156814C0E3
:10246000E6FF15C0E6FF050EE66E96EC03F0E552BA
:10247000E552E55295D0020EE66EE66AA4EC1BF03A
:10248000E552E5520001AB2B8BD0D6EC1BF004C01B
:10249000DEFF05C0DEFF06C0DEFF07C0DDFFDD5248
:1024A000DD52D9CFE9FFDACFEAFF000EEE5C000E75
:1024B000EE58000EEE58000EEE5806E2040EF36ED3
:1024C000F3CFDBFF6DD04DD0D9CFE9FFDACFEAFFF4
:1024D000030EEE5C000EEE58000EEE58000EEE58A5
:1024E00005E2040EF36EF3CFDBFF3BD0D9CFE9FF5B
:1024F000DACFEAFF060EEE5C000EEE58000EEE5844
:10250000000EEE5806E2030EF36E040EF3CFDBFF6F
:1025100028D0D9CFE9FFDACFEAFF090EEE5C000E32
:10252000EE58000EEE58000EEE5806E2020EF36E64
:10253000040EF3CFDBFF15D0D9CFE9FFDACFEAFFE6
:102540000D0EEE5C000EEE58000EEE58000EEE582A
:1025500006E2010EF36E040EF3CFDBFF02D0040E91
:10256000DB6A040EDBCFE6FF440EE66E060EE66E77
:1025700041EC18F0E552E552E5520001AB6B040E58
:10258000DBCF14F0156A14BE156814C0E6FF15C041
:10259000E6FFE66E96EC03F0E552E552E55200D018
:1025A000050EE15C02E2E16AE552E16EE552E7CF39
:0425B000D9FF12003D
:0C25B400000000000000005F00000000BC
:1025C000000700070000147F147F1400242A7F2ACC
:1025D000120023130864620036495522500000059A
:1025E000030000001C224100000041221C000000EA
:1025F000082A1C2A080008083E080800A0600000FD
:1026000000000808080808006060000000002010B2
:10261000080402003E5149453E0000427F40000050
:102620006251494946002241494936001814127F37
:1026300010002745454539003C4A494930000171A1
:1026400009050300364949493600064949291E0053
:1026500000363600000000AC6C0000000814224177
:102660000000141414141400412214080000020184
:1026700051090600324979413E007E0909097E0070
:102680007F49494936003E41414122007F41412274
:102690001C007F49494941007F09090901003E4169
:1026A000415172007F0808087F0000417F4100000F
:1026B0002040413F01007F08142241007F404040FC
:1026C00040007F020C027F007F0408107F003E4123
:1026D00041413E007F09090906003E4151215E004B
:1026E0007F091929460026494949320001017F0125
:1026F00001003F4040403F001F2040201F003F405E
:1027000038403F0063140814630003047804030096
:102710006151494543007F41410000000204081017
:10272000200041417F00000004020102040080807B
:10273000808080000102040000002054545478007E
:102740007F48444438003844442800003844444812
:102750007F00385454541800087E0902000018A461
:10276000A4A47C007F0804047800007D0000000021
:1027700080847D0000007F1028440000417F4000DD
:1027800000007C04180478007C08047C00003844B5
:1027900044380000FC2424180000182424FC000005
:1027A000007C08040000485454240000047F4400C6
:1027B00000003C40407C00001C2040201C003C40AD
:1027C00030403C004428102844001CA0A07C00009D
:1027D0004464544C4400083641000000007F00006F
:1027E000000041360800000002010102010002055C
:1027F000050200000E11110E0000347A70747A3058
:10280000387C7E7C380000000000000000000000E2
:1028100000000000000000000000000000000000B8
:1028200000000000000000000000000000000000A8
:10283000000000000000000000000080C06020FCDC
:10284000120AFA890909090989FA0A16FC2040C006
:1028500080000000000000000000000000000000F8
:102860000000000000000000000000000000000068
:102870000000000000000000000000000000000058
:102880000000000000000000000000000000000048
:102890000000000000000000000000000000000038
:1028A0000000000000000000000000000000000028
:1028B000000000000080C040E01C83611009080F88
:1028C0001810101111111111111010080F08091012
:1028D00061863CE040C08000000000000000000075
:1028E00000000000000000000000000000000000E8
:1028F00000000000000000000000000000000000D8
:1029000000000000000000000000000000000000C7
:1029100000000000000000000000000000000000B7
:1029200000000000000000000000000000000000A7
:102930000000000006193F203FE0FF00400E19197B
:102940001E0E00008000008000001E19191E0C40A1
:1029500000FF602F201F0F0000000000000000009B
:102960000000000000000000000000000000000067
:102970000000000000000000000000000000000057
:102980000000000000000000000000000000000047
:102990000000000000000000000000000000000037
:1029A0000000000000000000000000000000000027
:1029B00000000000000000000080818284C84850B0
:1029C0005050D0E0A1A1A1A1E0D050505048CC84FB
:1029D00082810000000000000000000000000000F4
:1029E00000000000000000000000000000000000E7
:1029F00000000000000000000000000000000000D7
:102A000000000000000000000000000000000000C6
:102A100000000000000000000000000000000000B6
:102A20000000000000000000000000C060C08080C6
:102A3000808040A05844C23F47BB95A77E3903E43D
:102A40001808C425A2A2A2A225C40838C6033D6E58
:102A5000A5A59B47FA0C84742C18100808101008C0
:102A600034C484F8000000000000000000000000F2
:102A70000000000000000000000000000000000056
:102A80000000000000000000000000000000000046
:102A90000000000000000000000000000000000036
:102AA000000000804000E0D0D0704F0010180100FE
:102AB000008001101800035CF0838F982040808F05
:102AC0003040C68892A4B49288C760308F8040207E
:102AD0009887828488BF40808CCC00B0B0008C8CFA
:102AE0008040FF50D0E04040800000000000000027
:102AF00000000000000000000000000000000000D6
:102B000000000000000000000000000000000000C5
:102B100000000000000000000000000000000000B5
:102B2000000000031E2D43C0A15B94A47818101070
:102B300091D1101008C87CC70F1414182913162C33
:102B40003F65CD9AF292D2B28ACD673D24121139F7
:102B50001814141CCE633FC1000001C0E0010158ED
:102B6000A5975E21E0432DDE2320C0000000000079
:102B70000000000000000000000000000000000055
:102B80000000000000000000000000000000000045
:102B90000000000000000000000000000000000035
:102BA000000C122121324E3E296544493E206040EE
:102BB0003F2060403C7B4C6708381030302020209C
:102BC0003E61C080A17E67A18040613E2020202020
:102BD000301038386F64483B2C60403F2040602EF6
:102BE0003B48652D3F282423110D070000000000FD
:102BF00000000000000000000000000000000000D5
:062C0000000000000000CE
:0A2C06000F013B9D3B9B3B998C8C1A
:102C10008C9A8C88959C959A95983A973A9B8B9626
:102C20008B9A9496949A800EE66EE66AE66AE0ECD9
:102C300022F0E552E552E5521200D9CFE6FFE1CF8E
:102C4000D9FF8C9CFE0EDBCFE6FF65EC23F0E5524E
:102C5000C7A0FED78C8CE552E7CFD9FF1200D9CFA1
:102C6000E6FFE1CFD9FF8C9AFE0EDBCFE6FFE5DF72
:102C7000E552E552E7CFD9FF1200D9CFE6FFE1CF09
:102C8000D9FF8C8AFE0EDBCFE6FFD7DFE552E55297
:102C9000E7CFD9FF12008C98010EE66E83EC23F08B
:102CA000E5528C88AE0EE66EDADFE552A80EE66ECF
:102CB000D6DFE5523F0EE66ED2DFE552D30EE66E6A
:102CC000CEDFE552E66ACBDFE552400EE66EC7DFA7
:102CD000E552A10EE66EC3DFE552C80EE66EBFDF19
:102CE000E552DA0EE66EBBDFE552120EE66EB7DF96
:102CF000E552810EE66EB3DFE5527F0EE66EAFDF82
:102D0000E552A40EE66EABDFE552A60EE66EA7DF37
:102D1000E552D50EE66EA3DFE552800EE66E9FDF2C
:102D2000E5528D0EE66E9BDFE552140EE66E97DFE0
:102D3000E552AF0EE66E93DFE5521200AE0EE66E80
:102D40008EDFE5521200AF0EE66E89DFE55212000B
:102D5000D9CFE6FFE1CFD9FFFD0EDB50B00FE66E15
:102D60007EDFE552FE0EDB50020FF00BE8380F0B52
:102D70001009E66E74DFE552FE0EDB50020F0F0BFA
:102D8000E66E6DDFE552E552E7CFD9FF1200D9CFED
:102D9000E6FFE1CFD9FFE652FD0EDBCFE6FFFE0EE8
:102DA000DB50060DF350E66ED3DFE552E552FC0E24
:102DB000DBCF14F0200EE76E1418E8AE02D0E73433
:102DC00002D0E750145C0EE3FC0EDBCF15F07F0E53
:102DD000E76E1518E8AE02D0153403D0E750D8805E
:102DE000155405E2200EF36EFC0EF3CFDBFFDF6A15
:102DF000DFCF14F0060EE76E1418E8AE02D0E73409
:102E000002D0E750145C26E2FC0EDB50E00F146E9B
:102E1000156A14BE1568060E1502F3CF15F01402DC
:102E2000F3CF14F0F4501526B40E1426250E1522F7
:102E3000DFCF16F0176A16BE176814501624F66E08
:102E400015501720F76E0800F550E66E16DFE552B4
:102E5000DF2ACED7E552E552E7CFD9FF1200D9CF0E
:102E6000E6FFE1CFD9FF030EE126020EDB6ADBCFDE
:102E700014F0080EE76E1418E8AE02D0E73402D062
:102E8000E750145C1FE2010EDB6ADBCF14F0160E74
:102E9000E76E1418E8AE02D0E73402D0E750145CB5
:102EA0000EE2E66A020EDBCFE6FF010EDBCFE6FFA5
:102EB0006EDFE552E552E552010EDB2AE6D7020E3F
:102EC000DB2AD5D7030EE15C02E2E16AE552E16E4E
:102ED000E552E7CFD9FF1200D9CFE6FFE1CFD9FF06
:102EE000E652DF6ADFCF14F0160EE76E1418E8AE74
:102EF00002D0E73402D0E750145C0CE2E66AFE0E22
:102F0000DBCFE6FFDFCFE6FF42DFE552E552E552D9
:102F1000DF2AE8D7E552E552E7CFD9FF1200D9CF33
:102F2000E6FFE1CFD9FFE652FD0EDBCFE6FFFE0E56
:102F3000DB50060DF350E66E0BDFE552E552DF6A1B
:102F4000DFCF14F0060EE76E1418E8AE02D0E734B7
:102F500002D0E750145C25E2FC0EDBCF14F0156ABA
:102F600014BE1568060E1502F3CF15F01402F3CF48
:102F700014F0F4501526F40E1426270E1522DFCF78
:102F800016F0176A16BE176814501624F66E155000
:102F90001720F76E0800F550E66E6FDEE552DF2A67
:102FA000CFD7E552E552E7CFD9FF1200D9CFE6FFE0
:102FB000E1CFD9FFFB0EDBCFE9FFFC0EDBCFEAFF51
:102FC000EF5018E0FB0EDBCFE9FFDB2AFC0EDBCF76
:102FD000EAFF01E3DB2AEF50E66EFD0EDBCFE6FFF2
:102FE000FE0EDBCFE6FFD3DEE552E552E552FE0EE4
:102FF000DB2AE0D7E552E7CFD9FF1200D9CFE6FFB1
:10300000E1CFD9FF020EE126DF6A080EDF5C2FE276
:10301000DFCFE6FFE66A9CDEE552E552010EDB6A91
:10302000DB50146E156AD890155004E6800E145CBF
:10303000000E15581AE2DF50800DF3CF14F0F4CFD4
:1030400015F0060E1426280E1522010EDB500F0176
:103050001424F66E000E1520F76E0800F550E66E8B
:103060000CDEE552010EDB2ADBD7DF2ACED7020EBB
:10307000E15C02E2E16AE552E16EE552E7CFD9FF99
:103080001200D9CFE6FFE1CFD9FF040EE126F36E9F
:10309000020EF3CFDBFF080EF36E030EF3CFDBFF60
:1030A000FE0EDBCFE6FFFD0EDBCFE6FF51DEE55285
:1030B000E5527F0EE66EE1DDE552010EDB6ADBCF05
:1030C00014F0FC0EDB50E76E1418E8AE02D0E734C3
:1030D00002D0E750145C2AE2FE0EDBCFE6FF030EBF
:1030E000DBCFE6FF010EDB50E552E702F3CF14F031
:1030F000FD0EDB281424E66E2BDEE552E552DF6A76
:10310000DFCF14F0030EDB50E76E1418E8AE02D0E8
:10311000E73402D0E750145C06E27F0EE66EADDDC8
:10312000E552DF2AEDD7010EDB2AC9D7FC0EDB50B2
:10313000E76E010EE7CFDBFFDBCF14F0020EDB50B2
:10314000E76E1418E8AE02D0E73402D0E750145C02
:103150002AE2FE0EDBCFE6FF030EDBCFE6FF010E19
:10316000DB50E552E702F3CF14F0FD0EDB28142408
:10317000E66EEEDDE552E552DF6ADFCF14F0030EB6
:10318000DB50E76E1418E8AE02D0E73402D0E75007
:10319000145C06E2410EE66E70DDE552DF2AEDD7E3
:1031A000010EDB2AC9D77F0EE66E67DDE552040EFD
:1031B000E15C02E2E16AE552E16EE552E7CFD9FF58
:0231C0001200FB
:0E31C2000F9E08D00F9E07AE05D0066C071EAC
:1031D000E86A07220F8E07C001F006C000F0136AEC
:1031E000126A8E0E026E036AEAEF1AF00F9E0CD07E
:1031F0000F9E07AE09D0046C051E061E071EE86A66
:103200000522062207220F8E07C001F006C000F03B
:1032100005C013F004C012F09E0E026E036AEAEFBE
:103220001AF00F6A26EC1BF03EEC1BF00FB6CEEF47
:103230001AF00FA205D00FBACEEF1AF0D5EF1AF0A0
:103240000FBAE1EF1AF00FA005D00FB8CEEF1AF0C9
:10325000E1EF1AF00FB8D5EF1AF0036A7F0E0824D9
:10326000026EE86A03220D50025EE86A035A1A0EE3
:10327000106E086A126A136A006A016A0A50055ED3
:103280000B50065A0C50075A000E085A09E70A500C
:1032900005260B5006220C500722000E082201D0F2
:1032A000128AD8900536063607360836D890123678
:1032B000133600360136102EE1D7075006100510E0
:1032C000D8A4128AEAEF1AF00F6A26EC1BF03EEC43
:1032D0001BF00FB6CEEF1AF00FA205D00FB8CEEF4D
:1032E0001AF0D5EF1AF00FAA05D00FB0CEEF1AF0F2
:1032F000D5EF1AF00FB002D00FA802D0E1EF1AF00C
:10330000036A0D500824026EE86A03227E0E025EF4
:10331000E86A035A126A136A006A016A0C500702CB
:10332000F4CF01F0F3CF00F00B500702F350132657
:10333000F4500022000E01220C500602F350132616
:10334000F4500022000E01220A500702F350122608
:10335000F4501322000E002201220B500602F350FB
:103360001226F4501322000E002201220C500502F6
:10337000F3501226F4501322000E002201220A50AC
:103380000602F4501226000E1322002201220B50D6
:103390000502F4501226000E132200220122EAEF49
:1033A0001AF00D7E0F6A26EC1BF03EEC1BF00FB6F8
:1033B000CEEF1AF00FA20AD00FAA03D00FBECEEFA5
:1033C0001AF00FA4DAEF1AF0D7EF1AF00FAA05D00F
:1033D0000FACDAEF1AF0D7EF1AF00FA00AD00FA84F
:1033E00008D00FBE04D00FA402D0E3EF1AF0E7EF2D
:1033F0001AF0126A036A0D50085C116E10E305C0E2
:1034000013F006C000F007C001F008C010F00AC0B9
:1034100005F00BC006F00CC007F00F3A09D00AC047
:1034200013F00BC000F00CC001F00DC010F0116CD7
:103430000F9E0FBC0F8E10C002F00FB016EF1BF0E6
:103440001A0E116016EF1BF0026A086A0FA408D06A
:10345000056C061E071E081EE86A062207220822BF
:103460000FAC08D0136C001E011E021EE86A002279
:1034700001220222046A115207E0083407320632A0
:1034800005320432112EF9D70550132606500022BA
:10349000075001220850022204C012F00F9E02AE13
:1034A0000BD0126C131E001E011E021EE86A1322AE
:1034B0000022012202220F8E02A006D0D880013203
:1034C000003213321232102A10C002F0EAEF1AF062
:1034D0000F6A26EC1BF00FB672EF1AF00FA20ED097
:1034E0000FB405D07F0E076EFF0E066E1FD0800E44
:1034F000076E066A1BD0076A066A18D00FB0FBD7A2
:103500008F0E0860EDD77E0E0864F5D78E0E085C2E
:1035100005E0D89007320632082AF8D70FA406D063
:10352000066C071EE86A072207AEE5D712000F6A8D
:1035300026EC1BF00FB6A1EF1AF00FA20FD00FB4BC
:1035400007D07F0E076EFF0E066E056E046E25D047
:10355000800E076E01D0076A000EF6D70FB0FBD7BA
:10356000046A9F0E0860EBD77E0E0864F4D79E0EA7
:10357000085C07E0D8900732063205320432082A88
:10358000F6D70FA40AD0046C051E061E071EE86AB3
:1035900005220622072207AEDED712007F0E086E34
:1035A000FF0E076E066E056E12007F0E0FBEFF0E39
:1035B000086E02D07F0E086E800E076E066A056ADE
:1035C000F3D70FAE04D0800E086E076AF7D7086AEB
:1035D000076AF4D70150001013101210F8E003BE70
:1035E000F0D701BE0CD002500310EBE0D890123699
:1035F0001336003601360206D8A00306F2D7035070
:10360000D4E10228D2E012AE11D07F0E121402E1F2
:1036100013A00CD0132AE86A0022012207E3D88005
:10362000013200321332022A0228BFE00250C9E000
:1036300013C005F000C006F00134076E0230086EBA
:103640000732089E0FBE088ED4EF1AF007360836F0
:1036500002E30F840F7E06E10F80086A076A066A9C
:10366000056A1200082803E0D88007321200D890BB
:10367000073202E10F8212000F8612000C360D365F
:1036800002E30F8C0F7E06E10F880D6A0C6A0B6A4D
:103690000A6A12000D2803E0D8800C321200D8907C
:1036A0000C32EAE10F8A120007C013F006C012F0D4
:1036B00006500B02F4CF05F0F3CF04F007500C02D4
:1036C000F4CF07F0F3CF06F00B02F3500526F450C9
:1036D0000622E86A072212500C02F3500526F45025
:1036E0000622E86A07220CAE7AEF1BF01250065E43
:1036F0001350075A13AE000C0B50065E0C50075ABD
:02370000000CBB
:0E370200010EC26EC16AA90EC06EBA6AFC0E3C
:10371000BA140209BA6E870EBA140009BA6EBB68F1
:10372000BC6A9E929D82BA940F013B918C909590B9
:103730003B938C9295929380F18CF292F2889382D3
:10374000F18AF090F0861200D9CFE6FFE1CFD9FFE1
:103750000001B26B0001B36BD950FD0FE96EFF0E93
:10376000DA20EA6E010EEE1801E1ED5008E1F18C6D
:103770008C80010EE66EE8EC23F0E5528C90D95077
:10378000FD0FE96EFF0EDA20EA6E020EEE1801E17F
:10379000ED5008E1F18A8C82010EE66EE8EC23F030
:1037A000E5528C92E552E7CFD9FF1200D9CFE6FF60
:1037B000E1CFD9FF040EE126DE6ADE6ADE6ADD6A49
:1037C000DD52DD520001B3516BE0AEC004F0AFC07A
:1037D00005F0B0C006F0B1C007F0F6EC18F005C077
:1037E0001CF006C01DF007C01EF008C01FF00A6ADA
:1037F0000B6A800E0C6E410E0D6E1CC005F01DC0D4
:1038000006F01EC007F01FC008F064EC19F005C0F8
:1038100018F006C019F007C01AF008C01BF0280EF7
:103820000A6E7E0E0B6E0C0E0C6E3D0E0D6E18C0E9
:1038300005F019C006F01AC007F01BC008F064ECD0
:1038400019F005C014F006C015F007C016F008C046
:1038500017F00A6A0B6A0C6A400E0D6E14C005F070
:1038600015C006F016C007F017C008F011EC19F0EB
:1038700097EC1AF004C0DEFF05C0DEFF06C0DEFFD5
:1038800007C0DDFFDD52DD52DECF04F0DECF05F0F4
:10389000DECF06F0DDCF07F0DD52DD5206D005D0D9
:1038A000046805680668076800D0040EE15C02E25F
:1038B000E16AE552E16EE552E7CFD9FF1200D9CFB8
:1038C000E6FFE1CFD9FFFE0EDB501F0BF36EF34690
:1038D000F346830EC214F310C26EC282C2B2FED788
:1038E000C3CFF3FFC4CFF4FF00D0E552E7CFD9FF39
:1038F0001200D9CFE6FFE1CFD9FF060EE126E66A36
:10390000DEDFE552F3CF1CF0F4CF1DF01CC006F053
:103910001DC007F0E3EC18F005C018F006C019F060
:1039200007C01AF008C01BF00A6A400E0B6E9C0E0E
:103930000C6E450E0D6E18C005F019C006F01AC0C9
:1039400007F01BC008F064EC19F005C014F006C0C5
:1039500015F007C016F008C017F00A6A0B6A800E4F
:103960000C6E440E0D6E14C005F015C006F016C0A6
:1039700007F017C008F011EC19F005C0DEFF06C013
:10398000DEFF07C0DEFF08C0DDFFDD52DD52D9CF0C
:10399000E9FFDACFEAFFEECF18F0EECF19F0EECF65
:1039A0001AF0EFCF1BF00A6A0B6A480E0C6E420E3B
:1039B0000D6E18C005F019C006F01AC007F01BC044
:1039C00008F0D1EC19F005C014F006C015F007C0DE
:1039D00016F008C017F00A6A0B6A200E0C6E410E32
:1039E0000D6E14C005F015C006F016C007F017C024
:1039F00008F011EC19F068EC1AF0040E06C0DBFFB9
:103A0000050E07C0DBFF040EDBCF14F0050EDBCF85
:103A100015F014C0F3FF15C0F4FF060EE15C03E2DD
:103A200000D0E16AE552E16EE552E7CFD9FF12001E
:103A3000D9CFE6FFE1CFD9FF020EE126010EE66EF7
:103A40003EDFE552F3CF1CF0F4CF1DF01CC006F0B2
:103A50001DC007F0E3EC18F005C018F006C019F01F
:103A600007C01AF008C01BF00A6A400E0B6E9C0ECD
:103A70000C6E450E0D6E18C005F019C006F01AC088
:103A800007F01BC008F064EC19F005C014F006C084
:103A900015F007C016F008C017F00A6A0B6A800E0E
:103AA0000C6E440E0D6E14C005F015C006F016C065
:103AB00007F017C008F011EC19F068EC1AF006C016
:103AC000DEFF07C0DDFFDECF14F0DDCF15F014C040
:103AD000F3FF15C0F4FF020EE15C03E200D0E16ADF
:0C3AE000E552E16EE552E7CFD9FF12007D
:043AEC00D9CFE6FF49
:103AF000E1CFD9FF020EE126DE6ADD6A2BEC00F091
:103B00000001886B4BEC16F09EEC16F0FEEC17F003
:103B1000A3EC16F0F40EE66E83EC23F0E552E66AB1
:103B2000C1EC02F0E552F3CF14F0F4CF15F01450CD
:103B3000151058E0E66AE66A9FEC02F0E552E5529D
:103B40006DC0E6FF010EE66E9FEC02F0E552E55215
:103B50006EC0E6FF020EE66E9FEC02F0E552E55203
:103B60006FC0E6FF030EE66E9FEC02F0E552E552F1
:103B70008CC0E6FF040EE66E9FEC02F0E552E552C3
:103B80008DC0E6FF050EE66E9FEC02F0E552E552B1
:103B90008BC0E6FF060EE66E9FEC02F0E552E552A2
:103BA0000001886B0A0EE76E8819E8AE02D0E73490
:103BB00002D0E750885D15E288C0E9FFEA6AE9BEF5
:103BC000EA687D0EE926000EEA22EF50E66E100E3E
:103BD0008825E66E9FEC02F0E552E5520001882B45
:103BE000E1D75ED0010EE66EC1EC02F0E552F3CFF4
:103BF00068F0F3CF6DF0020EE66EC1EC02F0E55214
:103C0000F3CF69F0F3CF6EF0030EE66EC1EC02F075
:103C1000E552F3CF6AF0F3CF6FF0040EE66EC1EC1D
:103C200002F0E552F3CF89F0F3CF8CF0050EE66E8B
:103C3000C1EC02F0E552F3CF8AF0F3CF8DF0000132
:103C4000886B0A0EE76E8819E8AE02D0E73402D01E
:103C5000E750885D24E2100E8825E66EC1EC02F084
:103C6000E552F350E66E88C0E9FFEA6AE9BEEA6809
:103C7000710EE926000EEA22E552E750EF6EE66E7D
:103C800088C0E9FFEA6AE9BEEA687D0EE926000E0F
:103C9000EA22E552E750EF6E0001882BD2D7886BFD
:103CA0009EEC16F0E66A2FEC17F0E552BA0E146E91
:103CB000400E156E166A14C0E6FF15C0E6FF16C06A
:103CC000E6FF8F0EE66E000EE66E42EC21F0176EF8
:103CD000050EE15E17508F0EE66E000EE66EE66A88
:103CE000070EE66ED6EC17F0E552E552E552E552C6
:103CF00083EC0EF010EC0EF0C8EC0FF0010EE66E47
:103D0000060EE66E020EE66E8FEC17F0E552E552F7
:103D1000E552E66A140EE66E060EE66E41EC18F009
:103D2000E552E552E552020EE66E060EE66E0A0E0A
:103D3000E66E8FEC17F0E552E552E552E66A440E66
:103D4000E66E060EE66E41EC18F0E552E552E552DD
:103D5000A3EC16F0F00E80140001606F6151605DFD
:103D60001EE060C061F06051700A10E0C00A0BE014
:103D7000600A06E0300A01E00DD015EC05F00AD02B
:103D8000BCEC05F007D0EAEC06F004D00001010E0F
:103D9000AD6F00D0020EE66E83EC23F0E552000119
:103DA0006B5109E0E66A010EE66E96EC03F0E5520F
:103DB000E55200016B6B0001A85126E08BC0E6FFC5
:103DC000060EE66E9FEC02F0E552E5520001A86B8C
:103DD00083EC0EF00001AC5117E1AD5115E110EC90
:103DE0000EF08AEC11F018EC1DF0F3CFDEFFF4CFEB
:103DF000DDFFDECFE6FFDDCFE6FF030EE66E96ECDD
:103E000003F0E552E552E5520001A95109E0A96B22
:103E10008AC0E6FF050EE66E9FEC02F0E552E55221
:103E20000001AA5109E0AA6B8AC0E6FF050EE66E02
:103E30009FEC02F0E552E5520001AC5102E1AD0504
:103E40001BE188C0E9FFEA6AE9BEEA687D0EE9265F
:103E5000000EEA22EF500001895D03E00001AD058C
:103E600003E185EC04F008D00001882B6851885DDF
:103E700003E3886B0001AC6B6DD7020EE15C02E2DC
:0E3E8000E16AE552E16EE552E7CFD9FF12008C
:023E8E00DACF89
:103E9000E4FFE2CFDAFFE9CFE4FFEACFE4FFF6CFB9
:103EA000E4FFF7CFE4FFF5CFE4FFF3CFE4FFF4CF77
:103EB000E4FFFACFE4FF00EE00F0140EE80403E3A1
:103EC000EECFE4FFFBD700EE14F00C0EE80403E3A2
:103ED000EECFE4FFFBD7E652F2A44CD0DC0EE66E48
:103EE0000B0EE66E14EC00F0E552E5520001010EF7
:103EF000A86F00018B2B3C0E206E8B51E76E2018B3
:103F0000E8AE02D0203403D0E750D88020542AE312
:103F10000001010EA96F00018B6B8A2B3C0E206EF5
:103F20008A51E76E2018E8AE02D0203403D0E75063
:103F3000D880205417E30001010EAA6F00018A6B9C
:103F4000892B0001AC6F180E206E00018951E76EBD
:103F50002018E8AE02D0203403D0E750D880205497
:103F600001E3896B0001010EB81901E1B95102E1C9
:103F70000001BA2B9EAA00D09EA205D09E920001FD
:103F8000B42B000EB523F2A238D0F2920001B25148
:103F90000AE10001B46BB56BBC6ABA84F19C000104
:103FA000010EB26F2AD0BC50206E216A226A236AA9
:103FB000B4C004F0B5C005F0066A076A096A010ECC
:103FC0000A6E0B6A0C6A75EC22F000500001202486
:103FD0000001AE6F0150000121200001AF6F0250BF
:103FE000000122200001B06F0350000123200001D6
:103FF000B16FBA940001010EB36FF0A038D0F09009
:104000000001B2510AE10001B46BB56BBC6ABA841D
:10401000F19A0001010EB26F2AD0BC50206E216AC5
:10402000226A236AB4C004F0B5C005F0066A076AC4
:10403000096A010E0A6E0B6A0C6A75EC22F00050D8
:10404000000120240001AE6F015000012120000179
:10405000AF6F0250000122200001B06F0350000139
:1040600023200001B16FBA940001010EB36FC00E9E
:10407000F212E55200EE1FF00C0EE80403E3E5CF68
:10408000EDFFFBD700EE13F0140EE80403E3E5CFD9
:10409000EDFFFBD7E5CFFAFFE5CFF4FFE5CFF3FF68
:1040A000E5CFF5FFE5CFF7FFE5CFF6FFE5CFEAFF78
:0A40B000E5CFE9FFE5CFDAFF1100CC
:0640BA00506574487562B8
:1040C000002532690024332C30342C25303269230A
:1040D0000D0A0024332C30332C25303269230D0A8D
:1040E0000024332C30322C25303469230D0A00246F
:1040F000332C30312C25303269230D0A00230D0A70
:10410000002C253032690024320024312C25303235
:10411000692C25303269230D0A000A0D54656D7033
:104120003A20253369000A0D4D696E3A202533691E
:10413000000A0D486F75723A2025336900506F727E
:1041400074696F6E3A20253369005363686564753E
:104150006C655F25693A202533690A0D0053657443
:1041600074696E6720000A0D5363686564756C6539
:104170003A202533690A0D005465706572617475C3
:104180007265004D696E75746500486F75720050F8
:104190006F7274696F6E005363686564756C650057
:1041A00052756E6E696E67000A0D0A0D4D6F64657B
:1041B0003A000A0D43757272656E742054696D651C
:1041C0003A20253032693A253032693A2530326951
:1041D000001B5B324A1B5B48506574487562205374
:1041E00074617475730A0D0025326900536574207B
:1041F000746F203A202020202000257320202020CA
:10420000200053657420746F203A20202020005332
:1042100063686564756C6520232532692020202041
:1042200000506F7274696F6E73203A2532690053C3
:1042300063686564756C65733A2532690025326977
:10424000504D00253269414D003132504D00313220
:10425000414D00253032693A25303269504D0025F4
:104260003032693A25303269414D0031323A2530D9
:104270003269504D0031323A25303269414D0025C6
:04428000303269006F
:0C428400D9CFE6FFDACFE6FFE1CFD9FF8B
:10429000E2CFDAFFE652E652E652E652D950F90F83
:1042A000146EFF0EDA20156E020E14C0DBFF030E33
:1042B00015C0DBFF020EDBCFE6FF030EDBCFE6FF10
:1042C000F90EDBCFE6FFFA0EDBCFE6FFFB0EDBCF0E
:1042D000E6FFD950FC0FE66EFF0EDA20E66E15EC15
:1042E00008F0146E070EE15C02E2E16AE552E16E4D
:1042F0001450F3CFDEFFF4CFDDFFFC0EDBCFE9FF80
:10430000FD0EDBCFEAFFEF6ADECF14F0DDCF15F054
:1043100014C0F3FF15C0F4FF040EE15C02E2E16A91
:10432000E552E16EE552E5CFDAFFE7CFD9FF1200A3
:104330000E0EF66E000EF76E000EF86E000109000C
:10434000F550C06F0900F550C16F03E1C06701D09F
:104350003DD00900F550BB6F0900F550BC6F090056
:10436000F550BD6F09000900F550E96E0900F550E0
:10437000EA6E090009000900F550BE6F0900F5500A
:10438000BF6F09000900F6CFC2F0F7CFC3F0F8CF36
:10439000C4F0BBC0F6FFBCC0F7FFBDC0F8FF000112
:1043A000BE5302E1BF5307E00900F550EE6EBE07B1
:1043B000F8E2BF07F9D7C2C0F6FFC3C0F7FFC4C019
:0E43C000F8FF0001C007000EC15BBFD712005E
:0243CE00D9CF45
:1043D000E6FFDACFE6FFE1CFD9FFE2CFDAFFE65220
:1043E000E652E652E652D950FB0F146EFF0EDA2069
:1043F000156E14C0DEFFDD6EDECFE6FFDDCFE6FF1B
:10440000FB0EDBCFE6FFFC0EDBCFE6FFFD0EDBCFC6
:10441000E6FFC5C0E6FFC6C0E6FF15EC08F0146E67
:10442000070EE15C02E2E16AE552E16E1450020E11
:10443000F3CFDBFF030EF4CFDBFF020EDBCF14F074
:10444000030EDBCF15F014C0F3FF15C0F4FF040E0C
:10445000E15C02E2E16AE552E16EE552E5CFDAFFA6
:06446000E7CFD9FF1200B6
:0A446600D9CFE6FFDACFE6FFE1CF81
:10447000D9FFE2CFDAFFFB0EDBCF14F0FC0EDBCF6F
:1044800015F00001800E15141AE1FB0EDBCFE9FFD9
:10449000FC0EDBCFEAFFEECFF3FFEDCFF4FFEE2A09
:1044A000000EEF22F3CFE9FFF4CFEAFFFD0EDBCFE2
:1044B000EFFFEF50156AF36E15C0F4FF10D0FB0E3E
:1044C000DB50FE0806E1FD0EDBCFE6FFDAEC23F061
:1044D00005D0FD0EDBCFE6FF03EC00F0E552E55220
:0A44E000E5CFDAFFE7CFD9FF1200A5
:0644EA0004500902F3CFAB
:1044F00000F0F4CF01F00A02F3500126000EF42080
:10450000026E04500B02F3500226000EF420036EDC
:1045100004500C02F350032605500902F350012603
:10452000F4500222000E032205500A02F350022624
:10453000F450032205500B02F350032606500902E3
:10454000F3500226F450032206500A02F3500326C9
:0A45500007500902F3500326120081
:06455A00FE0EE3CFE9FFB5
:10456000FF0EE3CFEAFFF36AF46AEE5203E0F34A88
:10457000F42AFBD71200FF0EE3CFF8FFE552FF0E3F
:10458000E3CFF7FFE552FF0EE3CFF6FFE552E66A11
:10459000E66AE66A0900F55209E0FD0EE32A05E144
:1045A000FE0EE32A02E1FF0EE32AF4D7FD0EE3CF6D
:1045B00005F0FE0EE3CF06F0FF0EE3CF07F012008A
:1045C000D9CFE6FFDACFE6FFE1CFD9FFE2CFDAFFBE
:1045D0003F0EC716C66AFD0EDB50C612FB0EDB503F
:1045E000C712FC0EDB50030A09E0010A04E0020ACC
:1045F00006E1C78C04D0C78CC68801D0C688FD0EE2
:10460000DB50050A03E0010A03E1928A948601D097
:1046100094969488949AC68AE552E5CFDAFFE7CF5C
:04462000D9FF1200AC
:0C4624000102040853455400000000008F
:10463000000000000000005363686564756C6573DA
:10464000000000000000506F7274696F6E00C3C3F9
:10465000C3C3C3C3C354696D652028486F757229ED
:104660000000000054696D6520284D696E29000026
:1046700000000054656D70657261747572650000AC
:02468000000038
:0E468200036A026A016A006A200EE76ED89091
:10469000043605360636073600360136023603364E
:1046A0000950005C0A5001580B5002580C50035836
:1046B00009E30950005E0A50015A0B50025A0C508F
:0A46C000035A042AE72EE4D7120083
:0646CA00D9CFE6FFDACFB4
:1046D000E6FFE1CFD9FFE2CFDAFFE652C950DF6E45
:1046E0009E96C69EFD0EDB50C96EC6AE02D0FF0E72
:1046F00003D09EA6FED7000EE552E552E5CFDAFFC5
:06470000E7CFD9FF120013
:0A470600FF0EE350256EEF0E01D008
:10471000F30EE76EE72E8AEF23F00C0E246EE76AA5
:10472000E72E90EF23F0242E8FEF23F0252E88EF35
:0447300023F0120060
:0C473400F36AF46AFF0EE124E96EFF0E48
:10474000E220EA6EED6607D02F0EEF6404D03A0E39
:08475000EF6001D0F32A120012
:08475800FF0EE350256E480E30
:1047600001D04C0EE76EE72EFED7E76AE72EFED7A4
:08477000252EF7D7000012000E
:08477800000EF36E00EE00F0EC
:10478000060E01D81200EA6002D0EE6AFCD7F350A0
:08479000E9601200EE6AFCD79B
:0847980015EE00F025EE00F023
:1047A000F86A0F9C98EC21F0FCEC23F076EC1DF0FD
:0447B000FBD7120021
:0C47B400FF0EE350ACBA04D0AF6AAB8E2D
:1047C000AC8A949CACA2FED7AD6EF36EF46A120074
:1047D000FF0EE350E84E1200000000D000D000D0E1
:0647E000E82EFAD71200DA
:0A47E60030313233343536373839BC
:0747F000616263646566006D
:0247F8001200AD
:0247FA00FEFFC0
:0447FC0000000000B9
:0F480000010000000000000000000000000000A8
:020000040030CA
:0100010028D6
:0100020003FA
:010003003CC0
:01000500BD3D
:010006008178
:00000001FF
