:020000040000FA
:06000000C3EF23F0120023
:020006001200E6
:060008006DEF1FF0120075
:02000E000200EE
:10001000EA4700006000000071000000E8470000AF
:08002000DB00000002000000FB
:08002800D9CFE6FFE1CFD9FFBB
:10003000F294FD0EDBCF14F0FE0EDBCF15F015C0F1
:1000400014F0156A1450D76EFD0EDB50D66EE552D3
:10005000E7CFD9FF1200D9CFE6FFE1CFD9FF020EDB
:10006000E126DE6ADD6A520ED36ED3A4FED70F01FD
:10007000386B896A92683A6B8B6AC00E946E396BE2
:100080008A6AC30E936E3B958C949594DC0EE66E53
:100090000B0EE66EC9DFE552E552930ED56E400EAB
:1000A000B86E260EAC6E900EAB6E190EAF6EB06AC7
:1000B000F194F294F28A9F9A9E9A9D9AD09EC00ED5
:1000C000F212020EE66E010EE66E00DAE552E5521D
:1000D000000EE66E010EE66EE1D9E552E5520C0E19
:1000E000E66E010EE66E71DAE552E552070EE66E37
:1000F000010EE66E6ADAE552E552110EE66E010E69
:10010000E66EC1DAE552E5521D0EE66E010EE66EB0
:10011000BADAE552E552290EE66E010EE66E91DA84
:10012000E552E5522C0EE66E010EE66E8ADAE552D5
:10013000E5520AEC16F088EC1BF0020EE15C02E2DC
:10014000E16AE552E16EE552E7CFD9FF1200D9CF5F
:10015000E6FFE1CFD9FF020EE1261D0E146E420E1E
:10016000156E166A14C0E6FF15C0E6FF16C0E6FF5E
:100170000DEC22F0E552E552E5522BC114F0156A60
:1001800014BE156814C0E6FF15C0E6FF2AC116F0BC
:10019000176A16BE176816C0E6FF17C0E6FF29C12A
:1001A00018F0196A18BE196818C0E6FF19C0E6FFF2
:1001B000FE0E1A6E410E1B6E1C6A1AC0E6FF1BC0B3
:1001C000E6FF1CC0E6FF0DEC22F01D6E090EE15E9D
:1001D0001D50F40E146E410E156E166A14C0E6FF23
:1001E00015C0E6FF16C0E6FF0DEC22F0E552E55221
:1001F000E55201010C51060A60E0030A4DE0010AD4
:100200003AE0070A27E0010A14E0030A01E066D099
:10021000EC0E146E410E156E166A14C0E6FF15C082
:10022000E6FF16C0E6FF0DEC22F0E552E552E5527E
:1002300055D0E30E146E410E156E166A14C0E6FF1B
:1002400015C0E6FF16C0E6FF0DEC22F0E552E552C0
:10025000E55244D0DB0E146E410E156E166A14C0C2
:10026000E6FF15C0E6FF16C0E6FF0DEC22F0E552F2
:10027000E552E55233D0D60E146E410E156E166A55
:1002800014C0E6FF15C0E6FF16C0E6FF0DEC22F035
:10029000E552E552E55222D0CF0E146E410E156E96
:1002A000166A14C0E6FF15C0E6FF16C0E6FF0DECA7
:1002B00022F0E552E552E55211D0C40E146E410E03
:1002C000156E166A14C0E6FF15C0E6FF16C0E6FFFD
:1002D0000DEC22F0E552E552E55200D001010D513E
:1002E000E66EE66AB20E146E410E156E166A14C002
:1002F000E6FF15C0E6FF16C0E6FF0DEC22F0176E14
:10030000050EE15E1750DE6ADD6ADECF14F0DDCF48
:1003100015F001010D51000115AE02D0D89003D0A7
:10032000145C000E155852E201011B511CE01CC167
:1003300014F0156A14BE1568DF50141803E1DE527C
:10034000DD50151810E1A90E146E410E156E166AD7
:1003500014C0E6FF15C0E6FF16C0E6FF0DEC22F064
:10036000E552E552E552DECFE9FFDDCFEAFF110E9F
:10037000E926010EEA22EFCF14F0156A14BE1568C3
:1003800014C0E6FF15C0E6FFDECF16F0DDCF17F094
:10039000010E1626000E172216C0E6FF17C0E6FF54
:1003A000960E186E410E196E1A6A18C0E6FF19C033
:1003B000E6FF1AC0E6FF0DEC22F01B6E070EE15EB1
:1003C0001B50DF2A010E01E3DB2A9FD701010E51EA
:1003D000E66EE66A890E146E410E156E166A14C03A
:1003E000E6FF15C0E6FF16C0E6FF0DEC22F0176E23
:1003F000050EE15E175029C114F0156A14BE156888
:1004000014C0E6FF15C0E6FF7D0E166E410E176E96
:10041000186A16C0E6FF17C0E6FF18C0E6FF0DEC2D
:1004200022F0196E050EE15E19502AC114F0156A0A
:1004300014BE156814C0E6FF15C0E6FF720E166EF6
:10044000410E176E186A16C0E6FF17C0E6FF18C007
:10045000E6FF0DEC22F0196E050EE15E1950010168
:100460000F51E66EE66A660E146E410E156E166A40
:1004700014C0E6FF15C0E6FF16C0E6FF0DEC22F043
:10048000176E050EE15E1750020EE15C02E2E16AB2
:10049000E552E16EE552E7CFD9FF1200D9CFE6FF72
:1004A000E1CFD9FFFD0EDBCFE9FFFE0EDBCFEAFF88
:1004B000EF6AFD0EDBCFE9FFFE0EDBCFEAFFEE5267
:1004C000F00EEF6EE552E7CFD9FF1200D9CFE6FF6D
:1004D000E1CFD9FFFD0EDBCFE9FFFE0EDBCFEAFF58
:1004E000010EEF6EFD0EDBCFE9FFFE0EDBCFEAFF64
:1004F000EE52EF6AFD0EDBCFE9FFFE0EDBCFEAFF27
:10050000020EE926000EEA22EF6AFD0EDBCFE9FFBC
:10051000FE0EDBCFEAFF030EE926000EEA22EF6AA9
:10052000FD0EDBCFE9FFFE0EDBCFEAFF040EE9266E
:10053000000EEA22EF6AE552E7CFD9FF1200D9CFC9
:10054000E6FFE1CFD9FFA650010B03E1A650020B55
:1005500001E0F9D7FE0EDB50A96EFD0EDB50A86E50
:10056000A69EA69CA684F29E550EA76EAA0EA76E06
:10057000A682A6B2FED7F28EA694E552E7CFD9FFA7
:100580001200D9CFE6FFE1CFD9FFA650010B03E15E
:10059000A650020B01E0F9D7FE0EDB50A96EA69E15
:1005A000A69CA680A650010B03E1A650020B01E019
:1005B000F9D7A850146E156A14C0F3FF15C0F4FFE4
:1005C00000D0E552E7CFD9FF1200D9CFE6FFE1CF47
:1005D000D9FFFD0EDBCFE9FFFE0EDBCFEAFF010EF8
:1005E000EF6EFD0EDBCFE9FFFE0EDBCFEAFFEE5232
:1005F000020EEF6EFD0EDBCFE9FFFE0EDBCFEAFF52
:10060000020EE926000EEA22030EEF6EFD0EDBCF8E
:10061000E9FFFE0EDBCFEAFF030EE926000EEA2219
:10062000190EEF6EFD0EDBCFE9FFFE0EDBCFEAFF0A
:10063000040EE926000EEA22EF6AE552E7CFD9FF61
:100640001200D9CFE6FFE1CFD9FFFD0EDBCFE9FFE6
:10065000FE0EDBCFEAFFEF6AFD0EDBCFE9FFFE0EF9
:10066000DBCFEAFFEE52EF6AFD0EDBCFE9FFFE0EB5
:10067000DBCFEAFF020EE926000EEA22EF6AE5521E
:10068000E7CFD9FF1200D9CFE6FFE1CFD9FF020EA5
:10069000E126FD0EDBCFE9FFFE0EDBCFEAFF0B0EFE
:1006A000E926000EEA22EF68FD0EDBCFE9FFFE0E21
:1006B000DBCFEAFF0A0EE926000EEA22EF6ADE6AC5
:1006C000DD6ADECF14F0DDCF15F0D890155004E6CA
:1006D0000A0E145C000E15581FE2DECF16F0DDCFB7
:1006E00017F0010E1626000E1722FD0EDBCFE9FFD4
:1006F000FE0EDBCFEAFFE9CF14F0EACF15F0DE50B3
:100700001424E96EDD501520EA6E16C0EFFFDF2AD3
:10071000010E01E3DB2AD5D7020EE15C02E2E16AB9
:10072000E552E16EE552E7CFD9FF1200D9CFE6FFDF
:10073000E1CFD9FF020EE126FE0EDB0470E10101DC
:100740000A51E66EE66A0951E66EE66A560E146EC6
:10075000410E156E166A14C0E6FF15C0E6FF16C0FE
:10076000E6FF0DEC22F0176E070EE15E1750530EF8
:10077000146E410E156E166A14C0E6FF15C0E6FF32
:1007800016C0E6FF0DEC22F0E552E552E552DE6AB6
:10079000DD6ADECF14F0DDCF15F001010D5100014F
:1007A00015AE02D0D89003D0145C000E155827E285
:1007B000DECFE9FFDDCFEAFF1D0EE926010EEA22BA
:1007C000EFCF14F0156A14BE156814C0E6FF15C00B
:1007D000E6FF4D0E166E410E176E186A16C0E6FF44
:1007E00017C0E6FF18C0E6FF0DEC22F0196E050EEB
:1007F000E15E1950DF2A010E01E3DB2ACAD7490E58
:10080000146E410E156E166A14C0E6FF15C0E6FFA1
:1008100016C0E6FF0DEC22F0E552E552E552FE0E61
:10082000DB50020817E1FC0EDBCFE6FFFD0EDBCF4D
:10083000E6FF3B0E146E410E156E166A14C0E6FFFD
:1008400015C0E6FF16C0E6FF0DEC22F0176E050E90
:10085000E15E1750FE0EDB50030817E1FC0EDBCF04
:10086000E6FFFD0EDBCFE6FF2D0E146E410E156E7A
:10087000166A14C0E6FF15C0E6FF16C0E6FF0DECD1
:1008800022F0176E050EE15E1750FE0EDB500408D5
:1008900017E1FC0EDBCFE6FFFD0EDBCFE6FF1F0E00
:1008A000146E410E156E166A14C0E6FF15C0E6FF01
:1008B00016C0E6FF0DEC22F0176E050EE15E175034
:1008C000FE0EDB50050817E1FC0EDBCFE6FFFD0E48
:1008D000DBCFE6FF110E146E410E156E166A14C0C2
:1008E000E6FF15C0E6FF16C0E6FF0DEC22F0176E1E
:1008F000050EE15E1750020EE15C02E2E16AE5528C
:10090000E16EE552E7CFD9FF1200020E0001CE19C9
:1009100001E1CF514DE0010ECE1901E1CF513CE094
:10092000CE5101E1CF5101E086D00001D890CD51E8
:1009300004E6000ECC5D020ECD5924E20101032B2A
:10094000040EE76E0319E8AE02D0E73402D0E75098
:10095000035D01E3036B03C1E9FFEA6AE9BEEA68EC
:10096000600EE926000EEA22EF50040DF350816E6E
:10097000030EE66EA3EC23F0E5520001CC2B000E33
:10098000CD2309D0010E0001CE6FCF6B0001CC6BDF
:10099000CD6B0001D06B4FD0010109290001D88037
:1009A000D05505E2020E0001CE6FCF6B00D043D0D0
:1009B0000001D890CD5104E6000ECC5D020ECD5959
:1009C0001DE201010307033502E3030E036F03C1B8
:1009D000E9FFEA6AE9BEEA68600EE926000EEA224B
:1009E000EF50040DF350816E030EE66EA3EC23F07E
:1009F000E5520001CC2B000ECD231CD00001CE6BA4
:100A0000CF6B0001CC6BCD6B0001695102E0696BCB
:100A100011D00101282B010108510101285D0AE3D1
:100A2000286B0001686B68C0E6FF070EE66E87DD85
:100A3000E552E55200D01200020E01010C5D12E1F8
:100A400001011C2B01010D5101011C5D05E2010E8C
:100A50001B6F1EEC10F005D01B6B01010C2B81EC01
:100A600010F090D00C050FE1030EE66E73EC17F05A
:100A7000E552040EE66E73EC17F0E552050EE66ED5
:100A800073EC17F0E55201010C2B040E0C5D03E131
:100A900029C12CF10BD0050E0C5D03E12AC12DF10B
:100AA00005D00C51060802E2010E0C6F0C0568E13E
:100AB0000CC107F10DC108F10EC109F10FC10AF116
:100AC0000DC1E6FF010EE66E3ADDE552E5520EC1BC
:100AD000E6FF020EE66E33DDE552E5520FC1E6FF9A
:100AE000030EE66E2CDDE552E5522CC1E6FF040E46
:100AF000E66E25DDE552E5522DC1E6FF050EE66EF8
:100B00001EDDE552E5520101010E0B6F01011C6B68
:100B100001010D5101011C5D2BE21CC1E9FFEA6AD4
:100B2000E9BEEA68110EE926010EEA22EF50E66EF0
:100B30001CC1E9FFEA6AE9BEEA681D0EE926010E5A
:100B4000EA22E552E750EF6E1CC1E9FFEA6AE9BE0E
:100B5000EA68110EE926010EEA22EF50E66E100E49
:100B60001C25E66EECDCE552E55201011C2BD0D7CA
:100B70001C692CC129F12DC12AF1CFEC0FF002D054
:100B800081EC10F0120001011B513FE01CC1E9FF94
:100B9000EA6AE9BEEA68110EE926010EEA22EF2AA6
:100BA0001CC1E9FFEA6AE9BEEA68110EE926010EF6
:100BB000EA22EFCF14F0170EE76E1418E8AE02D059
:100BC000143403D0E750D88014540AE21CC1E9FF62
:100BD000EA6AE9BEEA68110EE926010EEA22EF6A26
:100BE0001CC1E9FFEA6AE9BEEA68110EE926010EB6
:100BF000EA22EF50E66E040EE66E0C0EE66E37EC5F
:100C00000FF0E552E552E552EBD001010C51060A16
:100C100001E1B9D0030A01E17BD0010A5FE0070AD4
:100C200030E0010A01E0DCD00D2B0D510A0802E290
:100C3000010E0D6F0D51E66EE66A0D0E146E410E3B
:100C4000156E166A14C0E6FF15C0E6FF16C0E6FF73
:100C50002F0EE66E010EE66E68EC21F0176E070EA1
:100C6000E15E17502F0EE66E010EE66E040EE66E84
:100C70000C0EE66EDDEC17F0E552E552E552E5525A
:100C8000AFD00E2B0E51050802E2010E0E6F0E5171
:100C9000E66EE66A0D0E146E410E156E166A14C0ED
:100CA000E6FF15C0E6FF16C0E6FF2F0EE66E010E4A
:100CB000E66E68EC21F0176E070EE15E17502F0EFE
:100CC000E66E010EE66E040EE66E0C0EE66EDDECD0
:100CD00017F0E552E552E552E55282D001012C2B86
:100CE000170EE76E2C19E8AE02D02C3503D0E75072
:100CF000D8802C5501E22C6B2CC1E6FF040EE66E69
:100D00000C0EE66E37EC0FF0E552E552E55268D076
:100D100001012D2B3B0EE76E2D19E8AE02D02D35CB
:100D200003D0E750D8802D5501E22D6B2DC114F072
:100D3000156A14BE156814C0E6FF15C0E6FF0D0E57
:100D4000166E410E176E186A16C0E6FF17C0E6FF52
:100D500018C0E6FF2F0EE66E010EE66E68EC21F07D
:100D6000196E070EE15E19502F0EE66E010EE66E4B
:100D7000040EE66E0C0EE66EDDEC17F0E552E55261
:100D8000E552E5522DD00F2B0F511E0802E2120E34
:100D90000F6F0F51E66EE66A0D0E146E410E156E62
:100DA000166A14C0E6FF15C0E6FF16C0E6FF2F0E58
:100DB000E66E010EE66E68EC21F0176E070EE15E3E
:100DC00017502F0EE66E010EE66E040EE66E0C0E48
:100DD000E66EDDEC17F0E552E552E552E55200D043
:100DE000120001011B5137E01CC1E9FFEA6AE9BEAC
:100DF000EA68110EE926010EEA22EF061CC1E9FF9E
:100E0000EA6AE9BEEA68110EE926010EEA22EFCF8E
:100E100014F014340BE31CC1E9FFEA6AE9BEEA6886
:100E2000110EE926010EEA22170EEF6E1CC1E9FF32
:100E3000EA6AE9BEEA68110EE926010EEA22EF50DD
:100E4000E66E040EE66E0C0EE66E37EC0FF0E55221
:100E5000E552E552DAD001010C51060A01E1A8D0B1
:100E6000030A73E0010A5FE0070A30E0010A01E0CB
:100E7000CCD00D07010E0D5D02E20A0E0D6F0D5173
:100E8000E66EE66A0D0E146E410E156E166A14C0FB
:100E9000E6FF15C0E6FF16C0E6FF2F0EE66E010E58
:100EA000E66E68EC21F0176E070EE15E17502F0E0C
:100EB000E66E010EE66E040EE66E0C0EE66EDDECDE
:100EC00017F0E552E552E552E5529FD00E07010EAC
:100ED0000E5D02E2050E0E6F0E51E66EE66A0D0E15
:100EE000146E410E156E166A14C0E6FF15C0E6FFBB
:100EF00016C0E6FF2F0EE66E010EE66E68EC21F0DE
:100F0000176E070EE15E17502F0EE66E010EE66EAD
:100F1000040EE66E0C0EE66EDDEC17F0E552E552BF
:100F2000E552E55272D001012C072C3502E3170E71
:100F30002C6F2CC1E6FF040EE66E0C0EE66E37EC4D
:100F40000FF0E552E552E55260D001012D072D3535
:100F500002E33B0E2D6F2DC114F0156A14BE156807
:100F600014C0E6FF15C0E6FF0D0E166E410E176E9B
:100F7000186A16C0E6FF17C0E6FF18C0E6FF2F0E7E
:100F8000E66E010EE66E68EC21F0196E070EE15E6A
:100F900019502F0EE66E010EE66E040EE66E0C0E74
:100FA000E66EDDEC17F0E552E552E552E5522DD044
:100FB0000F07120E0F5D02E21E0E0F6F0F51E66E4D
:100FC000E66A0D0E146E410E156E166A14C0E6FF29
:100FD00015C0E6FF16C0E6FF2F0EE66E010EE66EA8
:100FE00068EC21F0176E070EE15E17502F0EE66ECB
:100FF000010EE66E040EE66E0C0EE66EDDEC17F0EA
:0C100000E552E552E552E55200D0120026
:04100C0042EC0DF0B5
:10101000FB0EDBCFF3FFDB06F35000090AE090EC98
:101020000DF0FA0EFBEC0DF0F3E1151CF1E1010EF1
:1010300001D0000E71EF0DF042EC0DF03B0EE124FB
:1010400002E3E168E652E16E010EDB6A020EDB6A42
:10105000F90EDBCFF6FFFA0EDBCFF7FFFB0EDBCF8F
:10106000F8FF0800F550DF6EDF5002E195EF0CF05D
:10107000250EDF5C02E088EF0CF0030EDB6A040E45
:10108000DB6A050EDB6A060EDB6A070EDB6AAAEC7A
:101090000CF02D0EDF5C0CE02B0EDF5C09E0200E67
:1010A000DF5C06E0230EDF5C03E0300EDF5C1AE15C
:1010B000DF50300A14E0130A0FE0030A0AE00B0ABB
:1010C00005E0060AE4E1030EDB80E1D7030EDB82D4
:1010D000DED7030EDB84DBD7030EDB86D8D7030E07
:1010E000DB88D5D72A0EDF5C1BE1A6EC0CF0F4EC14
:1010F0000CF010E0030EDB8006680768130EDBCFF0
:101100000BF0140EDBCF0CF05BEC1BF0040E04C0F4
:10111000DBFF03D0130EDDEC0CF0AAEC0CF00BD0CF
:10112000090EDB6A4BEC0DF003E0BFEC0DF0FAD7D3
:10113000090EDDEC0CF0030EDBB0DB982E0EDF5C4D
:101140001BE1AAEC0CF02A0EDF5C0BE1A6EC0CF024
:10115000F4EC0CF003E1130E2FEC0DF0AAEC0CF004
:101160000BD0090EDB6A4BEC0DF003E0BFEC0DF089
:10117000FAD7090E2FEC0DF0680EDF5C07E1AAEC40
:101180000CF0680EDF5C1DE1030E18D0740EDF5CFE
:1011900017E07A0EDF5C14E0480EDF5C06E0540EC8
:1011A000DF5C03E05A0EDF5C02E1020E07D06C0E3A
:1011B000DF5C03E06A0EDF5C04E1010E82EC0DF0FF
:1011C000C9DBDF506E0A01E17FD31E0A01E192D133
:1011D000200A01E18FD13F0A01E149D11A0A01E158
:1011E00046D10D0A01E143D1200A01E140D13A0A7A
:1011F00001E13DD1200A01E13AD1260A01E135D1D0
:101200000D0A01E132D11A0A01E1D9D0200A4AE0DF
:10121000300A1FE0460A0EE0250A01E083D3D950C8
:10122000F90FE96EFF0EDA20EA6E010EEE5E000E97
:10123000EE5AEE5A90EC0DF0250EE66E95DB03E1CA
:10124000151C01E169D38CEC0DF001E26BD3DB2AB4
:1012500069D3080EDB6A040EDB50010806E2040EB7
:10126000DB0454EC0DF0DB508BDB080EDB5009E0A7
:10127000030EDB50010B05E172DB01E04DD3080EDC
:10128000DB6A64DBEFCFDFFF04EC0EF003E1151C3B
:1012900001E142D38CEC0DF001E3DB2A60DB01E1DC
:1012A00041D33AD3070EDB5002080FE1D0EC0DF02A
:1012B000030E97EC0DF00E0EEECFDBFF0F0EEECF10
:1012C000DBFF100EEECFDBFF20D0F70EDBCF17F0E9
:1012D000F80EDBCF18F0020E175E000E185AF70E4C
:1012E00017C0DBFFF80E18C0DBFF17C0E9FF18C0FE
:1012F000EAFF87EC0DF0166A0E0E14C0DBFF0F0E2E
:1013000015C0DBFF100E16C0DBFF0E0EDBCFE6FFB5
:101310000F0EDBCFE6FF100EDBCFE6FFE1EC22F095
:10132000E552E552E552130E05C0DBFF140E06C070
:10133000DBFF060EDB5005E0130ECBEC0DF001E2F7
:101340006ADBEFEC0DF002E2130E37DBB2EC0DF0CE
:1013500006E0040ECBEC0DF002E2050E2EDB030ED0
:10136000DBB005D0FCDA01E0D7D2080EDB6A090E4B
:10137000DB6A0E0EDBCFF6FF0F0EDBCFF7FF100E92
:10138000DBCFF8FF0800F550DF6EDF5014E0F5EC1E
:101390000DF011E204EC0EF003E1151C01E1BCD2EA
:1013A000BBDB01E3DB2A090EDB2AD9500E0FE96E05
:1013B000000ECBDBE7D7D3DA01E1B4D2ADD2C6DA87
:1013C000110EEECFDBFF120EEDCFDBFF110EDBCFE8
:1013D000E6FF120EDBCFE6FFD3EC22F0E552E5523A
:1013E000130EF3CFDBFF140EF4CFDBFF060EDB5042
:1013F00004E0130ED0DB01E20EDBEFEC0DF002E2B5
:10140000130EDBDAAFDB05E0040EC5DB02E2050EEE
:10141000D4DA030EDBB005D0A2DA01E07DD2080EEB
:10142000DB6A090EDB6A110EDBCFE9FF120EDBCFA0
:10143000EAFFEFCFDFFFDF5014E0D7DB12E2E4DB9F
:1014400003E1151C01E168D267DB01E3DB2A090E29
:10145000DB2A110EDB2ADBCFE9FF120EE8E3DB2AE1
:10146000E6D77DDA01E15ED257D2030EDB8E070E9E
:10147000DB0410E195DB040E5ADB0A0EEECFDBFF36
:101480000B0EEECFDBFF0C0EEECFDBFF0D0EEECF23
:10149000DBFF6CD0070EDB5003082CE1030EDBAE44
:1014A0000DD0B2DA020E76DAEFCF14F0156A166AB2
:1014B000176A14AE39D01568166835D0F70EDBCF31
:1014C00015F0F80EDBCF16F0020E155E000E165A60
:1014D000F70E15C0DBFFF80E16C0DBFF15C0E9FFE5
:1014E00016C0EAFFEFCF14F00A0E14C0DBFF0B0E9C
:1014F000DB6A38D0070EDB50020809E1030EDBAED1
:1015000004D059DB16AE10D00ED055DB0DD0030E33
:10151000DBAE12D079DA020E3DDAF9DA166A176A12
:1015200015AE02D016681768E2DA0C0E16C0DBFFA3
:101530000D0E17C0DBFF1AD0F70EDBCF16F0F80E3A
:10154000DBCF17F0020E165E000E175AF70E16C00C
:10155000DBFFF80E17C0DBFF16C0E9FF17C0EAFF7C
:10156000D6DAC5DA0C0EDB6A0D0EDB6A060EDB502E
:1015700005E1010EF36E050EF3CFDBFF150EDB6AFE
:10158000160EDB6AD950370F146E000EDA20156E76
:10159000390E14C0DBFF3A0E15C0DBFF380EDB6AD4
:1015A000080EDB6A0A0EAEDADF50780A12E0200A73
:1015B00010E0280A0CE0200A0AE03F0A06E00D0AC3
:1015C00002E0200A08E1020E05D0080E03D0080E42
:1015D000DF26100E97DA030EDBBE02D0DB92DB941F
:1015E000DB50800B24E08ADAD890030EEB50000A1F
:1015F00008E6000EEE5C000EEE58000EEE58000EEF
:10160000EE5815E213DA09680A680B680C689BEC5F
:1016100022F00A0E00C0DBFF0B0E01C0DBFF0C0E38
:1016200002C0DBFF0D0E03C0DBFF2D0E08D0030E42
:10163000DBA202D02B0E03D0DBA408D0200EF36E69
:10164000170EF3CFDBFF150EDB2A02D0170EDB6A75
:10165000050EDB5003E1B7D901E189D0D40E146E39
:10166000470E156E000E166E070EDBCF17F0186AC8
:10167000196A1A6A17C009F018C00AF019C00BF0ED
:101680001AC00CF0D3D938EC23F014500024F36EB8
:1016900015500120F46E16500220F86EF4CFF7FFBB
:1016A000F3CFF6FF0800090EF5CFDBFF580EDF5C25
:1016B0000FE1610EF36E090E7BD90AE3200E146E62
:1016C000090EDBCFE7FF1450E75E090EE7CFDBFF23
:1016D000070EDBCF14F0156A166A176A0FDA14C00A
:1016E00009F015C00AF016C00BF017C00CF0EECFD1
:1016F00004F0EECF05F0EECF06F0EFCF07F038ECB8
:1017000023F007C0EDFF06C0EDFF05C0EDFF04C0EC
:10171000EFFF390EDBCFE9FFDB063A0EDBCFEAFF46
:1017200001E2DB06090EDBCFEFFF150EDB2A4BD9FA
:1017300095E1030EDBA61DD06F0EDF5C06E1C1D97B
:1017400018E3150EDB285BDA14D0780EDF5C09E0B5
:10175000580EDF5C06E0620EDF5C03E0420EDF5CE9
:1017600008E1020EF36E160EF3CFDBFF02D0150E6A
:10177000DB6A030EDB50100B0EE0040EDBCF14F01F
:10178000050EDB50D880145406E2060EDB5003E150
:10179000040EDB5034DA95D90AE2050EDBCFE7FF01
:1017A000150EDB50E75E050EE7CFDBFF02D0050E1E
:1017B000DB6A040EDBCF14F0160E45D9D880145422
:1017C00014E2160EDBCFE6FF150EDBCFE6FF040EAC
:1017D000DBCFE6FF050EDB50E552E75CE552D88033
:1017E000E754E552D880E7545FD9030EDB50010B74
:1017F0000BE1080EDB5008E0B2D801E08DD0080EF6
:10180000DB50BED8080EDB6A170EDB5007E088D924
:10181000170EF1D903E1151C01E17ED0160EDB5045
:1018200016E07ED9300EE66E9FD802E1151C74E0FA
:1018300077D9DFCFE6FF59EC22F0E552E552E552C9
:10184000F4CF15F00001F31C02E1151C65E0050E54
:10185000DBCF14F0160EDB50D880145409E2050ECD
:10186000DBCFE7FF160EDB50E75E050EE7CFDBFFB1
:10187000300EE66E050ECBD94FE1390EDB2ADBCFF9
:10188000E9FF3A0E01E3DB2ADBCFEAFF090EEFCFD7
:10189000DBFFDB500EE044D9090EADD902E1151C87
:1018A0003BE0390EDB2ADBCFE9FF3A0EEDE3DB2A22
:1018B000EBD755D831E1160EDBCFE6FF080EC3D8C3
:1018C000E552E7245DD82ED0070EDB50030A1CE05A
:1018D000010A14E0030A07E07BD9DBCFEEFF020E1A
:1018E000DBCFEDFF1FD0F5D8196A17AE02D018680C
:1018F00019682CD8BCD819C0EEFF14D0EAD817BE8E
:10190000186824D8B4D80ED063D9DBCFEFFF0AD043
:101910007BD905E1151C03E1F368F46810D0FCD80D
:1019200001E3DB2A79D931EF08F0010EDBCF14F0A7
:10193000020EDBCF15F014C0F3FF15C0F4FF3B0E11
:10194000E15C02E2E16AE552E16ECBD029D9020EF8
:1019500097EF0DF061D90800F550DF6E1200200EF0
:10196000E66E080E07EF0EF059EC22F0E552E55254
:10197000E552F3CF14F0F4CF15F00001F31C120080
:10198000146E156AD950010F4DD91450EE2615501A
:10199000ED221200185E000E195AF70E18C0DBFF78
:1019A000F80E19C0DBFF18C0E9FF19C0EAFF1200EA
:1019B000DBCFF4FFF350F45C1200DB50E76E040E53
:1019C000E7CFDBFF12000A0EDBCF14F00B0EDBCFEC
:1019D00015F00C0EDBCF16F00D0EDBCF17F0145008
:1019E0001510161017101200130EEECFDBFF140E99
:1019F000EDCFDBFF130EDBCF14F0140EDBCF15F0B1
:101A00000001800E15141200F70EDBCF18F0F80E4F
:101A1000DBCF19F01200050EDB50E66ED950130F24
:101A200001D9E552E750EE6EED6A12000A0EDBCFE7
:101A300004F00B0EDBCF05F00C0EDBCF06F00D0E25
:101A4000DBCF07F01200DBCFE6FF150EDBCFE6FFA2
:101A5000050EDB50E552E724E552E7241200DB5087
:101A6000CED8010EF36E060EF3CFDBFF1200EE5060
:101A7000EFCFEAFFE96E16C0EEFF17C0EEFF18C009
:101A8000EEFF1200D9CFE6FFDACFE6FFE1CFD9FFB4
:101A9000E2CFDAFF1200DFCFE6FFE66A91EC23F037
:101AA000E552E552F3501200E76E080EE7CFDBFF78
:101AB0001200EECF14F0EECF15F0EFCF16F0176A4C
:101AC0001200050EDBCF14F0150EDB50D880145435
:101AD0001200010EDBCF16F0020EDBCF17F0186AF2
:101AE0001200E552E5CFDAFFE7CFD9FF12000A0E68
:101AF00014C0DBFF0B0E15C0DBFF1200D9500A0F1C
:101B000012EF0EF0F36E070EF3CFDBFF1200EECFF5
:101B100014F0EFCF15F01200010EDB2A020E1200B6
:101B2000FC0EDBCFE6FFFD0EDBCFE6FF1200145EFE
:101B3000000E155AF70E14C0DBFFF80E15C0DBFFC0
:101B400014C0E9FF15C0EAFF1200DA20EA6EEF2A9E
:101B5000EECFF6FF000EEF22EECFF7FFEF22EECF33
:101B6000F8FF1200040EDBCFE6FF130EDB50E55248
:101B7000E75C9ADFDB5004DF060EDB501200090E33
:101B8000DB500A0DF350DF24D00FE76E090EE7CFCC
:101B9000DBFFAAEF0CF0DB50F36E050ED8EF0CF074
:101BA000F70EDBCF14F0F80EDBCF15F01200DFCF0D
:101BB000E6FFB4EF0CF028DF030EECDE59EF0DF07A
:101BC00006EC08F0E552E552E552E5520009120034
:101BD000BDDEEE50EFCFEAFFE96E010E1200130EEC
:101BE000DB50F36E040ED8EF0CF0040EDB50F36EF6
:101BF000090ED8EF0CF0DBCFE6FFB4EF0CF0E76E88
:101C0000050EE7CFDBFF12008BDFD7EF0DF0DBCF48
:101C1000E6FF86DFE0EF0DF0D950F90FE96EFF0E19
:0E1C2000A5EF0DF0E96E000EDA20EA6E12005C
:021C2E00D9CF0C
:101C3000E6FFE1CFD9FF020EE12680EC1CF0F3CFE6
:101C4000DEFFF4CFDDFFDECF14F0DDCF15F00101B4
:101C50000A51166E176A17501518E8AE02D01534DF
:101C600004D01450165C1550175802E28C8401D031
:101C70008C94DECFE6FFDDCFE6FFCB0E146E420E76
:101C8000156E166A14C0E6FF15C0E6FF16C0E6FF23
:101C90002F0EE66E010EE66E68EC21F0176E070E51
:101CA000E15E1750DECFE6FFDDCFE6FF020EE66E07
:101CB00096EC03F0E552E552E5522F0EE66E010E6A
:101CC000E66E010EE66E0F0EE66EDDEC17F0E552E5
:101CD000E552E552E552E66A010EE66E110EE66E39
:101CE00096EC17F0E552E552E552430EE66E010E12
:101CF000E66E120EE66ECEEC16F0E552E552E552B7
:101D0000020EE15C02E2E16AE552E16EE552E7CFE4
:101D1000D9FF1200010129511FE12AC114F0156AEF
:101D200014BE156814C0E6FF15C0E6FFC10E166E9E
:101D3000420E176E186A16C0E6FF17C0E6FF18C0FD
:101D4000E6FF2F0EE66E010EE66E68EC21F0196ECE
:101D5000070EE15E19507CD00C0E295D1FE12AC1EF
:101D600014F0156A14BE156814C0E6FF15C0E6FF2E
:101D7000B70E166E420E176E186A16C0E6FF17C031
:101D8000E6FF18C0E6FF2F0EE66E010EE66E68EC69
:101D900021F0196E070EE15E19505AD00C0EE76E55
:101DA0002919E8AE02D0E73402D0E750295D28E2D5
:101DB0002AC114F0156A14BE156814C0E6FF15C0D8
:101DC000E6FF29C116F0176A16BE176816C0E6FFAF
:101DD00017C0E6FFAB0E186E420E196E1A6A18C0D5
:101DE000E6FF19C0E6FF1AC0E6FF2F0EE66E010EF1
:101DF000E66E68EC21F01B6E090EE15E1B5028D0E8
:101E00002AC114F0156A14BE156814C0E6FF15C087
:101E1000E6FF0C0E295D166E176A16BE176816C00F
:101E2000E6FF17C0E6FF9F0E186E420E196E1A6A83
:101E300018C0E6FF19C0E6FF1AC0E6FF2F0EE66ED7
:101E4000010EE66E68EC21F01B6E090EE15E1B5080
:101E50002F0EE66E010EE66E010EE66E020EE66EC7
:101E6000DDEC17F0E552E552E552E5521200D9CF0C
:101E7000E6FFE1CFD9FFFC0EDB5016E19A0E146E9F
:101E8000420E156E166A14C0E6FF15C0E6FF16C0B6
:101E9000E6FF2F0EE66E010EE66E68EC21F0176E7F
:101EA000050EE15E175067D0FC0EDB500C0816E102
:101EB000950E146E420E156E166A14C0E6FF15C01C
:101EC000E6FF16C0E6FF2F0EE66E010EE66E68EC2A
:101ED00021F0176E050EE15E17504DD0FC0EDBCFE2
:101EE00014F00C0EE76E1418E8AE02D0E73402D0FE
:101EF000E750145C20E2FC0EDBCF14F0156A14BE30
:101F0000156814C0E6FF15C0E6FF8F0E166E420E70
:101F1000176E186A16C0E6FF17C0E6FF18C0E6FF86
:101F20002F0EE66E010EE66E68EC21F0196E070EBC
:101F3000E15E195020D0FC0EDB50F40F146E156AD0
:101F400014BE156814C0E6FF15C0E6FF890E166EB4
:101F5000420E176E186A16C0E6FF17C0E6FF18C0DB
:101F6000E6FF2F0EE66E010EE66E68EC21F0196EAC
:101F7000070EE15E19502F0EE66E010EE66EFD0EA5
:101F8000DBCFE6FFFE0EDBCFE6FFDDEC17F0E55220
:101F9000E552E552E552E552E7CFD9FF1200BADE2D
:101FA00001010851E66EE66A7B0E146E420E156E54
:101FB000166A14C0E6FF15C0E6FF16C0E6FF2F0E36
:101FC000E66E010EE66E68EC21F0176E070EE15E1C
:101FD00017502F0EE66E010EE66E030EE66E040E2F
:101FE000E66EDDEC17F0E552E552E552E5520101EF
:101FF0000951E66EE66A6D0E146E420E156E166A93
:1020000014C0E6FF15C0E6FF16C0E6FF2F0EE66E11
:10201000010EE66E68EC21F0176E070EE15E1750B8
:102020002F0EE66E010EE66E040EE66EE66EDDEC39
:1020300017F0E552E552E552E552120001011C2964
:10204000146E156A14BE156814C0E6FF15C0E6FFCD
:102050005B0E166E420E176E186A16C0E6FF17C0AA
:10206000E6FF18C0E6FF2F0EE66E010EE66E68EC86
:1020700021F0196E070EE15E19502F0EE66E010E6B
:10208000E66E030EE66E040EE66EDDEC17F0E5522A
:10209000E552E552E5524E0E146E420E156E166A6A
:1020A00014C0E6FF15C0E6FF16C0E6FF2F0EE66E71
:1020B000010EE66E68EC21F0176E050EE15E17501A
:1020C0002F0EE66E010EE66E040EE66EE66EDDEC99
:1020D00017F0E552E552E552E5521CC1E9FFEA6A04
:1020E000E9BEEA68110EE926010EEA22EF50E66E1B
:1020F000040EE66E0C0EE66EBADEE552E552E552CF
:10210000120001010C050F0DF3CF14F0F4CF15F000
:102110006A0E1426000E152214C0E6FF15C0E6FF55
:10212000460E166E420E176E186A16C0E6FF17C0EE
:10213000E6FF18C0E6FF2F0EE66E010EE66E68ECB5
:1021400021F0196E070EE15E19502F0EE66E010E9A
:10215000E66E030EE66E040EE66EDDEC17F0E55259
:10216000E552E552E552380E146E420E156E166AAF
:1021700014C0E6FF15C0E6FF16C0E6FF2F0EE66EA0
:10218000010EE66E68EC21F0176E050EE15E175049
:102190002F0EE66E010EE66E040EE66EE66EDDECC8
:1021A00017F0E552E552E552E55201010C51060ADD
:1021B00001E18FD0030A60E0010A53E0070A2AE038
:1021C000010A01E0ADD00D51E66EE66A340E146EE0
:1021D000420E156E166A14C0E6FF15C0E6FF16C063
:1021E000E6FF2F0EE66E010EE66E68EC21F0176E2C
:1021F000070EE15E17502F0EE66E010EE66E040E1E
:10220000E66E0C0EE66EDDEC17F0E552E552E55297
:10221000E55286D00E51E66EE66A340E146E420E1A
:10222000156E166A14C0E6FF15C0E6FF16C0E6FF7D
:102230002F0EE66E010EE66E68EC21F0176E070EAB
:10224000E15E17502F0EE66E010EE66E040EE66E8E
:102250000C0EE66EDDEC17F0E552E552E552E55264
:102260005FD02CC1E6FF040EE66E0C0EE66EFFDDBD
:10227000E552E552E55254D02AC114F0156A14BE55
:10228000156814C0E6FF15C0E6FF340E166E420E48
:10229000176E186A16C0E6FF17C0E6FF18C0E6FF03
:1022A0002F0EE66E010EE66E68EC21F0196E070E39
:1022B000E15E19502F0EE66E010EE66E040EE66E1C
:1022C0000C0EE66EDDEC17F0E552E552E552E552F4
:1022D00027D00F51E66EE66A340E146E420E156E6C
:1022E000166A14C0E6FF15C0E6FF16C0E6FF2F0E03
:1022F000E66E010EE66E68EC21F0176E070EE15EE9
:1023000017502F0EE66E010EE66E040EE66E0C0EF2
:10231000E66EDDEC17F0E552E552E552E55200D0ED
:102320001200D9CFE6FFE1CFD9FF050EE126DE6A24
:10233000DE6ADE6ADD6ADD52DD52040EDB6A000110
:102340006751030A01E1A8D0010A01E19BD0030A09
:102350000DE0010A01E02BD1010EE66EE66AABEC5E
:102360001BF0E552E5520001672B21D1DDEC1BF09B
:1023700004C0DEFF05C0DEFF06C0DEFF07C0DDFFD4
:10238000DD52DD52D9CFE9FFDACFEAFF000EEE5C75
:10239000000EEE58000EEE58000EEE5806E2040E47
:1023A000F36EF3CFDBFF03D14DD0D9CFE9FFDACF06
:1023B000EAFF030EEE5C000EEE58000EEE58000E23
:1023C000EE5805E2040EF36EF3CFDBFF3BD0D9CF1E
:1023D000E9FFDACFEAFF060EEE5C000EEE58000EC3
:1023E000EE58000EEE5806E2030EF36E040EF3CF25
:1023F000DBFF28D0D9CFE9FFDACFEAFF090EEE5C88
:10240000000EEE58000EEE58000EEE5806E2020ED8
:10241000F36E040EF3CFDBFF15D0D9CFE9FFDACF8F
:10242000EAFF0D0EEE5C000EEE58000EEE58000EA8
:10243000EE5806E2010EF36E040EF3CFDBFF02D07E
:10244000040EDB6A0001672B040EDBCFE6FF140EDF
:10245000E66E060EE66E48EC18F0E552E552E552DF
:10246000040EDBCF14F0156A14BE156814C0E6FF25
:1024700015C0E6FF050EE66E96EC03F0E552E55258
:10248000E55295D0020EE66EE66AABEC1BF0E55223
:10249000E5520001672B8BD0DDEC1BF004C0DEFFA2
:1024A00005C0DEFF06C0DEFF07C0DDFFDD52DD52E6
:1024B000D9CFE9FFDACFEAFF000EEE5C000EEE584E
:1024C000000EEE58000EEE5806E2040EF36EF3CF47
:1024D000DBFF6DD04DD0D9CFE9FFDACFEAFF030E95
:1024E000EE5C000EEE58000EEE58000EEE5805E2BF
:1024F000040EF36EF3CFDBFF3BD0D9CFE9FFDACF89
:10250000EAFF060EEE5C000EEE58000EEE58000ECE
:10251000EE5806E2030EF36E040EF3CFDBFF28D075
:10252000D9CFE9FFDACFEAFF090EEE5C000EEE58D4
:10253000000EEE58000EEE5806E2020EF36E040E88
:10254000F3CFDBFF15D0D9CFE9FFDACFEAFF0D0ECD
:10255000EE5C000EEE58000EEE58000EEE5806E24D
:10256000010EF36E040EF3CFDBFF02D0040EDB6A24
:10257000040EDBCFE6FF440EE66E060EE66E48EC78
:1025800018F0E552E552E5520001676B040EDBCF0F
:1025900014F0156A14BE156814C0E6FF15C0E6FFF6
:1025A000E66E96EC03F0E552E552E55200D0050EDA
:1025B000E15C02E2E16AE552E16EE552E7CFD9FF64
:0225C000120007
:0E25C200000000000000005F000000000007A5
:1025D00000070000147F147F1400242A7F2A1200B1
:1025E0002313086462003649552250000005030099
:1025F00000001C224100000041221C000000082AAB
:102600001C2A080008083E080800A060000000001E
:102610000808080808006060000000002010080496
:1026200002003E5149453E0000427F400000625199
:10263000494946002241494936001814127F1000CA
:102640002745454539003C4A494930000171090593
:102650000300364949493600064949291E0000361B
:102660003600000000AC6C0000000814224100009D
:10267000141414141400412214080000020151091A
:102680000600324979413E007E0909097E007F49F2
:10269000494936003E41414122007F4141221C0010
:1026A0007F49494941007F09090901003E414151E3
:1026B00072007F0808087F0000417F410000204031
:1026C000413F01007F08142241007F40404040000C
:1026D0007F020C027F007F0408107F003E414141D1
:1026E0003E007F09090906003E4151215E007F0935
:1026F0001929460026494949320001017F0101009C
:102700003F4040403F001F2040201F003F403840D6
:102710003F0063140814630003047804030061514C
:10272000494543007F414100000002040810200099
:1027300041417F000000040201020400808080808B
:1027400080000102040000002054545478007F48A7
:1027500044443800384444280000384444487F004A
:10276000385454541800087E0902000018A4A4A488
:102770007C007F0804047800007D00000000808455
:102780007D0000007F1028440000417F40000000D1
:102790007C04180478007C08047C00003844443829
:1027A0000000FC2424180000182424FC0000007CF5
:1027B00008040000485454240000047F4400000032
:1027C0003C40407C00001C2040201C003C4030402D
:1027D0003C004428102844001CA0A07C0000446455
:1027E000544C4400083641000000007F0000000007
:1027F0004136080000000201010201000205050245
:1028000000000E11110E0000347A70747A30387C9A
:102810007E7C380000000000000000000000000086
:1028200000000000000000000000000000000000A8
:102830000000000000000000000000000000000098
:1028400000000000000000000080C06020FC120AB0
:10285000FA890909090989FA0A16FC2040C0800092
:102860000000000000000000000000000000000068
:102870000000000000000000000000000000000058
:102880000000000000000000000000000000000048
:102890000000000000000000000000000000000038
:1028A0000000000000000000000000000000000028
:1028B0000000000000000000000000000000000018
:1028C00000000080C040E01C83611009080F181050
:1028D000101111111111111010080F080910618643
:1028E0003CE040C08000000000000000000000004C
:1028F00000000000000000000000000000000000D8
:1029000000000000000000000000000000000000C7
:1029100000000000000000000000000000000000B7
:1029200000000000000000000000000000000000A7
:102930000000000000000000000000000000000097
:10294000000006193F203FE0FF00400E19191E0E3F
:1029500000008000008000001E19191E0C4000FFBE
:10296000602F201F0F00000000000000000000008A
:102970000000000000000000000000000000000057
:102980000000000000000000000000000000000047
:102990000000000000000000000000000000000037
:1029A0000000000000000000000000000000000027
:1029B0000000000000000000000000000000000017
:1029C0000000000000000080818284C84850505000
:1029D000D0E0A1A1A1A1E0D050505048CC84828188
:1029E00000000000000000000000000000000000E7
:1029F00000000000000000000000000000000000D7
:102A000000000000000000000000000000000000C6
:102A100000000000000000000000000000000000B6
:102A200000000000000000000000000000000000A6
:102A3000000000000000000000C060C080808080B6
:102A400040A05844C23F47BB95A77E3903E418080D
:102A5000C425A2A2A2A225C40838C6033D6EA5A51E
:102A60009B47FA0C84742C1810080810100834C402
:102A700084F80000000000000000000000000000DA
:102A80000000000000000000000000000000000046
:102A90000000000000000000000000000000000036
:102AA0000000000000000000000000000000000026
:102AB00000804000E0D0D0704F001018010000806E
:102AC00001101800035CF0838F982040808F304005
:102AD000C68892A4B49288C760308F8040209887BF
:102AE000828488BF40808CCC00B0B0008C8C804049
:102AF000FF50D0E0404080000000000000000000D7
:102B000000000000000000000000000000000000C5
:102B100000000000000000000000000000000000B5
:102B200000000000000000000000000000000000A5
:102B300000031E2D43C0A15B94A47818101091D1FE
:102B4000101008C87CC70F1414182913162C3F65E1
:102B5000CD9AF292D2B28ACD673D2412113918145F
:102B6000141CCE633FC1000001C0E0010158A597CD
:102B70005E21E0432DDE2320C000000000000000A5
:102B80000000000000000000000000000000000045
:102B90000000000000000000000000000000000035
:102BA0000000000000000000000000000000000C19
:102BB000122121324E3E296544493E2060403F208B
:102BC00060403C7B4C6708381030302020203E614C
:102BD000C080A17E67A18040613E2020202030106F
:102BE00038386F64483B2C60403F2040602E3B48A3
:102BF000652D3F282423110D070000000000000070
:102C000000000000000000000000000000000000C4
:042C100000000000C0
:0C2C14000F013B9D3B9B3B998C8C8C9AE4
:102C20008C88959C959A95983A973A9B8B968B9A17
:102C30009496949A800EE66EE66AE66A06EC23F0B5
:102C4000E552E552E5521200D9CFE6FFE1CFD9FFB8
:102C50008C9CFE0EDBCFE6FF5CEC23F0E552C7A0B8
:102C6000FED78C8CE552E7CFD9FF1200D9CFE6FF13
:102C7000E1CFD9FF8C9AFE0EDBCFE6FFE5DFE55210
:102C8000E552E7CFD9FF1200D9CFE6FFE1CFD9FF58
:102C90008C8AFE0EDBCFE6FFD7DFE552E552E7CFA9
:102CA000D9FF12008C98010EE66E7AEC23F0E55203
:102CB0008C88AE0EE66EDADFE552A80EE66ED6DF41
:102CC000E5523F0EE66ED2DFE552D30EE66ECEDF62
:102CD000E552E66ACBDFE552400EE66EC7DFE5520D
:102CE000A10EE66EC3DFE552C80EE66EBFDFE55209
:102CF000DA0EE66EBBDFE552120EE66EB7DFE55286
:102D0000810EE66EB3DFE5527F0EE66EAFDFE55271
:102D1000A40EE66EABDFE552A60EE66EA7DFE55227
:102D2000D50EE66EA3DFE552800EE66E9FDFE5521C
:102D30008D0EE66E9BDFE552140EE66E97DFE552D0
:102D4000AF0EE66E93DFE5521200AE0EE66E8EDF3A
:102D5000E5521200AF0EE66E89DFE5521200D9CFC0
:102D6000E6FFE1CFD9FFFD0EDB50B00FE66E7EDF50
:102D7000E552FE0EDB50020FF00BE8380F0B100986
:102D8000E66E74DFE552FE0EDB50020F0F0BE66EAF
:102D90006DDFE552E552E7CFD9FF1200D9CFE6FF4C
:102DA000E1CFD9FFE652FD0EDBCFE6FFFE0EDB5092
:102DB000060DF350E66ED3DFE552E552FC0EDBCF95
:102DC00014F0200EE76E1418E8AE02D0E73402D0FB
:102DD000E750145C0EE3FC0EDBCF15F07F0EE76EC0
:102DE0001518E8AE02D0153403D0E750D88015543A
:102DF00005E2200EF36EFC0EF3CFDBFFDF6ADFCFC0
:102E000014F0060EE76E1418E8AE02D0E73402D0D4
:102E1000E750145C26E2FC0EDB50E00F146E156ADE
:102E200014BE1568060E1502F3CF15F01402F3CF89
:102E300014F0F4501526C20E1426250E1522DFCFED
:102E400016F0176A16BE176814501624F66E155041
:102E50001720F76E0800F550E66E16DFE552DF2A00
:102E6000CED7E552E552E7CFD9FF1200D9CFE6FF22
:102E7000E1CFD9FF030EE126020EDB6ADBCF14F0AF
:102E8000080EE76E1418E8AE02D0E73402D0E7501F
:102E9000145C1FE2010EDB6ADBCF14F0160EE76E46
:102EA0001418E8AE02D0E73402D0E750145C0EE20A
:102EB000E66A020EDBCFE6FF010EDBCFE6FF6EDF38
:102EC000E552E552E552010EDB2AE6D7020EDB2A77
:102ED000D5D7030EE15C02E2E16AE552E16EE5520C
:102EE000E7CFD9FF1200D9CFE6FFE1CFD9FFE652F5
:102EF000DF6ADFCF14F0160EE76E1418E8AE02D0CA
:102F0000E73402D0E750145C0CE2E66AFE0EDBCF39
:102F1000E6FFDFCFE6FF42DFE552E552E552DF2A6A
:102F2000E8D7E552E552E7CFD9FF1200D9CFE6FF47
:102F3000E1CFD9FFE652FD0EDBCFE6FFFE0EDB5000
:102F4000060DF350E66E0BDFE552E552DF6ADFCF88
:102F500014F0060EE76E1418E8AE02D0E73402D083
:102F6000E750145C25E2FC0EDBCF14F0156A14BEAA
:102F70001568060E1502F3CF15F01402F3CF14F006
:102F8000F4501526020E1426280E1522DFCF16F057
:102F9000176A16BE176814501624F66E15501720BF
:102FA000F76E0800F550E66E6FDEE552DF2ACFD7E8
:102FB000E552E552E7CFD9FF1200D9CFE6FFE1CFC6
:102FC000D9FFFB0EDBCFE9FFFC0EDBCFEAFFEF50B2
:102FD00018E0FB0EDBCFE9FFDB2AFC0EDBCFEAFFBC
:102FE00001E3DB2AEF50E66EFD0EDBCFE6FFFE0EBF
:102FF000DBCFE6FFD3DEE552E552E552FE0EDB2ADB
:10300000E0D7E552E7CFD9FF1200D9CFE6FFE1CFF5
:10301000D9FF020EE126DF6A080EDF5C2FE2DFCF68
:10302000E6FFE66A9CDEE552E552010EDB6ADB5004
:10303000146E156AD890155004E6800E145C000ECC
:1030400015581AE2DF50800DF3CF14F0F4CF15F0CD
:10305000140E1426280E1522010EDB500F01142425
:10306000F66E000E1520F76E0800F550E66E0CDEC9
:10307000E552010EDB2ADBD7DF2ACED7020EE15C58
:1030800002E2E16AE552E16EE552E7CFD9FF1200B4
:10309000D9CFE6FFE1CFD9FF040EE126F36E020E91
:1030A000F3CFDBFF080EF36E030EF3CFDBFFFE0E54
:1030B000DBCFE6FFFD0EDBCFE6FF51DEE552E5524A
:1030C0007F0EE66EE1DDE552010EDB6ADBCF14F028
:1030D000FC0EDB50E76E1418E8AE02D0E73402D0E5
:1030E000E750145C2AE2FE0EDBCFE6FF030EDBCFD7
:1030F000E6FF010EDB50E552E702F3CF14F0FD0EC0
:10310000DB281424E66E2BDEE552E552DF6ADFCFC2
:1031100014F0030EDB50E76E1418E8AE02D0E7346B
:1031200002D0E750145C06E27F0EE66EADDDE5529C
:10313000DF2AEDD7010EDB2AC9D7FC0EDB50E76E84
:10314000010EE7CFDBFFDBCF14F0020EDB50E76EA2
:103150001418E8AE02D0E73402D0E750145C2AE23B
:10316000FE0EDBCFE6FF030EDBCFE6FF010EDB50EA
:10317000E552E702F3CF14F0FD0EDB281424E66ECF
:10318000EEDDE552E552DF6ADFCF14F0030EDB50CF
:10319000E76E1418E8AE02D0E73402D0E750145CB2
:1031A00006E2410EE66E70DDE552DF2AEDD7010E34
:1031B000DB2AC9D77F0EE66E67DDE552040EE15CBF
:1031C00002E2E16AE552E16EE552E7CFD9FF120073
:1031D0000F9E08D00F9E07AE05D0066C071EE86A4A
:1031E00007220F8E07C001F006C000F0136A126AB2
:1031F0008E0E026E036AF1EF1AF00F9E0CD00F9E36
:1032000007AE09D0046C051E061E071EE86A0522DB
:10321000062207220F8E07C001F006C000F005C08D
:1032200013F004C012F09E0E026E036AF1EF1AF062
:103230000F6A2DEC1BF045EC1BF00FB6D5EF1AF022
:103240000FA205D00FBAD5EF1AF0DCEF1AF00FBAC3
:10325000E8EF1AF00FA005D00FB8D5EF1AF0E8EF9D
:103260001AF00FB8DCEF1AF0036A7F0E0824026E22
:10327000E86A03220D50025EE86A035A1A0E106EC5
:10328000086A126A136A006A016A0A50055E0B50E6
:10329000065A0C50075A000E085A09E70A5005262C
:1032A0000B5006220C500722000E082201D0128A71
:1032B000D8900536063607360836D89012361336BB
:1032C00000360136102EE1D7075006100510D8A49D
:1032D000128AF1EF1AF00F6A2DEC1BF045EC1BF08F
:1032E0000FB6D5EF1AF00FA205D00FB8D5EF1AF030
:1032F000DCEF1AF00FAA05D00FB0D5EF1AF0DCEF13
:103300001AF00FB002D00FA802D0E8EF1AF0036A4B
:103310000D500824026EE86A03227E0E025EE86AFF
:10332000035A126A136A006A016A0C500702F4CF4A
:1033300001F0F3CF00F00B500702F3501326F450C6
:103340000022000E01220C500602F3501326F45006
:103350000022000E01220A500702F3501226F450F8
:103360001322000E002201220B500602F3501226F7
:10337000F4501322000E002201220C500502F350DB
:103380001226F4501322000E002201220A500602D7
:10339000F4501226000E1322002201220B500502C7
:1033A000F4501226000E132200220122F1EF1AF02F
:1033B0000D7E0F6A2DEC1BF045EC1BF00FB6D5EF20
:1033C0001AF00FA20AD00FAA03D00FBED5EF1AF041
:1033D0000FA4E1EF1AF0DEEF1AF00FAA05D00FAC40
:1033E000E1EF1AF0DEEF1AF00FA00AD00FA808D014
:1033F0000FBE04D00FA402D0EAEF1AF0EEEF1AF0DD
:10340000126A036A0D50085C116E10E305C013F0D8
:1034100006C000F007C001F008C010F00AC005F0B7
:103420000BC006F00CC007F00F3A09D00AC013F029
:103430000BC000F00CC001F00DC010F0116C0F9E1D
:103440000FBC0F8E10C002F00FB01DEF1BF01A0E54
:1034500011601DEF1BF0026A086A0FA408D0056C0A
:10346000061E071E081EE86A0622072208220FAC65
:1034700008D0136C001E011E021EE86A0022012201
:103480000222046A115207E008340732063205327C
:103490000432112EF9D7055013260650002207508A
:1034A00001220850022204C012F00F9E02AE0BD07F
:1034B000126C131E001E011E021EE86A1322002257
:1034C000012202220F8E02A006D0D88001320032E3
:1034D00013321232102A10C002F0F1EF1AF00F6A04
:1034E0002DEC1BF00FB679EF1AF00FA20ED00FB42F
:1034F00005D07F0E076EFF0E066E1FD0800E076E82
:10350000066A1BD0076A066A18D00FB0FBD78F0E69
:103510000860EDD77E0E0864F5D78E0E085C05E0D6
:10352000D89007320632082AF8D70FA406D0066CC6
:10353000071EE86A072207AEE5D712000F6A2DECD6
:103540001BF00FB6A8EF1AF00FA20FD00FB407D0E0
:103550007F0E076EFF0E066E056E046E25D0800E80
:10356000076E01D0076A000EF6D70FB0FBD7046ACA
:103570009F0E0860EBD77E0E0864F4D79E0E085CA1
:1035800007E0D8900732063205320432082AF6D70F
:103590000FA40AD0046C051E061E071EE86A052249
:1035A0000622072207AEDED712007F0E086EFF0E3E
:1035B000076E066E056E12007F0E0FBEFF0E086EC0
:1035C00002D07F0E086E800E076E066A056AF3D77A
:1035D0000FAE04D0800E086E076AF7D7086A076A34
:1035E000F4D70150001013101210F8E003BEF0D70A
:1035F00001BE0CD002500310EBE0D8901236133607
:10360000003601360206D8A00306F2D70350D4E1F3
:103610000228D2E012AE11D07F0E121402E113A0E4
:103620000CD0132AE86A0022012207E3D880013275
:1036300000321332022A0228BFE00250C9E013C050
:1036400005F000C006F00134076E0230086E073244
:10365000089E0FBE088EDBEF1AF00736083602E32D
:103660000F840F7E06E10F80086A076A066A056A02
:103670001200082803E0D88007321200D8900732E1
:1036800002E10F8212000F8612000C360D3602E3A3
:103690000F8C0F7E06E10F880D6A0C6A0B6A0A6AAE
:1036A00012000D2803E0D8800C321200D8900C32A2
:1036B000EAE10F8A120007C013F006C012F00650AC
:1036C0000B02F4CF05F0F3CF04F007500C02F4CF57
:1036D00007F0F3CF06F00B02F3500526F450062254
:1036E000E86A072212500C02F3500526F450062215
:1036F000E86A07220CAE81EF1BF01250065E1350F1
:10370000075A13AE000C0B50065E0C50075A000C03
:10371000010EC26EC16AA90EC06EBA6AFC0EBA145E
:103720000209BA6E870EBA140009BA6EBB68BC6A89
:103730009E929D82BA940F013B918C9095903B9301
:103740008C9295929380F18CF292F2889382F18A16
:10375000F090F0861200D9CFE6FFE1CFD9FF00014B
:10376000C86B0001C96BD950FD0FE96EFF0EDA205E
:10377000EA6E010EEE1801E1ED5008E1F18C8C804B
:10378000010EE66EDFEC23F0E5528C90D950FD0F70
:10379000E96EFF0EDA20EA6E020EEE1801E1ED503E
:1037A00008E1F18A8C82010EE66EDFEC23F0E5522F
:1037B0008C92E552E7CFD9FF1200D9CFE6FFE1CFD7
:1037C000D9FF040EE126DE6ADE6ADE6ADD6ADD52BA
:1037D000DD520001C9516BE0C4C004F0C5C005F062
:1037E000C6C006F0C7C007F0FDEC18F005C01CF01D
:1037F00006C01DF007C01EF008C01FF00A6A0B6A61
:10380000800E0C6E410E0D6E1CC005F01DC006F042
:103810001EC007F01FC008F06BEC19F005C018F0CF
:1038200006C019F007C01AF008C01BF0280E0A6E77
:103830007E0E0B6E0C0E0C6E3D0E0D6E18C005F05C
:1038400019C006F01AC007F01BC008F06BEC19F0A5
:1038500005C014F006C015F007C016F008C017F038
:103860000A6A0B6A0C6A400E0D6E14C005F015C092
:1038700006F016C007F017C008F018EC19F09EEC1F
:103880001AF004C0DEFF05C0DEFF06C0DEFF07C081
:10389000DDFFDD52DD52DECF04F0DECF05F0DECFFE
:1038A00006F0DDCF07F0DD52DD5206D005D004680A
:1038B00005680668076800D0040EE15C02E2E16A70
:1038C000E552E16EE552E7CFD9FF1200D9CFE6FF0E
:1038D000E1CFD9FFFE0EDB501F0BF36EF346F3462C
:1038E000830EC214F310C26EC282C2B2FED7C3CF1F
:1038F000F3FFC4CFF4FF00D0E552E7CFD9FF1200A9
:10390000D9CFE6FFE1CFD9FF060EE126E66ADEDF7A
:10391000E552F3CF1CF0F4CF1DF01CC006F01DC023
:1039200007F0EAEC18F005C018F006C019F007C05F
:103930001AF008C01BF00A6A400E0B6E9C0E0C6E4B
:10394000450E0D6E18C005F019C006F01AC007F03C
:103950001BC008F06BEC19F005C014F006C015F0A0
:1039600007C016F008C017F00A6A0B6A800E0C6ECA
:10397000440E0D6E14C005F015C006F016C007F019
:1039800017C008F018EC19F005C0DEFF06C0DEFF16
:1039900007C0DEFF08C0DDFFDD52DD52D9CFE9FFF1
:1039A000DACFEAFFEECF18F0EECF19F0EECF1AF033
:1039B000EFCF1BF00A6A0B6A480E0C6E420E0D6EBA
:1039C00018C005F019C006F01AC007F01BC008F0B7
:1039D000D8EC19F005C014F006C015F007C016F0B9
:1039E00008C017F00A6A0B6A200E0C6E410E0D6EAD
:1039F00014C005F015C006F016C007F017C008F097
:103A000018EC19F06FEC1AF0040E06C0DBFF050E7F
:103A100007C0DBFF040EDBCF14F0050EDBCF15F083
:103A200014C0F3FF15C0F4FF060EE15C03E200D002
:103A3000E16AE552E16EE552E7CFD9FF1200D9CF36
:103A4000E6FFE1CFD9FF020EE126010EE66E3EDF72
:103A5000E552F3CF1CF0F4CF1DF01CC006F01DC0E2
:103A600007F0EAEC18F005C018F006C019F007C01E
:103A70001AF008C01BF00A6A400E0B6E9C0E0C6E0A
:103A8000450E0D6E18C005F019C006F01AC007F0FB
:103A90001BC008F06BEC19F005C014F006C015F05F
:103AA00007C016F008C017F00A6A0B6A800E0C6E89
:103AB000440E0D6E14C005F015C006F016C007F0D8
:103AC00017C008F018EC19F06FEC1AF006C0DEFF12
:103AD00007C0DDFFDECF14F0DDCF15F014C0F3FF1B
:103AE00015C0F4FF020EE15C03E200D0E16AE5528A
:0A3AF000E16EE552E7CFD9FF1200A6
:063AFA00D9CFE6FFE1CF89
:103B0000D9FF020EE126DE6ADD6A2BEC00F001012E
:103B1000286B52EC16F0A5EC16F005EC18F0AAECA8
:103B200016F0F40EE66E7AEC23F0E552E66AC1EC8C
:103B300002F0E552F3CF14F0F4CF15F01450151045
:103B400060E0E66AE66A9FEC02F0E552E5520DC1DC
:103B5000E6FF010EE66E9FEC02F0E552E5520EC163
:103B6000E6FF020EE66E9FEC02F0E552E5520FC151
:103B7000E6FF030EE66E9FEC02F0E552E5522CC123
:103B8000E6FF040EE66E9FEC02F0E552E5522DC111
:103B9000E6FF050EE66E9FEC02F0E552E5522BC102
:103BA000E6FF060EE66E9FEC02F0E552E55268C0B5
:103BB000E6FF070EE66E9FEC02F0E552E5520101CA
:103BC000286B0A0EE76E2819E8AE02D0E73402D05F
:103BD000E750285D15E228C1E9FFEA6AE9BEEA6814
:103BE0001D0EE926010EEA22EF50E66E100E282582
:103BF000E66E9FEC02F0E552E5520101282BE1D779
:103C000065D0070EE66EC1EC02F0E552F3CF68F026
:103C1000010EE66EC1EC02F0E552F3CF08F1F3CFEE
:103C20000DF1020EE66EC1EC02F0E552F3CF09F1A0
:103C3000F3CF0EF1030EE66EC1EC02F0E552F3CFC6
:103C40000AF1F3CF0FF1040EE66EC1EC02F0E5527B
:103C5000F3CF29F1F3CF2CF1050EE66EC1EC02F0A3
:103C6000E552F3CF2AF1F3CF2DF10101286B0A0EB3
:103C7000E76E2819E8AE02D0E73402D0E750285D9D
:103C800024E2100E2825E66EC1EC02F0E552F35056
:103C9000E66E28C1E9FFEA6AE9BEEA68110EE92684
:103CA000010EEA22E552E750EF6EE66E28C1E9FF09
:103CB000EA6AE9BEEA681D0EE926010EEA22E5522B
:103CC000E750EF6E0101282BD2D7286BA5EC16F038
:103CD000E66A36EC17F0E552060E146E410E156ECC
:103CE000166A14C0E6FF15C0E6FF16C0E6FF2F0EE9
:103CF000E66E010EE66E68EC21F0176E050EE15ED1
:103D000017502F0EE66E010EE66EE66A070EE66E9F
:103D1000DDEC17F0E552E552E552E5528AEC0EF083
:103D200017EC0EF0CFEC0FF0010EE66E060EE66E0D
:103D3000020EE66E96EC17F0E552E552E552E66AA1
:103D4000140EE66E060EE66E48EC18F0E552E552EB
:103D5000E552020EE66E060EE66E0A0EE66E96EC72
:103D600017F0E552E552E552E66A440EE66E060E9D
:103D7000E66E48EC18F0E552E552E552AAEC16F072
:103D8000F00E80140101006F0151005D1EE000C1C2
:103D900001F10051700A10E0C00A0BE0600A06E071
:103DA000300A01E00DD01CEC05F00AD0C3EC05F0A0
:103DB00007D0F1EC06F004D00001010E696F00D0CD
:103DC000020EE66E7AEC23F0E55201010B5109E098
:103DD000E66A010EE66E96EC03F0E552E55201014B
:103DE0000B6B0001645126E02BC1E6FF060EE66E68
:103DF0009FEC02F0E552E5520001646B8AEC0EF094
:103E00000001685117E1695115E117EC0EF091ECD2
:103E100011F01FEC1DF0F3CFDEFFF4CFDDFFDECF9E
:103E2000E6FFDDCFE6FF030EE66E96EC03F0E5520B
:103E3000E552E5520001655109E0656B2AC1E6FFD4
:103E4000050EE66E9FEC02F0E552E5520001665168
:103E500011E0666B29C1E6FF040EE66E9FEC02F0EE
:103E6000E552E55268C0E6FF070EE66E9FEC02F0F1
:103E7000E552E5520001680502E0690523E128C129
:103E8000E9FFEA6AE9BEEA681D0EE926010EEA22A8
:103E9000EF500101295D03E00001690503E185ECB4
:103EA00004F010D00101282B0851285D0BE3286B8A
:103EB0000001686B68C0E6FF070EE66E9FEC02F03B
:103EC000E552E5525DD7020EE15C02E2E16AE5529D
:0A3ED000E16EE552E7CFD9FF1200C2
:063EDA00DACFE4FFE2CFA5
:103EE000DAFFE9CFE4FFEACFE4FFF6CFE4FFF7CF54
:103EF000E4FFF5CFE4FFF3CFE4FFF4CFE4FFFACF24
:103F0000E4FF00EE00F0140EE80403E3EECFE4FF5C
:103F1000FBD700EE14F00C0EE80403E3EECFE4FF51
:103F2000FBD7E652F2A44CD0DC0EE66E0B0EE66E2A
:103F300014EC00F0E552E5520001010E646F01013E
:103F40002B2B3C0E206E2B51E76E2018E8AE02D0D2
:103F5000203403D0E750D88020542AE30001010E1A
:103F6000656F01012B6B2A2B3C0E206E2A51E76EE8
:103F70002018E8AE02D0203403D0E750D880205477
:103F800017E30001010E666F01012A6B292B000166
:103F9000686F180E206E01012951E76E2018E8AEF7
:103FA00002D0203403D0E750D880205401E3296B9D
:103FB0000001010ECE1901E1CF5102E10001D02B29
:103FC0009EAA00D09EA205D09E920001CA2B000E90
:103FD000CB23F2A238D0F2920001C8510AE10001CD
:103FE000CA6BCB6BBC6ABA84F19C0001010EC86F2E
:103FF0002AD0BC50206E216A226A236ACAC004F00B
:10400000CBC005F0066A076A096A010E0A6E0B6AE0
:104010000C6A9BEC22F00050000120240001C46FC8
:104020000150000121200001C56F02500001222033
:104030000001C66F0350000123200001C76FBA942E
:104040000001010EC96FF0A038D0F0900001C851F6
:104050000AE10001CA6BCB6BBC6ABA84F19A000119
:10406000010EC86F2AD0BC50206E216A226A236AD2
:10407000CAC004F0CBC005F0066A076A096A010EDF
:104080000A6E0B6A0C6A9BEC22F00050000120249F
:104090000001C46F0150000121200001C56F0250D2
:1040A000000122200001C66F0350000123200001FF
:1040B000C76FBA940001010EC96FC00EF212E5522B
:1040C00000EE1FF00C0EE80403E3E5CFEDFFFBD795
:1040D00000EE13F0140EE80403E3E5CFEDFFFBD789
:1040E000E5CFFAFFE5CFF4FFE5CFF3FFE5CFF5FF2E
:1040F000E5CFF7FFE5CFF6FFE5CFEAFFE5CFE9FF34
:06410000E5CFDAFF11001B
:0A41060050657448756200253269A7
:104110000024332C30342C25303269230D0A00243E
:10412000332C30332C25303269230D0A0024332CF4
:1041300030322C25303469230D0A0024332C3031E1
:104140002C25303269230D0A00230D0A002C25305E
:1041500032690024320024312C253032692C25307C
:104160003269230D0A000A0D54656D703A2025331B
:1041700069000A0D4D696E3A20253369000A0D4821
:104180006F75723A2025336900506F7274696F6ED3
:104190003A20253369005363686564756C655F2553
:1041A000693A202533690A0D0053657474696E6796
:1041B00020000A0D5363686564756C653A202533E9
:1041C000690A0D0054657065726174757265004D01
:1041D000696E75746500486F757200506F7274690E
:1041E0006F6E005363686564756C650052756E6E22
:1041F000696E67000A0D0A0D4D6F64653A000A0D7D
:1042000043757272656E742054696D653A2025306D
:1042100032693A253032693A25303269001B5B3207
:104220004A1B5B485065744875622053746174750D
:10423000730A0D002532690053657420746F203AAB
:1042400020202020200025732020202020005365DE
:104250007420746F203A2020202000536368656426
:10426000756C6520232532692020202000506F7254
:1042700074696F6E73203A25326900536368656410
:10428000756C65733A25326900253269504D0025F9
:104290003269414D003132504D003132414D0025DF
:1042A0003032693A25303269504D00253032693A52
:1042B00025303269414D0031323A25303269504D56
:1042C0000031323A25303269414D002530326900E3
:1042D000D9CFE6FFDACFE6FFE1CFD9FFE2CFDAFFB1
:1042E000E652E652E652E652D950F90F146EFF0E2E
:1042F000DA20156E020E14C0DBFF030E15C0DBFFC3
:10430000020EDBCFE6FF030EDBCFE6FFF90EDBCFBD
:10431000E6FFFA0EDBCFE6FFFB0EDBCFE6FFD95060
:10432000FC0FE66EFF0EDA20E66E1CEC08F0146E51
:10433000070EE15C02E2E16AE552E16E1450F3CF50
:10434000DEFFF4CFDDFFFC0EDBCFE9FFFD0EDBCFA0
:10435000EAFFEF6ADECF14F0DDCF15F014C0F3FFF3
:1043600015C0F4FF040EE15C02E2E16AE552E16E81
:0C437000E552E5CFDAFFE7CFD9FF1200DD
:04437C000E0EF66EBD
:10438000000EF76E000EF86E00010900F550D66FB2
:104390000900F550D76F03E1D66701D03DD0090081
:1043A000F550D16F0900F550D26F0900F550D36F69
:1043B00009000900F550E96E0900F550EA6E0900A0
:1043C00009000900F550D46F0900F550D56F0900B8
:1043D0000900F6CFD8F0F7CFD9F0F8CFDAF0D1C096
:1043E000F6FFD2C0F7FFD3C0F8FF0001D45302E1BB
:1043F000D55307E00900F550EE6ED407F8E2D50773
:10440000F9D7D8C0F6FFD9C0F7FFDAC0F8FF00012E
:0A441000D607000ED75BBFD71200DD
:06441A00D9CFE6FFDACF66
:10442000E6FFE1CFD9FFE2CFDAFFE652E652E652ED
:10443000E652D950FB0F146EFF0EDA20156E14C031
:10444000DEFFDD6EDECFE6FFDDCFE6FFFB0EDBCF6E
:10445000E6FFFC0EDBCFE6FFFD0EDBCFE6FFDBC0A9
:10446000E6FFDCC0E6FF1CEC08F0146E070EE15C12
:1044700002E2E16AE552E16E1450020EF3CFDBFF77
:10448000030EF4CFDBFF020EDBCF14F0030EDBCF05
:1044900015F014C0F3FF15C0F4FF040EE15C02E256
:1044A000E16AE552E16EE552E5CFDAFFE7CFD9FFE9
:0244B0001200F8
:0E44B200D9CFE6FFDACFE6FFE1CFD9FFE2CFA8
:1044C000DAFFFB0EDBCF14F0FC0EDBCF15F00001A2
:1044D000800E15141AE1FB0EDBCFE9FFFC0EDBCFDB
:1044E000EAFFEECFF3FFEDCFF4FFEE2A000EEF224E
:1044F000F3CFE9FFF4CFEAFFFD0EDBCFEFFFEF5084
:10450000156AF36E15C0F4FF10D0FB0EDB50FE08E9
:1045100006E1FD0EDBCFE6FFD1EC23F005D0FD0E6A
:10452000DBCFE6FF03EC00F0E552E552E5CFDAFF22
:06453000E7CFD9FF1200E5
:0A45360004500902F3CF00F0F4CFA7
:1045400001F00A02F3500126000EF420026E04501E
:104550000B02F3500226000EF420036E04500C02EE
:10456000F350032605500902F3500126F4500222AD
:10457000000E032205500A02F3500226F4500322D3
:1045800005500B02F350032606500902F350022691
:10459000F450032206500A02F35003260750090282
:0645A000F3500326120097
:0A45A600FE0EE3CFE9FFFF0EE3CFA6
:1045B000EAFFF36AF46AEE5203E0F34AF42AFBD707
:1045C0001200FF0EE3CFF8FFE552FF0EE3CFF7FF37
:1045D000E552FF0EE3CFF6FFE552E66AE66AE66AC9
:1045E0000900F55209E0FD0EE32A05E1FE0EE32A7B
:1045F00002E1FF0EE32AF4D7FD0EE3CF05F0FE0E35
:0C460000E3CF06F0FF0EE3CF07F012003E
:04460C00D9CFE6FF1D
:10461000DACFE6FFE1CFD9FFE2CFDAFF3F0EC716D0
:10462000C66AFD0EDB50C612FB0EDB50C712FC0E35
:10463000DB50030A09E0010A04E0020A06E1C78C24
:1046400004D0C78CC68801D0C688FD0EDB50050A91
:1046500003E0010A03E1928A948601D0949694883B
:10466000949AC68AE552E5CFDAFFE7CFD9FF120068
:10467000036A026A016A006A200EE76ED890043667
:10468000053606360736003601360236033609503F
:10469000005C0A5001580B5002580C50035809E3B3
:1046A0000950005E0A50015A0B50025A0C50035A2E
:0846B000042AE72EE4D71200F2
:0846B800D9CFE6FFDACFE6FFDF
:1046C000E1CFD9FFE2CFDAFFE652C950DF6E9E9606
:1046D000C69EFD0EDB50C96EC6AE02D0FF0E03D0E3
:1046E0009EA6FED7000EE552E552E5CFDAFFE7CFF2
:0446F000D9FF1200DC
:0C46F400FF0EE350256EEF0E01D0F30E18
:10470000E76EE72E81EF23F00C0E246EE76AE72EAA
:1047100087EF23F0242E86EF23F0252E7FEF23F062
:02472000120085
:0E472200F36AF46AFF0EE124E96EFF0EE22056
:10473000EA6EED6607D02F0EEF6404D03A0EEF60FC
:0647400001D0F32A120073
:0A474600FF0EE350256E480E01D06F
:104750004C0EE76EE72EFED7E76AE72EFED7252E32
:06476000F7D70000120073
:0A476600000EF36E00EE00F0060EE8
:1047700001D81200EA6002D0EE6AFCD7F350E9607B
:064780001200EE6AFCD7F6
:0A47860015EE00F025EE00F0F86AD1
:104790000F9CBEEC21F0F3EC23F07DEC1DF0FBD779
:0247A000120005
:0E47A200FF0EE350ACBA04D0AF6AAB8EAC8A07
:0E47B000949CACA2FED7AD6EF36EF46A1200BC
:0247BE00FF0EEC
:1047C000E350E84E1200000000D000D000D0E82EE8
:0447D000FAD7120002
:0C47D40030313233343536373839616209
:0547E000636465660042
:0247E6001200BF
:0247E800FEFFD2
:0647EA00010204080000BA
:1047F00000000100534554000000000000000000CC
:104800000000005363686564756C65730000000008
:104810000000506F7274696F6E0042424242424221
:104820004254696D652028486F75722900000000A8
:1048300054696D6520284D696E2900000000005400
:10484000656D70657261747572650000000000002E
:0B48500000000000000000000000005D
:020000040030CA
:0100010028D6
:0100020003FA
:010003003CC0
:01000500BD3D
:010006008178
:00000001FF
