:020000040000FA
:06000000AAEF18F0120047
:020006001200E6
:060008002CEF15F01200C0
:02000E000200EE
:10001000A23100000001000078000000A0310000C3
:08002000FC00000002000000DA
:08002800D9CFE6FFE1CFD9FFBB
:10003000F294FD0EDBCF14F0FE0EDBCF15F015C0F1
:1000400014F0156A1450D76EFD0EDB50D66EE552D3
:10005000E7CFD9FF1200D9CFE6FFE1CFD9FF020EDB
:10006000E126DE6ADD6ADE6ADD6ADECF14F0DDCF0E
:1000700015F0D890155004E60A0E145C000E1558C1
:1000800020E2FD0EDBCFE9FFFE0EDBCFEAFFE9CF7A
:1000900014F0EACF15F0020E086E096ADECF0DF0FB
:1000A000DDCF0EF002EC18F014500624E96E155066
:1000B0000720EA6EEE6AED6ADF2A010E01E3DB2A11
:1000C000D4D7FD0EDBCFE9FFFE0EDBCFEAFF140E27
:1000D000EB6A150EEB6AFD0EDBCFE9FFFE0EDBCF00
:1000E000EAFF1A0EE926000EEA22EF6AFD0EDBCFC8
:1000F000E9FFFE0EDBCFEAFF1B0EE926000EEA2227
:10010000EF6A020EE15C02E2E16AE552E16EE5525D
:10011000E7CFD9FF1200D9CFE6FFE1CFD9FF020E1A
:10012000E126DE6ADD6A520ED36ED3A4FED70F013C
:10013000386B896A92683A6B8B6AF00E946E396BF1
:100140008A6A936EDC0EE66E0B0EE66E6DDFE5528C
:10015000E552930ED56E400EB86E260EAC6E900E24
:10016000AB6E190EAF6EB06A010EC26EC16AA90EF7
:10017000C06EF194F294F28A9F9A9E9A9D8AD09EC4
:10018000C00EF212B60EE66E000EE66E2CDAE552E6
:10019000E552B40EE66E000EE66E0DDAE552E5525B
:1001A000C00EE66E000EE66E57DAE552E552BB0E63
:1001B000E66E000EE66E50DAE552E552C50EE66ECA
:1001C000000EE66EA7DAE552E552D10EE66E000E9D
:1001D000E66EA0DAE552E552DD0EE66E000EE66E42
:1001E00077DAE552E552E00EE66E000EE66E70DA62
:1001F000E552E5525AEC11F0020EE15C02E2E16ACE
:10020000E552E16EE552E7CFD9FF1200D9CFE6FF04
:10021000E1CFD9FFFE0EDB501F0BF36EF346F34622
:10022000830EC214F310C26EC282C2B2FED7C3CF15
:10023000F3FFC4CFF4FF00D0E552E7CFD9FF12009F
:10024000D9CFE6FFE1CFD9FF020EE126BC0E146E36
:10025000290E156E166A14C0E6FF15C0E6FF16C01B
:10026000E6FFD7EC16F0E552E552E552DFC014F098
:10027000156A14BE156814C0E6FF15C0E6FFDEC09F
:1002800016F0176A16BE176816C0E6FF17C0E6FF1D
:10029000DDC018F0196A18BE196818C0E6FF19C049
:1002A000E6FF9D0E1A6E290E1B6E1C6A1AC0E6FF31
:1002B0001BC0E6FF1CC0E6FFD7EC16F01D6E090E52
:1002C000E15E1D50930E146E290E156E166A14C051
:1002D000E6FF15C0E6FF16C0E6FFD7EC16F0E552C4
:1002E000E552E5520001C051060A60E0030A4DE004
:1002F000010A3AE0070A27E0010A14E0030A01E0D4
:1003000066D08B0E146E290E156E166A14C0E6FFA9
:1003100015C0E6FF16C0E6FFD7EC16F0E552E55231
:10032000E55255D0820E146E290E156E166A14C051
:10033000E6FF15C0E6FF16C0E6FFD7EC16F0E55263
:10034000E552E55244D07A0E146E290E156E166AE7
:1003500014C0E6FF15C0E6FF16C0E6FFD7EC16F0A6
:10036000E552E552E55233D0750E146E290E156E26
:10037000166A14C0E6FF15C0E6FF16C0E6FFD7EC0C
:1003800016F0E552E552E55222D06E0E146E290E9B
:10039000156E166A14C0E6FF15C0E6FF16C0E6FF2C
:1003A000D7EC16F0E552E552E55211D0630E146E0B
:1003B000290E156E166A14C0E6FF15C0E6FF16C0BA
:1003C000E6FFD7EC16F0E552E552E55200D0C1C089
:1003D00014F0156A14BE156814C0E6FF15C0E6FFD8
:1003E000520E166E290E176E186A16C0E6FF17C059
:1003F000E6FF18C0E6FFD7EC16F0196E050EE15EB9
:100400001950DE6ADD6ADECF14F0DDCF15F0C1C011
:1004100016F0176A16BE176815501718E8AE02D006
:10042000173404D01650145C1750155852E20001CE
:10043000CF511CE0D0C014F0156A14BE1568DF500F
:10044000141803E1DE52DD50151810E1490E146E48
:10045000290E156E166A14C0E6FF15C0E6FF16C019
:10046000E6FFD7EC16F0E552E552E552DECFE9FFA4
:10047000DDCFEAFFC50EE926000EEA22EFCF14F029
:10048000156A14BE156814C0E6FF15C0E6FFDECF7E
:1004900016F0DDCF17F0010E1626000E172216C03B
:1004A000E6FF17C0E6FF370E186E290E196E1A6A9E
:1004B00018C0E6FF19C0E6FF1AC0E6FFD7EC16F039
:1004C0001B6E070EE15E1B50DF2A010E01E3DB2AE3
:1004D0009AD7C2C014F0156A14BE156814C0E6FF9E
:1004E00015C0E6FF2A0E166E290E176E186A16C082
:1004F000E6FF17C0E6FF18C0E6FFD7EC16F0196E4E
:10050000050EE15E1950DDC014F0156A14BE1568C1
:1005100014C0E6FF15C0E6FF1E0E166E290E176EFC
:10052000186A16C0E6FF17C0E6FF18C0E6FFD7EC52
:1005300016F0196E050EE15E1950DEC014F0156A52
:1005400014BE156814C0E6FF15C0E6FF130E166E44
:10055000290E176E186A16C0E6FF17C0E6FF18C00E
:10056000E6FFD7EC16F0196E050EE15E1950C3C018
:1005700014F0156A14BE156814C0E6FF15C0E6FF36
:10058000070E166E290E176E186A16C0E6FF17C002
:10059000E6FF18C0E6FFD7EC16F0196E050EE15E17
:1005A0001950020EE15C02E2E16AE552E16EE552A9
:1005B000E7CFD9FF1200D9CFE6FFE1CFD9FFFD0E7B
:1005C000DBCFE9FFFE0EDBCFEAFFEF6AFD0EDBCFEC
:1005D000E9FFFE0EDBCFEAFFEE52F00EEF6EE552C2
:1005E000E7CFD9FF1200D9CFE6FFE1CFD9FFFD0E4B
:1005F000DBCFE9FFFE0EDBCFEAFF010EEF6EFD0E53
:10060000DBCFE9FFFE0EDBCFEAFFEE52EF6AFD0E15
:10061000DBCFE9FFFE0EDBCFEAFF020EE926000E7C
:10062000EA22EF6AFD0EDBCFE9FFFE0EDBCFEAFF29
:10063000030EE926000EEA22EF6AFD0EDBCFE9FF8A
:10064000FE0EDBCFEAFF040EE926000EEA22EF6A77
:10065000E552E7CFD9FF1200D9CFE6FFE1CFD9FFAE
:10066000FD0EDBCFE9FFFE0EDBCFEAFF010EEF6EE2
:10067000FD0EDBCFE9FFFE0EDBCFEAFFEE52020EEE
:10068000EF6EFD0EDBCFE9FFFE0EDBCFEAFF020EC1
:10069000E926000EEA22030EEF6EFD0EDBCFE9FF26
:1006A000FE0EDBCFEAFF030EE926000EEA22140E4F
:1006B000EF6EFD0EDBCFE9FFFE0EDBCFEAFF040E8F
:1006C000E926000EEA22EF6AE552E7CFD9FF1200D1
:1006D000D9CFE6FFE1CFD9FFFD0EDBCFE9FFFE0E5C
:1006E000DBCFEAFFEF6AFD0EDBCFE9FFFE0EDBCFCB
:1006F000EAFFEE52EF6AFD0EDBCFE9FFFE0EDBCF25
:10070000EAFF020EE926000EEA22EF6AE552E7CF81
:10071000D9FF1200D9CFE6FFE1CFD9FF020EE126C3
:10072000FD0EDBCFE9FFFE0EDBCFEAFF0B0EE92665
:10073000000EEA22EF68FD0EDBCFE9FFFE0EDBCFF5
:10074000EAFF0A0EE926000EEA22EF6ADE6ADD6A97
:10075000DECF14F0DDCF15F0D890155004E60A0E68
:10076000145C000E155816E2FD0EDBCFE9FFFE0EFD
:10077000DBCFEAFFE9CF14F0EACF15F0DE50142406
:10078000E96EDD501520EA6EEF6ADF2A010E01E303
:10079000DB2ADED7020EE15C02E2E16AE552E16E9D
:1007A000E552E7CFD9FF1200D9CFE6FFE1CFD9FF5D
:1007B000020EE126FE0EDB0401E089D0BEC014F07B
:1007C000156A14BE156814C0E6FF15C0E6FFBDC06B
:1007D00016F0176A16BE176816C0E6FF17C0E6FFC8
:1007E000BCC018F0196A18BE196818C0E6FF19C015
:1007F000E6FFED0E1A6E280E1B6E1C6A1AC0E6FF8D
:100800001BC0E6FF1CC0E6FFD7EC16F01D6E090EFC
:10081000E15E1D50E80E146E280E156E166A14C0A7
:10082000E6FF15C0E6FF16C0E6FFD7EC16F0E5526E
:10083000E552E552DE6ADD6ADECF14F0DDCF15F059
:10084000C1C016F0176A16BE176815501718E8AE23
:1008500002D0173404D01650145C1750155827E2F4
:10086000DECFE9FFDDCFEAFFD10EE926000EEA2256
:10087000EFCF14F0156A14BE156814C0E6FF15C05A
:10088000E6FFE20E166E280E176E186A16C0E6FF17
:1008900017C0E6FF18C0E6FFD7EC16F0196E050E7C
:1008A000E15E1950DF2A010E01E3DB2AC5D7E00E15
:1008B000146E280E156E166A14C0E6FF15C0E6FF0A
:1008C00016C0E6FFD7EC16F0E552E552E552020EEF
:1008D000E15C02E2E16AE552E16EE552E7CFD9FF61
:1008E00012001200020E0001C05D19E10001D02BC0
:1008F0000001C1510001E76ED019E8AE02D0E73423
:1009000002D0E750D05D05E2010ECF6FAFEC0FF0E3
:1009100005D0CF6B0001C02B21EC10F070D0C005CA
:1009200014E1030EE66EB9EC12F0E552040EE66E29
:10093000B9EC12F0E552050EE66EB9EC12F0E55294
:10094000060EE66EB9EC12F0E5520001C02B040E63
:10095000C05D03E1DDC0E0F013D0050EC05D03E132
:10096000DEC0E1F00DD0060EE76EC019E8AE02D091
:10097000C03503D0E750D880C05502E2010EC06FE9
:10098000C0053BE1C0C0BBF0C1C0BCF0C2C0BDF0FF
:10099000C3C0BEF00001010EBF6F0001DC6B00019F
:1009A000C1510001E76EDC19E8AE02D0E73402D095
:1009B000E750DC5D19E2DCC0E9FFEA6AE9BEEA68FB
:1009C000C50EE926000EEA22EF50E66EDCC0E9FF14
:1009D000EA6AE9BEEA68D10EE926000EEA22E5528B
:1009E000E750EF6EDC2BDBD70001D069E0C0DDF013
:1009F000E1C0DEF02FEC0FF002D021EC10F012007D
:100A00000001CF513FE0D0C0E9FFEA6AE9BEEA68E1
:100A1000C50EE926000EEA22EF2AD0C0E9FFEA6AF5
:100A2000E9BEEA68C50EE926000EEA22EFCF14F00F
:100A3000170EE76E1418E8AE02D0143403D0E75056
:100A4000D88014540AE2D0C0E9FFEA6AE9BEEA6835
:100A5000C50EE926000EEA22EF6AD0C0E9FFEA6A75
:100A6000E9BEEA68C50EE926000EEA22EF50E66EFE
:100A7000040EE66E0C0EE66E97EC0EF0E552E552B3
:100A8000E55216D10001C051060A01E1D6D0030A91
:100A900001E198D0010A01E17BD0070A3EE0010A9A
:100AA00001E006D1C12B0A0EE76EC119E8AE02D0F3
:100AB000C13503D0E750D880C15502E2010EC16FA5
:100AC000C1C014F0156A14BE156814C0E6FF15C045
:100AD000E6FFDC0E166E280E176E186A16C0E6FFCB
:100AE00017C0E6FF18C0E6FFE30EE66E000EE66EE6
:100AF00032EC16F0196E070EE15E1950E30EE66E49
:100B0000000EE66E040EE66E0C0EE66E23EC13F09D
:100B1000E552E552E552E552CBD0C22B050EE76E09
:100B2000C219E8AE02D0C23503D0E750D880C25512
:100B300002E2010EC26FC2C014F0156A14BE15683D
:100B400014C0E6FF15C0E6FFDC0E166E280E176E09
:100B5000186A16C0E6FF17C0E6FF18C0E6FFE30EEE
:100B6000E66E000EE66E32EC16F0196E070EE15ED0
:100B70001950E30EE66E000EE66E040EE66E0C0EE5
:100B8000E66E23EC13F0E552E552E552E55290D0C3
:100B90000001E02B170EE76EE019E8AE02D0E03559
:100BA00003D0E750D880E05501E2E06BE0C0E6FFFB
:100BB000040EE66E0C0EE66E97EC0EF0E552E55272
:100BC000E55276D00001E12B3B0EE76EE119E8AE6D
:100BD00002D0E13503D0E750D880E15501E2E16B66
:100BE000E1C014F0156A14BE156814C0E6FF15C004
:100BF000E6FFDC0E166E280E176E186A16C0E6FFAA
:100C000017C0E6FF18C0E6FFE30EE66E000EE66EC4
:100C100032EC16F0196E070EE15E1950E30EE66E27
:100C2000000EE66E040EE66E0C0EE66E23EC13F07C
:100C3000E552E552E552E5523BD0C32B190EE76E63
:100C4000C319E8AE02D0C33503D0E750D880C355EE
:100C500002E2120EC36FC3C014F0156A14BE156809
:100C600014C0E6FF15C0E6FFDC0E166E280E176EE8
:100C7000186A16C0E6FF17C0E6FF18C0E6FFE30ECD
:100C8000E66E000EE66E32EC16F0196E070EE15EAF
:100C90001950E30EE66E000EE66E040EE66E0C0EC4
:100CA000E66E23EC13F0E552E552E552E55200D032
:100CB00012000001CF5137E0D0C0E9FFEA6AE9BE77
:100CC000EA68C50EE926000EEA22EF06D0C0E9FF69
:100CD000EA6AE9BEEA68C50EE926000EEA22EFCF0D
:100CE00014F014340BE3D0C0E9FFEA6AE9BEEA6805
:100CF000C50EE926000EEA22170EEF6ED0C0E9FFFE
:100D0000EA6AE9BEEA68C50EE926000EEA22EF505B
:100D1000E66E040EE66E0C0EE66E97EC0EF0E552F3
:100D2000E552E55203D10001C051060A01E1C4D0E9
:100D3000030A01E18ED0010A01E179D0070A3DE002
:100D4000010A01E0F3D0C107010EE76EC119E8AE58
:100D500002D0E73402D0E750C15D02E20A0EC16F53
:100D6000C1C014F0156A14BE156814C0E6FF15C0A2
:100D7000E6FFDC0E166E280E176E186A16C0E6FF28
:100D800017C0E6FF18C0E6FFE30EE66E000EE66E43
:100D900032EC16F0196E070EE15E1950E30EE66EA6
:100DA000000EE66E040EE66E0C0EE66E23EC13F0FB
:100DB000E552E552E552E552B9D0C207010EE76EA1
:100DC000C219E8AE02D0E73402D0E750C25D02E2B9
:100DD000050EC26FC2C014F0156A14BE156814C0A7
:100DE000E6FF15C0E6FFDC0E166E280E176E186AB9
:100DF00016C0E6FF17C0E6FF18C0E6FFE30EE66E7A
:100E0000000EE66E32EC16F0196E070EE15E195018
:100E1000E30EE66E000EE66E040EE66E0C0EE66E57
:100E200023EC13F0E552E552E552E5527FD0000184
:100E3000E007E03502E3170EE06FE0C0E6FF040EC6
:100E4000E66E0C0EE66E97EC0EF0E552E552E552BA
:100E50006DD00001E107E13502E33B0EE16FE1C037
:100E600014F0156A14BE156814C0E6FF15C0E6FF3D
:100E7000DC0E166E280E176E186A16C0E6FF17C035
:100E8000E6FF18C0E6FFE30EE66E000EE66E32ECFB
:100E900016F0196E070EE15E1950E30EE66E000EB5
:100EA000E66E040EE66E0C0EE66E23EC13F0E552D1
:100EB000E552E552E5523AD0C307120EE76EC31968
:100EC000E8AE02D0E73402D0E750C35D02E2190E6B
:100ED000C36FC3C014F0156A14BE156814C0E6FFD2
:100EE00015C0E6FFDC0E166E280E176E186A16C0C7
:100EF000E6FF17C0E6FF18C0E6FFE30EE66E000E41
:100F0000E66E32EC16F0196E070EE15E1950E30E34
:100F1000E66E000EE66E040EE66E0C0EE66E23EC38
:0E0F200013F0E552E552E552E55200D0120002
:020F2E00D3EC02
:100F30000CF0FB0EDBCFF3FFDB06F35000090AE0F9
:100F400021EC0DF0FA0E8CEC0DF0F3E1151CF1E143
:100F5000010E01D0000E02EF0DF0D3EC0CF03B0EB1
:100F6000E12402E3E168E652E16E010EDB6A020E63
:100F7000DB6AF90EDBCFF6FFFA0EDBCFF7FFFB0ED5
:100F8000DBCFF8FF0800F550DF6EDF5002E126EFFF
:100F90000CF0250EDF5C02E019EF0CF0030EDB6AAB
:100FA000040EDB6A050EDB6A060EDB6A070EDB6ADF
:100FB0003BEC0CF02D0EDF5C0CE02B0EDF5C09E04F
:100FC000200EDF5C06E0230EDF5C03E0300EDF5C0A
:100FD0001AE1DF50300A14E0130A0FE0030A0AE0B6
:100FE0000B0A05E0060AE4E1030EDB80E1D7030EFD
:100FF000DB82DED7030EDB84DBD7030EDB86D8D79C
:10100000030EDB88D5D72A0EDF5C1BE137EC0CF032
:1010100085EC0CF010E0030EDB8008680968130E05
:10102000DBCF0DF0140EDBCF0EF002EC18F0040E47
:1010300006C0DBFF03D0130E6EEC0CF03BEC0CF0A3
:101040000BD0090EDB6ADCEC0CF003E050EC0DF089
:10105000FAD7090E6EEC0CF0030EDBB0DB982E0E07
:10106000DF5C1BE13BEC0CF02A0EDF5C0BE137ECA4
:101070000CF085EC0CF003E1130EC0EC0CF03BEC33
:101080000CF00BD0090EDB6ADCEC0CF003E050EC4A
:101090000DF0FAD7090EC0EC0CF0680EDF5C07E12A
:1010A0003BEC0CF0680EDF5C1DE1030E18D0740EF3
:1010B000DF5C17E07A0EDF5C14E0480EDF5C06E0D0
:1010C000540EDF5C03E05A0EDF5C02E1020E07D033
:1010D0006C0EDF5C03E06A0EDF5C04E1010E13ECD2
:1010E0000DF0C9DBDF506E0A01E17FD31E0A01E17A
:1010F00092D1200A01E18FD13F0A01E149D11A0AB8
:1011000001E146D10D0A01E143D1200A01E140D1BC
:101110003A0A01E13DD1200A01E13AD1260A01E172
:1011200035D10D0A01E132D11A0A01E1D9D0200AE4
:101130004AE0300A1FE0460A0EE0250A01E083D3A8
:10114000D950F90FE96EFF0EDA20EA6E010EEE5E5D
:10115000000EEE5AEE5A21EC0DF0250EE66E95DBF0
:1011600003E1151C01E169D31DEC0DF001E26BD325
:10117000DB2A69D3080EDB6A040EDB50010806E2A5
:10118000040EDB04E5EC0CF0DB508BDB080EDB50CF
:1011900009E0030EDB50010B05E172DB01E04DD3EA
:1011A000080EDB6A64DBEFCFDFFF95EC0DF003E1A7
:1011B000151C01E142D31DEC0DF001E3DB2A60DBDD
:1011C00001E141D33AD3070EDB5002080FE161EC95
:1011D0000DF0030E28EC0DF00E0EEECFDBFF0F0E20
:1011E000EECFDBFF100EEECFDBFF20D0F70EDBCF14
:1011F00017F0F80EDBCF18F0020E175E000E185A2B
:10120000F70E17C0DBFFF80E18C0DBFF17C0E9FFB1
:1012100018C0EAFF18EC0DF0166A0E0E14C0DBFFC2
:101220000F0E15C0DBFF100E16C0DBFF0E0EDBCF5E
:10123000E6FF0F0EDBCFE6FF100EDBCFE6FFABECD9
:1012400017F0E552E552E552130E07C0DBFF140E0E
:1012500008C0DBFF060EDB5005E0130E5CEC0DF062
:1012600001E26ADB80EC0DF002E2130E37DB43ECA7
:101270000DF006E0040E5CEC0DF002E2050E2EDB34
:10128000030EDBB005D0FCDA01E0D7D2080EDB6A32
:10129000090EDB6A0E0EDBCFF6FF0F0EDBCFF7FF7A
:1012A000100EDBCFF8FF0800F550DF6EDF5014E0C2
:1012B00086EC0DF011E295EC0DF003E1151C01E157
:1012C000BCD2BBDB01E3DB2A090EDB2AD9500E0FAF
:1012D000E96E000ECBDBE7D7D3DA01E1B4D2ADD2B1
:1012E000C6DA110EEECFDBFF120EEDCFDBFF110ED3
:1012F000DBCFE6FF120EDBCFE6FF9DEC17F0E552E9
:10130000E552130EF3CFDBFF140EF4CFDBFF060E16
:10131000DB5004E0130ED0DB01E20EDB80EC0DF0BD
:1013200002E2130EDBDAAFDB05E0040EC5DB02E2FE
:10133000050ED4DA030EDBB005D0A2DA01E07DD2CF
:10134000080EDB6A090EDB6A110EDBCFE9FF120E15
:10135000DBCFEAFFEFCFDFFFDF5014E0D7DB12E295
:10136000E4DB03E1151C01E168D267DB01E3DB2A62
:10137000090EDB2A110EDB2ADBCFE9FF120EE8E3B0
:10138000DB2AE6D77DDA01E15ED257D2030EDB8E8F
:10139000070EDB0410E195DB040E5ADB0A0EEECFDC
:1013A000DBFF0B0EEECFDBFF0C0EEECFDBFF0D0EE7
:1013B000EECFDBFF6CD0070EDB5003082CE1030EF1
:1013C000DBAE0DD0B2DA020E76DAEFCF14F0156A8A
:1013D000166A176A14AE39D01568166835D0F70E3C
:1013E000DBCF15F0F80EDBCF16F0020E155E000E07
:1013F000165AF70E15C0DBFFF80E16C0DBFF15C03E
:10140000E9FF16C0EAFFEFCF14F00A0E14C0DBFFAD
:101410000B0EDB6A38D0070EDB50020809E1030E21
:10142000DBAE04D059DB16AE10D00ED055DB0DD09C
:10143000030EDBAE12D079DA020E3DDAF9DA166A63
:10144000176A15AE02D016681768E2DA0C0E16C0DD
:10145000DBFF0D0E17C0DBFF1AD0F70EDBCF16F047
:10146000F80EDBCF17F0020E165E000E175AF70EBD
:1014700016C0DBFFF80E17C0DBFF16C0E9FF17C070
:10148000EAFFD6DAC5DA0C0EDB6A0D0EDB6A060E51
:10149000DB5005E1010EF36E050EF3CFDBFF150EF9
:1014A000DB6A160EDB6AD950370F146E000EDA2095
:1014B000156E390E14C0DBFF3A0E15C0DBFF380E77
:1014C000DB6A080EDB6A0A0EAEDADF50780A12E039
:1014D000200A10E0280A0CE0200A0AE03F0A06E091
:1014E0000D0A02E0200A08E1020E05D0080E03D022
:1014F000080EDF26100E97DA030EDBBE02D0DB9259
:10150000DB94DB50800B24E08ADAD890030EEB509A
:10151000000A08E6000EEE5C000EEE58000EEE58D3
:10152000000EEE5815E213DA0B680C680D680E68B1
:1015300065EC17F00A0E02C0DBFF0B0E03C0DBFFE9
:101540000C0E04C0DBFF0D0E05C0DBFF2D0E08D016
:10155000030EDBA202D02B0E03D0DBA408D0200E9A
:10156000F36E170EF3CFDBFF150EDB2A02D0170E3A
:10157000DB6A050EDB5003E1B7D901E189D08C0E9F
:10158000146E310E156E000E166E070EDBCF17F0BF
:10159000186A196A1A6A17C00BF018C00CF019C043
:1015A0000DF01AC00EF0D3D92FEC18F0145002240D
:1015B000F36E15500320F46E16500420F86EF4CF2D
:1015C000F7FFF3CFF6FF0800090EF5CFDBFF580E4B
:1015D000DF5C0FE1610EF36E090E7BD90AE3200E8A
:1015E000146E090EDBCFE7FF1450E75E090EE7CF5C
:1015F000DBFF070EDBCF14F0156A166A176A0FDAE5
:1016000014C00BF015C00CF016C00DF017C00EF092
:10161000EECF06F0EECF07F0EECF08F0EFCF09F0F7
:101620002FEC18F009C0EDFF08C0EDFF07C0EDFF7B
:1016300006C0EFFF390EDBCFE9FFDB063A0EDBCF4A
:10164000EAFF01E2DB06090EDBCFEFFF150EDB2A16
:101650004BD995E1030EDBA61DD06F0EDF5C06E1D2
:10166000C1D918E3150EDB285BDA14D0780EDF5CE5
:1016700009E0580EDF5C06E0620EDF5C03E0420E1C
:10168000DF5C08E1020EF36E160EF3CFDBFF02D033
:10169000150EDB6A030EDB50100B0EE0040EDBCFE1
:1016A00014F0050EDB50D880145406E2060EDB5011
:1016B00003E1040EDB5034DA95D90AE2050EDBCFE4
:1016C000E7FF150EDB50E75E050EE7CFDBFF02D02C
:1016D000050EDB6A040EDBCF14F0160E45D9D88058
:1016E000145414E2160EDBCFE6FF150EDBCFE6FF37
:1016F000040EDBCFE6FF050EDB50E552E75CE5525A
:10170000D880E754E552D880E7545FD9030EDB5008
:10171000010B0BE1080EDB5008E0B2D801E08DD0E0
:10172000080EDB50BED8080EDB6A170EDB5007E050
:1017300088D9170EF1D903E1151C01E17ED0160EF0
:10174000DB5016E07ED9300EE66E9FD802E1151C04
:1017500074E077D9DFCFE6FF23EC17F0E552E552CE
:10176000E552F4CF15F00001F31C02E1151C65E011
:10177000050EDBCF14F0160EDB50D880145409E2AE
:10178000050EDBCFE7FF160EDB50E75E050EE7CF59
:10179000DBFF300EE66E050ECBD94FE1390EDB2AAA
:1017A000DBCFE9FF3A0E01E3DB2ADBCFEAFF090ECC
:1017B000EFCFDBFFDB500EE044D9090EADD902E1DB
:1017C000151C3BE0390EDB2ADBCFE9FF3A0EEDE3D7
:1017D000DB2AEBD755D831E1160EDBCFE6FF080E3A
:1017E000C3D8E552E7245DD82ED0070EDB50030A9C
:1017F0001CE0010A14E0030A07E07BD9DBCFEEFF0F
:10180000020EDBCFEDFF1FD0F5D8196A17AE02D05C
:10181000186819682CD8BCD819C0EEFF14D0EAD8C3
:1018200017BE186824D8B4D80ED063D9DBCFEFFF29
:101830000AD07BD905E1151C03E1F368F46810D0E8
:10184000FCD801E3DB2A79D9C2EF07F0010EDBCF28
:1018500014F0020EDBCF15F014C0F3FF15C0F4FF37
:101860003B0EE15C02E2E16AE552E16ECBD029D9A0
:10187000020E28EF0DF061D90800F550DF6E12005E
:10188000200EE66E080E98EF0DF023EC17F0E552EF
:10189000E552E552F3CF14F0F4CF15F00001F31C3C
:1018A0001200146E156AD950010F4DD91450EE264E
:1018B0001550ED221200185E000E195AF70E18C0CE
:1018C000DBFFF80E19C0DBFF18C0E9FF19C0EAFF03
:1018D0001200DBCFF4FFF350F45C1200DB50E76E34
:1018E000040EE7CFDBFF12000A0EDBCF14F00B0E65
:1018F000DBCF15F00C0EDBCF16F00D0EDBCF17F0A3
:1019000014501510161017101200130EEECFDBFF37
:10191000140EEDCFDBFF130EDBCF14F0140EDBCF74
:1019200015F00001800E15141200F70EDBCF18F031
:10193000F80EDBCF19F01200050EDB50E66ED95021
:10194000130F01D9E552E750EE6EED6A12000A0E50
:10195000DBCF06F00B0EDBCF07F00C0EDBCF08F071
:101960000D0EDBCF09F01200DBCFE6FF150EDBCF4B
:10197000E6FF050EDB50E552E724E552E7241200AE
:10198000DB50CED8010EF36E060EF3CFDBFF120054
:10199000EE50EFCFEAFFE96E16C0EEFF17C0EEFF84
:1019A00018C0EEFF1200D9CFE6FFDACFE6FFE1CF95
:1019B000D9FFE2CFDAFF1200DFCFE6FFE66A88EC5C
:1019C00018F0E552E552F3501200E76E080EE7CF2B
:1019D000DBFF1200EECF14F0EECF15F0EFCF16F0D4
:1019E000176A1200050EDBCF14F0150EDB50D880FD
:1019F00014541200010EDBCF16F0020EDBCF17F0ED
:101A0000186A1200E552E5CFDAFFE7CFD9FF1200DE
:101A10000A0E14C0DBFF0B0E15C0DBFF1200D950FD
:101A20000A0FA3EF0DF0F36E070EF3CFDBFF1200EA
:101A3000EECF14F0EFCF15F01200010EDB2A020EEC
:101A40001200FC0EDBCFE6FFFD0EDBCFE6FF12003F
:101A5000145E000E155AF70E14C0DBFFF80E15C009
:101A6000DBFF14C0E9FF15C0EAFF1200DA20EA6EBE
:101A7000EF2AEECFF6FF000EEF22EECFF7FFEF22B8
:101A8000EECFF8FF1200040EDBCFE6FF130EDB50A3
:101A9000E552E75C9ADFDB5004DF060EDB501200F4
:101AA000090EDB500A0DF350DF24D00FE76E090E4C
:101AB000E7CFDBFF3BEF0CF0DB50F36E050E69EF79
:101AC0000CF0F70EDBCF14F0F80EDBCF15F01200A0
:101AD000DFCFE6FF45EF0CF028DF030EECDEEAEF88
:101AE0000CF097EC07F0E552E552E552E55200099B
:101AF0001200BDDEEE50EFCFEAFFE96E010E1200DC
:101B0000130EDB50F36E040E69EF0CF0040EDB5085
:101B1000F36E090E69EF0CF0DBCFE6FF45EF0CF03A
:101B2000E76E050EE7CFDBFF12008BDF68EF0DF0ED
:101B3000DBCFE6FF86DF71EF0DF0D950F90FE96ECC
:101B4000FF0E36EF0DF0E96E000EDA20EA6E12009D
:101B5000BEC014F0156A14BE156814C0E6FF15C0A7
:101B6000E6FF530E166E2A0E176E186A16C0E6FFB1
:101B700017C0E6FF18C0E6FFE30EE66E000EE66E45
:101B800032EC16F0196E070EE15E1950E30EE66EA8
:101B9000000EE66E010EE66E0F0EE66E23EC13F0FD
:101BA000E552E552E552E552E66A010EE66E110E87
:101BB000E66EDCEC12F0E552E552E552430EE66EBD
:101BC000010EE66E120EE66E14EC12F0E552E552CE
:101BD000E55212000001DD511FE1DEC014F0156A6C
:101BE00014BE156814C0E6FF15C0E6FF490E166E58
:101BF0002A0E176E186A16C0E6FF17C0E6FF18C057
:101C0000E6FFE30EE66E000EE66E32EC16F0196E9D
:101C1000070EE15E19507CD00C0EDD5D1FE1DEC0C9
:101C200014F0156A14BE156814C0E6FF15C0E6FF6F
:101C30003F0E166E2A0E176E186A16C0E6FF17C002
:101C4000E6FF18C0E6FFE30EE66E000EE66E32EC2D
:101C500016F0196E070EE15E19505AD00C0EE76EA1
:101C6000DD19E8AE02D0E73402D0E750DD5D28E2AE
:101C7000DEC014F0156A14BE156814C0E6FF15C066
:101C8000E6FFDDC016F0176A16BE176816C0E6FF3D
:101C900017C0E6FF330E186E2A0E196E1A6A18C0A6
:101CA000E6FF19C0E6FF1AC0E6FFE30EE66E000E7F
:101CB000E66E32EC16F01B6E090EE15E1B5028D06A
:101CC000DEC014F0156A14BE156814C0E6FF15C016
:101CD000E6FF0C0EDD5D166E176A16BE176816C09D
:101CE000E6FF17C0E6FF270E186E2A0E196E1A6A55
:101CF00018C0E6FF19C0E6FF1AC0E6FFE30EE66E65
:101D0000000EE66E32EC16F01B6E090EE15E1B5003
:101D1000E30EE66E000EE66E010EE66E020EE66E55
:101D200023EC13F0E552E552E552E5521200D9CF0B
:101D3000E6FFE1CFD9FFFC0EDB5016E1220E146E58
:101D40002A0E156E166A14C0E6FF15C0E6FF16C00F
:101D5000E6FFE30EE66E000EE66E32EC16F0176E4E
:101D6000050EE15E175067D0FC0EDB500C0816E143
:101D70001D0E146E2A0E156E166A14C0E6FF15C0ED
:101D8000E6FF16C0E6FFE30EE66E000EE66E32ECEE
:101D900016F0176E050EE15E17504DD0FC0EDBCF2E
:101DA00014F00C0EE76E1418E8AE02D0E73402D03F
:101DB000E750145C20E2FC0EDBCF14F0156A14BE71
:101DC000156814C0E6FF15C0E6FF170E166E2A0E42
:101DD000176E186A16C0E6FF17C0E6FF18C0E6FFC8
:101DE000E30EE66E000EE66E32EC16F0196E070E8C
:101DF000E15E195020D0FC0EDB50F40F146E156A12
:101E000014BE156814C0E6FF15C0E6FF110E166E6D
:101E10002A0E176E186A16C0E6FF17C0E6FF18C034
:101E2000E6FFE30EE66E000EE66E32EC16F0196E7B
:101E3000070EE15E1950E30EE66E000EE66EFD0E33
:101E4000DBCFE6FFFE0EDBCFE6FF23EC13F0E5521F
:101E5000E552E552E552E552E7CFD9FF1200E66AB6
:101E60007CEC12F0E5520A0E146E2A0E156E166AFC
:101E700014C0E6FF15C0E6FF16C0E6FFE30EE66EEF
:101E8000000EE66E32EC16F0176E050EE15E17508E
:101E9000E30EE66E000EE66EE66A070EE66E23ECD3
:101EA00013F0E552E552E552E55294DE51DEBCC036
:101EB00014F0156A14BE156814C0E6FF15C0E6FFDD
:101EC000FD0E166E290E176E186A16C0E6FF17C0B3
:101ED000E6FF18C0E6FFE30EE66E000EE66E32EC9B
:101EE00016F0196E070EE15E1950E30EE66E000E55
:101EF000E66E030EE66E040EE66E23EC13F0E5527A
:101F0000E552E552E552BDC014F0156A14BE1568DD
:101F100014C0E6FF15C0E6FFF00E166E290E176E10
:101F2000186A16C0E6FF17C0E6FF18C0E6FFE30E0A
:101F3000E66E000EE66E32EC16F0196E070EE15EEC
:101F40001950E30EE66E000EE66E040EE66EE66EC7
:101F500023EC13F0E552E552E552E5521200030E70
:101F6000E66EB9EC12F0E552040EE66EB9EC12F032
:101F7000E552050EE66EB9EC12F0E5520001D029EB
:101F8000146E156A14BE156814C0E6FF15C0E6FF8E
:101F9000E30E166E290E176E186A16C0E6FF17C0FC
:101FA000E6FF18C0E6FFE30EE66E000EE66E32ECCA
:101FB00016F0196E070EE15E1950E30EE66E000E84
:101FC000E66E030EE66E040EE66E23EC13F0E552A9
:101FD000E552E552E552DA0E146E290E156E166AB8
:101FE00014C0E6FF15C0E6FF16C0E6FFE30EE66E7E
:101FF000000EE66E32EC16F0176E050EE15E17501D
:10200000E30EE66E000EE66E040EE66EE66E23EC60
:1020100013F0E552E552E552E552D0C0E9FFEA6A15
:10202000E9BEEA68C50EE926000EEA22EF50E66E28
:10203000040EE66E0C0EE66E7ADEE552E552E552CF
:102040001200030EE66EB9EC12F0E552040EE66ED5
:10205000B9EC12F0E552050EE66EB9EC12F0E5525D
:102060000001C005146E156A14BE15680F0E150226
:10207000F3CF15F01402F3CF14F0F45015261E0E12
:102080001426010E152214C0E6FF15C0E6FFD70E78
:10209000166E290E176E186A16C0E6FF17C0E6FF07
:1020A00018C0E6FFE30EE66E000EE66E32EC16F0A8
:1020B000196E070EE15E1950E30EE66E000EE66E35
:1020C000030EE66E040EE66E23EC13F0E552E552C5
:1020D000E552E552DA0E146E290E156E166A14C01A
:1020E000E6FF15C0E6FF16C0E6FFE30EE66E000E43
:1020F000E66E32EC16F0176E050EE15E1750E30E39
:10210000E66E000EE66E040EE66EE66E23EC13F04D
:10211000E552E552E552E5520001C051060A01E1DF
:102120009BD0030A6CE0010A5FE0070A30E0010A75
:1021300001E0BFD0C1C014F0156A14BE156814C008
:10214000E6FF15C0E6FFD30E166E290E176E186A4D
:1021500016C0E6FF17C0E6FF18C0E6FFE30EE66E06
:10216000000EE66E32EC16F0196E070EE15E1950A5
:10217000E30EE66E000EE66E040EE66E0C0EE66EE4
:1021800023EC13F0E552E552E552E55292D0C2C07D
:1021900014F0156A14BE156814C0E6FF15C0E6FFFA
:1021A000D30E166E290E176E186A16C0E6FF17C0FA
:1021B000E6FF18C0E6FFE30EE66E000EE66E32ECB8
:1021C00016F0196E070EE15E1950E30EE66E000E72
:1021D000E66E040EE66E0C0EE66E23EC13F0E5528E
:1021E000E552E552E55265D0E0C0E6FF040EE66E2A
:1021F0000C0EE66E9CDDE552E552E5525AD0DEC08B
:1022000014F0156A14BE156814C0E6FF15C0E6FF89
:10221000D30E166E290E176E186A16C0E6FF17C089
:10222000E6FF18C0E6FFE30EE66E000EE66E32EC47
:1022300016F0196E070EE15E1950E30EE66E000E01
:10224000E66E040EE66E0C0EE66E23EC13F0E5521D
:10225000E552E552E5522DD0C3C014F0156A14BE04
:10226000156814C0E6FF15C0E6FFD30E166E290EE2
:10227000176E186A16C0E6FF17C0E6FF18C0E6FF23
:10228000E30EE66E000EE66E32EC16F0196E070EE7
:10229000E15E1950E30EE66E000EE66E040EE66E89
:1022A0000C0EE66E23EC13F0E552E552E552E552D2
:0422B00000D0120048
:0C22B4000F013991399339959390939262
:1022C00093948A808A928A843A973A9B8B968B9AC7
:1022D0009496949A800EE66EE66AE66AD0EC17F061
:1022E000E552E552E5521200D9CFE6FFE1CFD9FF22
:1022F0008A90FE0EDBCFE6FF53EC18F0E552C7A044
:10230000FED78A80E552E7CFD9FF1200D9CFE6FF8A
:10231000E1CFD9FF8A92FE0EDBCFE6FFE5DFE55283
:10232000E552E7CFD9FF1200D9CFE6FFE1CFD9FFC1
:102330008A82FE0EDBCFE6FFD7DFE552E552E7CF1C
:10234000D9FF12008A94010EE66E71EC18F0E55286
:102350008A84AE0EE66EDADFE552A80EE66ED6DFB0
:10236000E5523F0EE66ED2DFE552D30EE66ECEDFCB
:10237000E552E66ACBDFE552400EE66EC7DFE55276
:10238000A10EE66EC3DFE552C80EE66EBFDFE55272
:10239000DA0EE66EBBDFE552120EE66EB7DFE552EF
:1023A000810EE66EB3DFE5527F0EE66EAFDFE552DB
:1023B000A40EE66EABDFE552A60EE66EA7DFE55291
:1023C000D50EE66EA3DFE552800EE66E9FDFE55286
:1023D0008D0EE66E9BDFE552140EE66E97DFE5523A
:1023E000AF0EE66E93DFE5521200D9CFE6FFE1CFE4
:1023F000D9FFFD0EDB50B00FE66E88DFE552FE0E12
:10240000DB50020FF00BE8380F0B1009E66E7EDF91
:10241000E552FE0EDB50020F0F0BE66E77DFE55242
:10242000E552E7CFD9FF1200D9CFE6FFE1CFD9FFC0
:10243000E652FD0EDBCFE6FFFE0EDB50060DF3503D
:10244000E66ED3DFE552E552FC0EDBCF14F0200E32
:10245000E76E1418E8AE02D0E73402D0E750145CFF
:102460000EE3FC0EDBCF15F07F0EE76E1518E8AE1D
:1024700002D0153403D0E750D880155405E2200E61
:10248000F36EFC0EF3CFDBFFDF6ADFCF14F0060E36
:10249000E76E1418E8AE02D0E73402D0E750145CBF
:1024A00026E2FC0EDB50E00F146E156A14BE1568B0
:1024B000060E1502F3CF15F01402F3CF14F0F4500A
:1024C0001526960E1426260E1522DFCF16F0176A53
:1024D00016BE176814501624F66E15501720F76EA6
:1024E0000800F550E66E20DFE552DF2ACED7E55230
:1024F000E552E7CFD9FF1200D9CFE6FFE1CFD9FFF0
:10250000030EE126020EDB6ADBCF14F0080EE76E45
:102510001418E8AE02D0E73402D0E750145C1FE292
:10252000010EDB6ADBCF14F0160EE76E1418E8AE6E
:1025300002D0E73402D0E750145C0EE2E66A020EE5
:10254000DBCFE6FF010EDBCFE6FF6EDFE552E552A3
:10255000E552010EDB2AE6D7020EDB2AD5D7030EA1
:10256000E15C02E2E16AE552E16EE552E7CFD9FFB4
:102570001200D9CFE6FFE1CFD9FFE652DF6ADFCF05
:1025800014F0160EE76E1418E8AE02D0E73402D04D
:10259000E750145C0CE2E66AFE0EDBCFE6FFDFCF0D
:1025A000E6FF42DFE552E552E552DF2AE8D7E55281
:1025B000E552E7CFD9FF1200D9CFE6FFE1CFD9FF2F
:1025C000E652FD0EDBCFE6FFFE0EDB50060DF350AC
:1025D000E66E0BDFE552E552DF6ADFCF14F0060E40
:1025E000E76E1418E8AE02D0E73402D0E750145C6E
:1025F00025E2FC0EDBCF14F0156A14BE1568060E3A
:102600001502F3CF15F01402F3CF14F0F450152691
:10261000D60E1426280E1522DFCF16F0176A16BE26
:10262000176814501624F66E15501720F76E080020
:10263000F550E66E79DEE552DF2ACFD7E552E55256
:10264000E7CFD9FF1200D9CFE6FFE1CFD9FFFB0ECC
:10265000DBCFE9FFFC0EDBCFEAFFEF5018E0FB0E0B
:10266000DBCFE9FFDB2AFC0EDBCFEAFF01E3DB2A4D
:10267000EF50E66EFD0EDBCFE6FFFE0EDBCFE6FF92
:10268000D3DEE552E552E552FE0EDB2AE0D7E552F5
:06269000E7CFD9FF1200A4
:0A269600000000000000005F0000DB
:1026A0000000000700070000147F147F1400242A94
:1026B0007F2A120023130864620036495522500015
:1026C0000005030000001C224100000041221C0004
:1026D0000000082A1C2A080008083E080800A0601C
:1026E0000000000008080808080060600000000002
:1026F0002010080402003E5149453E0000427F4040
:1027000000006251494946002241494936001814E7
:10271000127F10002745454539003C4A49493000A1
:10272000017109050300364949493600064949291E
:102730001E0000363600000000AC6C0000000814DB
:102740002241000014141414140041221408000043
:10275000020151090600324979413E007E0909090A
:102760007E007F49494936003E41414122007F4178
:1027700041221C007F49494941007F0909090100A4
:102780003E41415172007F0808087F0000417F41AF
:1027900000002040413F01007F08142241007F409B
:1027A000404040007F020C027F007F0408107F0041
:1027B0003E4141413E007F09090906003E41512149
:1027C0005E007F0919294600264949493200010166
:1027D0007F0101003F4040403F001F2040201F007C
:1027E0003F4038403F00631408146300030478043A
:1027F00003006151494543007F414100000002044C
:102800000810200041417F00000004020102040082
:102810008080808080000102040000002054545415
:1028200078007F4844443800384444280000384445
:1028300044487F00385454541800087E09020000B0
:1028400018A4A4A47C007F0804047800007D000084
:10285000000080847D0000007F1028440000417F3C
:10286000400000007C04180478007C08047C000010
:10287000384444380000FC2424180000182424FCA8
:102880000000007C08040000485454240000047F29
:10289000440000003C40407C00001C2040201C0004
:1028A0003C4030403C004428102844001CA0A07C40
:1028B00000004464544C4400083641000000007F8E
:1028C0000000000041360800000002010102010082
:0C28D0000205050200000E11110E0000B0
:0428DC002532690038
:1028E00023002C25303269000D0A2432001B5B3195
:1028F000353B304824312C253032692C2530326963
:102900002C2530326923000A0D54656D703A20255C
:102910003369000A0D4D696E3A20253369000A0DAE
:10292000486F75723A2025336900506F7274696F71
:102930006E3A202533690053686564756C655F25C0
:10294000693A202533690A0D0053657474696E670E
:1029500020000A0D53686564756C653A202533695B
:102960000A0D0054657065726174757265004D6979
:102970006E75746500486F757200506F7274696F80
:102980006E005363686564756C650052756E6E69A0
:102990006E67000A0D0A0D4D6F64653A000A0D431B
:1029A000757272656E742054696D653A20253032F7
:1029B000693A253032693A25303269001B5B324A68
:1029C0001B5B48506574487562205374617475735D
:1029D0000A0D002532690025730053657420746F59
:1029E000203A0053686564756C65202325326900C0
:1029F000506F7274696F6E733A253269005368655F
:102A000064756C65733A2532690050657448756267
:102A100000253269504D00253269414D0031325058
:102A20004D003132414D00253032693A253032694E
:102A3000504D00253032693A25303269414D003120
:102A4000323A25303269504D0031323A2530326900
:082A5000414D00253032690000
:082A5800DACFE4FFE2CFDAFF60
:102A6000E9CFE4FFEACFE4FFF6CFE4FFF7CFE4FFDE
:102A7000F5CFE4FFF3CFE4FFF4CFE4FFFACFE4FFB8
:102A800000EE00F0140EE80403E3EECFE4FFFBD702
:102A900000EE14F00A0EE80403E3EECFE4FFFBD7E8
:102AA000E652F2A43DD0DC0EE66E0B0EE66E14ECA0
:102AB00000F0E552E5520001DF2B3C0E1E6EDF51A7
:102AC000E76E1E18E8AE02D01E3403D0E750D8805F
:102AD0001E5423E3DF6BDE2B3C0E1E6EDE51E76ED1
:102AE0001E18E8AE02D01E3403D0E750D8801E5422
:102AF00014E3DE6BDD2B0101010E1D6F180E1E6E3F
:102B00000001DD51E76E1E18E8AE02D01E3403D07E
:102B1000E750D8801E5401E3DD6B0101010E1C6FEC
:102B20009EAA00D0C00EF212E55200EE1DF00A0E71
:102B3000E80403E3E5CFEDFFFBD700EE13F0140E3E
:102B4000E80403E3E5CFEDFFFBD7E5CFFAFFE5CFE0
:102B5000F4FFE5CFF3FFE5CFF5FFE5CFF7FFE5CFD6
:102B6000F6FFE5CFEAFFE5CFE9FFE5CFDAFF110099
:102B7000D9CFE6FFE1CFD9FF020EE126DE6ADD6A9A
:102B80008BEC00F0A2EC11F02FEC0FF0F00E8014A3
:102B90000001B46FB551B45D1DE0B4C0B5F0B451DF
:102BA000700A10E0C00A0BE0600A06E0300A01E09B
:102BB0000CD072EC04F009D000EC05F006D059EC12
:102BC00006F003D071EC04F000D0020EE66E71EC5A
:102BD00018F0E5520001BF5107E0010EE66ED4EC9B
:102BE00003F0E5520001BF6B01011C5102E0EAEC69
:102BF0000DF001011D512BE0DE6ADD6ADECF14F01D
:102C0000DDCF15F0BCC016F0176A16BE1768155058
:102C10001718E8AE02D0173404D01650145C1750C1
:102C2000155813E2DECFE9FFDDCFEAFFD10EE9262A
:102C3000000EEA22EF500001DD5D02E171EC04F0CC
:102C4000DF2A010E01E3DB2AD9D701011D6B9ED7D4
:102C5000020EE15C02E2E16AE552E16EE552E7CF85
:042C6000D9FF120086
:0C2C6400D9CFE6FFDACFE6FFE1CFD9FFC1
:102C7000E2CFDAFFE652E652E652E652D950F90FB9
:102C8000146EFF0EDA20156E020E14C0DBFF030E69
:102C900015C0DBFF020EDBCFE6FF030EDBCFE6FF46
:102CA000F90EDBCFE6FFFA0EDBCFE6FFFB0EDBCF44
:102CB000E6FFD950FC0FE66EFF0EDA20E66EADECB3
:102CC00007F0146E070EE15C02E2E16AE552E16E84
:102CD0001450F3CFDEFFF4CFDDFFFC0EDBCFE9FFB6
:102CE000FD0EDBCFEAFFEF6ADECF14F0DDCF15F08B
:102CF00014C0F3FF15C0F4FF040EE15C02E2E16AC8
:102D0000E552E16EE552E5CFDAFFE7CFD9FF1200D9
:102D10000E0EF66E000EF76E000EF86E0101090041
:102D2000F5507D6F0900F5507E6F03E17D6701D09E
:102D30003DD00900F550786F0900F550796F090012
:102D4000F5507A6F09000900F550E96E0900F55059
:102D5000EA6E090009000900F5507B6F0900F55083
:102D60007C6F09000900F6CF7FF1F7CF80F1F8CF33
:102D700081F178C1F6FF79C1F7FF7AC1F8FF01014F
:102D80007B5302E17C5307E00900F550EE6E7B07B0
:102D9000F8E27C07F9D77FC1F6FF80C1F7FF81C158
:0E2DA000F8FF01017D07000E7E5BBFD7120019
:022DAE00D9CF7B
:102DB000E6FFDACFE6FFE1CFD9FFE2CFDAFFE65256
:102DC000E652E652E652D950FB0F146EFF0EDA209F
:102DD000156E14C0DEFFDD6EDECFE6FFDDCFE6FF51
:102DE000FB0EDBCFE6FFFC0EDBCFE6FFFD0EDBCFFD
:102DF000E6FFFCC0E6FFFDC0E6FFADEC07F0146E99
:102E0000070EE15C02E2E16AE552E16E1450020E47
:102E1000F3CFDBFF030EF4CFDBFF020EDBCF14F0AA
:102E2000030EDBCF15F014C0F3FF15C0F4FF040E42
:102E3000E15C02E2E16AE552E16EE552E5CFDAFFDC
:062E4000E7CFD9FF1200EC
:0A2E4600D9CFE6FFDACFE6FFE1CFB7
:102E5000D9FFE2CFDAFFFB0EDBCF14F0FC0EDBCFA5
:102E600015F00001800E15141AE1FB0EDBCFE9FF0F
:102E7000FC0EDBCFEAFFEECFF3FFEDCFF4FFEE2A3F
:102E8000000EEF22F3CFE9FFF4CFEAFFFD0EDBCF18
:102E9000EFFFEF50156AF36E15C0F4FF10D0FB0E74
:102EA000DB50FE0806E1FD0EDBCFE6FFB8EC18F0C4
:102EB00005D0FD0EDBCFE6FF03EC00F0E552E55256
:0A2EC000E5CFDAFFE7CFD9FF1200DB
:062ECA0006500B02F3CFDD
:102ED00002F0F4CF03F00C02F3500326000EF420AE
:102EE000046E06500D02F3500426000EF420056E09
:102EF00006500E02F350052607500B02F35003262E
:102F0000F4500422000E052207500C02F350042650
:102F1000F450052207500D02F350052608500B020D
:102F2000F3500426F450052208500C02F3500526F5
:0A2F300009500B02F35005261200B1
:062F3A00FE0EE3CFE9FFEB
:102F4000FF0EE3CFEAFFF36AF46AEE5203E0F34ABE
:102F5000F42AFBD71200FF0EE3CFF8FFE552FF0E75
:102F6000E3CFF7FFE552FF0EE3CFF6FFE552E66A47
:102F7000E66AE66A0900F55209E0FD0EE32A05E17A
:102F8000FE0EE32A02E1FF0EE32AF4D7FD0EE3CFA3
:102F900007F0FE0EE3CF08F0FF0EE3CF09F01200BA
:102FA000D9CFE6FFDACFE6FFE1CFD9FFE2CFDAFFF4
:102FB0003F0EC716C66AFD0EDB50C612FB0EDB5075
:102FC000C712FC0EDB50030A09E0010A04E0020A02
:102FD00006E1C78C04D0C78CC68801D0C688FD0E18
:102FE000DB50050A03E0010A03E1928A948601D0CE
:102FF00094969488949AC68AE552E5CFDAFFE7CF93
:04300000D9FF1200E2
:0C30040009C013F008C012F008500D02C3
:10301000F4CF07F0F3CF06F009500E02F4CF09F019
:10302000F3CF08F00D02F3500726F4500822E86AA7
:10303000092212500E02F3500726F4500822E86AC3
:1030400009220EAE28EF18F01250085E1350095AEC
:0E30500013AE000C0D50085E0E50095A000C15
:02305E00056A01
:10306000046A036A026A200EE76ED89006360736B5
:103070000836093602360336043605360B50025C34
:103080000C5003580D5004580E50055809E30B50CE
:10309000025E0C50035A0D50045A0E50055A062A6F
:0630A000E72EE4D7120048
:0A30A600D9CFE6FFDACFE6FFE1CF55
:1030B000D9FFE2CFDAFFE652C950DF6E9E96C69E78
:1030C000FD0EDB50C96EC6AE02D0FF0E03D09EA629
:1030D000FED7000EE552E552E5CFDAFFE7CFD9FF84
:0230E0001200DC
:0E30E200FF0EE350206EEF0E01D0F30EE76EEE
:1030F000E72E78EF18F00C0E1F6EE76AE72E7EEFD2
:1031000018F01F2E7DEF18F0202E76EF18F0120029
:10311000F36AF46AFF0EE124E96EFF0EE220EA6E24
:10312000ED6607D02F0EEF6404D03A0EEF6001D0A9
:04313000F32A12006C
:0C313400000EF36E00EE00F0060E01D855
:103140001200EA6002D0EE6AFCD7F350E960120088
:04315000EE6AFCD750
:0C31540015EE00F025EE00F0F86A019C7A
:1031600088EC16F0CFEC18F0B8EC15F0FBD7120095
:10317000FF0EE350ACBA04D0AF6AAB8EAC8A949C1D
:0C318000ACA2FED7AD6EF36EF46A120034
:04318C003031323379
:0D3190003435363738396162636465660096
:02319E0012001D
:0231A000FEFF30
:0E31A20001020408C20164007017CEFF000095
:1031B000A60423003C00B0040F00280020030001F7
:1031C00053455400000000000000000000000053C0
:1031D000686564756C657300000000000000506F46
:1031E0007274696F6E007171717171717154696D72
:1031F000652028486F7572290000000054696D65CC
:1032000020284D696E29000000000054656D70652E
:0A3210007261747572650000000021
:020000040030CA
:0100010028D6
:0100020003FA
:010003003CC0
:01000500BD3D
:010006008178
:00000001FF
