:020000040000FA
:06000000F0EF21F01200F8
:020006001200E6
:06000800AEEF1CF0120037
:02000E000200EE
:1000100044440000600000006F0000004244000003
:08002000D900000002000000FD
:08002800D9CFE6FFE1CFD9FFBB
:10003000F294FD0EDBCF14F0FE0EDBCF15F015C0F1
:1000400014F0156A1450D76EFD0EDB50D66EE552D3
:10005000E7CFD9FF1200D9CFE6FFE1CFD9FF020EDB
:10006000E126DE6ADD6A520ED36ED3A4FED70F01FD
:10007000386B896A92683A6B8B6AC00E946E396BE2
:100080008A6AC30E936E3B958C949594DC0EE66E53
:100090000B0EE66EC9DFE552E552930ED56E400EAB
:1000A000B86E260EAC6E900EAB6E190EAF6EB06AC7
:1000B000F194F294F28A9F9A9E9A9D9AD09EC00ED5
:1000C000F212020EE66E010EE66E14DAE552E55209
:1000D000000EE66E010EE66EF5D9E552E5520C0E05
:1000E000E66E010EE66E3FDAE552E552070EE66E69
:1000F000010EE66E38DAE552E552110EE66E010E9B
:10010000E66E8FDAE552E5521D0EE66E010EE66EE2
:1001100088DAE552E552290EE66E010EE66E5FDAE8
:10012000E552E5522C0EE66E010EE66E58DAE55207
:10013000E5522FEC16F0DFEC1AF0020EE15C02E261
:10014000E16AE552E16EE552E7CFD9FF1200D9CF5F
:10015000E6FFE1CFD9FF020EE126790E146E3E0EC6
:10016000156E166A14C0E6FF15C0E6FF16C0E6FF5E
:100170003AEC20F0E552E552E5522BC114F0156A35
:1001800014BE156814C0E6FF15C0E6FF2AC116F0BC
:10019000176A16BE176816C0E6FF17C0E6FF29C12A
:1001A00018F0196A18BE196818C0E6FF19C0E6FFF2
:1001B0005A0E1A6E3E0E1B6E1C6A1AC0E6FF1BC05A
:1001C000E6FF1CC0E6FF3AEC20F01D6E090EE15E72
:1001D0001D50500E146E3E0E156E166A14C0E6FFCA
:1001E00015C0E6FF16C0E6FF3AEC20F0E552E552F6
:1001F000E55201010C51060A60E0030A4DE0010AD4
:100200003AE0070A27E0010A14E0030A01E066D099
:10021000480E146E3E0E156E166A14C0E6FF15C029
:10022000E6FF16C0E6FF3AEC20F0E552E552E55253
:1002300055D03F0E146E3E0E156E166A14C0E6FFC2
:1002400015C0E6FF16C0E6FF3AEC20F0E552E55295
:10025000E55244D0370E146E3E0E156E166A14C069
:10026000E6FF15C0E6FF16C0E6FF3AEC20F0E552C7
:10027000E552E55233D0320E146E3E0E156E166AFC
:1002800014C0E6FF15C0E6FF16C0E6FF3AEC20F00A
:10029000E552E552E55222D02B0E146E3E0E156E3D
:1002A000166A14C0E6FF15C0E6FF16C0E6FF3AEC7A
:1002B00020F0E552E552E55211D0200E146E3E0EAC
:1002C000156E166A14C0E6FF15C0E6FF16C0E6FFFD
:1002D0003AEC20F0E552E552E55200D00DC114F0A1
:1002E000156A14BE156814C0E6FF15C0E6FF0F0EB0
:1002F000166E3E0E176E186A16C0E6FF17C0E6FFB0
:1003000018C0E6FF3AEC20F0196E050EE15E1950B8
:10031000DE6ADD6ADECF14F0DDCF15F00DC116F018
:10032000176A16BE176815501718E8AE02D01734B2
:1003300004D01650145C1750155852E201011B519D
:100340001CE01CC114F0156A14BE1568DF501418A7
:1003500003E1DE52DD50151810E1060E146E3E0E5C
:10036000156E166A14C0E6FF15C0E6FF16C0E6FF5C
:100370003AEC20F0E552E552E552DECFE9FFDDCF61
:10038000EAFF110EE926010EEA22EFCF14F0156AFA
:1003900014BE156814C0E6FF15C0E6FFDECF16F0E8
:1003A000DDCF17F0010E1626000E172216C0E6FF4D
:1003B00017C0E6FFF40E186E3D0E196E1A6A18C0CB
:1003C000E6FF19C0E6FF1AC0E6FF3AEC20F01B6E0C
:1003D000070EE15E1B50DF2A010E01E3DB2A9AD7EC
:1003E0000EC114F0156A14BE156814C0E6FF15C0DE
:1003F000E6FFE70E166E3D0E176E186A16C0E6FF92
:1004000017C0E6FF18C0E6FF3AEC20F0196E050EA3
:10041000E15E195029C114F0156A14BE156814C0A4
:10042000E6FF15C0E6FFDB0E166E3D0E176E186A6E
:1004300016C0E6FF17C0E6FF18C0E6FF3AEC20F052
:10044000196E050EE15E19502AC114F0156A14BE2A
:10045000156814C0E6FF15C0E6FFD00E166E3D0EFF
:10046000176E186A16C0E6FF17C0E6FF18C0E6FF51
:100470003AEC20F0196E050EE15E19500FC114F030
:10048000156A14BE156814C0E6FF15C0E6FFC40E59
:10049000166E3D0E176E186A16C0E6FF17C0E6FF0F
:1004A00018C0E6FF3AEC20F0196E050EE15E195017
:1004B000020EE15C02E2E16AE552E16EE552E7CF4D
:1004C000D9FF1200D9CFE6FFE1CFD9FFFD0EDBCF78
:1004D000E9FFFE0EDBCFEAFFEF6AFD0EDBCFE9FF9F
:1004E000FE0EDBCFEAFFEE52F00EEF6EE552E7CFE5
:1004F000D9FF1200D9CFE6FFE1CFD9FFFD0EDBCF48
:10050000E9FFFE0EDBCFEAFF010EEF6EFD0EDBCF43
:10051000E9FFFE0EDBCFEAFFEE52EF6AFD0EDBCF06
:10052000E9FFFE0EDBCFEAFF020EE926000EEA220B
:10053000EF6AFD0EDBCFE9FFFE0EDBCFEAFF030E15
:10054000E926000EEA22EF6AFD0EDBCFE9FFFE0E80
:10055000DBCFEAFF040EE926000EEA22EF6AE5523D
:10056000E7CFD9FF1200D9CFE6FFE1CFD9FFFD0ECB
:10057000DBCFE9FFFE0EDBCFEAFF010EEF6EFD0ED3
:10058000DBCFE9FFFE0EDBCFEAFFEE52020EEF6E8D
:10059000FD0EDBCFE9FFFE0EDBCFEAFF020EE92600
:1005A000000EEA22030EEF6EFD0EDBCFE9FFFE0E1A
:1005B000DBCFEAFF030EE926000EEA22190EEF6EEA
:1005C000FD0EDBCFE9FFFE0EDBCFEAFF040EE926CE
:1005D000000EEA22EF6AE552E7CFD9FF1200D9CF29
:1005E000E6FFE1CFD9FFFD0EDBCFE9FFFE0EDBCF4B
:1005F000EAFFEF6AFD0EDBCFE9FFFE0EDBCFEAFF7D
:10060000EE52EF6AFD0EDBCFE9FFFE0EDBCFEAFF15
:10061000020EE926000EEA22EF6AE552E7CFD9FF83
:100620001200D9CFE6FFE1CFD9FF020EE126FD0E81
:10063000DBCFE9FFFE0EDBCFEAFF0B0EE926000E53
:10064000EA22EF68FD0EDBCFE9FFFE0EDBCFEAFF0B
:100650000A0EE926000EEA22EF6ADE6ADD6ADECFC4
:1006600014F0DDCF15F0D890155004E60A0E145C96
:10067000000E15581FE2DECF16F0DDCF17F0010E89
:100680001626000E1722FD0EDBCFE9FFFE0EDBCF94
:10069000EAFFE9CF14F0EACF15F0DE501424E96E3A
:1006A000DD501520EA6E16C0EFFFDF2A010E01E3D0
:1006B000DB2AD5D7020EE15C02E2E16AE552E16E87
:1006C000E552E7CFD9FF1200D9CFE6FFE1CFD9FF3E
:1006D000020EE126FE0EDB0401E080D00AC114F018
:1006E000156A14BE156814C0E6FF15C0E6FF09C1FF
:1006F00016F0176A16BE176816C0E6FF17C0E6FFA9
:10070000B40E186E3D0E196E1A6A18C0E6FF19C0B5
:10071000E6FF1AC0E6FF3AEC20F01B6E070EE15E22
:100720001B50B10E146E3D0E156E166A14C0E6FF16
:1007300015C0E6FF16C0E6FF3AEC20F0E552E552A0
:10074000E552DE6ADD6ADECF14F0DDCF15F00DC1B3
:1007500016F0176A16BE176815501718E8AE02D0C3
:10076000173404D01650145C1750155827E2DECF0A
:10077000E9FFDDCFEAFF1D0EE926010EEA22EFCFE9
:1007800014F0156A14BE156814C0E6FF15C0E6FF24
:10079000AB0E166E3D0E176E186A16C0E6FF17C038
:1007A000E6FF18C0E6FF3AEC20F0196E050EE15E98
:1007B0001950DF2A010E01E3DB2AC5D7A70E146EFC
:1007C0003D0E156E166A14C0E6FF15C0E6FF16C092
:1007D000E6FF3AEC20F0E552E552E552FE0EDB5022
:1007E000020817E1FC0EDBCFE6FFFD0EDBCFE6FFD4
:1007F000990E146E3D0E156E166A14C0E6FF15C0F4
:10080000E6FF16C0E6FF3AEC20F0176E050EE15E3B
:100810001750FE0EDB50030817E1FC0EDBCFE6FF9E
:10082000FD0EDBCFE6FF8B0E146E3D0E156E166AC5
:1008300014C0E6FF15C0E6FF16C0E6FF3AEC20F054
:10084000176E050EE15E1750FE0EDB50040817E12F
:10085000FC0EDBCFE6FFFD0EDBCFE6FF7D0E146E58
:100860003D0E156E166A14C0E6FF15C0E6FF16C0F1
:10087000E6FF3AEC20F0176E050EE15E1750FE0E13
:10088000DB50050817E1FC0EDBCFE6FFFD0EDBCFEA
:10089000E6FF6F0E146E3D0E156E166A14C0E6FF6D
:1008A00015C0E6FF16C0E6FF3AEC20F0176E050E05
:1008B000E15E1750020EE15C02E2E16AE552E16E90
:1008C000E552E7CFD9FF1200020E0001CC1901E179
:1008D000CD5154E0010ECC1901E1CD513CE0CC5199
:1008E00001E1CD5101E08DD00001D890CB5104E65B
:1008F000000ECA5D020ECB5924E20101032B040E47
:10090000E76E0319E8AE02D0E73402D0E750035D8A
:1009100001E3036B03C1E9FFEA6AE9BEEA68600E1E
:10092000E926000EEA22EF50040DF350816E030E0B
:10093000E66ED0EC21F0E5520001CA2B000ECB236D
:1009400009D0010E0001CC6FCD6B0001CA6BCB6BDF
:100950000001CE6B56D0010109290001E76ECE19C6
:10096000E8AE02D0CE3503D0E750D880CE5505E2B0
:10097000020E0001CC6FCD6B00D043D00001D890A7
:10098000CB5104E6000ECA5D020ECB591DE20101F7
:100990000307033502E3030E036F03C1E9FFEA6AAD
:1009A000E9BEEA68600EE926000EEA22EF50040D67
:1009B000F350816E030EE66ED0EC21F0E55200019B
:1009C000CA2B000ECB231CD00001CC6BCD6B0001D9
:1009D000CA6BCB6B0001675102E0676B11D001015C
:1009E000282B010108510101E76E2819E8AE02D059
:1009F000E73402D0E750285D03E3286B0001666B03
:100A000000D01200020E01010C5D19E101011C2B46
:100A100001010D510101E76E1C19E8AE02D0E73467
:100A200002D0E7501C5D05E2010E1B6F44EC10F094
:100A300005D01B6B01010C2BA7EC10F06AD00C0544
:100A40000FE1030EE66E98EC17F0E552040EE66E29
:100A500098EC17F0E552050EE66E98EC17F0E552AB
:100A600001010C2B040E0C5D03E129C12CF113D004
:100A7000050E0C5D03E12AC12DF10DD0060EE76EC7
:100A80000C19E8AE02D00C3503D0E750D8800C55D5
:100A900002E2010E0C6F0C053AE10CC107F10DC129
:100AA00008F10EC109F10FC10AF10101010E0B6F2E
:100AB00001011C6B01010D510101E76E1C19E8AE2B
:100AC00002D0E73402D0E7501C5D19E21CC1E9FFF7
:100AD000EA6AE9BEEA68110EE926010EEA22EF5041
:100AE000E66E1CC1E9FFEA6AE9BEEA681D0EE92666
:100AF000010EEA22E552E750EF6E1C2BDBD71C6992
:100B00002CC129F12DC12AF1EBEC0FF002D0A7EC9A
:100B100010F0120001011B513FE01CC1E9FFEA6A1D
:100B2000E9BEEA68110EE926010EEA22EF2A1CC18D
:100B3000E9FFEA6AE9BEEA68110EE926010EEA2237
:100B4000EFCF14F0170EE76E1418E8AE02D014348D
:100B500003D0E750D88014540AE21CC1E9FFEA6AC6
:100B6000E9BEEA68110EE926010EEA22EF6A1CC10D
:100B7000E9FFEA6AE9BEEA68110EE926010EEA22F7
:100B8000EF50E66E040EE66E0C0EE66E53EC0FF0C0
:100B9000E552E552E55216D101010C51060A01E178
:100BA000D6D0030A01E198D0010A01E17BD0070AFF
:100BB0003EE0010A01E006D10D2B0A0EE76E0D1989
:100BC000E8AE02D00D3503D0E750D8800D5502E2D3
:100BD000010E0D6F0DC114F0156A14BE156814C016
:100BE000E6FF15C0E6FF6B0E166E3D0E176E186A17
:100BF00016C0E6FF17C0E6FF18C0E6FF2F0EE66E30
:100C0000010EE66E95EC1FF0196E070EE15E1950AD
:100C10002F0EE66E010EE66E040EE66E0C0EE66E0C
:100C200002EC18F0E552E552E552E552CBD00E2B1E
:100C3000050EE76E0E19E8AE02D00E3503D0E75070
:100C4000D8800E5502E2010E0E6F0EC114F0156A27
:100C500014BE156814C0E6FF15C0E6FF6B0E166ED5
:100C60003D0E176E186A16C0E6FF17C0E6FF18C0E3
:100C7000E6FF2F0EE66E010EE66E95EC1FF0196E84
:100C8000070EE15E19502F0EE66E010EE66E040EA1
:100C9000E66E0C0EE66E02EC18F0E552E552E552F7
:100CA000E55290D001012C2B170EE76E2C19E8AEFF
:100CB00002D02C3503D0E750D8802C5501E22C6BA4
:100CC0002CC1E6FF040EE66E0C0EE66E53EC0FF040
:100CD000E552E552E55276D001012D2B3B0EE76E31
:100CE0002D19E8AE02D02D3503D0E750D8802D5510
:100CF00001E22D6B2DC114F0156A14BE156814C0E5
:100D0000E6FF15C0E6FF6B0E166E3D0E176E186AF5
:100D100016C0E6FF17C0E6FF18C0E6FF2F0EE66E0E
:100D2000010EE66E95EC1FF0196E070EE15E19508C
:100D30002F0EE66E010EE66E040EE66E0C0EE66EEB
:100D400002EC18F0E552E552E552E5523BD00F2B8C
:100D50001E0EE76E0F19E8AE02D00F3503D0E75034
:100D6000D8800F5502E2120E0F6F0FC114F0156AF2
:100D700014BE156814C0E6FF15C0E6FF6B0E166EB4
:100D80003D0E176E186A16C0E6FF17C0E6FF18C0C2
:100D9000E6FF2F0EE66E010EE66E95EC1FF0196E63
:100DA000070EE15E19502F0EE66E010EE66E040E80
:100DB000E66E0C0EE66E02EC18F0E552E552E552D6
:100DC000E55200D0120001011B5137E01CC1E9FFC0
:100DD000EA6AE9BEEA68110EE926010EEA22EF0688
:100DE0001CC1E9FFEA6AE9BEEA68110EE926010EB4
:100DF000EA22EFCF14F014340BE31CC1E9FFEA6AD6
:100E0000E9BEEA68110EE926010EEA22170EEF6E1E
:100E10001CC1E9FFEA6AE9BEEA68110EE926010E83
:100E2000EA22EF50E66E040EE66E0C0EE66E53EC10
:100E30000FF0E552E552E55203D101010C51060ACB
:100E400001E1C4D0030A01E18ED0010A01E179D0A9
:100E5000070A3DE0010A01E0F3D00D07010EE76E3D
:100E60000D19E8AE02D0E73402D0E7500D5D02E282
:100E70000A0E0D6F0DC114F0156A14BE156814C06A
:100E8000E6FF15C0E6FF6B0E166E3D0E176E186A74
:100E900016C0E6FF17C0E6FF18C0E6FF2F0EE66E8D
:100EA000010EE66E95EC1FF0196E070EE15E19500B
:100EB0002F0EE66E010EE66E040EE66E0C0EE66E6A
:100EC00002EC18F0E552E552E552E552B9D00E07B2
:100ED000010EE76E0E19E8AE02D0E73402D0E750FB
:100EE0000E5D02E2050E0E6F0EC114F0156A14BEFF
:100EF000156814C0E6FF15C0E6FF6B0E166E3D0EBA
:100F0000176E186A16C0E6FF17C0E6FF18C0E6FFA6
:100F10002F0EE66E010EE66E95EC1FF0196E070EB1
:100F2000E15E19502F0EE66E010EE66E040EE66EBF
:100F30000C0EE66E02EC18F0E552E552E552E55271
:100F40007FD001012C072C3502E3170E2C6F2CC12A
:100F5000E6FF040EE66E0C0EE66E53EC0FF0E55263
:100F6000E552E5526DD001012D072D3502E33B0E10
:100F70002D6F2DC114F0156A14BE156814C0E6FF5C
:100F800015C0E6FF6B0E166E3D0E176E186A16C082
:100F9000E6FF17C0E6FF18C0E6FF2F0EE66E010E53
:100FA000E66E95EC1FF0196E070EE15E19502F0EDC
:100FB000E66E010EE66E040EE66E0C0EE66E02ECB8
:100FC00018F0E552E552E552E5523AD00F07120EFD
:100FD000E76E0F19E8AE02D0E73402D0E7500F5D9C
:100FE00002E21E0E0F6F0FC114F0156A14BE1568D1
:100FF00014C0E6FF15C0E6FF6B0E166E3D0E176EB1
:10100000186A16C0E6FF17C0E6FF18C0E6FF2F0EED
:10101000E66E010EE66E95EC1FF0196E070EE15EAE
:1010200019502F0EE66E010EE66E040EE66E0C0EE3
:10103000E66E02EC18F0E552E552E552E55200D0BA
:0210400012009C
:0E1042005DEC0DF0FB0EDBCFF3FFDB06F35091
:1010500000090AE0ABEC0DF0FA0E16EC0EF0F3E12D
:10106000151CF1E1010E01D0000E8CEF0DF05DECCE
:101070000DF03B0EE12402E3E168E652E16E010E61
:10108000DB6A020EDB6AF90EDBCFF6FFFA0EDBCF6E
:10109000F7FFFB0EDBCFF8FF0800F550DF6EDF50E7
:1010A00002E1B0EF0CF0250EDF5C02E0A3EF0CF0E4
:1010B000030EDB6A040EDB6A050EDB6A060EDB6AD2
:1010C000070EDB6AC5EC0CF02D0EDF5C0CE02B0E7E
:1010D000DF5C09E0200EDF5C06E0230EDF5C03E04E
:1010E000300EDF5C1AE1DF50300A14E0130A0FE023
:1010F000030A0AE00B0A05E0060AE4E1030EDB80BE
:10110000E1D7030EDB82DED7030EDB84DBD7030ED1
:10111000DB86D8D7030EDB88D5D72A0EDF5C1BE130
:10112000C1EC0CF00FEC0DF010E0030EDB80066854
:101130000768130EDBCF0BF0140EDBCF0CF0B2EC14
:101140001AF0040E04C0DBFF03D0130EF8EC0CF011
:10115000C5EC0CF00BD0090EDB6A66EC0DF003E079
:10116000DAEC0DF0FAD7090EF8EC0CF0030EDBB058
:10117000DB982E0EDF5C1BE1C5EC0CF02A0EDF5C69
:101180000BE1C1EC0CF00FEC0DF003E1130E4AEC97
:101190000DF0C5EC0CF00BD0090EDB6A66EC0DF01F
:1011A00003E0DAEC0DF0FAD7090E4AEC0DF0680E08
:1011B000DF5C07E1C5EC0CF0680EDF5C1DE1030E9F
:1011C00018D0740EDF5C17E07A0EDF5C14E0480E76
:1011D000DF5C06E0540EDF5C03E05A0EDF5C02E1E8
:1011E000020E07D06C0EDF5C03E06A0EDF5C04E1E8
:1011F000010E9DEC0DF0C9DBDF506E0A01E17FD3DB
:101200001E0A01E192D1200A01E18FD13F0A01E1DA
:1012100049D11A0A01E146D10D0A01E143D1200A60
:1012200001E140D13A0A01E13DD1200A01E13AD180
:10123000260A01E135D10D0A01E132D11A0A01E194
:10124000D9D0200A4AE0300A1FE0460A0EE0250AFB
:1012500001E083D3D950F90FE96EFF0EDA20EA6E70
:10126000010EEE5E000EEE5AEE5AABEC0DF0250EBE
:10127000E66E95DB03E1151C01E169D3A7EC0DF0E7
:1012800001E26BD3DB2A69D3080EDB6A040EDB5064
:10129000010806E2040EDB046FEC0DF0DB508BDB83
:1012A000080EDB5009E0030EDB50010B05E172DB99
:1012B00001E04DD3080EDB6A64DBEFCFDFFF1FECEC
:1012C0000EF003E1151C01E142D3A7EC0DF001E3A0
:1012D000DB2A60DB01E141D33AD3070EDB50020881
:1012E0000FE1EBEC0DF0030EB2EC0DF00E0EEECFB5
:1012F000DBFF0F0EEECFDBFF100EEECFDBFF20D0BB
:10130000F70EDBCF17F0F80EDBCF18F0020E175EEA
:10131000000E185AF70E17C0DBFFF80E18C0DBFFDF
:1013200017C0E9FF18C0EAFFA2EC0DF0166A0E0E16
:1013300014C0DBFF0F0E15C0DBFF100E16C0DBFF65
:101340000E0EDBCFE6FF0F0EDBCFE6FF100EDBCF7E
:10135000E6FF0EEC21F0E552E552E552130E05C012
:10136000DBFF140E06C0DBFF060EDB5005E0130E9C
:10137000E6EC0DF001E26ADB0AEC0EF002E2130E7D
:1013800037DBCDEC0DF006E0040EE6EC0DF002E2EA
:10139000050E2EDB030EDBB005D0FCDA01E0D7D260
:1013A000080EDB6A090EDB6A0E0EDBCFF6FF0F0EAE
:1013B000DBCFF7FF100EDBCFF8FF0800F550DF6E34
:1013C000DF5014E010EC0EF011E21FEC0EF003E120
:1013D000151C01E1BCD2BBDB01E3DB2A090EDB2AD1
:1013E000D9500E0FE96E000ECBDBE7D7D3DA01E15F
:1013F000B4D2ADD2C6DA110EEECFDBFF120EEDCFB6
:10140000DBFF110EDBCFE6FF120EDBCFE6FF00ECB9
:1014100021F0E552E552130EF3CFDBFF140EF4CFAB
:10142000DBFF060EDB5004E0130ED0DB01E20EDB27
:101430000AEC0EF002E2130EDBDAAFDB05E0040E7D
:10144000C5DB02E2050ED4DA030EDBB005D0A2DA6A
:1014500001E07DD2080EDB6A090EDB6A110EDBCFDC
:10146000E9FF120EDBCFEAFFEFCFDFFFDF5014E022
:10147000D7DB12E2E4DB03E1151C01E168D267DB94
:1014800001E3DB2A090EDB2A110EDB2ADBCFE9FFA1
:10149000120EE8E3DB2AE6D77DDA01E15ED257D20D
:1014A000030EDB8E070EDB0410E195DB040E5ADB26
:1014B0000A0EEECFDBFF0B0EEECFDBFF0C0EEECFF6
:1014C000DBFF0D0EEECFDBFF6CD0070EDB50030809
:1014D0002CE1030EDBAE0DD0B2DA020E76DAEFCFDE
:1014E00014F0156A166A176A14AE39D015681668B2
:1014F00035D0F70EDBCF15F0F80EDBCF16F0020E6D
:10150000155E000E165AF70E15C0DBFFF80E16C05A
:10151000DBFF15C0E9FF16C0EAFFEFCF14F00A0E9B
:1015200014C0DBFF0B0EDB6A38D0070EDB5002085D
:1015300009E1030EDBAE04D059DB16AE10D00ED09D
:1015400055DB0DD0030EDBAE12D079DA020E3DDA98
:10155000F9DA166A176A15AE02D016681768E2DA69
:101560000C0E16C0DBFF0D0E17C0DBFF1AD0F70EF6
:10157000DBCF16F0F80EDBCF17F0020E165E000E72
:10158000175AF70E16C0DBFFF80E17C0DBFF16C0A8
:10159000E9FF17C0EAFFD6DAC5DA0C0EDB6A0D0EDA
:1015A000DB6A060EDB5005E1010EF36E050EF3CF8C
:1015B000DBFF150EDB6A160EDB6AD950370F146E8F
:1015C000000EDA20156E390E14C0DBFF3A0E15C07E
:1015D000DBFF380EDB6A080EDB6A0A0EAEDADF507C
:1015E000780A12E0200A10E0280A0CE0200A0AE03B
:1015F0003F0A06E00D0A02E0200A08E1020E05D0CB
:10160000080E03D0080EDF26100E97DA030EDBBE9D
:1016100002D0DB92DB94DB50800B24E08ADAD89096
:10162000030EEB50000A08E6000EEE5C000EEE58CA
:10163000000EEE58000EEE5815E213DA09680A683B
:101640000B680C68C8EC20F00A0E00C0DBFF0B0E24
:1016500001C0DBFF0C0E02C0DBFF0D0E03C0DBFF81
:101660002D0E08D0030EDBA202D02B0E03D0DBA47C
:1016700008D0200EF36E170EF3CFDBFF150EDB2A1A
:1016800002D0170EDB6A050EDB5003E1B7D901E18A
:1016900089D02E0E146E440E156E000E166E070EB7
:1016A000DBCF17F0186A196A1A6A17C009F018C058
:1016B0000AF019C00BF01AC00CF0D3D965EC21F078
:1016C00014500024F36E15500120F46E16500220C1
:1016D000F86EF4CFF7FFF3CFF6FF0800090EF5CF51
:1016E000DBFF580EDF5C0FE1610EF36E090E7BD954
:1016F0000AE3200E146E090EDBCFE7FF1450E75EFD
:10170000090EE7CFDBFF070EDBCF14F0156A166A70
:10171000176A0FDA14C009F015C00AF016C00BF0F2
:1017200017C00CF0EECF04F0EECF05F0EECF06F0D0
:10173000EFCF07F065EC21F007C0EDFF06C0EDFF2D
:1017400005C0EDFF04C0EFFF390EDBCFE9FFDB067C
:101750003A0EDBCFEAFF01E2DB06090EDBCFEFFF3B
:10176000150EDB2A4BD995E1030EDBA61DD06F0EBB
:10177000DF5C06E1C1D918E3150EDB285BDA14D073
:10178000780EDF5C09E0580EDF5C06E0620EDF5C7D
:1017900003E0420EDF5C08E1020EF36E160EF3CF9B
:1017A000DBFF02D0150EDB6A030EDB50100B0EE0E0
:1017B000040EDBCF14F0050EDB50D880145406E283
:1017C000060EDB5003E1040EDB5034DA95D90AE251
:1017D000050EDBCFE7FF150EDB50E75E050EE7CF0A
:1017E000DBFF02D0050EDB6A040EDBCF14F0160E11
:1017F00045D9D880145414E2160EDBCFE6FF150E3F
:10180000DBCFE6FF040EDBCFE6FF050EDB50E55233
:10181000E75CE552D880E754E552D880E7545FD9B9
:10182000030EDB50010B0BE1080EDB5008E0B2D8D1
:1018300001E08DD0080EDB50BED8080EDB6A170E13
:10184000DB5007E088D9170EF1D903E1151C01E13F
:101850007ED0160EDB5016E07ED9300EE66E9FD895
:1018600002E1151C74E077D9DFCFE6FF86EC20F0AB
:10187000E552E552E552F4CF15F00001F31C02E108
:10188000151C65E0050EDBCF14F0160EDB50D8807A
:10189000145409E2050EDBCFE7FF160EDB50E75EBE
:1018A000050EE7CFDBFF300EE66E050ECBD94FE11C
:1018B000390EDB2ADBCFE9FF3A0E01E3DB2ADBCF6F
:1018C000EAFF090EEFCFDBFFDB500EE044D9090E33
:1018D000ADD902E1151C3BE0390EDB2ADBCFE9FF75
:1018E0003A0EEDE3DB2AEBD755D831E1160EDBCF0C
:1018F000E6FF080EC3D8E552E7245DD82ED0070EC8
:10190000DB50030A1CE0010A14E0030A07E07BD95C
:10191000DBCFEEFF020EDBCFEDFF1FD0F5D8196A4B
:1019200017AE02D0186819682CD8BCD819C0EEFFC1
:1019300014D0EAD817BE186824D8B4D80ED063D90A
:10194000DBCFEFFF0AD07BD905E1151C03E1F3687B
:10195000F46810D0FCD801E3DB2A79D94CEF08F009
:10196000010EDBCF14F0020EDBCF15F014C0F3FF35
:1019700015C0F4FF3B0EE15C02E2E16AE552E16E64
:10198000CBD029D9020EB2EF0DF061D90800F55085
:10199000DF6E1200200EE66E080E22EF0EF086ECCF
:1019A00020F0E552E552E552F3CF14F0F4CF15F0F4
:1019B0000001F31C1200146E156AD950010F4DD9A5
:1019C0001450EE261550ED221200185E000E195A22
:1019D000F70E18C0DBFFF80E19C0DBFF18C0E9FFD7
:1019E00019C0EAFF1200DBCFF4FFF350F45C1200E1
:1019F000DB50E76E040EE7CFDBFF12000A0EDBCFF1
:101A000014F00B0EDBCF15F00C0EDBCF16F00D0E25
:101A1000DBCF17F014501510161017101200130E0C
:101A2000EECFDBFF140EEDCFDBFF130EDBCF14F098
:101A3000140EDBCF15F00001800E15141200F70E06
:101A4000DBCF18F0F80EDBCF19F01200050EDB50DB
:101A5000E66ED950130F01D9E552E750EE6EED6AEC
:101A600012000A0EDBCF04F00B0EDBCF05F00C0EDC
:101A7000DBCF06F00D0EDBCF07F01200DBCFE6FF69
:101A8000150EDBCFE6FF050EDB50E552E724E552ED
:101A9000E7241200DB50CED8010EF36E060EF3CF12
:101AA000DBFF1200EE50EFCFEAFFE96E16C0EEFF4B
:101AB00017C0EEFF18C0EEFF1200D9CFE6FFDACF55
:101AC000E6FFE1CFD9FFE2CFDAFF1200DFCFE6FF7A
:101AD000E66ABEEC21F0E552E552F3501200E76EE3
:101AE000080EE7CFDBFF1200EECF14F0EECF15F0BB
:101AF000EFCF16F0176A1200050EDBCF14F0150EAB
:101B0000DB50D88014541200010EDBCF16F0020E09
:101B1000DBCF17F0186A1200E552E5CFDAFFE7CF06
:101B2000D9FF12000A0E14C0DBFF0B0E15C0DBFF3D
:101B30001200D9500A0F2DEF0EF0F36E070EF3CFFF
:101B4000DBFF1200EECF14F0EFCF15F01200010E04
:101B5000DB2A020E1200FC0EDBCFE6FFFD0EDBCF10
:101B6000E6FF1200145E000E155AF70E14C0DBFFDC
:101B7000F80E15C0DBFF14C0E9FF15C0EAFF120024
:101B8000DA20EA6EEF2AEECFF6FF000EEF22EECF5C
:101B9000F7FFEF22EECFF8FF1200040EDBCFE6FFD7
:101BA000130EDB50E552E75C9ADFDB5004DF060ED4
:101BB000DB501200090EDB500A0DF350DF24D00F6A
:101BC000E76E090EE7CFDBFFC5EF0CF0DB50F36EDD
:101BD000050EF3EF0CF0F70EDBCF14F0F80EDBCFB1
:101BE00015F01200DFCFE6FFCFEF0CF028DF030E79
:101BF000ECDE74EF0DF021EC08F0E552E552E55211
:101C0000E55200091200BDDEEE50EFCFEAFFE96EAB
:101C1000010E1200130EDB50F36E040EF3EF0CF006
:101C2000040EDB50F36E090EF3EF0CF0DBCFE6FF92
:101C3000CFEF0CF0E76E050EE7CFDBFF12008BDF76
:101C4000F2EF0DF0DBCFE6FF86DFFBEF0DF0D950B2
:101C5000F90FE96EFF0EC0EF0DF0E96E000EDA200D
:041C6000EA6E120016
:0C1C6400D9CFE6FFE1CFD9FF020EE12648
:101C7000C9EC1BF0F3CFDEFFF4CFDDFFDECF14F0B5
:101C8000DDCF15F00AC116F0176A16BE1768175097
:101C90001518E8AE02D0153404D01450165C155057
:101CA000175802E28C8401D08C94DECFE6FFDDCFA2
:101CB000E6FF240E146E3F0E156E166A14C0E6FF82
:101CC00015C0E6FF16C0E6FF2F0EE66E010EE66EAB
:101CD00095EC1FF0176E070EE15E1750DECFE6FFA2
:101CE000DDCFE6FF020EE66E64EC03F0E552E5524E
:101CF000E5522F0EE66E010EE66E010EE66E0F0E39
:101D0000E66E02EC18F0E552E552E552E552E66A5D
:101D1000010EE66E110EE66EBBEC17F0E552E552D1
:101D2000E552430EE66E010EE66E120EE66EF3EC21
:101D300016F0E552E552E552020EE15C02E2E16A7C
:101D4000E552E16EE552E7CFD9FF120001012951BA
:101D50001FE12AC114F0156A14BE156814C0E6FF0D
:101D600015C0E6FF1A0E166E3F0E176E186A16C0E3
:101D7000E6FF17C0E6FF18C0E6FF2F0EE66E010E65
:101D8000E66E95EC1FF0196E070EE15E19507CD0DF
:101D90000C0E295D1FE12AC114F0156A14BE1568E6
:101DA00014C0E6FF15C0E6FF100E166E3F0E176E4C
:101DB000186A16C0E6FF17C0E6FF18C0E6FF2F0E30
:101DC000E66E010EE66E95EC1FF0196E070EE15EF1
:101DD00019505AD00C0EE76E2919E8AE02D0E7343C
:101DE00002D0E750295D28E22AC114F0156A14BE1A
:101DF000156814C0E6FF15C0E6FF29C116F0176A82
:101E000016BE176816C0E6FF17C0E6FF040E186E70
:101E10003F0E196E1A6A18C0E6FF19C0E6FF1AC015
:101E2000E6FF2F0EE66E010EE66E95EC1FF01B6EC0
:101E3000090EE15E1B5028D02AC114F0156A14BEA9
:101E4000156814C0E6FF15C0E6FF0C0E295D166E7E
:101E5000176A16BE176816C0E6FF17C0E6FFF80E31
:101E6000186E3E0E196E1A6A18C0E6FF19C0E6FF1A
:101E70001AC0E6FF2F0EE66E010EE66E95EC1FF01F
:101E80001B6E090EE15E1B502F0EE66E010EE66E14
:101E9000010EE66E020EE66E02EC18F0E552E55217
:101EA000E552E5521200D9CFE6FFE1CFD9FFFC0E93
:101EB000DB5016E1F30E146E3E0E156E166A14C05A
:101EC000E6FF15C0E6FF16C0E6FF2F0EE66E010E18
:101ED000E66E95EC1FF0176E050EE15E175067D0A9
:101EE000FC0EDB500C0816E1EE0E146E3E0E156E65
:101EF000166A14C0E6FF15C0E6FF16C0E6FF2F0EF7
:101F0000E66E010EE66E95EC1FF0176E050EE15EB3
:101F100017504DD0FC0EDBCF14F00C0EE76E1418EA
:101F2000E8AE02D0E73402D0E750145C20E2FC0EA9
:101F3000DBCF14F0156A14BE156814C0E6FF15C097
:101F4000E6FFE80E166E3E0E176E186A16C0E6FF24
:101F500017C0E6FF18C0E6FF2F0EE66E010EE66E14
:101F600095EC1FF0196E070EE15E195020D0FC0EA3
:101F7000DB50F40F146E156A14BE156814C0E6FF2A
:101F800015C0E6FFE20E166E3E0E176E186A16C0FA
:101F9000E6FF17C0E6FF18C0E6FF2F0EE66E010E43
:101FA000E66E95EC1FF0196E070EE15E19502F0ECC
:101FB000E66E010EE66EFD0EDBCFE6FFFE0EDBCF1A
:101FC000E6FF02EC18F0E552E552E552E552E55223
:101FD000E7CFD9FF1200BADE08C114F0156A14BEAB
:101FE000156814C0E6FF15C0E6FFD50E166E3E0E4E
:101FF000176E186A16C0E6FF17C0E6FF18C0E6FFA6
:102000002F0EE66E010EE66E95EC1FF0196E070EB0
:10201000E15E19502F0EE66E010EE66E030EE66EBF
:10202000040EE66E02EC18F0E552E552E552E55278
:1020300009C114F0156A14BE156814C0E6FF15C076
:10204000E6FFC80E166E3E0E176E186A16C0E6FF43
:1020500017C0E6FF18C0E6FF2F0EE66E010EE66E13
:1020600095EC1FF0196E070EE15E19502F0EE66E0B
:10207000010EE66E040EE66EE66E02EC18F0E55216
:10208000E552E552E552120001011C29146E156A51
:1020900014BE156814C0E6FF15C0E6FFB70E166E35
:1020A0003E0E176E186A16C0E6FF17C0E6FF18C08E
:1020B000E6FF2F0EE66E010EE66E95EC1FF0196E30
:1020C000070EE15E19502F0EE66E010EE66E030E4E
:1020D000E66E040EE66E02EC18F0E552E552E552AB
:1020E000E552AA0E146E3E0E156E166A14C0E6FF77
:1020F00015C0E6FF16C0E6FF2F0EE66E010EE66E77
:1021000095EC1FF0176E050EE15E17502F0EE66E70
:10211000010EE66E040EE66EE66E02EC18F0E55275
:10212000E552E552E5521CC1E9FFEA6AE9BEEA68F8
:10213000110EE926010EEA22EF50E66E040EE66E5D
:102140000C0EE66EB0DEE552E552E55212000101DA
:102150000C05146E156A14BE15680F0E1502F3CF28
:1021600015F01402F3CF14F0F4501526680E14265F
:10217000000E152214C0E6FF15C0E6FFA20E166E73
:102180003E0E176E186A16C0E6FF17C0E6FF18C0AD
:10219000E6FF2F0EE66E010EE66E95EC1FF0196E4F
:1021A000070EE15E19502F0EE66E010EE66E030E6D
:1021B000E66E040EE66E02EC18F0E552E552E552CA
:1021C000E552940E146E3E0E156E166A14C0E6FFAC
:1021D00015C0E6FF16C0E6FF2F0EE66E010EE66E96
:1021E00095EC1FF0176E050EE15E17502F0EE66E90
:1021F000010EE66E040EE66EE66E02EC18F0E55295
:10220000E552E552E55201010C51060A01E19BD06D
:10221000030A6CE0010A5FE0070A30E0010A01E00E
:10222000BFD00DC114F0156A14BE156814C0E6FFC6
:1022300015C0E6FF900E166E3E0E176E186A16C099
:10224000E6FF17C0E6FF18C0E6FF2F0EE66E010E90
:10225000E66E95EC1FF0196E070EE15E19502F0E19
:10226000E66E010EE66E040EE66E0C0EE66E02ECF5
:1022700018F0E552E552E552E55292D00EC114F045
:10228000156A14BE156814C0E6FF15C0E6FF900E6F
:10229000166E3E0E176E186A16C0E6FF17C0E6FFF0
:1022A00018C0E6FF2F0EE66E010EE66E95EC1FF0ED
:1022B000196E070EE15E19502F0EE66E010EE66EE6
:1022C000040EE66E0C0EE66E02EC18F0E552E552D6
:1022D000E552E55265D02CC1E6FF040EE66E0C0E09
:1022E000E66EE1DDE552E552E5525AD02AC114F01E
:1022F000156A14BE156814C0E6FF15C0E6FF900EFF
:10230000166E3E0E176E186A16C0E6FF17C0E6FF7F
:1023100018C0E6FF2F0EE66E010EE66E95EC1FF07C
:10232000196E070EE15E19502F0EE66E010EE66E75
:10233000040EE66E0C0EE66E02EC18F0E552E55265
:10234000E552E5522DD00FC114F0156A14BE156880
:1023500014C0E6FF15C0E6FF900E166E3E0E176E17
:10236000186A16C0E6FF17C0E6FF18C0E6FF2F0E7A
:10237000E66E010EE66E95EC1FF0196E070EE15E3B
:1023800019502F0EE66E010EE66E040EE66E0C0E70
:10239000E66E02EC18F0E552E552E552E55200D047
:1023A0001200D9CFE6FFE1CFD9FF040EE1260001EC
:1023B0006551030A01E19ED0010A01E191D0030AAF
:1023C0000DE0010A01E018D1010EE66EE66A02ECAA
:1023D0001BF0E552E5520001652B0ED134EC1BF0E9
:1023E000F3CFDEFFF4CFDDFFDECF14F0DDCF15F04D
:1023F0000001800E151405E0020EDB6A030EDB6A95
:1024000053D0DECF14F0DDCF15F0D890155004E690
:102410000A0E145C000E155808E2040EF36E020E4C
:10242000F3CFDBFF030EDB6A3FD0DECF14F0DDCF4E
:1024300015F0D890155004E60F0E145C000E1558D8
:1024400008E2030EF36E020EF3CFDBFF030EDB6A2E
:102450002BD0DECF14F0DDCF15F0D890155004E668
:10246000140E145C000E155807E2020EF36EF3CF43
:10247000DBFF030EDB6A18D0DECF14F0DDCF15F0E2
:10248000D890155004E6190E145C000E155808E299
:10249000010EF36E020EF3CFDBFF030EDB6A04D0F6
:1024A000020EDB6A030EDB6A0001652B020EDBCF36
:1024B000E6FF140EE66E060EE66E6DEC18F0E552C1
:1024C000E552E552020EDBCFE6FF030EDBCFE6FF5F
:1024D000050EE66E64EC03F0E552E552E5528CD051
:1024E000020EE66EE66A02EC1BF0E552E5520001D0
:1024F000652B82D034EC1BF0F3CFDEFFF4CFDDFF91
:10250000DECF14F0DDCF15F00001800E151405E0CC
:10251000020EDB6A030EDB6A53D0DECF14F0DDCF90
:1025200015F0D890155004E60A0E145C000E1558EC
:1025300008E2040EF36E020EF3CFDBFF030EDB6A3C
:102540003FD0DECF14F0DDCF15F0D890155004E663
:102550000F0E145C000E155808E2030EF36E020E07
:10256000F3CFDBFF030EDB6A2BD0DECF14F0DDCF21
:1025700015F0D890155004E6140E145C000E155892
:1025800007E2020EF36EF3CFDBFF030EDB6A18D017
:10259000DECF14F0DDCF15F0D890155004E6190EFB
:1025A000145C000E155808E2010EF36E020EF3CF14
:1025B000DBFF030EDB6A04D0020EDB6A030EDB6A6C
:1025C000020EDBCFE6FF440EE66E060EE66E6DEC05
:1025D00018F0E552E552E5520001656B020EDBCFC3
:1025E000E6FF030EDBCFE6FF040EE66E64EC03F0BD
:1025F000E552E552E55200D0040EE15C02E2E16AE8
:0C260000E552E16EE552E7CFD9FF120071
:04260C0000000000CA
:102610000000005F00000000000700070000147FBA
:10262000147F1400242A7F2A1200231308646200F6
:102630003649552250000005030000001C224100CD
:10264000000041221C000000082A1C2A080008087B
:102650003E080800A0600000000008080808080004
:102660006060000000002010080402003E5149454F
:102670003E0000427F40000062514949460022412D
:10268000494936001814127F100027454545390086
:102690003C4A49493000017109050300364949495E
:1026A0003600064949291E0000363600000000ACFD
:1026B0006C000000081422410000141414141400CB
:1026C00041221408000002015109060032497941F3
:1026D0003E007E0909097E007F49494936003E4196
:1026E000414122007F4141221C007F49494941006C
:1026F0007F09090901003E41415172007F08080825
:102700007F0000417F4100002040413F01007F08E1
:10271000142241007F40404040007F020C027F00B5
:102720007F0408107F003E4141413E007F090909B6
:1027300006003E4151215E007F09192946002649C5
:102740004949320001017F0101003F4040403F0004
:102750001F2040201F003F4038403F0063140814F2
:1027600063000304780403006151494543007F413D
:102770004100000002040810200041417F000000D9
:1027800004020102040080808080800001020400B5
:1027900000002054545478007F48444438003844A2
:1027A00044280000384444487F00385454541800EA
:1027B000087E0902000018A4A4A47C007F08040479
:1027C0007800007D0000000080847D0000007F1004
:1027D00028440000417F400000007C041804780079
:1027E0007C08047C0000384444380000FC24241891
:1027F0000000182424FC0000007C08040000485459
:1028000054240000047F440000003C40407C000051
:102810001C2040201C003C4030403C004428102834
:1028200044001CA0A07C00004464544C44000836C2
:1028300041000000007F0000000041360800000059
:102840000201010201000205050200000E11110E35
:102850000000347A70747A30387C7E7C3800000056
:102860000000000000000000000000000000000068
:102870000000000000000000000000000000000058
:102880000000000000000000000000000000000048
:1028900000000080C06020FC120AFA8909090909B9
:1028A00089FA0A16FC2040C08000000000000000E9
:1028B0000000000000000000000000000000000018
:1028C0000000000000000000000000000000000008
:1028D00000000000000000000000000000000000F8
:1028E00000000000000000000000000000000000E8
:1028F00000000000000000000000000000000000D8
:102900000000000000000000000000000080C04047
:10291000E01C83611009080F18101011111111111A
:10292000111010080F08091061863CE040C08000BB
:102930000000000000000000000000000000000097
:102940000000000000000000000000000000000087
:102950000000000000000000000000000000000077
:102960000000000000000000000000000000000067
:102970000000000000000000000000000000000057
:1029800000000000000000000000000006193F20C9
:102990003FE0FF00400E19191E0E0000800000806D
:1029A00000001E19191E0C4000FF602F201F0F0091
:1029B0000000000000000000000000000000000017
:1029C0000000000000000000000000000000000007
:1029D00000000000000000000000000000000000F7
:1029E00000000000000000000000000000000000E7
:1029F00000000000000000000000000000000000D7
:102A000000000000000000000000000000000000C6
:102A10000080818284C848505050D0E0A1A1A1A17B
:102A2000E0D050505048CC8482810000000000006B
:102A30000000000000000000000000000000000096
:102A40000000000000000000000000000000000086
:102A50000000000000000000000000000000000076
:102A60000000000000000000000000000000000066
:102A70000000000000000000000000000000000056
:102A8000000000C060C08080808040A05844C23FE9
:102A900047BB95A77E3903E41808C425A2A2A2A2C9
:102AA00025C40838C6033D6EA5A59B47FA0C84745F
:102AB0002C1810080810100834C484F80000000016
:102AC0000000000000000000000000000000000006
:102AD00000000000000000000000000000000000F6
:102AE00000000000000000000000000000000000E6
:102AF0000000000000000000000000804000E0D066
:102B0000D0704F0010180100008001101800035C05
:102B1000F0838F982040808F3040C68892A4B49272
:102B200088C760308F8040209887828488BF40802B
:102B30008CCC00B0B0008C8C8040FF50D0E0404086
:102B40008000000000000000000000000000000005
:102B50000000000000000000000000000000000075
:102B60000000000000000000000000000000000065
:102B70000000000000000000000000031E2D43C004
:102B8000A15B94A47818101091D1101008C87CC7CC
:102B90000F1414182913162C3F65CD9AF292D2B255
:102BA0008ACD673D241211391814141CCE633FC11D
:102BB000000001C0E0010158A5975E21E0432DDE31
:102BC0002320C00000000000000000000000000002
:102BD00000000000000000000000000000000000F5
:102BE00000000000000000000000000000000000E5
:102BF0000000000000000000000C122121324E3EB7
:102C0000296544493E2060403F2060403C7B4C6742
:102C100008381030302020203E61C080A17E67A19E
:102C20008040613E20202020301038386F64483BBF
:102C30002C60403F2040602E3B48652D3F282423D8
:102C4000110D07000000000000000000000000005F
:0E2C5000000000000000000000000000000076
:022C5E000F0164
:102C60003B9D3B9B3B998C8C8C9A8C88959C959A30
:102C700095983A973A9B8B968B9A9496949A800E55
:102C8000E66EE66AE66A33EC21F0E552E552E5527B
:102C90001200D9CFE6FFE1CFD9FF8C9CFE0EDBCF2F
:102CA000E6FF89EC21F0E552C7A0FED78C8CE552F7
:102CB000E7CFD9FF1200D9CFE6FFE1CFD9FF8C9A39
:102CC000FE0EDBCFE6FFE5DFE552E552E7CFD9FFA9
:102CD0001200D9CFE6FFE1CFD9FF8C8AFE0EDBCF01
:102CE000E6FFD7DFE552E552E7CFD9FF12008C9817
:102CF000010EE66EA7EC21F0E5528C88AE0EE66E72
:102D0000DADFE552A80EE66ED6DFE5523F0EE66E3C
:102D1000D2DFE552D30EE66ECEDFE552E66ACBDFB8
:102D2000E552400EE66EC7DFE552A10EE66EC3DF48
:102D3000E552C80EE66EBFDFE552DA0EE66EBBDF87
:102D4000E552120EE66EB7DFE552810EE66EB3DF96
:102D5000E5527F0EE66EAFDFE552A40EE66EABDF06
:102D6000E552A60EE66EA7DFE552D50EE66EA3DFAE
:102D7000E552800EE66E9FDFE5528D0EE66E9BDF1C
:102D8000E552140EE66E97DFE552AF0EE66E93DF66
:102D9000E5521200AE0EE66E8EDFE5521200AF0E67
:102DA000E66E89DFE5521200D9CFE6FFE1CFD9FF09
:102DB000FD0EDB50B00FE66E7EDFE552FE0EDB50FF
:102DC000020FF00BE8380F0B1009E66E74DFE552C6
:102DD000FE0EDB50020F0F0BE66E6DDFE552E55283
:102DE000E7CFD9FF1200D9CFE6FFE1CFD9FFE652F6
:102DF000FD0EDBCFE6FFFE0EDB50060DF350E66E58
:102E0000D3DFE552E552FC0EDBCF14F0200EE76E67
:102E10001418E8AE02D0E73402D0E750145C0EE399
:102E2000FC0EDBCF15F07F0EE76E1518E8AE02D072
:102E3000153403D0E750D880155405E2200EF36E08
:102E4000FC0EF3CFDBFFDF6ADFCF14F0060EE76E78
:102E50001418E8AE02D0E73402D0E750145C26E242
:102E6000FC0EDB50E00F146E156A14BE1568060EDA
:102E70001502F3CF15F01402F3CF14F0F450152619
:102E80000C0E1426260E1522DFCF16F0176A16BE7A
:102E9000176814501624F66E15501720F76E0800A8
:102EA000F550E66E16DFE552DF2ACED7E552E55241
:102EB000E7CFD9FF1200D9CFE6FFE1CFD9FF030E4C
:102EC000E126020EDB6ADBCF14F0080EE76E141861
:102ED000E8AE02D0E73402D0E750145C1FE2010EE6
:102EE000DB6ADBCF14F0160EE76E1418E8AE02D0E2
:102EF000E73402D0E750145C0EE2E66A020EDBCF44
:102F0000E6FF010EDBCFE6FF6EDFE552E552E5524C
:102F1000010EDB2AE6D7020EDB2AD5D7030EE15CD1
:102F200002E2E16AE552E16EE552E7CFD9FF120015
:102F3000D9CFE6FFE1CFD9FFE652DF6ADFCF14F049
:102F4000160EE76E1418E8AE02D0E73402D0E75050
:102F5000145C0CE2E66AFE0EDBCFE6FFDFCFE6FF95
:102F600042DFE552E552E552DF2AE8D7E552E55265
:102F7000E7CFD9FF1200D9CFE6FFE1CFD9FFE65264
:102F8000FD0EDBCFE6FFFE0EDB50060DF350E66EC6
:102F90000BDFE552E552DF6ADFCF14F0060EE76E75
:102FA0001418E8AE02D0E73402D0E750145C25E2F2
:102FB000FC0EDBCF14F0156A14BE1568060E150260
:102FC000F3CF15F01402F3CF14F0F45015264C0E85
:102FD0001426280E1522DFCF16F0176A16BE1768C2
:102FE00014501624F66E15501720F76E0800F55091
:102FF000E66E6FDEE552DF2ACFD7E552E552E7CF26
:10300000D9FF1200D9CFE6FFE1CFD9FFFB0EDBCF0E
:10301000E9FFFC0EDBCFEAFFEF5018E0FB0EDBCF41
:10302000E9FFDB2AFC0EDBCFEAFF01E3DB2AEF50EE
:10303000E66EFD0EDBCFE6FFFE0EDBCFE6FFD3DE56
:10304000E552E552E552FE0EDB2AE0D7E552E7CF26
:10305000D9FF1200D9CFE6FFE1CFD9FF020EE1265A
:10306000DF6A080EDF5C2FE2DFCFE6FFE66A9CDE58
:10307000E552E552010EDB6ADB50146E156AD890FA
:10308000155004E6800E145C000E15581AE2DF504D
:10309000800DF3CF14F0F4CF15F05E0E1426280E39
:1030A0001522010EDB500F011424F66E000E1520C0
:1030B000F76E0800F550E66E0CDEE552010EDB2AD5
:1030C000DBD7DF2ACED7020EE15C02E2E16AE552ED
:1030D000E16EE552E7CFD9FF1200D9CFE6FFE1CF8D
:1030E000D9FF040EE126F36E020EF3CFDBFF080ECC
:1030F000F36E030EF3CFDBFFFE0EDBCFE6FFFD0E1C
:10310000DBCFE6FF51DEE552E5527F0EE66EE1DDF4
:10311000E552010EDB6ADBCF14F0FC0EDB50E76EEC
:103120001418E8AE02D0E73402D0E750145C2AE26B
:10313000FE0EDBCFE6FF030EDBCFE6FF010EDB501A
:10314000E552E702F3CF14F0FD0EDB281424E66EFF
:103150002BDEE552E552DF6ADFCF14F0030EDB50C1
:10316000E76E1418E8AE02D0E73402D0E750145CE2
:1031700006E27F0EE66EADDDE552DF2AEDD7010EE9
:10318000DB2AC9D7FC0EDB50E76E010EE7CFDBFF71
:10319000DBCF14F0020EDB50E76E1418E8AE02D05D
:1031A000E73402D0E750145C2AE2FE0EDBCFE6FFE4
:1031B000030EDBCFE6FF010EDB50E552E702F3CF53
:1031C00014F0FD0EDB281424E66EEEDDE552E55228
:1031D000DF6ADFCF14F0030EDB50E76E1418E8AEA1
:1031E00002D0E73402D0E750145C06E2410EE66EEE
:1031F00070DDE552DF2AEDD7010EDB2AC9D77F0E3D
:10320000E66E67DDE552040EE15C02E2E16AE5523A
:0A321000E16EE552E7CFD9FF12008E
:06321A000F9E08D00F9E7C
:1032200007AE05D0066C071EE86A07220F8E07C09E
:1032300001F006C000F0136A126A8E0E026E036A75
:1032400048EF1AF00F9E0CD00F9E07AE09D0046C09
:10325000051E061E071EE86A0522062207220F8E9B
:1032600007C001F006C000F005C013F004C012F062
:103270009E0E026E036A48EF1AF00F6A84EC1AF091
:103280009CEC1AF00FB62CEF1AF00FA205D00FBA73
:103290002CEF1AF033EF1AF00FBA3FEF1AF00FA02D
:1032A00005D00FB82CEF1AF03FEF1AF00FB833EF3C
:1032B0001AF0036A7F0E0824026EE86A03220D509A
:1032C000025EE86A035A1A0E106E086A126A136ADE
:1032D000006A016A0A50055E0B50065A0C50075AE4
:1032E000000E085A09E70A5005260B5006220C501A
:1032F0000722000E082201D0128AD8900536063621
:1033000007360836D8901236133600360136102E9E
:10331000E1D7075006100510D8A4128A48EF1AF01A
:103320000F6A84EC1AF09CEC1AF00FB62CEF1AF02E
:103330000FA205D00FB82CEF1AF033EF1AF00FAA36
:1033400005D00FB02CEF1AF033EF1AF00FB002D007
:103350000FA802D03FEF1AF0036A0D500824026E46
:10336000E86A03227E0E025EE86A035A126A136A52
:10337000006A016A0C500702F4CF01F0F3CF00F0AD
:103380000B500702F3501326F4500022000E0122C6
:103390000C500602F3501326F4500022000E0122B6
:1033A0000A500702F3501226F4501322000E002296
:1033B00001220B500602F3501226F4501322000E85
:1033C000002201220C500502F3501226F450132261
:1033D000000E002201220A500602F4501226000EAE
:1033E0001322002201220B500502F4501226000E77
:1033F00013220022012248EF1AF00F6A84EC1AF01F
:103400000FB607EF1AF00FA20ED00FB405D07F0E43
:10341000076EFF0E066E1FD0800E076E066A1BD069
:10342000076A066A18D00FB0FBD78F0E0860EDD779
:103430007E0E0864F5D78E0E085C05E0D890073242
:103440000632082AF8D70FA406D0066C071EE86AD1
:10345000072207AEE5D712007F0E086EFF0E076E3B
:10346000066E056E12007F0E0FBEFF0E086E02D0B4
:103470007F0E086E800E076E066A056AF3D70FAEE0
:1034800004D0800E086E076AF7D7086A076AF4D777
:103490000150001013101210F8E003BEF0D701BE67
:1034A0000CD002500310EBE0D890123613360036E1
:1034B00001360206D8A00306F2D70350D4E1022851
:1034C000D2E012AE11D07F0E121402E113A00CD084
:1034D000132AE86A0022012207E3D8800132003271
:1034E0001332022A0228BFE00250C9E013C005F0DF
:1034F00000C006F00134076E0230086E0732089EE5
:103500000FBE088E32EF1AF00736083602E30F843A
:103510000F7E06E10F80086A076A066A056A1200D4
:10352000082803E0D88007321200D890073202E161
:103530000F8212000F8612000C360D3602E30F8C3C
:103540000F7E06E10F880D6A0C6A0B6A0A6A120088
:103550000D2803E0D8800C321200D8900C32EAE13A
:103560000F8A120007C013F006C012F006500B02BB
:10357000F4CF05F0F3CF04F007500C02F4CF07F0BE
:10358000F3CF06F00B02F3500526F4500622E86A4A
:10359000072212500C02F3500526F4500622E86A66
:1035A00007220CAED8EF1AF01250065E1350075ADD
:0E35B00013AE000C0B50065E0C50075A000CB8
:0235BE00010EFC
:1035C000C26EC16AA90EC06EBA6AFC0EBA140209B4
:1035D000BA6E870EBA140009BA6EBB68BC6A9E92B6
:1035E0009D82BA940F013B918C9095903B938C9265
:1035F00095929380F18CF292F2889382F18AF09006
:10360000F0861200D9CFE6FFE1CFD9FF0001C66BEB
:103610000001C76BD950FD0FE96EFF0EDA20EA6E8C
:10362000010EEE1801E1ED5008E1F18C8C80010EE5
:10363000E66E0CEC22F0E5528C90D950FD0FE96E4D
:10364000FF0EDA20EA6E020EEE1801E1ED5008E1FD
:10365000F18A8C82010EE66E0CEC22F0E5528C921F
:10366000E552E7CFD9FF1200D9CFE6FFE1CFD9FF6E
:10367000020EE126DE6ADD6A0001C75163E0C2C0C6
:1036800004F0C3C005F0C4C006F0C5C007F022ECCA
:1036900019F005C01CF006C01DF007C01EF008C0E0
:1036A0001FF00A6A0B6A800E0C6E410E0D6E1CC074
:1036B00005F01DC006F01EC007F01FC008F090EC1A
:1036C00019F005C018F006C019F007C01AF008C0BC
:1036D0001BF0280E0A6E7E0E0B6E0C0E0C6E3D0E4D
:1036E0000D6E18C005F019C006F01AC007F01BC017
:1036F00008F090EC19F005C014F006C015F007C0F2
:1037000016F008C017F00A6A0B6A0C6A400E0D6EBC
:1037100014C005F015C006F016C007F017C008F079
:103720003DEC19F0FDEC19F006C0DEFF07C0DDFF2F
:10373000DECF14F0DDCF15F014C0F3FF15C0F4FF99
:1037400004D003D0F368F46800D0020EE15C02E21A
:10375000E16AE552E16EE552E7CFD9FF1200D9CF19
:10376000E6FFE1CFD9FFFE0EDB501F0BF36EF346F1
:10377000F346830EC214F310C26EC282C2B2FED7E9
:10378000C3CFF3FFC4CFF4FF00D0E552E7CFD9FF9A
:103790001200D9CFE6FFE1CFD9FF060EE126E66A97
:1037A000DEDFE552F3CF1CF0F4CF1DF01CC006F0B5
:1037B0001DC007F00FEC19F005C018F006C019F095
:1037C00007C01AF008C01BF00A6A400E0B6E9C0E70
:1037D0000C6E450E0D6E18C005F019C006F01AC02B
:1037E00007F01BC008F090EC19F005C014F006C0FB
:1037F00015F007C016F008C017F00A6A0B6A800EB1
:103800000C6E440E0D6E14C005F015C006F016C007
:1038100007F017C008F03DEC19F005C0DEFF06C048
:10382000DEFF07C0DEFF08C0DDFFDD52DD52D9CF6D
:10383000E9FFDACFEAFFEECF14F0EECF15F0EECFCE
:1038400016F0EFCF17F00A6A0B6A400E0C6E410EAD
:103850000D6E14C005F015C006F016C007F017C0B5
:1038600008F03DEC19F0FDEC19F0040E06C0DBFF8A
:10387000050E07C0DBFF040EDBCF14F0050EDBCF17
:1038800015F014C0F3FF15C0F4FF060EE15C03E26F
:1038900000D0E16AE552E16EE552E7CFD9FF1200B0
:1038A000D9CFE6FFE1CFD9FF020EE126010EE66E89
:1038B00056DFE552F3CF1CF0F4CF1DF01CC006F02C
:1038C0001DC007F00FEC19F005C018F006C019F084
:1038D00007C01AF008C01BF00A6A400E0B6E9C0E5F
:1038E0000C6E450E0D6E18C005F019C006F01AC01A
:1038F00007F01BC008F090EC19F005C014F006C0EA
:1039000015F007C016F008C017F00A6A0B6A800E9F
:103910000C6E440E0D6E14C005F015C006F016C0F6
:1039200007F017C008F03DEC19F0FDEC19F006C0E7
:10393000DEFF07C0DDFFDECF14F0DDCF15F014C0D1
:10394000F3FF15C0F4FF020EE15C03E200D0E16A70
:0C395000E552E16EE552E7CFD9FF12000E
:04395C00DACFE4FFDB
:10396000E2CFDAFFE9CFE4FFEACFE4FFF6CFE4FFEE
:10397000F7CFE4FFF5CFE4FFF3CFE4FFF4CFE4FFAC
:10398000FACFE4FF00EE00F0140EE80403E3EECFFC
:10399000E4FFFBD700EE14F00C0EE80403E3EECFD7
:1039A000E4FFFBD7E652F2A444D0DC0EE66E0B0E29
:1039B000E66E14EC00F0E552E55201012B2B3C0EB3
:1039C000206E2B51E76E2018E8AE02D0203403D0D1
:1039D000E750D880205423E32B6B2A2B3C0E206E1B
:1039E0002A51E76E2018E8AE02D0203403D0E75009
:1039F000D880205414E32A6B292B0001010E666F36
:103A0000180E206E01012951E76E2018E8AE02D091
:103A1000203403D0E750D880205401E3296B000103
:103A2000010E646F0001CC1901E1CD5102E10001EA
:103A3000CE2B9EAA00D09EA205D09E920001C82B3C
:103A4000000EC923F2A238D0F2920001C6510AE159
:103A50000001C86BC96BBC6ABA84F19C0001010EFD
:103A6000C66F2AD0BC50206E216A226A236AC8C061
:103A700004F0C9C005F0066A076A096A010E0A6EF9
:103A80000B6A0C6AC8EC20F00050000120240001F1
:103A9000C26F0150000121200001C36F02500001DC
:103AA00022200001C46F0350000123200001C56FD4
:103AB000BA940001010EC76FF0A038D0F090000159
:103AC000C6510AE10001C86BC96BBC6ABA84F19A9D
:103AD0000001010EC66F2AD0BC50206E216A226AF6
:103AE000236AC8C004F0C9C005F0066A076A096AFB
:103AF000010E0A6E0B6A0C6AC8EC20F0005000013F
:103B000020240001C26F0150000121200001C36F79
:103B10000250000122200001C46F03500001232045
:103B20000001C56FBA940001010EC76FC00EF212FA
:103B3000E55200EE1FF00C0EE80403E3E5CFEDFFC5
:103B4000FBD700EE13F0140EE80403E3E5CFEDFF1E
:103B5000FBD7E5CFFAFFE5CFF4FFE5CFF3FFE5CFE5
:103B6000F5FFE5CFF7FFE5CFF6FFE5CFEAFFE5CFBD
:083B7000E9FFE5CFDAFF1100C7
:083B7800D9CFE6FFE1CFD9FF30
:103B8000020EE126DE6ADD6A2BEC00F00101286BF3
:103B900077EC16F0CAEC16F02AEC18F0CFEC16F021
:103BA000F40EE66EA7EC21F0E552CAEC16F0E66AD8
:103BB0005BEC17F0E552640E146E3D0E156E166A3E
:103BC00014C0E6FF15C0E6FF16C0E6FF2F0EE66E36
:103BD000010EE66E95EC1FF0176E050EE15E1750B4
:103BE0002F0EE66E010EE66EE66A070EE66E02EC3A
:103BF00018F0E552E552E552E552A6EC0EF032EC33
:103C00000EF0EBEC0FF0010EE66E060EE66E020E05
:103C1000E66EBBEC17F0E552E552E552E66A140E8B
:103C2000E66E060EE66E6DEC18F0E552E552E552D2
:103C3000020EE66E060EE66E0A0EE66EBBEC17F09E
:103C4000E552E552E552E66A440EE66E060EE66E71
:103C50006DEC18F0E552E552E552CFEC16F0F00E9F
:103C600080140101006F0151005D1EE000C101F1EF
:103C70000051700A10E0C00A0BE0600A06E0300A4A
:103C800001E00DD002EC05F00AD08AEC05F007D077
:103C9000E3EC06F004D00001010E676F00D0020EC5
:103CA000E66EA7EC21F0E55201010B5109E0E66A4E
:103CB000010EE66E64EC03F0E552E55201010B6B78
:103CC000000164511DE0646BA6EC0EF0000166512A
:103CD00017E1675115E132EC0EF0D1EC11F050EC28
:103CE0001CF0F3CFDEFFF4CFDDFFDECFE6FFDDCF4C
:103CF000E6FF030EE66E64EC03F0E552E552E55292
:103D00000001665102E1670522E128C1E9FFEA6A84
:103D1000E9BEEA681D0EE926010EEA22EF50010114
:103D2000295D03E00001670503E164EC04F00FD0B6
:103D30000101282B0851E76E2819E8AE02D0E734BC
:103D400002D0E750285D03E3286B0001666B87D73C
:103D5000020EE15C02E2E16AE552E16EE552E7CF74
:043D6000D9FF120075
:0C3D640050657448756200253269002427
:103D7000332C30342C25303269230D0A0024332CA7
:103D800030332C25303269230D0A0024332C303295
:103D90002C25303469230D0A0024332C30312C2596
:103DA000303269230D0A00230D0A002C25303269B8
:103DB0000024320024312C253032692C2530326920
:103DC000230D0A000A0D54656D703A2025336900F1
:103DD0000A0D4D696E3A20253369000A0D486F754A
:103DE000723A2025336900506F7274696F6E3A2001
:103DF0002533690053686564756C655F25693A20F1
:103E00002533690A0D0053657474696E6720000AD2
:103E10000D53686564756C653A202533690A0D0099
:103E200054657065726174757265004D696E757464
:103E30006500486F757200506F7274696F6E005341
:103E400063686564756C650052756E6E696E6700B7
:103E50000A0D0A0D4D6F64653A000A0D43757272C2
:103E6000656E742054696D653A20253032693A25B3
:103E70003032693A25303269001B5B324A1B5B489D
:103E8000506574487562205374617475730A0D002F
:103E90002532690053657420746F203A2020202059
:103EA0002000257320202020200053657420746F8B
:103EB000203A202020200053686564756C6520231B
:103EC0002532692020202000506F7274696F6E7354
:103ED0003A2532690053686564756C65733A25321A
:103EE0006900253269504D00253269414D0031325B
:103EF000504D003132414D00253032693A25303283
:103F000069504D00253032693A25303269414D0003
:103F100031323A25303269504D0031323A25303253
:093F200069414D002530326900B1
:063F2A00D9CFE6FFDACF5B
:103F3000E6FFE1CFD9FFE2CFDAFFE652E652E652E2
:103F4000E652D950F90F146EFF0EDA20156E020EEC
:103F500014C0DBFF030E15C0DBFF020EDBCFE6FF54
:103F6000030EDBCFE6FFF90EDBCFE6FFFA0EDBCF69
:103F7000E6FFFB0EDBCFE6FFD950FC0FE66EFF0E2F
:103F8000DA20E66E37EC08F0146E070EE15C02E210
:103F9000E16AE552E16E1450F3CFDEFFF4CFDDFFAE
:103FA000FC0EDBCFE9FFFD0EDBCFEAFFEF6ADECFD1
:103FB00014F0DDCF15F014C0F3FF15C0F4FF040EAC
:103FC000E15C02E2E16AE552E16EE552E5CFDAFF3B
:063FD000E7CFD9FF12004B
:0A3FD6000E0EF66E000EF76E000EE0
:103FE000F86E00010900F550D46F0900F550D56F47
:103FF00003E1D46701D03DD00900F550CF6F09002F
:10400000F550D06F0900F550D16F09000900F55047
:10401000E96E0900F550EA6E090009000900F55043
:10402000D26F0900F550D36F09000900F6CFD6F022
:10403000F7CFD7F0F8CFD8F0CFC0F6FFD0C0F7FF5A
:10404000D1C0F8FF0001D25302E1D35307E00900C9
:10405000F550EE6ED207F8E2D307F9D7D6C0F6FFD7
:10406000D7C0F7FFD8C0F8FF0001D407000ED55B1A
:04407000BFD71200A4
:0C407400D9CFE6FFDACFE6FFE1CFD9FF9D
:10408000E2CFDAFFE652E652E652E652D950FB0F93
:10409000146EFF0EDA20156E14C0DEFFDD6EDECF6B
:1040A000E6FFDDCFE6FFFB0EDBCFE6FFFC0EDBCF4E
:1040B000E6FFFD0EDBCFE6FFD9C0E6FFDAC0E6FF84
:1040C00037EC08F0146E070EE15C02E2E16AE5529B
:1040D000E16E1450020EF3CFDBFF030EF4CFDBFFD3
:1040E000020EDBCF14F0030EDBCF15F014C0F3FF8C
:1040F00015C0F4FF040EE15C02E2E16AE552E16EF4
:0C410000E552E5CFDAFFE7CFD9FF12004F
:04410C00D9CFE6FF22
:10411000DACFE6FFE1CFD9FFE2CFDAFFFB0EDBCF4C
:1041200014F0FC0EDBCF15F00001800E15141AE11F
:10413000FB0EDBCFE9FFFC0EDBCFEAFFEECFF3FF98
:10414000EDCFF4FFEE2A000EEF22F3CFE9FFF4CF1C
:10415000EAFFFD0EDBCFEFFFEF50156AF36E15C0DF
:10416000F4FF10D0FB0EDB50FE0806E1FD0EDBCFA6
:10417000E6FFFEEC21F005D0FD0EDBCFE6FF03EC01
:1041800000F0E552E552E5CFDAFFE7CFD9FF1200A4
:1041900004500902F3CF00F0F4CF01F00A02F3500B
:1041A0000126000EF420026E04500B02F35002268A
:1041B000000EF420036E04500C02F3500326055049
:1041C0000902F3500126F4500222000E032205508A
:1041D0000A02F3500226F450032205500B02F3505A
:1041E000032606500902F3500226F450032206501B
:1041F0000A02F350032607500902F3500326120067
:10420000FE0EE3CFE9FFFF0EE3CFEAFFF36AF46AA5
:10421000EE5203E0F34AF42AFBD71200FF0EE3CF7D
:10422000F8FFE552FF0EE3CFF7FFE552FF0EE3CFB5
:10423000F6FFE552E66AE66AE66A0900F55209E029
:10424000FD0EE32A05E1FE0EE32A02E1FF0EE32A5A
:10425000F4D7FD0EE3CF05F0FE0EE3CF06F0FF0E20
:06426000E3CF07F012009D
:0A426600D9CFE6FFDACFE6FFE1CF83
:10427000D9FFE2CFDAFF3F0EC716C66AFD0EDB504C
:10428000C612FB0EDB50C712FC0EDB50030A09E01E
:10429000010A04E0020A06E1C78C04D0C78CC68874
:1042A00001D0C688FD0EDB50050A03E0010A03E1D8
:1042B000928A948601D094969488949AC68AE552FC
:0A42C000E5CFDAFFE7CFD9FF1200C7
:0642CA00036A026A016AAA
:1042D000006A200EE76ED89004360536063607369B
:1042E00000360136023603360950005C0A50015888
:1042F0000B5002580C50035809E30950005E0A5055
:10430000015A0B50025A0C50035A042AE72EE4D7E4
:02431000120099
:0E431200D9CFE6FFDACFE6FFE1CFD9FFE2CF49
:10432000DAFFE652C950DF6E9E96C69EFD0EDB5048
:10433000C96EC6AE02D0FF0E03D09EA6FED7000EF9
:0E434000E552E552E5CFDAFFE7CFD9FF1200D4
:02434E00FF0E60
:10435000E350256EEF0E01D0F30EE76EE72EAEEFC1
:1043600021F00C0E246EE76AE72EB4EF21F0242E24
:0C437000B3EF21F0252EACEF21F012007D
:04437C00F36AF46A82
:10438000FF0EE124E96EFF0EE220EA6EED6607D033
:104390002F0EEF6404D03A0EEF6001D0F32A120022
:1043A000FF0EE350256E480E01D04C0EE76EE72E4F
:1043B000FED7E76AE72EFED7252EF7D700001200BA
:1043C000000EF36E00EE00F0060E01D81200EA6057
:1043D00002D0EE6AFCD7F350E9601200EE6AFCD717
:1043E00015EE00F025EE00F0F86A0F9CEBEC1FF0E4
:0C43F00020EC22F0BCEC1DF0FBD712000A
:0443FC00FF0EE3507D
:10440000ACBA04D0AF6AAB8EAC8A949CACA2FED797
:08441000AD6EF36EF46A1200B8
:08441800FF0EE350E84E120014
:0E442000000000D000D000D0E82EFAD7120025
:02442E0030312B
:0F4430003233343536373839616263646566007C
:02444000120068
:02444200FEFF7B
:0C44440001020408000001005345540070
:104450000000000000000000000000536865647563
:104460006C657300000000000000506F7274696F8B
:104470006E006A6A6A6A6A6A6A54696D65202848C9
:104480006F7572290000000054696D6520284D6920
:104490006E29000000000054656D706572617475CE
:1044A0007265000000000000000000000000000035
:0344B00000000009
:020000040030CA
:0100010028D6
:0100020003FA
:010003003CC0
:01000500BD3D
:010006008178
:00000001FF
