:020000040000FA
:06000000C6EF1FF0120024
:020006001200E6
:0600080099EF1AF012004E
:02000E000200EE
:10001000F03F00000001000086000000EE3F0000FD
:08002000FC00000002000000DA
:08002800D9CFE6FFE1CFD9FFBB
:10003000F294FD0EDBCF14F0FE0EDBCF15F015C0F1
:1000400014F0156A1450D76EFD0EDB50D66EE552D3
:10005000E7CFD9FF1200D9CFE6FFE1CFD9FF020EDB
:10006000E126DE6ADD6ADE6ADD6ADECF14F0DDCF0E
:1000700015F0D890155004E60A0E145C000E1558C1
:1000800020E2FD0EDBCFE9FFFE0EDBCFEAFFE9CF7A
:1000900014F0EACF15F0020E086E096ADECF0DF0FB
:1000A000DDCF0EF0DAEC16F014500624E96E155090
:1000B0000720EA6EEE6AED6ADF2A010E01E3DB2A11
:1000C000D4D7FD0EDBCFE9FFFE0EDBCFEAFF140E27
:1000D000EB6A150EEB6AFD0EDBCFE9FFFE0EDBCF00
:1000E000EAFF1A0EE926000EEA22EF6AFD0EDBCFC8
:1000F000E9FFFE0EDBCFEAFF1B0EE926000EEA2227
:10010000EF6A020EE15C02E2E16AE552E16EE5525D
:10011000E7CFD9FF1200D9CFE6FFE1CFD9FF020E1A
:10012000E126DE6ADD6A520ED36ED3A4FED70F013C
:10013000386B896A92683A6B8B6AC00E946E396B21
:100140008A6AC30E936EDC0EE66E0B0EE66E6CDFF3
:10015000E552E552930ED56E400EB86E260EAC6E8B
:10016000900EAB6E190EAF6EB06AF194F294F28AF3
:100170009F9A9E9A9D9AD09EC00EF212B60EE66E7F
:10018000000EE66E2EDAE552E552B40EE66E000E73
:10019000E66E0FDAE552E552C00EE66E000EE66E30
:1001A00059DAE552E552BB0EE66E000EE66E52DA03
:1001B000E552E552C50EE66E000EE66EA9DAE5528E
:1001C000E552D10EE66E000EE66EA2DAE552E55279
:1001D000DD0EE66E000EE66E79DAE552E552E00ECF
:1001E000E66E000EE66E72DAE552E55259EC13F057
:1001F000BCEC17F0020EE15C02E2E16AE552E16E4E
:10020000E552E7CFD9FF1200D9CFE6FFE1CFD9FF02
:10021000FE0EDB501F0BF36EF346F346830EC21443
:10022000F310C26EC282C2B2FED7C3CFF3FFC4CFF7
:10023000F4FF00D0E552E7CFD9FF1200D9CFE6FF97
:10024000E1CFD9FF020EE126630E146E380E156E53
:10025000166A14C0E6FF15C0E6FF16C0E6FF10ECF4
:100260001EF0E552E552E552DFC014F0156A14BEE7
:10027000156814C0E6FF15C0E6FFDEC016F0176A69
:1002800016BE176816C0E6FF17C0E6FFDDC018F0FF
:10029000196A18BE196818C0E6FF19C0E6FF440EB7
:1002A0001A6E380E1B6E1C6A1AC0E6FF1BC0E6FFF2
:1002B0001CC0E6FF10EC1EF01D6E090EE15E1D5025
:1002C0003A0E146E380E156E166A14C0E6FF15C08D
:1002D000E6FF16C0E6FF10EC1EF0E552E552E552CF
:1002E0000001C051060A60E0030A4DE0010A3AE04D
:1002F000070A27E0010A14E0030A01E066D0320E83
:10030000146E380E156E166A14C0E6FF15C0E6FFAF
:1003100016C0E6FF10EC1EF0E552E552E55255D04E
:10032000290E146E380E156E166A14C0E6FF15C03D
:10033000E6FF16C0E6FF10EC1EF0E552E552E5526E
:1003400044D0210E146E380E156E166A14C0E6FFE6
:1003500015C0E6FF16C0E6FF10EC1EF0E552E552B0
:10036000E55233D01C0E146E380E156E166A14C08A
:10037000E6FF15C0E6FF16C0E6FF10EC1EF0E552E2
:10038000E552E55222D0150E146E380E156E166A1F
:1003900014C0E6FF15C0E6FF16C0E6FF10EC1EF025
:1003A000E552E552E55211D00A0E146E380E156E64
:1003B000166A14C0E6FF15C0E6FF16C0E6FF10EC93
:1003C0001EF0E552E552E55200D0C1C014F0156AA6
:1003D00014BE156814C0E6FF15C0E6FFF90E166ED0
:1003E000370E176E186A16C0E6FF17C0E6FF18C072
:1003F000E6FF10EC1EF0196E050EE15E1950DE6A84
:10040000DD6ADECF14F0DDCF15F0C1C016F0176A3B
:1004100016BE176815501718E8AE02D0173404D06E
:100420001650145C1750155852E20001CF511CE0D1
:10043000D0C014F0156A14BE1568DF50141803E11B
:10044000DE52DD50151810E1F00E146E370E156EE9
:10045000166A14C0E6FF15C0E6FF16C0E6FF10ECF2
:100460001EF0E552E552E552DECFE9FFDDCFEAFFAF
:10047000C50EE926000EEA22EFCF14F0156A14BE6D
:10048000156814C0E6FF15C0E6FFDECF16F0DDCF1D
:1004900017F0010E1626000E172216C0E6FF17C031
:1004A000E6FFDE0E186E370E196E1A6A18C0E6FFE8
:1004B00019C0E6FF1AC0E6FF10EC1EF01B6E070E17
:1004C000E15E1B50DF2A010E01E3DB2A9AD7C2C08E
:1004D00014F0156A14BE156814C0E6FF15C0E6FFD7
:1004E000D10E166E370E176E186A16C0E6FF17C0CB
:1004F000E6FF18C0E6FF10EC1EF0196E050EE15E77
:100500001950DDC014F0156A14BE156814C0E6FF5A
:1005100015C0E6FFC50E166E370E176E186A16C0A8
:10052000E6FF17C0E6FF18C0E6FF10EC1EF0196EDC
:10053000050EE15E1950DEC014F0156A14BE156890
:1005400014C0E6FF15C0E6FFBA0E166E370E176E22
:10055000186A16C0E6FF17C0E6FF18C0E6FF10ECE9
:100560001EF0196E050EE15E1950C3C014F0156A35
:1005700014BE156814C0E6FF15C0E6FFAE0E166E79
:10058000370E176E186A16C0E6FF17C0E6FF18C0D0
:10059000E6FF10EC1EF0196E050EE15E1950020E1A
:1005A000E15C02E2E16AE552E16EE552E7CFD9FF94
:1005B0001200D9CFE6FFE1CFD9FFFD0EDBCFE9FF77
:1005C000FE0EDBCFEAFFEF6AFD0EDBCFE9FFFE0E8A
:1005D000DBCFEAFFEE52F00EEF6EE552E7CFD9FF28
:1005E0001200D9CFE6FFE1CFD9FFFD0EDBCFE9FF47
:1005F000FE0EDBCFEAFF010EEF6EFD0EDBCFE9FF53
:10060000FE0EDBCFEAFFEE52EF6AFD0EDBCFE9FF15
:10061000FE0EDBCFEAFF020EE926000EEA22EF6AA9
:10062000FD0EDBCFE9FFFE0EDBCFEAFF030EE9266E
:10063000000EEA22EF6AFD0EDBCFE9FFFE0EDBCFF4
:10064000EAFF040EE926000EEA22EF6AE552E7CF40
:10065000D9FF1200D9CFE6FFE1CFD9FFFD0EDBCFE6
:10066000E9FFFE0EDBCFEAFF010EEF6EFD0EDBCFE2
:10067000E9FFFE0EDBCFEAFFEE52020EEF6EFD0E3B
:10068000DBCFE9FFFE0EDBCFEAFF020EE926000E0C
:10069000EA22030EEF6EFD0EDBCFE9FFFE0EDBCF8D
:1006A000EAFF030EE926000EEA22140EEF6EFD0E9D
:1006B000DBCFE9FFFE0EDBCFEAFF040EE926000EDA
:1006C000EA22EF6AE552E7CFD9FF1200D9CFE6FF61
:1006D000E1CFD9FFFD0EDBCFE9FFFE0EDBCFEAFF56
:1006E000EF6AFD0EDBCFE9FFFE0EDBCFEAFFEE5235
:1006F000EF6AFD0EDBCFE9FFFE0EDBCFEAFF020E55
:10070000E926000EEA22EF6AE552E7CFD9FF120090
:10071000D9CFE6FFE1CFD9FF020EE126FD0EDBCFF8
:10072000E9FFFE0EDBCFEAFF0B0EE926000EEA2200
:10073000EF68FD0EDBCFE9FFFE0EDBCFEAFF0A0E0E
:10074000E926000EEA22EF6ADE6ADD6ADECF14F0E7
:10075000DDCF15F0D890155004E60A0E145C000E9B
:10076000155817E2FD0EDBCFE9FFFE0EDBCFEAFFE7
:10077000E9CF14F0EACF15F0DE501424E96EDD5015
:100780001520EA6EDFCFEFFFDF2A010E01E3DB2A3F
:10079000DDD7020EE15C02E2E16AE552E16EE5526C
:1007A000E7CFD9FF1200D9CFE6FFE1CFD9FF020E84
:1007B000E126FE0EDB0401E080D0BEC014F0156A15
:1007C00014BE156814C0E6FF15C0E6FFBDC016F0E4
:1007D000176A16BE176816C0E6FF17C0E6FF9E0E22
:1007E000186E370E196E1A6A18C0E6FF19C0E6FFB8
:1007F0001AC0E6FF10EC1EF01B6E070EE15E1B50E8
:100800009B0E146E370E156E166A14C0E6FF15C0E7
:10081000E6FF16C0E6FF10EC1EF0E552E552E55289
:10082000DE6ADD6ADECF14F0DDCF15F0C1C016F050
:10083000176A16BE176815501718E8AE02D017349D
:1008400004D01650145C1750155827E2DECFE9FF8C
:10085000DDCFEAFFD10EE926000EEA22EFCF14F039
:10086000156A14BE156814C0E6FF15C0E6FF950EA4
:10087000166E370E176E186A16C0E6FF17C0E6FF31
:1008800018C0E6FF10EC1EF0196E050EE15E19505F
:10089000DF2A010E01E3DB2AC5D7910E146E370E55
:1008A000156E166A14C0E6FF15C0E6FF16C0E6FF17
:1008B00010EC1EF0E552E552E552FE0EDB50020848
:1008C00017E1FC0EDBCFE6FFFD0EDBCFE6FF830E6C
:1008D000146E370E156E166A14C0E6FF15C0E6FFDB
:1008E00016C0E6FF10EC1EF0176E050EE15E175005
:1008F000FE0EDB50030817E1FC0EDBCFE6FFFD0E1A
:10090000DBCFE6FF750E146E370E156E166A14C037
:10091000E6FF15C0E6FF16C0E6FF10EC1EF0176EEE
:10092000050EE15E1750FE0EDB50040817E1FC0EC9
:10093000DBCFE6FFFD0EDBCFE6FF670E146E370E52
:10094000156E166A14C0E6FF15C0E6FF16C0E6FF76
:1009500010EC1EF0176E050EE15E1750FE0EDB5018
:10096000050817E1FC0EDBCFE6FFFD0EDBCFE6FF4F
:10097000590E146E370E156E166A14C0E6FF15C0B8
:10098000E6FF16C0E6FF10EC1EF0176E050EE15EE6
:100990001750020EE15C02E2E16AE552E16EE552B7
:1009A000E7CFD9FF1200020E0101831901E1845142
:1009B00054E0010E831901E184513CE0835101E1CF
:1009C000845101E088D00101D890825104E6000EE4
:1009D000815D020E825924E20001B72B040EE76EFE
:1009E000B719E8AE02D0E73402D0E750B75D01E3B3
:1009F000B76BB7C0E9FFEA6AE9BEEA68000EE9260C
:100A0000010EEA22EF50040DF350816E030EE66EE4
:100A1000A6EC1FF0E5520101812B000E822309D0C4
:100A2000010E0101836F846B0101816B826B0101F7
:100A3000856B51D00001BD290101E76E8519E8AE33
:100A400002D0853503D0E750D880855505E2020EE7
:100A50000101836F846B00D03ED00101D890825198
:100A600004E6000E815D020E82591DE20001B70707
:100A7000B73502E3030EB76FB7C0E9FFEA6AE9BE14
:100A8000EA68000EE926010EEA22EF50040DF35049
:100A9000816E030EE66EA6EC1FF0E5520101812B7C
:100AA000000E822317D00101836B846B0101816BDF
:100AB000826B0001DC2B0001BC510001E76EDC19E8
:100AC000E8AE02D0E73402D0E750DC5D03E3DC6B34
:100AD00001011E6B00D01200020E0001C05D19E181
:100AE0000001D02B0001C1510001E76ED019E8AE22
:100AF00002D0E73402D0E750D05D05E2010ECF6F9F
:100B000097EC10F005D0CF6B0001C02BFAEC10F081
:100B10006AD0C0050FE1030EE66EB8EC14F0E552A2
:100B2000040EE66EB8EC14F0E552050EE66EB8EC75
:100B300014F0E5520001C02B040EC05D03E1DDC0DE
:100B4000E0F013D0050EC05D03E1DEC0E1F00DD092
:100B5000060EE76EC019E8AE02D0C03503D0E750EC
:100B6000D880C05502E2010EC06FC0053AE1C0C096
:100B7000BBF0C1C0BCF0C2C0BDF0C3C0BEF000013C
:100B8000010EBF6F0001D06B0001C1510001E76E83
:100B9000D019E8AE02D0E73402D0E750D05D19E2B8
:100BA000D0C0E9FFEA6AE9BEEA68C50EE926000E90
:100BB000EA22EF50E66ED0C0E9FFEA6AE9BEEA68D1
:100BC000D10EE926000EEA22E552E750EF6ED02B57
:100BD000DBD7D069E0C0DDF0E1C0DEF03EEC10F024
:100BE00002D0FAEC10F012000001CF513FE0D0C06B
:100BF000E9FFEA6AE9BEEA68C50EE926000EEA22C4
:100C0000EF2AD0C0E9FFEA6AE9BEEA68C50EE92624
:100C1000000EEA22EFCF14F0170EE76E1418E8AEBC
:100C200002D0143403D0E750D88014540AE2D0C064
:100C3000E9FFEA6AE9BEEA68C50EE926000EEA2283
:100C4000EF6AD0C0E9FFEA6AE9BEEA68C50EE926A4
:100C5000000EEA22EF50E66E040EE66E0C0EE66E13
:100C6000A6EC0FF0E552E552E55216D10001C05155
:100C7000060A01E1D6D0030A01E198D0010A01E198
:100C80007BD0070A3EE0010A01E006D1C12B0A0E23
:100C9000E76EC119E8AE02D0C13503D0E750D88065
:100CA000C15502E2010EC16FC1C014F0156A14BE35
:100CB000156814C0E6FF15C0E6FF550E166E370E18
:100CC000176E186A16C0E6FF17C0E6FF18C0E6FFE9
:100CD000E30EE66E000EE66E6BEC1DF0196E070E6D
:100CE000E15E1950E30EE66E000EE66E040EE66E4F
:100CF0000C0EE66E22EC15F0E552E552E552E55297
:100D0000CBD0C22B050EE76EC219E8AE02D0C235B9
:100D100003D0E750D880C25502E2010EC26FC2C0B4
:100D200014F0156A14BE156814C0E6FF15C0E6FF7E
:100D3000550E166E370E176E186A16C0E6FF17C0EE
:100D4000E6FF18C0E6FFE30EE66E000EE66E6BEC03
:100D50001DF0196E070EE15E1950E30EE66E000EEF
:100D6000E66E040EE66E0C0EE66E22EC15F0E55211
:100D7000E552E552E55290D00001E02B170EE76EE8
:100D8000E019E8AE02D0E03503D0E750D880E05556
:100D900001E2E06BE0C0E6FF040EE66E0C0EE66ECC
:100DA000A6EC0FF0E552E552E55276D00001E12BBA
:100DB0003B0EE76EE119E8AE02D0E13503D0E75013
:100DC000D880E15501E2E16BE1C014F0156A14BE70
:100DD000156814C0E6FF15C0E6FF550E166E370EF7
:100DE000176E186A16C0E6FF17C0E6FF18C0E6FFC8
:100DF000E30EE66E000EE66E6BEC1DF0196E070E4C
:100E0000E15E1950E30EE66E000EE66E040EE66E2D
:100E10000C0EE66E22EC15F0E552E552E552E55275
:100E20003BD0C32B190EE76EC319E8AE02D0C33511
:100E300003D0E750D880C35502E2120EC36FC3C07F
:100E400014F0156A14BE156814C0E6FF15C0E6FF5D
:100E5000550E166E370E176E186A16C0E6FF17C0CD
:100E6000E6FF18C0E6FFE30EE66E000EE66E6BECE2
:100E70001DF0196E070EE15E1950E30EE66E000ECE
:100E8000E66E040EE66E0C0EE66E22EC15F0E552F0
:100E9000E552E552E55200D012000001CF5137E093
:100EA000D0C0E9FFEA6AE9BEEA68C50EE926000E8D
:100EB000EA22EF06D0C0E9FFEA6AE9BEEA68C50E99
:100EC000E926000EEA22EFCF14F014340BE3D0C071
:100ED000E9FFEA6AE9BEEA68C50EE926000EEA22E1
:100EE000170EEF6ED0C0E9FFEA6AE9BEEA68C50EE8
:100EF000E926000EEA22EF50E66E040EE66E0C0EB6
:100F0000E66EA6EC0FF0E552E552E55203D1000182
:100F1000C051060A01E1C4D0030A01E18ED0010AE2
:100F200001E179D0070A3DE0010A01E0F3D0C107F1
:100F3000010EE76EC119E8AE02D0E73402D0E750E7
:100F4000C15D02E20A0EC16FC1C014F0156A14BE81
:100F5000156814C0E6FF15C0E6FF550E166E370E75
:100F6000176E186A16C0E6FF17C0E6FF18C0E6FF46
:100F7000E30EE66E000EE66E6BEC1DF0196E070ECA
:100F8000E15E1950E30EE66E000EE66E040EE66EAC
:100F90000C0EE66E22EC15F0E552E552E552E552F4
:100FA000B9D0C207010EE76EC219E8AE02D0E7342D
:100FB00002D0E750C25D02E2050EC26FC2C014F05B
:100FC000156A14BE156814C0E6FF15C0E6FF550E7D
:100FD000166E370E176E186A16C0E6FF17C0E6FFCA
:100FE00018C0E6FFE30EE66E000EE66E6BEC1DF039
:100FF000196E070EE15E1950E30EE66E000EE66E06
:10100000040EE66E0C0EE66E22EC15F0E552E5528B
:10101000E552E5527FD00001E007E03502E3170E0C
:10102000E06FE0C0E6FF040EE66E0C0EE66EA6EC86
:101030000FF0E552E552E5526DD00001E107E135D0
:1010400002E33B0EE16FE1C014F0156A14BE1568AF
:1010500014C0E6FF15C0E6FF550E166E370E176E6C
:10106000186A16C0E6FF17C0E6FF18C0E6FFE30ED9
:10107000E66E000EE66E6BEC1DF0196E070EE15E7B
:101080001950E30EE66E000EE66E040EE66E0C0ED0
:10109000E66E22EC15F0E552E552E552E5523AD003
:1010A000C307120EE76EC319E8AE02D0E73402D0D0
:1010B000E750C35D02E2190EC36FC3C014F0156A96
:1010C00014BE156814C0E6FF15C0E6FF550E166E77
:1010D000370E176E186A16C0E6FF17C0E6FF18C075
:1010E000E6FFE30EE66E000EE66E6BEC1DF0196E89
:1010F000070EE15E1950E30EE66E000EE66E040E7A
:10110000E66E0C0EE66E22EC15F0E552E552E55265
:06111000E55200D01200C0
:0A111600C7EC0DF0FB0EDBCFF3FF7A
:10112000DB06F35000090AE015EC0EF0FA0E80EC35
:101130000EF0F3E1151CF1E1010E01D0000EF6EF07
:101140000DF0C7EC0DF03B0EE12402E3E168E6523E
:10115000E16E010EDB6A020EDB6AF90EDBCFF6FFF1
:10116000FA0EDBCFF7FFFB0EDBCFF8FF0800F550E0
:10117000DF6EDF5002E11AEF0DF0250EDF5C02E0BA
:101180000DEF0DF0030EDB6A040EDB6A050EDB6A61
:10119000060EDB6A070EDB6A2FEC0DF02D0EDF5C0E
:1011A0000CE02B0EDF5C09E0200EDF5C06E0230E76
:1011B000DF5C03E0300EDF5C1AE1DF50300A14E040
:1011C000130A0FE0030A0AE00B0A05E0060AE4E14D
:1011D000030EDB80E1D7030EDB82DED7030EDB8458
:1011E000DBD7030EDB86D8D7030EDB88D5D72A0ED4
:1011F000DF5C1BE12BEC0DF079EC0DF010E0030E41
:10120000DB8008680968130EDBCF0DF0140EDBCF0E
:101210000EF0DAEC16F0040E06C0DBFF03D0130E5E
:1012200062EC0DF02FEC0DF00BD0090EDB6AD0EC68
:101230000DF003E044EC0EF0FAD7090E62EC0DF06D
:10124000030EDBB0DB982E0EDF5C1BE12FEC0DF004
:101250002A0EDF5C0BE12BEC0DF079EC0DF003E1D5
:10126000130EB4EC0DF02FEC0DF00BD0090EDB6A71
:10127000D0EC0DF003E044EC0EF0FAD7090EB4EC1C
:101280000DF0680EDF5C07E12FEC0DF0680EDF5CFF
:101290001DE1030E18D0740EDF5C17E07A0EDF5CE0
:1012A00014E0480EDF5C06E0540EDF5C03E05A0EEB
:1012B000DF5C02E1020E07D06C0EDF5C03E06A0E19
:1012C000DF5C04E1010E07EC0EF0C9DBDF506E0AB3
:1012D00001E17FD31E0A01E192D1200A01E18FD101
:1012E0003F0A01E149D11A0A01E146D10D0A01E1A3
:1012F00043D1200A01E140D13A0A01E13DD1200A5F
:1013000001E13AD1260A01E135D10D0A01E132D1DC
:101310001A0A01E1D9D0200A4AE0300A1FE0460A41
:101320000EE0250A01E083D3D950F90FE96EFF0ED4
:10133000DA20EA6E010EEE5E000EEE5AEE5A15EC61
:101340000EF0250EE66E95DB03E1151C01E169D375
:1013500011EC0EF001E26BD3DB2A69D3080EDB6AD5
:10136000040EDB50010806E2040EDB04D9EC0DF09C
:10137000DB508BDB080EDB5009E0030EDB50010B6A
:1013800005E172DB01E04DD3080EDB6A64DBEFCFD1
:10139000DFFF89EC0EF003E1151C01E142D311ECF3
:1013A0000EF001E3DB2A60DB01E141D33AD3070E03
:1013B000DB5002080FE155EC0EF0030E1CEC0EF0B2
:1013C0000E0EEECFDBFF0F0EEECFDBFF100EEECFDB
:1013D000DBFF20D0F70EDBCF17F0F80EDBCF18F0D5
:1013E000020E175E000E185AF70E17C0DBFFF80E3C
:1013F00018C0DBFF17C0E9FF18C0EAFF0CEC0EF0C5
:10140000166A0E0E14C0DBFF0F0E15C0DBFF100EA8
:1014100016C0DBFF0E0EDBCFE6FF0F0EDBCFE6FFC5
:10142000100EDBCFE6FFE4EC1EF0E552E552E5528C
:10143000130E07C0DBFF140E08C0DBFF060EDB50E7
:1014400005E0130E50EC0EF001E26ADB74EC0EF0D6
:1014500002E2130E37DB37EC0EF006E0040E50EC20
:101460000EF002E2050E2EDB030EDBB005D0FCDA37
:1014700001E0D7D2080EDB6A090EDB6A0E0EDBCF65
:10148000F6FF0F0EDBCFF7FF100EDBCFF8FF0800E3
:10149000F550DF6EDF5014E07AEC0EF011E289ECCB
:1014A0000EF003E1151C01E1BCD2BBDB01E3DB2A3A
:1014B000090EDB2AD9500E0FE96E000ECBDBE7D701
:1014C000D3DA01E1B4D2ADD2C6DA110EEECFDBFF32
:1014D000120EEDCFDBFF110EDBCFE6FF120EDBCFDE
:1014E000E6FFD6EC1EF0E552E552130EF3CFDBFF1C
:1014F000140EF4CFDBFF060EDB5004E0130ED0DB3E
:1015000001E20EDB74EC0EF002E2130EDBDAAFDB6D
:1015100005E0040EC5DB02E2050ED4DA030EDBB0F3
:1015200005D0A2DA01E07DD2080EDB6A090EDB6A83
:10153000110EDBCFE9FF120EDBCFEAFFEFCFDFFFAB
:10154000DF5014E0D7DB12E2E4DB03E1151C01E11C
:1015500068D267DB01E3DB2A090EDB2A110EDB2AE6
:10156000DBCFE9FF120EE8E3DB2AE6D77DDA01E103
:101570005ED257D2030EDB8E070EDB0410E195DB43
:10158000040E5ADB0A0EEECFDBFF0B0EEECFDBFFB5
:101590000C0EEECFDBFF0D0EEECFDBFF6CD0070E97
:1015A000DB5003082CE1030EDBAE0DD0B2DA020EE5
:1015B00076DAEFCF14F0156A166A176A14AE39D0CE
:1015C0001568166835D0F70EDBCF15F0F80EDBCFB7
:1015D00016F0020E155E000E165AF70E15C0DBFF50
:1015E000F80E16C0DBFF15C0E9FF16C0EAFFEFCF0B
:1015F00014F00A0E14C0DBFF0B0EDB6A38D0070EA6
:10160000DB50020809E1030EDBAE04D059DB16AE55
:1016100010D00ED055DB0DD0030EDBAE12D079DA30
:10162000020E3DDAF9DA166A176A15AE02D01668AC
:101630001768E2DA0C0E16C0DBFF0D0E17C0DBFFD9
:101640001AD0F70EDBCF16F0F80EDBCF17F0020E34
:10165000165E000E175AF70E16C0DBFFF80E17C005
:10166000DBFF16C0E9FF17C0EAFFD6DAC5DA0C0EB9
:10167000DB6A0D0EDB6A060EDB5005E1010EF36E30
:10168000050EF3CFDBFF150EDB6A160EDB6AD950B1
:10169000370F146E000EDA20156E390E14C0DBFF02
:1016A0003A0E15C0DBFF380EDB6A080EDB6A0A0E45
:1016B000AEDADF50780A12E0200A10E0280A0CE0C7
:1016C000200A0AE03F0A06E00D0A02E0200A08E1CB
:1016D000020E05D0080E03D0080EDF26100E97DA92
:1016E000030EDBBE02D0DB92DB94DB50800B24E0E8
:1016F0008ADAD890030EEB50000A08E6000EEE5C82
:10170000000EEE58000EEE58000EEE5815E213DAF9
:101710000B680C680D680E689EEC1EF00A0E02C085
:10172000DBFF0B0E03C0DBFF0C0E04C0DBFF0D0E56
:1017300005C0DBFF2D0E08D0030EDBA202D02B0E5E
:1017400003D0DBA408D0200EF36E170EF3CFDBFF1F
:10175000150EDB2A02D0170EDB6A050EDB5003E103
:10176000B7D901E189D0DA0E146E3F0E156E000E66
:10177000166E070EDBCF17F0186A196A1A6A17C0BF
:101780000BF018C00CF019C00DF01AC00EF0D3D930
:101790003BEC1FF014500224F36E15500320F46E3E
:1017A00016500420F86EF4CFF7FFF3CFF6FF0800D1
:1017B000090EF5CFDBFF580EDF5C0FE1610EF36E13
:1017C000090E7BD90AE3200E146E090EDBCFE7FF6A
:1017D0001450E75E090EE7CFDBFF070EDBCF14F0F6
:1017E000156A166A176A0FDA14C00BF015C00CF0F0
:1017F00016C00DF017C00EF0EECF06F0EECF07F0DA
:10180000EECF08F0EFCF09F03BEC1FF009C0EDFF81
:1018100008C0EDFF07C0EDFF06C0EFFF390EDBCFBC
:10182000E9FFDB063A0EDBCFEAFF01E2DB06090E39
:10183000DBCFEFFF150EDB2A4BD995E1030EDBA6BC
:101840001DD06F0EDF5C06E1C1D918E3150EDB2851
:101850005BDA14D0780EDF5C09E0580EDF5C06E03E
:10186000620EDF5C03E0420EDF5C08E1020EF36E05
:10187000160EF3CFDBFF02D0150EDB6A030EDB5032
:10188000100B0EE0040EDBCF14F0050EDB50D880F9
:10189000145406E2060EDB5003E1040EDB5034DA8A
:1018A00095D90AE2050EDBCFE7FF150EDB50E75EA8
:1018B000050EE7CFDBFF02D0050EDB6A040EDBCF9F
:1018C00014F0160E45D9D880145414E2160EDBCF4E
:1018D000E6FF150EDBCFE6FF040EDBCFE6FF050EBD
:1018E000DB50E552E75CE552D880E754E552D880FA
:1018F000E7545FD9030EDB50010B0BE1080EDB5000
:1019000008E0B2D801E08DD0080EDB50BED8080E3A
:10191000DB6A170EDB5007E088D9170EF1D903E117
:10192000151C01E17ED0160EDB5016E07ED9300E7C
:10193000E66E9FD802E1151C74E077D9DFCFE6FF91
:101940005CEC1EF0E552E552E552F4CF15F00001D3
:10195000F31C02E1151C65E0050EDBCF14F0160E3A
:10196000DB50D880145409E2050EDBCFE7FF160EDA
:10197000DB50E75E050EE7CFDBFF300EE66E050EAF
:10198000CBD94FE1390EDB2ADBCFE9FF3A0E01E379
:10199000DB2ADBCFEAFF090EEFCFDBFFDB500EE0E7
:1019A00044D9090EADD902E1151C3BE0390EDB2A02
:1019B000DBCFE9FF3A0EEDE3DB2AEBD755D831E177
:1019C000160EDBCFE6FF080EC3D8E552E7245DD83C
:1019D0002ED0070EDB50030A1CE0010A14E0030AB4
:1019E00007E07BD9DBCFEEFF020EDBCFEDFF1FD090
:1019F000F5D8196A17AE02D0186819682CD8BCD867
:101A000019C0EEFF14D0EAD817BE186824D8B4D88D
:101A10000ED063D9DBCFEFFF0AD07BD905E1151CCF
:101A200003E1F368F46810D0FCD801E3DB2A79D92C
:101A3000B6EF08F0010EDBCF14F0020EDBCF15F08D
:101A400014C0F3FF15C0F4FF3B0EE15C02E2E16A53
:101A5000E552E16ECBD029D9020E1CEF0EF061D910
:101A60000800F550DF6E1200200EE66E080E8CEFB7
:101A70000EF05CEC1EF0E552E552E552F3CF14F0A7
:101A8000F4CF15F00001F31C1200146E156AD95042
:101A9000010F4DD91450EE261550ED221200185E9C
:101AA000000E195AF70E18C0DBFFF80E19C0DBFF45
:101AB00018C0E9FF19C0EAFF1200DBCFF4FFF350B2
:101AC000F45C1200DB50E76E040EE7CFDBFF120080
:101AD0000A0EDBCF14F00B0EDBCF15F00C0EDBCFB4
:101AE00016F00D0EDBCF17F014501510161017104E
:101AF0001200130EEECFDBFF140EEDCFDBFF130E43
:101B0000DBCF14F0140EDBCF15F00001800E15149E
:101B10001200F70EDBCF18F0F80EDBCF19F0120031
:101B2000050EDB50E66ED950130F01D9E552E75090
:101B3000EE6EED6A12000A0EDBCF06F00B0EDBCF65
:101B400007F00C0EDBCF08F00D0EDBCF09F0120012
:101B5000DBCFE6FF150EDBCFE6FF050EDB50E552CF
:101B6000E724E552E7241200DB50CED8010EF36ED5
:101B7000060EF3CFDBFF1200EE50EFCFEAFFE96E67
:101B800016C0EEFF17C0EEFF18C0EEFF1200D9CF4F
:101B9000E6FFDACFE6FFE1CFD9FFE2CFDAFF1200AE
:101BA000DFCFE6FFE66A94EC1FF0E552E552F35012
:101BB0001200E76E080EE7CFDBFF1200EECF14F045
:101BC000EECF15F0EFCF16F0176A1200050EDBCF3F
:101BD00014F0150EDB50D88014541200010EDBCF28
:101BE00016F0020EDBCF17F0186A1200E552E5CFAF
:101BF000DAFFE7CFD9FF12000A0E14C0DBFF0B0E8D
:101C000015C0DBFF1200D9500A0F97EF0EF0F36EEC
:101C1000070EF3CFDBFF1200EECF14F0EFCF15F07D
:101C20001200010EDB2A020E1200FC0EDBCFE6FFD3
:101C3000FD0EDBCFE6FF1200145E000E155AF70E04
:101C400014C0DBFFF80E15C0DBFF14C0E9FF15C0A0
:101C5000EAFF1200DA20EA6EEF2AEECFF6FF000E5E
:101C6000EF22EECFF7FFEF22EECFF8FF1200040EC7
:101C7000DBCFE6FF130EDB50E552E75C9ADFDB506B
:101C800004DF060EDB501200090EDB500A0DF35084
:101C9000DF24D00FE76E090EE7CFDBFF2FEF0DF04B
:101CA000DB50F36E050E5DEF0DF0F70EDBCF14F099
:101CB000F80EDBCF15F01200DFCFE6FF39EF0DF0A5
:101CC00028DF030EECDEDEEF0DF08BEC08F0E552C2
:101CD000E552E552E55200091200BDDEEE50EFCFAD
:101CE000EAFFE96E010E1200130EDB50F36E040ED4
:101CF0005DEF0DF0040EDB50F36E090E5DEF0DF09D
:101D0000DBCFE6FF39EF0DF0E76E050EE7CFDBFF27
:101D100012008BDF5CEF0EF0DBCFE6FF86DF65EFB6
:101D20000EF0D950F90FE96EFF0E2AEF0EF0E96EB2
:081D3000000EDA20EA6E120039
:081D3800D9CFE6FFE1CFD9FF8E
:101D4000020EE1268CEC18F0F3CFDEFFF4CFDDFFBE
:101D5000DECFE6FFDDCFE6FF0E0E146E390E156EF8
:101D6000166A14C0E6FF15C0E6FF16C0E6FFE30ED4
:101D7000E66E000EE66E6BEC1DF0176E070EE15E70
:101D80001750DECFE6FFDDCFE6FF020EE66ED3ECA6
:101D900003F0E552E552E552E30EE66E000EE66E04
:101DA000010EE66E0F0EE66E22EC15F0E552E552DE
:101DB000E552E552E66A010EE66E110EE66EDBECC8
:101DC00014F0E552E552E552430EE66E010EE66E62
:101DD000120EE66E13EC14F0E552E552E552020ED7
:101DE000E15C02E2E16AE552E16EE552E7CFD9FF3C
:101DF00012000001DD511FE1DEC014F0156A14BEAF
:101E0000156814C0E6FF15C0E6FF040E166E390E05
:101E1000176E186A16C0E6FF17C0E6FF18C0E6FF87
:101E2000E30EE66E000EE66E6BEC1DF0196E070E0B
:101E3000E15E19507CD00C0EDD5D1FE1DEC014F0B8
:101E4000156A14BE156814C0E6FF15C0E6FFFA0E49
:101E5000166E380E176E186A16C0E6FF17C0E6FF3A
:101E600018C0E6FFE30EE66E000EE66E6BEC1DF0AA
:101E7000196E070EE15E19505AD00C0EE76EDD198F
:101E8000E8AE02D0E73402D0E750DD5D28E2DEC0E4
:101E900014F0156A14BE156814C0E6FF15C0E6FFFD
:101EA000DDC016F0176A16BE176816C0E6FF17C029
:101EB000E6FFEE0E186E380E196E1A6A18C0E6FFAD
:101EC00019C0E6FF1AC0E6FFE30EE66E000EE66EEE
:101ED0006BEC1DF01B6E090EE15E1B5028D0DEC0BE
:101EE00014F0156A14BE156814C0E6FF15C0E6FFAD
:101EF0000C0EDD5D166E176A16BE176816C0E6FF7B
:101F000017C0E6FFE20E186E380E196E1A6A18C076
:101F1000E6FF19C0E6FF1AC0E6FFE30EE66E000E0C
:101F2000E66E6BEC1DF01B6E090EE15E1B50E30EBE
:101F3000E66E000EE66E010EE66E020EE66E22EC16
:101F400015F0E552E552E552E5521200D9CFE6FF11
:101F5000E1CFD9FFFC0EDB5016E1DD0E146E380E1A
:101F6000156E166A14C0E6FF15C0E6FF16C0E6FF40
:101F7000E30EE66E000EE66E6BEC1DF0176E050EBE
:101F8000E15E175067D0FC0EDB500C0816E1D80E4E
:101F9000146E380E156E166A14C0E6FF15C0E6FF03
:101FA00016C0E6FFE30EE66E000EE66E6BEC1DF06B
:101FB000176E050EE15E17504DD0FC0EDBCF14F00E
:101FC0000C0EE76E1418E8AE02D0E73402D0E750EA
:101FD000145C20E2FC0EDBCF14F0156A14BE156809
:101FE00014C0E6FF15C0E6FFD20E166E380E176E4F
:101FF000186A16C0E6FF17C0E6FF18C0E6FFE30E3A
:10200000E66E000EE66E6BEC1DF0196E070EE15EDB
:10201000195020D0FC0EDB50F40F146E156A14BE5C
:10202000156814C0E6FF15C0E6FFCC0E166E380E1C
:10203000176E186A16C0E6FF17C0E6FF18C0E6FF65
:10204000E30EE66E000EE66E6BEC1DF0196E070EE9
:10205000E15E1950E30EE66E000EE66EFD0EDBCF7C
:10206000E6FFFE0EDBCFE6FF22EC15F0E552E5526F
:10207000E552E552E552E7CFD9FF1200BADEBCC007
:1020800014F0156A14BE156814C0E6FF15C0E6FF0B
:10209000BF0E166E380E176E186A16C0E6FF17C010
:1020A000E6FF18C0E6FFE30EE66E000EE66E6BEC90
:1020B0001DF0196E070EE15E1950E30EE66E000E7C
:1020C000E66E030EE66E040EE66E22EC15F0E552A7
:1020D000E552E552E552BDC014F0156A14BE15680C
:1020E00014C0E6FF15C0E6FFB20E166E380E176E6E
:1020F000186A16C0E6FF17C0E6FF18C0E6FFE30E39
:10210000E66E000EE66E6BEC1DF0196E070EE15EDA
:102110001950E30EE66E000EE66E040EE66EE66EF5
:1021200022EC15F0E552E552E552E55212000001AD
:10213000D029146E156A14BE156814C0E6FF15C0C8
:10214000E6FFA10E166E380E176E186A16C0E6FF6F
:1021500017C0E6FF18C0E6FFE30EE66E000EE66E5F
:102160006BEC1DF0196E070EE15E1950E30EE66E82
:10217000000EE66E030EE66E040EE66E22EC15F01F
:10218000E552E552E552E552940E146E380E156E86
:10219000166A14C0E6FF15C0E6FF16C0E6FFE30EA0
:1021A000E66E000EE66E6BEC1DF0176E050EE15E3E
:1021B0001750E30EE66E000EE66E040EE66EE66E57
:1021C00022EC15F0E552E552E552E552D0C0E9FFA8
:1021D000EA6AE9BEEA68C50EE926000EEA22EF5077
:1021E000E66E040EE66E0C0EE66EB0DEE552E552CB
:1021F000E55212000001C005146E156A14BE156880
:102200000F0E1502F3CF15F01402F3CF14F0F450B3
:1022100015261F0E1426010E152214C0E6FF15C048
:10222000E6FF8C0E166E380E176E186A16C0E6FFA3
:1022300017C0E6FF18C0E6FFE30EE66E000EE66E7E
:102240006BEC1DF0196E070EE15E1950E30EE66EA1
:10225000000EE66E030EE66E040EE66E22EC15F03E
:10226000E552E552E552E5527E0E146E380E156EBB
:10227000166A14C0E6FF15C0E6FF16C0E6FFE30EBF
:10228000E66E000EE66E6BEC1DF0176E050EE15E5D
:102290001750E30EE66E000EE66E040EE66EE66E76
:1022A00022EC15F0E552E552E552E5520001C0512D
:1022B000060A01E19BD0030A6CE0010A5FE0070A0D
:1022C00030E0010A01E0BFD0C1C014F0156A14BEAD
:1022D000156814C0E6FF15C0E6FF7A0E166E380EBC
:1022E000176E186A16C0E6FF17C0E6FF18C0E6FFB3
:1022F000E30EE66E000EE66E6BEC1DF0196E070E37
:10230000E15E1950E30EE66E000EE66E040EE66E18
:102310000C0EE66E22EC15F0E552E552E552E55260
:1023200092D0C2C014F0156A14BE156814C0E6FF3E
:1023300015C0E6FF7A0E166E380E176E186A16C0B4
:10234000E6FF17C0E6FF18C0E6FFE30EE66E000EDC
:10235000E66E6BEC1DF0196E070EE15E1950E30E90
:10236000E66E000EE66E040EE66E0C0EE66E22ECD5
:1023700015F0E552E552E552E55265D0E0C0E6FFC2
:10238000040EE66E0C0EE66EE1DDE552E552E55216
:102390005AD0DEC014F0156A14BE156814C0E6FFEA
:1023A00015C0E6FF7A0E166E380E176E186A16C044
:1023B000E6FF17C0E6FF18C0E6FFE30EE66E000E6C
:1023C000E66E6BEC1DF0196E070EE15E1950E30E20
:1023D000E66E000EE66E040EE66E0C0EE66E22EC65
:1023E00015F0E552E552E552E5522DD0C3C014F088
:1023F000156A14BE156814C0E6FF15C0E6FF7A0E14
:10240000166E380E176E186A16C0E6FF17C0E6FF84
:1024100018C0E6FFE30EE66E000EE66E6BEC1DF0F4
:10242000196E070EE15E1950E30EE66E000EE66EC1
:10243000040EE66E0C0EE66E22EC15F0E552E55247
:10244000E552E55200D01200D9CFE6FFE1CFD9FF27
:10245000040EE12601011D51030A01E19ED0010A8B
:1024600001E191D0030A0DE0010A01E018D1010E4B
:10247000E66EE66ADFEC17F0E552E55201011D2B2E
:102480000ED111EC18F0F3CFDEFFF4CFDDFFDECF7D
:1024900014F0DDCF15F00001800E151405E0020EDA
:1024A000DB6A030EDB6A53D0DECF14F0DDCF15F00C
:1024B000D890155004E60A0E145C000E155808E278
:1024C000040EF36E020EF3CFDBFF030EDB6A3FD088
:1024D000DECF14F0DDCF15F0D890155004E60F0EC6
:1024E000145C000E155808E2030EF36E020EF3CFD3
:1024F000DBFF030EDB6A2BD0DECF14F0DDCF15F04F
:10250000D890155004E6140E145C000E155807E21E
:10251000020EF36EF3CFDBFF030EDB6A18D0DECFC3
:1025200014F0DDCF15F0D890155004E6190E145CA8
:10253000000E155808E2010EF36E020EF3CFDBFF1A
:10254000030EDB6A04D0020EDB6A030EDB6A0101B4
:102550001D2B020EDBCFE6FF140EE66E060EE66EB6
:102560004AEC15F0E552E552E552020EDBCFE6FFEC
:10257000030EDBCFE6FF050EE66ED3EC03F0E5526B
:10258000E552E5528CD0020EE66EE66ADFEC17F0FB
:10259000E552E55201011D2B82D011EC18F0F3CF6A
:1025A000DEFFF4CFDDFFDECF14F0DDCF15F000014C
:1025B000800E151405E0020EDB6A030EDB6A53D0B1
:1025C000DECF14F0DDCF15F0D890155004E60A0EDA
:1025D000145C000E155808E2040EF36E020EF3CFE1
:1025E000DBFF030EDB6A3FD0DECF14F0DDCF15F04A
:1025F000D890155004E60F0E145C000E155808E232
:10260000030EF36E020EF3CFDBFF030EDB6A2BD05B
:10261000DECF14F0DDCF15F0D890155004E6140E7F
:10262000145C000E155807E2020EF36EF3CFDBFFC9
:10263000030EDB6A18D0DECF14F0DDCF15F0D89092
:10264000155004E6190E145C000E155808E2010E30
:10265000F36E020EF3CFDBFF030EDB6A04D0020E33
:10266000DB6A030EDB6A020EDBCFE6FF440EE66E8A
:10267000060EE66E4AEC15F0E552E552E552010110
:102680001D6B020EDBCFE6FF030EDBCFE6FF040E71
:10269000E66ED3EC03F0E552E552E55200D0040EAD
:1026A000E15C02E2E16AE552E16EE552E7CFD9FF73
:0226B000120016
:0E26B2000F013B9D3B9B3B998C8C8C9A8C8836
:1026C000959C959A95983A973A9B8B968B9A949667
:1026D000949A800EE66EE66AE66A09EC1FF0E5520F
:1026E000E552E5521200D9CFE6FFE1CFD9FF8C9C2D
:1026F000FE0EDBCFE6FF5FEC1FF0E552C7A0FED772
:102700008C8CE552E7CFD9FF1200D9CFE6FFE1CF9D
:10271000D9FF8C9AFE0EDBCFE6FFE5DFE552E552EE
:10272000E7CFD9FF1200D9CFE6FFE1CFD9FF8C8ADE
:10273000FE0EDBCFE6FFD7DFE552E552E7CFD9FF4C
:1027400012008C98010EE66E7DEC1FF0E5528C882D
:10275000AE0EE66EDADFE552A80EE66ED6DFE55283
:102760003F0EE66ED2DFE552D30EE66ECEDFE552C7
:10277000E66ACBDFE552400EE66EC7DFE552A10EFA
:10278000E66EC3DFE552C80EE66EBFDFE552DA0E35
:10279000E66EBBDFE552120EE66EB7DFE552810E44
:1027A000E66EB3DFE5527F0EE66EAFDFE552A40EB4
:1027B000E66EABDFE552A60EE66EA7DFE552D50E5C
:1027C000E66EA3DFE552800EE66E9FDFE5528D0ECA
:1027D000E66E9BDFE552140EE66E97DFE552AF0E14
:1027E000E66E93DFE5521200D9CFE6FFE1CFD9FFC5
:1027F000FD0EDB50B00FE66E88DFE552FE0EDB50BB
:10280000020FF00BE8380F0B1009E66E7EDFE55281
:10281000FE0EDB50020F0F0BE66E77DFE552E5523E
:10282000E7CFD9FF1200D9CFE6FFE1CFD9FFE652BB
:10283000FD0EDBCFE6FFFE0EDB50060DF350E66E1D
:10284000D3DFE552E552FC0EDBCF14F0200EE76E2D
:102850001418E8AE02D0E73402D0E750145C0EE35F
:10286000FC0EDBCF15F07F0EE76E1518E8AE02D038
:10287000153403D0E750D880155405E2200EF36ECE
:10288000FC0EF3CFDBFFDF6ADFCF14F0060EE76E3E
:102890001418E8AE02D0E73402D0E750145C26E208
:1028A000FC0EDB50E00F146E156A14BE1568060EA0
:1028B0001502F3CF15F01402F3CF14F0F4501526DF
:1028C000E00E1426320E1522DFCF16F0176A16BE60
:1028D000176814501624F66E15501720F76E08006E
:1028E000F550E66E20DFE552DF2ACED7E552E552FD
:1028F000E7CFD9FF1200D9CFE6FFE1CFD9FF030E12
:10290000E126020EDB6ADBCF14F0080EE76E141826
:10291000E8AE02D0E73402D0E750145C1FE2010EAB
:10292000DB6ADBCF14F0160EE76E1418E8AE02D0A7
:10293000E73402D0E750145C0EE2E66A020EDBCF09
:10294000E6FF010EDBCFE6FF6EDFE552E552E55212
:10295000010EDB2AE6D7020EDB2AD5D7030EE15C97
:1029600002E2E16AE552E16EE552E7CFD9FF1200DB
:10297000D9CFE6FFE1CFD9FFE652DF6ADFCF14F00F
:10298000160EE76E1418E8AE02D0E73402D0E75016
:10299000145C0CE2E66AFE0EDBCFE6FFDFCFE6FF5B
:1029A00042DFE552E552E552DF2AE8D7E552E5522B
:1029B000E7CFD9FF1200D9CFE6FFE1CFD9FFE6522A
:1029C000FD0EDBCFE6FFFE0EDB50060DF350E66E8C
:1029D0000BDFE552E552DF6ADFCF14F0060EE76E3B
:1029E0001418E8AE02D0E73402D0E750145C25E2B8
:1029F000FC0EDBCF14F0156A14BE1568060E150226
:102A0000F3CF15F01402F3CF14F0F4501526200E76
:102A10001426350E1522DFCF16F0176A16BE17687A
:102A200014501624F66E15501720F76E0800F55056
:102A3000E66E79DEE552DF2ACFD7E552E552E7CFE1
:102A4000D9FF1200D9CFE6FFE1CFD9FFFB0EDBCFD4
:102A5000E9FFFC0EDBCFEAFFEF5018E0FB0EDBCF07
:102A6000E9FFDB2AFC0EDBCFEAFF01E3DB2AEF50B4
:102A7000E66EFD0EDBCFE6FFFE0EDBCFE6FFD3DE1C
:102A8000E552E552E552FE0EDB2AE0D7E552E7CFEC
:102A9000D9FF1200D9CFE6FFE1CFD9FF040EE1261E
:102AA000F36E020EF3CFDBFF080EF36E030EF3CFCF
:102AB000DBFFFE0EDBCFE6FFFD0EDBCFE6FF94DE95
:102AC000E552E5527F0EE66E2EDEE552010EDB6A20
:102AD000DBCF14F0FC0EDB50E76E1418E8AE02D02A
:102AE000E73402D0E750145C2AE2FE0EDBCFE6FFAB
:102AF000030EDBCFE6FF010EDB50E552E702F3CF1A
:102B000014F0FD0EDB281424E66E6EDEE552E5526D
:102B1000DF6ADFCF14F0030EDB50E76E1418E8AE67
:102B200002D0E73402D0E750145C06E27F0EE66E76
:102B3000FADDE552DF2AEDD7010EDB2AC9D7FC0EFC
:102B4000DB50E76E010EE7CFDBFFDBCF14F0020EA8
:102B5000DB50E76E1418E8AE02D0E73402D0E7503D
:102B6000145C2AE2FE0EDBCFE6FF030EDBCFE6FFAE
:102B7000010EDB50E552E702F3CF14F0FD0EDB2827
:102B80001424E66E31DEE552E552DF6ADFCF14F041
:102B9000030EDB50E76E1418E8AE02D0E73402D023
:102BA000E750145C06E2410EE66EBDDDE552DF2A19
:102BB000EDD7010EDB2AC9D77F0EE66EB4DDE552F4
:102BC000040EE15C02E2E16AE552E16EE552E7CF14
:042BD000D9FF120017
:0C2BD400019E08D0019E09AE05D0086CDF
:102BE000091EE86A0922018E09C003F008C002F03C
:102BF000136A126A8E0E046E056A52EF17F0019E78
:102C00000CD0019E09AE09D0066C071E081E091ED5
:102C1000E86A072208220922018E09C003F008C0D1
:102C200002F007C013F006C012F09E0E046E056A93
:102C300052EF17F0016A8EEC17F0A6EC17F001B610
:102C400036EF17F001A205D001BA36EF17F03DEFCD
:102C500017F001BA49EF17F001A005D001B836EF1F
:102C600017F049EF17F001B83DEF17F0056A7F0E36
:102C70000A24046EE86A05220F50045EE86A055AC9
:102C80001A0E106E0A6A126A136A026A036A0C50FC
:102C9000075E0D50085A0E50095A000E0A5A09E7ED
:102CA0000C5007260D5008220E500922000E0A2251
:102CB00001D0128AD8900736083609360A36D890DD
:102CC0001236133602360336102EE1D7095008109B
:102CD0000710D8A4128A52EF17F0016A8EEC17F091
:102CE000A6EC17F001B636EF17F001A205D001B837
:102CF00036EF17F03DEF17F001AA05D001B036EF1F
:102D000017F03DEF17F001B002D001A802D049EF53
:102D100017F0056A0F500A24046EE86A05227E0E39
:102D2000045EE86A055A126A136A026A036A0E5060
:102D30000902F4CF03F0F3CF02F00D500902F35073
:102D40001326F4500222000E03220E500802F35004
:102D50001326F4500222000E03220C500902F350F5
:102D60001226F4501322000E022203220D500802F4
:102D7000F3501226F4501322000E022203220E50AA
:102D80000702F3501226F4501322000E02220322EF
:102D90000C500802F4501226000E132202220322C5
:102DA0000D500702F4501226000E132202220322B5
:102DB00052EF17F009C013F008C012F008500D02CE
:102DC000F4CF07F0F3CF06F009500E02F4CF09F06C
:102DD000F3CF08F00D02F3500726F4500822E86AFA
:102DE000092212500E02F3500726F4500822E86A16
:102DF00009220EAE00EF17F01250085E1350095A68
:102E000013AE000C0D50085E0E50095A000C016AFA
:102E10008EEC17F001B611EF17F001A20ED001B43D
:102E200005D07F0E096EFF0E086E1FD0800E096E52
:102E3000086A1BD0096A086A18D001B0FBD78F0E48
:102E40000A60EDD77E0E0A64F5D78E0E0A5C05E0A7
:102E5000D890093208320A2AF8D701A406D0086CA3
:102E6000091EE86A092209AEE5D712007F0E0A6E34
:102E7000FF0E096E086E076E12007F0E01BEFF0E78
:102E80000A6E02D07F0E0A6E800E096E086A076A0B
:102E9000F3D701AE04D0800E0A6E096AF7D70A6A2A
:102EA000096AF4D70350021013101210F8E005BE9F
:102EB000F0D703BE0CD004500510EBE0D8901236CA
:102EC0001336023603360406D8A00506F2D705509D
:102ED000D4E10428D2E012AE11D07F0E121402E128
:102EE00013A00CD0132AE86A0222032207E3D88039
:102EF000033202321332042A0428BFE00450C9E02E
:102F000013C007F002C008F00334096E04300A6EE3
:102F100009320A9E01BE0A8E3CEF17F009360A36C6
:102F200002E30184017E06E101800A6A096A086AF7
:102F3000076A12000A2803E0D88009321200D890EC
:102F4000093202E101821200018612000E360F36AC
:102F500002E3018C017E06E101880F6A0E6A0D6AA8
:102F60000C6A12000F2803E0D8800E321200D890AD
:082F70000E32EAE1018A1200B1
:082F7800010EC26EC16AA90E30
:102F8000C06EBA6AFC0EBA140209BA6E870EBA1481
:102F90000009BA6EBB68BC6A9E929D82BA940F010A
:102FA0003B918C9095903B938C9295929380F18C71
:102FB000F292F2889382F18AF090F0861200D9CFD3
:102FC000E6FFE1CFD9FF01017D6B01017E6BD95096
:102FD000FD0FE96EFF0EDA20EA6E010EEE1801E138
:102FE000ED5008E1F18C8C80010EE66EE2EC1FF0F2
:102FF000E5528C90D950FD0FE96EFF0EDA20EA6E93
:10300000020EEE1801E1ED5008E1F18A8C82010E0A
:10301000E66EE2EC1FF0E5528C92E552E7CFD9FF65
:103020001200D9CFE6FFE1CFD9FF020EE126DE6A1A
:10303000DD6A01017E5163E079C106F07AC107F0D3
:103040007BC108F07CC109F0FFEC15F007C01CF053
:1030500008C01DF009C01EF00AC01FF00C6A0D6AFE
:10306000800E0E6E410E0F6E1CC007F01DC008F0E2
:103070001EC009F01FC00AF06DEC16F007C018F072
:1030800008C019F009C01AF00AC01BF0280E0C6E17
:103090007E0E0D6E0C0E0E6E3D0E0F6E18C007F0FC
:1030A00019C008F01AC009F01BC00AF06DEC16F048
:1030B00007C014F008C015F009C016F00AC017F0D8
:1030C0000C6A0D6A0E6A400E0F6E14C007F015C030
:1030D00008F016C009F017C00AF01AEC16F007EC59
:1030E00017F008C0DEFF09C0DDFFDECF14F0DDCF32
:1030F00015F014C0F3FF15C0F4FF04D003D0F3683B
:10310000F46800D0020EE15C02E2E16AE552E16E91
:10311000E552E7CFD9FF1200D9CFE6FFE1CFD9FFC3
:10312000060EE126830EC2140009C26EC282C2B22C
:10313000FED7C3CF08F0C4CF09F0EAEC15F007C002
:1031400018F008C019F009C01AF00AC01BF00C6A88
:10315000400E0D6E9C0E0E6E450E0F6E18C007F0E1
:1031600019C008F01AC009F01BC00AF06DEC16F087
:1031700007C014F008C015F009C016F00AC017F017
:103180000C6A0D6A800E0E6E440E0F6E14C007F0AE
:1031900015C008F016C009F017C00AF01AEC16F0B6
:1031A00007C0DEFF08C0DEFF09C0DEFF0AC0DDFF8A
:1031B000DD52DD52D9CFE9FFDACFEAFFEECF14F0CE
:1031C000EECF15F0EECF16F0EFCF17F00C6A0D6AC8
:1031D000400E0E6E410E0F6E14C007F015C008F0C1
:1031E00016C009F017C00AF01AEC16F007EC17F039
:1031F000040E08C0DBFF050E09C0DBFF040EDBCFA9
:1032000014F0050EDBCF15F014C0F3FF15C0F4FF6A
:10321000060EE15C03E200D0E16AE552E16EE552A0
:10322000E7CFD9FF1200D9CFE6FFE1CFD9FF020ED9
:10323000E126830EC2140409C26EC282C2B2FED756
:10324000C3CF08F0C4CF09F0EAEC15F007C018F0BE
:1032500008C019F009C01AF00AC01BF00C6A400E31
:103260000D6E9C0E0E6E450E0F6E18C007F019C045
:1032700008F01AC009F01BC00AF06DEC16F007C088
:1032800014F008C015F009C016F00AC017F00C6A57
:103290000D6A800E0E6E440E0F6E14C007F015C03E
:1032A00008F016C009F017C00AF01AEC16F007EC87
:1032B00017F008C0DEFF09C0DDFFDECF14F0DDCF60
:1032C00015F014C0F3FF15C0F4FF020EE15C03E239
:1032D00000D0E16AE552E16EE552E7CFD9FF120076
:1032E000000000000000005F000000000007000771
:1032F0000000147F147F1400242A7F2A1200231355
:1033000008646200364955225000000503000000A1
:103310001C224100000041221C000000082A1C2A37
:10332000080008083E080800A06000000000080827
:103330000808080060600000000020100804020077
:103340003E5149453E0000427F40000062514949DC
:1033500046002241494936001814127F10002745C3
:10336000454539003C4A49493000017109050300CF
:10337000364949493600064949291E0000363600BB
:10338000000000AC6C00000008142241000014147E
:10339000141414004122140800000201510906000F
:1033A000324979413E007E0909097E007F49494939
:1033B00036003E41414122007F4141221C007F49AD
:1033C000494941007F09090901003E41415172000C
:1033D0007F0808087F0000417F4100002040413FF6
:1033E00001007F08142241007F40404040007F02DE
:1033F0000C027F007F0408107F003E4141413E00E7
:103400007F09090906003E4151215E007F09192903
:10341000460026494949320001017F0101003F4031
:1034200040403F001F2040201F003F4038403F00E9
:1034300063140814630003047804030061514945D0
:1034400043007F4141000000020408102000414178
:103450007F00000004020102040080808080800060
:103460000102040000002054545478007F48444472
:103470003800384444280000384444487F00385419
:1034800054541800087E0902000018A4A4A47C006B
:103490007F0804047800007D0000000080847D0027
:1034A00000007F1028440000417F400000007C04A1
:1034B000180478007C08047C00003844443800007C
:1034C000FC2424180000182424FC0000007C0804BC
:1034D0000000485454240000047F440000003C4095
:1034E000407C00001C2040201C003C4030403C0040
:1034F0004428102844001CA0A07C00004464544CC4
:103500004400083641000000007F00000000413602
:10351000080000000201010201000205050200008E
:103520000E11110E0000347A70747A30387C7E7C73
:02353000380061
:0E353200DACFE4FFE2CFDAFFE9CFE4FFEACF21
:10354000E4FFF6CFE4FFF7CFE4FFF5CFE4FFF3CFDE
:10355000E4FFF4CFE4FFFACFE4FF00EE00F0140E36
:10356000E80403E3EECFE4FFFBD700EE14F00C0E0B
:10357000E80403E3EECFE4FFFBD7E652F2A444D025
:10358000DC0EE66E0B0EE66E14EC00F0E552E55232
:103590000001DF2B3C0E206EDF51E76E2018E8AEF5
:1035A00002D0203403D0E750D880205423E3DF6BCF
:1035B000DE2B3C0E206EDE51E76E2018E8AE02D006
:1035C000203403D0E750D880205414E3DE6BDD2B89
:1035D0000101010E1E6F180E206E0001DD51E76E15
:1035E0002018E8AE02D0203403D0E750D880205411
:1035F00001E3DD6B0101010E1C6F0101831901E183
:10360000845102E10101852B9EAA00D09EA205D023
:103610009E9201017F2B000E8023F2A238D0F292FD
:1036200001017D510AE101017F6B806BBC6ABA84A4
:10363000F19C0101010E7D6F2AD0BC50206E216AE1
:10364000226A236A7FC106F080C107F0086A096A0E
:103650000B6A010E0C6E0D6A0E6A9EEC1EF0025093
:10366000000120240101796F035000012120010194
:103670007A6F04500001222001017B6F0550000188
:10368000232001017C6FBA940101010E7E6FF0A02E
:1036900038D0F09001017D510AE101017F6B806B10
:1036A000BC6ABA84F19A0101010E7D6F2AD0BC5028
:1036B000206E216A226A236A7FC106F080C107F06A
:1036C000086A096A0B6A010E0C6E0D6A0E6A9EEC9E
:1036D0001EF00250000120240101796F0350000107
:1036E000212001017A6F04500001222001017B6F2B
:1036F00005500001232001017C6FBA940101010EE5
:103700007E6FC00EF212E55200EE1FF00C0EE804C0
:1037100003E3E5CFEDFFFBD700EE13F0140EE80452
:1037200003E3E5CFEDFFFBD7E5CFFAFFE5CFF4FFED
:10373000E5CFF3FFE5CFF5FFE5CFF7FFE5CFF6FFE8
:0E374000E5CFEAFFE5CFE9FFE5CFDAFF1100A4
:02374E005065C4
:1037500074487562002532690024332C30342C25DE
:10376000303269230D0A0024332C30332C253032BB
:1037700069230D0A0024332C30322C253034692380
:103780000D0A0024332C30312C25303269230D0AE8
:1037900000230D0A002C2530326900243200243128
:1037A0002C253032692C25303269230D0A000A0D90
:1037B00054656D703A20253369000A0D4D696E3AE3
:1037C00020253369000A0D486F75723A2025336948
:1037D00000506F7274696F6E3A2025336900536828
:1037E0006564756C655F25693A202533690A0D00AB
:1037F00053657474696E6720000A0D5368656475BB
:103800006C653A202533690A0D0054657065726154
:1038100074757265004D696E75746500486F7572D8
:1038200000506F7274696F6E005363686564756CE5
:10383000650052756E6E696E67000A0D0A0D4D6F58
:1038400064653A000A0D43757272656E742054699E
:103850006D653A20253032693A253032693A253093
:103860003269001B5B324A1B5B48506574487562C5
:10387000205374617475730A0D0025326900536515
:103880007420746F203A20202020200025732020EF
:103890002020200053657420746F203A20202020BF
:1038A0000053686564756C652023253269202020EB
:1038B0002000506F7274696F6E733A25326900533D
:1038C000686564756C65733A253269002532695004
:1038D0004D00253269414D003132504D00313241A9
:1038E0004D00253032693A25303269504D0025307F
:1038F00032693A25303269414D0031323A25303251
:1039000069504D0031323A25303269414D00253041
:0339100032690019
:0C391400D9CFE6FFE1CFD9FF020EE1267B
:10392000DE6ADD6A8BEC00F00001DC6BA1EC13F0C9
:10393000E66A7BEC14F0E5524E0E146E370E156EEF
:10394000166A14C0E6FF15C0E6FF16C0E6FFE30ED8
:10395000E66E000EE66E6BEC1DF0176E050EE15E76
:103960001750E30EE66E000EE66EE66A070EE66E90
:1039700022EC15F0E552E552E552E552F9EC0EF075
:103980009CEC0EF03EEC10F0010EE66E060EE66EBC
:10399000020EE66EDBEC14F0E552E552E552E66A03
:1039A000140EE66E060EE66E4AEC15F0E552E55290
:1039B000E552020EE66E060EE66E0A0EE66EDBECD1
:1039C00014F0E552E552E552E66A440EE66E060E44
:1039D000E66E4AEC15F0E552E552E552F00E801421
:1039E0000001B46FB551B45D1DE0B4C0B5F0B45181
:1039F000700A10E0C00A0BE0600A06E0300A01E03D
:103A00000CD06CEC05F009D0F4EC05F006D04DECD0
:103A100007F003D0D3EC04F000D0020EE66E7DEC8C
:103A20001FF0E5520001BF510CE0000EE66EE66AA1
:103A3000010EE66ED3EC03F0E552E552E5520001CB
:103A4000BF6B01011C511BE01C6BF9EC0EF0010176
:103A50001E5115E19CEC0EF024EC12F013EC19F061
:103A6000F3CFDEFFF4CFDDFFDECFE6FFDDCFE6FFF5
:103A7000030EE66ED3EC03F0E552E552E552010188
:103A80001E511EE0DCC0E9FFEA6AE9BEEA68D10E19
:103A9000E926000EEA22EF500001DD5D03E1D3ECE0
:103AA00004F00ED0DC2BBC51E76EDC19E8AE02D07E
:103AB000E73402D0E750DC5D03E3DC6B01011E6BF1
:103AC0008DD7020EE15C02E2E16AE552E16EE55259
:063AD000E7CFD9FF120050
:0A3AD600D9CFE6FFDACFE6FFE1CF1B
:103AE000D9FFE2CFDAFFE652E652E652E652D9506B
:103AF000F90F146EFF0EDA20156E020E14C0DBFFF4
:103B0000030E15C0DBFF020EDBCFE6FF030EDBCF9B
:103B1000E6FFF90EDBCFE6FFFA0EDBCFE6FFFB0E8A
:103B2000DBCFE6FFD950FC0FE66EFF0EDA20E66E23
:103B3000A1EC08F0146E070EE15C02E2E16AE552C6
:103B4000E16E1450F3CFDEFFF4CFDDFFFC0EDBCFD0
:103B5000E9FFFD0EDBCFEAFFEF6ADECF14F0DDCF29
:103B600015F014C0F3FF15C0F4FF040EE15C02E28F
:103B7000E16AE552E16EE552E5CFDAFFE7CFD9FF22
:023B8000120031
:0E3B82000E0EF66E000EF76E000EF86E0101CC
:103B90000900F5508B6F0900F5508C6F03E18B67BE
:103BA00001D03DD00900F550866F0900F550876FB0
:103BB0000900F550886F09000900F550E96E090009
:103BC000F550EA6E090009000900F550896F0900F7
:103BD000F5508A6F09000900F6CF8DF1F7CF8EF10D
:103BE000F8CF8FF186C1F6FF87C1F7FF88C1F8FFD4
:103BF0000101895302E18A5307E00900F550EE6E96
:103C00008907F8E28A07F9D78DC1F6FF8EC1F7FF61
:103C10008FC1F8FF01018B07000E8C5BBFD712002C
:103C2000D9CFE6FFDACFE6FFE1CFD9FFE2CFDAFF67
:103C3000E652E652E652E652D950FB0F146EFF0EE2
:103C4000DA20156E14C0DEFFDD6EDECFE6FFDDCFBD
:103C5000E6FFFB0EDBCFE6FFFC0EDBCFE6FFFD0E43
:103C6000DBCFE6FFFCC0E6FFFDC0E6FFA1EC08F0FD
:103C7000146E070EE15C02E2E16AE552E16E145057
:103C8000020EF3CFDBFF030EF4CFDBFF020EDBCF20
:103C900014F0030EDBCF15F014C0F3FF15C0F4FFD2
:103CA000040EE15C02E2E16AE552E16EE552E5CF25
:083CB000DAFFE7CFD9FF120093
:083CB800D9CFE6FFDACFE6FFE9
:103CC000E1CFD9FFE2CFDAFFFB0EDBCF14F0FC0E21
:103CD000DBCF15F00001800E15141AE1FB0EDBCFCF
:103CE000E9FFFC0EDBCFEAFFEECFF3FFEDCFF4FFF1
:103CF000EE2A000EEF22F3CFE9FFF4CFEAFFFD0E2C
:103D0000DBCFEFFFEF50156AF36E15C0F4FF10D054
:103D1000FB0EDB50FE0806E1FD0EDBCFE6FFD4EC28
:103D20001FF005D0FD0EDBCFE6FF03EC00F0E552FF
:0C3D3000E552E5CFDAFFE7CFD9FF120023
:043D3C0006500B0220
:103D4000F3CF02F0F4CF03F00C02F3500326000E81
:103D5000F420046E06500D02F3500426000EF420E9
:103D6000056E06500E02F350052607500B02F35065
:103D70000326F4500422000E052207500C02F350D3
:103D80000426F450052207500D02F3500526085072
:103D90000B02F3500426F450052208500C02F35095
:0C3DA000052609500B02F3500526120006
:043DAC00FE0EE3CF55
:103DB000E9FFFF0EE3CFEAFFF36AF46AEE5203E095
:103DC000F34AF42AFBD71200FF0EE3CFF8FFE552C7
:103DD000FF0EE3CFF7FFE552FF0EE3CFF6FFE5520C
:103DE000E66AE66AE66A0900F55209E0FD0EE32A92
:103DF00005E1FE0EE32A02E1FF0EE32AF4D7FD0EF1
:103E0000E3CF07F0FE0EE3CF08F0FF0EE3CF09F09B
:023E100012009E
:0E3E1200D9CFE6FFDACFE6FFE1CFD9FFE2CF4E
:103E2000DAFF3F0EC716C66AFD0EDB50C612FB0E48
:103E3000DB50C712FC0EDB50030A09E0010A04E064
:103E4000020A06E1C78C04D0C78CC68801D0C68898
:103E5000FD0EDB50050A03E0010A03E1928A948615
:103E600001D094969488949AC68AE552E5CFDAFFF9
:063E7000E7CFD9FF1200AC
:0A3E7600056A046A036A026A200E5E
:103E8000E76ED8900636073608360936023603360E
:103E9000043605360B50025C0C5003580D50045884
:103EA0000E50055809E30B50025E0C50035A0D509A
:0E3EB000045A0E50055A062AE72EE4D71200D7
:023EBE00D9CF5A
:103EC000E6FFDACFE6FFE1CFD9FFE2CFDAFFE65235
:103ED000C950DF6E9E96C69EFD0EDB50C96EC6AE03
:103EE00002D0FF0E03D09EA6FED7000EE552E5528B
:0A3EF000E5CFDAFFE7CFD9FF12009B
:063EFA00FF0EE350256EEF
:103F0000EF0E01D0F30EE76EE72E84EF1FF00C0EDC
:103F1000246EE76AE72E8AEF1FF0242E89EF1FF048
:083F2000252E82EF1FF01200B4
:083F2800F36AF46AFF0EE124C4
:103F3000E96EFF0EE220EA6EED6607D02F0EEF6409
:0C3F400004D03A0EEF6001D0F32A12000A
:043F4C00FF0EE35031
:103F5000256E480E01D04C0EE76EE72EFED7E76ABD
:0C3F6000E72EFED7252EF7D70000120038
:043F6C00000EF36EE2
:103F700000EE00F0060E01D81200EA6002D0EE6AF0
:0C3F8000FCD7F350E9601200EE6AFCD799
:043F8C0015EE00F03E
:103F900025EE00F0F86A019CC1EC1DF0F6EC1FF074
:083FA0008AEC1CF0FBD71200B3
:083FA800FF0EE350ACBA04D097
:103FB000AF6AAB8EAC8A949CACA2FED7AD6EF36EAA
:043FC000F46A12008D
:0C3FC400FF0EE350E84E1200000000D099
:0A3FD00000D000D0E82EFAD712004E
:063FDA00303132333435B2
:0B3FE0003637383961626364656600A3
:023FEC001200C1
:023FEE00FEFFD4
:103FF00001020408C20164007017CEFF0000A6048D
:1040000023003C00B0040F002800200300000153EF
:10401000455400000000000000000000000053684C
:104020006564756C657300000000000000506F72DD
:1040300074696F6E001717171717171754696D6596
:104040002028486F7572290000000054696D6520B2
:10405000284D696E29000000000054656D7065727E
:10406000617475726500000000000000000000002F
:064070000000000000004A
:020000040030CA
:0100010028D6
:0100020003FA
:010003003CC0
:01000500BD3D
:010006008178
:00000001FF
