:020000040000FA
:0600000009EF0FF01200F1
:020006001200E6
:06000800D1EF0BF0120025
:02000E000300ED
:100010006C1E0000E00000001E000000601E0000DA
:10002000000100000C0000005E1E0000FE00000049
:0400300002000000CA
:0C00340056EC05F0FB0EDBCFF3FFDB0603
:10004000F35000090AE0A4EC05F0FA0E0FEC06F0FC
:10005000F3E1151CF1E1010E01D0000E85EF05F072
:1000600056EC05F03B0EE12402E3E168E652E16E56
:10007000010EDB6A020EDB6AF90EDBCFF6FFFA0E29
:10008000DBCFF7FFFB0EDBCFF8FF0800F550DF6E8C
:10009000DF5002E1A9EF04F0250EDF5C02E09CEFE7
:1000A00004F0030EDB6A040EDB6A050EDB6A060E43
:1000B000DB6A070EDB6ABEEC04F02D0EDF5C0CE0A1
:1000C0002B0EDF5C09E0200EDF5C06E0230EDF5C18
:1000D00003E0300EDF5C1AE1DF50300A14E0130A4F
:1000E0000FE0030A0AE00B0A05E0060AE4E1030E4A
:1000F000DB80E1D7030EDB82DED7030EDB84DBD7A8
:10010000030EDB86D8D7030EDB88D5D72A0EDF5C3B
:100110001BE1BAEC04F008EC05F010E0030EDB8004
:1001200008680968130EDBCF0DF0140EDBCF0EF05C
:1001300096EC0EF0040E06C0DBFF03D0130EF1ECBC
:1001400004F0BEEC04F00BD0090EDB6A5FEC05F0A6
:1001500003E0D3EC05F0FAD7090EF1EC04F0030E3E
:10016000DBB0DB982E0EDF5C1BE1BEEC04F02A0E48
:10017000DF5C0BE1BAEC04F008EC05F003E1130ED0
:1001800043EC05F0BEEC04F00BD0090EDB6A5FEC2B
:1001900005F003E0D3EC05F0FAD7090E43EC05F0C7
:1001A000680EDF5C07E1BEEC04F0680EDF5C1DE169
:1001B000030E18D0740EDF5C17E07A0EDF5C14E0DB
:1001C000480EDF5C06E0540EDF5C03E05A0EDF5C95
:1001D00002E1020E07D06C0EDF5C03E06A0EDF5C0A
:1001E00004E1010E96EC05F0C9DBDF506E0A01E177
:1001F0007FD31E0A01E192D1200A01E18FD13F0A8B
:1002000001E149D11A0A01E146D10D0A01E143D1C8
:10021000200A01E140D13A0A01E13DD1200A01E181
:100220003AD1260A01E135D10D0A01E132D11A0A8B
:1002300001E1D9D0200A4AE0300A1FE0460A0EE068
:10024000250A01E083D3D950F90FE96EFF0EDA20B9
:10025000EA6E010EEE5E000EEE5AEE5AA4EC05F0C8
:10026000250EE66E95DB03E1151C01E169D3A0ECD8
:1002700005F001E26BD3DB2A69D3080EDB6A040EBA
:10028000DB50010806E2040EDB0468EC05F0DB50ED
:100290008BDB080EDB5009E0030EDB50010B05E1A0
:1002A00072DB01E04DD3080EDB6A64DBEFCFDFFFCA
:1002B00018EC06F003E1151C01E142D3A0EC05F0B7
:1002C00001E3DB2A60DB01E141D33AD3070EDB50C7
:1002D00002080FE1E4EC05F0030EABEC05F00E0EA6
:1002E000EECFDBFF0F0EEECFDBFF100EEECFDBFF0E
:1002F00020D0F70EDBCF17F0F80EDBCF18F0020E90
:10030000175E000E185AF70E17C0DBFFF80E18C064
:10031000DBFF17C0E9FF18C0EAFF9BEC05F0166A87
:100320000E0E14C0DBFF0F0E15C0DBFF100E16C043
:10033000DBFF0E0EDBCFE6FF0F0EDBCFE6FF100E6E
:10034000DBCFE6FF71EC0EF0E552E552E552130EFD
:1003500007C0DBFF140E08C0DBFF060EDB5005E014
:10036000130EDFEC05F001E26ADB03EC06F002E2BB
:10037000130E37DBC6EC05F006E0040EDFEC05F0EB
:1003800002E2050E2EDB030EDBB005D0FCDA01E045
:10039000D7D2080EDB6A090EDB6A0E0EDBCFF6FF42
:1003A0000F0EDBCFF7FF100EDBCFF8FF0800F55084
:1003B000DF6EDF5014E009EC06F011E218EC06F0F5
:1003C00003E1151C01E1BCD2BBDB01E3DB2A090E12
:1003D000DB2AD9500E0FE96E000ECBDBE7D7D3DA5C
:1003E00001E1B4D2ADD2C6DA110EEECFDBFF120EB0
:1003F000EDCFDBFF110EDBCFE6FF120EDBCFE6FF0A
:1004000063EC0EF0E552E552130EF3CFDBFF140E52
:10041000F4CFDBFF060EDB5004E0130ED0DB01E26D
:100420000EDB03EC06F002E2130EDBDAAFDB05E0D5
:10043000040EC5DB02E2050ED4DA030EDBB005D0F4
:10044000A2DA01E07DD2080EDB6A090EDB6A110E2A
:10045000DBCFE9FF120EDBCFEAFFEFCFDFFFDF508C
:1004600014E0D7DB12E2E4DB03E1151C01E168D202
:1004700067DB01E3DB2A090EDB2A110EDB2ADBCF67
:10048000E9FF120EE8E3DB2AE6D77DDA01E15ED26E
:1004900057D2030EDB8E070EDB0410E195DB040E52
:1004A0005ADB0A0EEECFDBFF0B0EEECFDBFF0C0E9E
:1004B000EECFDBFF0D0EEECFDBFF6CD0070EDB5077
:1004C00003082CE1030EDBAE0DD0B2DA020E76DAB1
:1004D000EFCF14F0156A166A176A14AE39D0156892
:1004E000166835D0F70EDBCF15F0F80EDBCF16F01F
:1004F000020E155E000E165AF70E15C0DBFFF80E41
:1005000016C0DBFF15C0E9FF16C0EAFFEFCF14F0FD
:100510000A0E14C0DBFF0B0EDB6A38D0070EDB506F
:10052000020809E1030EDBAE04D059DB16AE10D091
:100530000ED055DB0DD0030EDBAE12D079DA020EF1
:100540003DDAF9DA166A176A15AE02D0166817682E
:10055000E2DA0C0E16C0DBFF0D0E17C0DBFF1AD05F
:10056000F70EDBCF16F0F80EDBCF17F0020E165E9B
:10057000000E175AF70E16C0DBFFF80E17C0DBFF90
:1005800016C0E9FF17C0EAFFD6DAC5DA0C0EDB6A3F
:100590000D0EDB6A060EDB5005E1010EF36E050E53
:1005A000F3CFDBFF150EDB6A160EDB6AD950370F6F
:1005B000146E000EDA20156E390E14C0DBFF3A0EF1
:1005C00015C0DBFF380EDB6A080EDB6A0A0EAEDAF6
:1005D000DF50780A12E0200A10E0280A0CE0200A16
:1005E0000AE03F0A06E00D0A02E0200A08E1020ED6
:1005F00005D0080E03D0080EDF26100E97DA030E82
:10060000DBBE02D0DB92DB94DB50800B24E08ADA85
:10061000D890030EEB50000A08E6000EEE5C000EC8
:10062000EE58000EEE58000EEE5815E213DA0B6885
:100630000C680D680E682BEC0EF00A0E02C0DBFF92
:100640000B0E03C0DBFF0C0E04C0DBFF0D0E05C05C
:10065000DBFF2D0E08D0030EDBA202D02B0E03D041
:10066000DBA408D0200EF36E170EF3CFDBFF150EC0
:10067000DB2A02D0170EDB6A050EDB5003E1B7D987
:1006800001E189D04A0E146E1E0E156E000E166E14
:10069000070EDBCF17F0186A196A1A6A17C00BF039
:1006A00018C00CF019C00DF01AC00EF0D3D9C3EC6D
:1006B0000EF014500224F36E15500320F46E165001
:1006C0000420F86EF4CFF7FFF3CFF6FF0800090E11
:1006D000F5CFDBFF580EDF5C0FE1610EF36E090E04
:1006E0007BD90AE3200E146E090EDBCFE7FF14500E
:1006F000E75E090EE7CFDBFF070EDBCF14F0156ACC
:10070000166A176A0FDA14C00BF015C00CF016C089
:100710000DF017C00EF0EECF06F0EECF07F0EECFE3
:1007200008F0EFCF09F0C3EC0EF009C0EDFF08C0F0
:10073000EDFF07C0EDFF06C0EFFF390EDBCFE9FF8D
:10074000DB063A0EDBCFEAFF01E2DB06090EDBCF68
:10075000EFFF150EDB2A4BD995E1030EDBA61DD06A
:100760006F0EDF5C06E1C1D918E3150EDB285BDAFA
:1007700014D0780EDF5C09E0580EDF5C06E0620EF4
:10078000DF5C03E0420EDF5C08E1020EF36E160E42
:10079000F3CFDBFF02D0150EDB6A030EDB50100B2C
:1007A0000EE0040EDBCF14F0050EDB50D88014549D
:1007B00006E2060EDB5003E1040EDB5034DA95D975
:1007C0000AE2050EDBCFE7FF150EDB50E75E050EF4
:1007D000E7CFDBFF02D0050EDB6A040EDBCF14F09F
:1007E000160E45D9D880145414E2160EDBCFE6FF5E
:1007F000150EDBCFE6FF040EDBCFE6FF050EDB5068
:10080000E552E75CE552D880E754E552D880E754DA
:100810005FD9030EDB50010B0BE1080EDB5008E043
:10082000B2D801E08DD0080EDB50BED8080EDB6ACE
:10083000170EDB5007E088D9170EF1D903E1151C1C
:1008400001E17ED0160EDB5016E07ED9300EE66E4A
:100850009FD802E1151C74E077D9DFCFE6FFE9EC01
:100860000DF0E552E552E552F4CF15F00001F31C0E
:1008700002E1151C65E0050EDBCF14F0160EDB500F
:10088000D880145409E2050EDBCFE7FF160EDB50CB
:10089000E75E050EE7CFDBFF300EE66E050ECBD927
:1008A0004FE1390EDB2ADBCFE9FF3A0E01E3DB2A09
:1008B000DBCFEAFF090EEFCFDBFFDB500EE044D9C0
:1008C000090EADD902E1151C3BE0390EDB2ADBCF66
:1008D000E9FF3A0EEDE3DB2AEBD755D831E1160EEE
:1008E000DBCFE6FF080EC3D8E552E7245DD82ED053
:1008F000070EDB50030A1CE0010A14E0030A07E0BC
:100900007BD9DBCFEEFF020EDBCFEDFF1FD0F5D89A
:10091000196A17AE02D0186819682CD8BCD819C04B
:10092000EEFF14D0EAD817BE186824D8B4D80ED079
:1009300063D9DBCFEFFF0AD07BD905E1151C03E1BA
:10094000F368F46810D0FCD801E3DB2A79D945EFCD
:1009500000F0010EDBCF14F0020EDBCF15F014C057
:10096000F3FF15C0F4FF3B0EE15C02E2E16AE552E1
:10097000E16ECBD029D9020EABEF05F061D90800AA
:10098000F550DF6E1200200EE66E080E1BEF06F02B
:10099000E9EC0DF0E552E552E552F3CF14F0F4CF57
:1009A00015F00001F31C1200146E156AD950010FE6
:1009B0004DD91450EE261550ED221200185E000E8F
:1009C000195AF70E18C0DBFFF80E19C0DBFF18C06C
:1009D000E9FF19C0EAFF1200DBCFF4FFF350F45C2B
:1009E0001200DB50E76E040EE7CFDBFF12000A0EA9
:1009F000DBCF14F00B0EDBCF15F00C0EDBCF16F0B7
:100A00000D0EDBCF17F01450151016101710120032
:100A1000130EEECFDBFF140EEDCFDBFF130EDBCF9B
:100A200014F0140EDBCF15F00001800E1514120027
:100A3000F70EDBCF18F0F80EDBCF19F01200050E21
:100A4000DB50E66ED950130F01D9E552E750EE6E38
:100A5000ED6A12000A0EDBCF06F00B0EDBCF07F0BB
:100A60000C0EDBCF08F00D0EDBCF09F01200DBCF50
:100A7000E6FF150EDBCFE6FF050EDB50E552E7245F
:100A8000E552E7241200DB50CED8010EF36E060EBD
:100A9000F3CFDBFF1200EE50EFCFEAFFE96E16C096
:100AA000EEFF17C0EEFF18C0EEFF1200D9CFE6FF31
:100AB000DACFE6FFE1CFD9FFE2CFDAFF1200DFCFD6
:100AC000E6FFE66AE7EC0EF0E552E552F35012005D
:100AD000E76E080EE7CFDBFF1200EECF14F0EECF8B
:100AE00015F0EFCF16F0176A1200050EDBCF14F0E9
:100AF000150EDB50D88014541200010EDBCF16F017
:100B0000020EDBCF17F0186A1200E552E5CFDAFFCC
:100B1000E7CFD9FF12000A0E14C0DBFF0B0E15C081
:100B2000DBFF1200D9500A0F26EF06F0F36E070E16
:100B3000F3CFDBFF1200EECF14F0EFCF15F0120071
:100B4000010EDB2A020E1200FC0EDBCFE6FFFD0ECB
:100B5000DBCFE6FF1200145E000E155AF70E14C02C
:100B6000DBFFF80E15C0DBFF14C0E9FF15C0EAFF7C
:100B70001200DA20EA6EEF2AEECFF6FF000EEF2227
:100B8000EECFF7FFEF22EECFF8FF1200040EDBCF1F
:100B9000E6FF130EDB50E552E75C9ADFDB5004DF23
:100BA000060EDB501200090EDB500A0DF350DF2455
:100BB000D00FE76E090EE7CFDBFFBEEF04F0DB508E
:100BC000F36E050EECEF04F0F70EDBCF14F0F80E29
:100BD000DBCF15F01200DFCFE6FFC8EF04F028DF0F
:100BE000030EECDE6DEF05F01AEC00F0E552E55275
:100BF000E552E55200091200BDDEEE50EFCFEAFFEC
:100C0000E96E010E1200130EDB50F36E040EECEFD2
:100C100004F0040EDB50F36E090EECEF04F0DBCFB2
:100C2000E6FFC8EF04F0E76E050EE7CFDBFF12002A
:100C30008BDFEBEF05F0DBCFE6FF86DFF4EF05F0AF
:100C4000D950F90FE96EFF0EB9EF05F0E96E000E0D
:060C5000DA20EA6E12003A
:0A0C5600D9CFE6FFE1CFD9FFF294F9
:100C6000FD0EDBCF14F0FE0EDBCF15F015C014F037
:100C7000156A1450D76EFD0EDB50D66EE552E7CFE5
:100C8000D9FF1200D9CFE6FFE1CFD9FF020EE1264E
:100C9000DE6ADD6ADE6ADD6ADECF14F0DDCF15F0D4
:100CA000D890155004E60A0E145C000E155820E288
:100CB000FD0EDBCFE9FFFE0EDBCFEAFFE9CF14F03C
:100CC000EACF15F0020E086E096ADECF0DF0DDCF17
:100CD0000EF096EC0EF014500624E96E1550072025
:100CE000EA6EEE6AED6ADF2A010E01E3DB2AD4D751
:100CF000FD0EDBCFE9FFFE0EDBCFEAFF140EEB6A41
:100D0000150EEB6AFD0EDBCFE9FFFE0EDBCFEAFF2F
:100D10001A0EE926000EEA22EF6AFD0EDBCFE9FF8C
:100D2000FE0EDBCFEAFF1B0EE926000EEA22EF6A79
:100D3000020EE15C02E2E16AE552E16EE552E7CFC4
:100D4000D9FF1200D9CFE6FFE1CFD9FF020EE1268D
:100D5000DE6ADD6A520ED36ED3A4FED70F01386B64
:100D6000896A92683A6B8B6AF00E946E396B8A6A64
:100D7000936EDC0EE66E0B0EE66E6DDFE552E5520D
:100D8000930ED56E400EB86E260EAC6E900EAB6E06
:100D9000190EAF6EB06A010EC26EC16AA90EC06EA6
:100DA000F194F294F28A9F9A9E9A9D8AD09EC00EE8
:100DB000F212B60EE66E000EE66E23DAE552E5524A
:100DC000B40EE66E000EE66E04DAE552E552C00E91
:100DD000E66E000EE66E4EDAE552E552BB0EE66EAA
:100DE000000EE66E47DAE552E552C50EE66E000EDD
:100DF000E66E9EDAE552E552D10EE66E000EE66E24
:100E000097DAE552E552DD0EE66E000EE66E6EDA1A
:100E1000E552E552020EE15C02E2E16AE552E16E62
:100E2000E552E7CFD9FF1200D9CFE6FFE1CFD9FFD6
:100E3000FE0EDB501F0BF36EF346F346830EC21417
:100E4000F310C26EC282C2B2FED7C3CFF3FFC4CFCB
:100E5000F4FF00D0E552E7CFD9FF1200D9CFE6FF6B
:100E6000E1CFD9FF020EE126960E146E190E156E13
:100E7000166A14C0E6FF15C0E6FF16C0E6FF9DEC3B
:100E80000DF0E552E552E552DFC014F0156A14BECC
:100E9000156814C0E6FF15C0E6FFDEC016F0176A3D
:100EA00016BE176816C0E6FF17C0E6FFDDC018F0D3
:100EB000196A18BE196818C0E6FF19C0E6FF770E58
:100EC0001A6E190E1B6E1C6A1AC0E6FF1BC0E6FFE5
:100ED0001CC0E6FF9DEC0DF01D6E090EE15E1D507D
:100EE0006D0E146E190E156E166A14C0E6FF15C04D
:100EF000E6FF16C0E6FF9DEC0DF0E552E552E55227
:100F00000001C051060A60E0030A4DE0010A3AE020
:100F1000070A27E0010A14E0030A01E066D0650E23
:100F2000146E190E156E166A14C0E6FF15C0E6FFA2
:100F300016C0E6FF9DEC0DF0E552E552E55255D0A6
:100F40005C0E146E190E156E166A14C0E6FF15C0FD
:100F5000E6FF16C0E6FF9DEC0DF0E552E552E552C6
:100F600044D0540E146E190E156E166A14C0E6FFA6
:100F700015C0E6FF16C0E6FF9DEC0DF0E552E55208
:100F8000E55233D04F0E146E190E156E166A14C04A
:100F9000E6FF15C0E6FF16C0E6FF9DEC0DF0E5523A
:100FA000E552E55222D0480E146E190E156E166ADF
:100FB00014C0E6FF15C0E6FF16C0E6FF9DEC0DF07D
:100FC000E552E552E55211D03D0E146E190E156E24
:100FD000166A14C0E6FF15C0E6FF16C0E6FF9DECDA
:100FE0000DF0E552E552E55200D0C1C014F0156A8B
:100FF00014BE156814C0E6FF15C0E6FF2C0E166E71
:10100000190E176E186A16C0E6FF17C0E6FF18C063
:10101000E6FF9DEC0DF0196E050EE15E1950DE6ADB
:10102000DD6ADECF14F0DDCF15F0C1C016F0176A0F
:1010300016BE176815501718E8AE02D0173404D042
:101040001650145C1750155852E20001CF511CE0A5
:10105000D0C014F0156A14BE1568DF50141803E1EF
:10106000DE52DD50151810E1230E146E190E156EA8
:10107000166A14C0E6FF15C0E6FF16C0E6FF9DEC39
:101080000DF0E552E552E552DECFE9FFDDCFEAFF94
:10109000C50EE926000EEA22EFCF14F0156A14BE41
:1010A000156814C0E6FF15C0E6FFDECF16F0DDCFF1
:1010B00017F0010E1626000E172216C0E6FF17C005
:1010C000E6FF110E186E190E196E1A6A18C0E6FFA7
:1010D00019C0E6FF1AC0E6FF9DEC0DF01B6E070E6F
:1010E000E15E1B50DF2A010E01E3DB2A9AD7C2C062
:1010F00014F0156A14BE156814C0E6FF15C0E6FFAB
:10110000040E166E190E176E186A16C0E6FF17C089
:10111000E6FF18C0E6FF9DEC0DF0196E050EE15ECE
:101120001950DDC014F0156A14BE156814C0E6FF2E
:1011300015C0E6FFF80E166E180E176E186A16C068
:10114000E6FF17C0E6FF18C0E6FF9DEC0DF0196E34
:10115000050EE15E1950DEC014F0156A14BE156864
:1011600014C0E6FF15C0E6FFED0E166E180E176EE2
:10117000186A16C0E6FF17C0E6FF18C0E6FF9DEC30
:101180000DF0196E050EE15E1950C3C014F0156A1A
:1011900014BE156814C0E6FF15C0E6FFE10E166E1A
:1011A000180E176E186A16C0E6FF17C0E6FF18C0C3
:1011B000E6FF9DEC0DF0196E050EE15E1950020E72
:1011C000E15C02E2E16AE552E16EE552E7CFD9FF68
:1011D0001200D9CFE6FFE1CFD9FFFD0EDBCFE9FF4B
:1011E000FE0EDBCFEAFFEF6AFD0EDBCFE9FFFE0E5E
:1011F000DBCFEAFFEE52F00EEF6EE552E7CFD9FFFC
:101200001200D9CFE6FFE1CFD9FFFD0EDBCFE9FF1A
:10121000FE0EDBCFEAFF010EEF6EFD0EDBCFE9FF26
:10122000FE0EDBCFEAFFEE52EF6AFD0EDBCFE9FFE9
:10123000FE0EDBCFEAFF020EE926000EEA22EF6A7D
:10124000FD0EDBCFE9FFFE0EDBCFEAFF030EE92642
:10125000000EEA22EF6AFD0EDBCFE9FFFE0EDBCFC8
:10126000EAFF040EE926000EEA22EF6AE552E7CF14
:10127000D9FF1200D9CFE6FFE1CFD9FFFD0EDBCFBA
:10128000E9FFFE0EDBCFEAFF010EEF6EFD0EDBCFB6
:10129000E9FFFE0EDBCFEAFFEE52020EEF6EFD0E0F
:1012A000DBCFE9FFFE0EDBCFEAFF020EE926000EE0
:1012B000EA22030EEF6EFD0EDBCFE9FFFE0EDBCF61
:1012C000EAFF030EE926000EEA22140EEF6EFD0E71
:1012D000DBCFE9FFFE0EDBCFEAFF040EE926000EAE
:1012E000EA22EF6AE552E7CFD9FF1200D9CFE6FF35
:1012F000E1CFD9FFFD0EDBCFE9FFFE0EDBCFEAFF2A
:10130000EF6AFD0EDBCFE9FFFE0EDBCFEAFFEE5208
:10131000EF6AFD0EDBCFE9FFFE0EDBCFEAFF020E28
:10132000E926000EEA22EF6AE552E7CFD9FF120064
:10133000D9CFE6FFE1CFD9FF020EE126FD0EDBCFCC
:10134000E9FFFE0EDBCFEAFF0B0EE926000EEA22D4
:10135000EF68FD0EDBCFE9FFFE0EDBCFEAFF0A0EE2
:10136000E926000EEA22EF6ADE6ADD6ADECF14F0BB
:10137000DDCF15F0D890155004E60A0E145C000E6F
:10138000155816E2FD0EDBCFE9FFFE0EDBCFEAFFBC
:10139000E9CF14F0EACF15F0DE501424E96EDD50E9
:1013A0001520EA6EEF6ADF2A010E01E3DB2ADED7A1
:1013B000020EE15C02E2E16AE552E16EE552E7CF3E
:1013C000D9FF1200D9CFE6FFE1CFD9FF020EE12607
:1013D000FE0EDB0401E089D0BEC014F0156A14BE15
:1013E000156814C0E6FF15C0E6FFBDC016F0176A09
:1013F00016BE176816C0E6FF17C0E6FFBCC018F09F
:10140000196A18BE196818C0E6FF19C0E6FFC70EB2
:101410001A6E180E1B6E1C6A1AC0E6FF1BC0E6FF90
:101420001CC0E6FF9DEC0DF01D6E090EE15E1D5027
:10143000C20E146E180E156E166A14C0E6FF15C0A3
:10144000E6FF16C0E6FF9DEC0DF0E552E552E552D1
:10145000DE6ADD6ADECF14F0DDCF15F0C1C016F014
:10146000176A16BE176815501718E8AE02D0173461
:1014700004D01650145C1750155827E2DECFE9FF50
:10148000DDCFEAFFD10EE926000EEA22EFCF14F0FD
:10149000156A14BE156814C0E6FF15C0E6FFBC0E41
:1014A000166E180E176E186A16C0E6FF17C0E6FF14
:1014B00018C0E6FF9DEC0DF0196E050EE15E1950A7
:1014C000DF2A010E01E3DB2AC5D7BA0E146E180E0F
:1014D000156E166A14C0E6FF15C0E6FF16C0E6FFDB
:1014E0009DEC0DF0E552E552E552020EE15C02E2A0
:1014F000E16AE552E16EE552E7CFD9FF1200120032
:10150000020E0001C05D15E10001D02B0001C151A8
:101510000001E76ED019E8AE02D0E73402D0E75000
:10152000D05D03E2010ECF6F03D0CF6B0001C02B63
:1015300044D0C02B060EE76EC019E8AE02D0C0350D
:1015400003D0E750D880C05502E2010EC06FC0053D
:1015500034E1C0C0BBF0C1C0BCF0C2C0BDF0C3C06C
:10156000BEF00001010EBF6F0001DC6B0001C15134
:101570000001E76EDC19E8AE02D0E73402D0E75094
:10158000DC5D19E2DCC0E9FFEA6AE9BEEA68C50E83
:10159000E926000EEA22EF50E66EDCC0E9FFEA6AB7
:1015A000E9BEEA68D10EE926000EEA22E552E750CC
:1015B000EF6EDC2BDBD70001D06912000001CF51A8
:1015C0002BE0D0C0E9FFEA6AE9BEEA68C50EE92669
:1015D000000EEA22EF2AD0C0E9FFEA6AE9BEEA6813
:1015E000C50EE926000EEA22EFCF14F0170EE76EC3
:1015F0001418E8AE02D0143403D0E750D880145445
:101600000AE2D0C0E9FFEA6AE9BEEA68C50EE92647
:10161000000EEA22EF6A58D00001C051060A45E0E8
:10162000030A34E0010A23E0070A12E0010A01E09C
:101630004BD0C12B0A0EE76EC119E8AE02D0C135FE
:1016400003D0E750D880C15502E2010EC16F3CD0F3
:10165000C22B050EE76EC219E8AE02D0C23503D028
:10166000E750D880C25502E2010EC26F2DD00001B2
:10167000DD2B170EE76EDD19E8AE02D0DD3503D0A5
:10168000E750D880DD5501E2DD6B1ED00001DE2B76
:101690003B0EE76EDE19E8AE02D0DE3503D0E75030
:1016A000D880DE5501E2DE6B0FD0C32B190EE76E3A
:1016B000C319E8AE02D0C33503D0E750D880C35574
:1016C00002E2120EC36F00D012000001CF5123E0DE
:1016D000D0C0E9FFEA6AE9BEEA68C50EE926000E55
:1016E000EA22EF06D0C0E9FFEA6AE9BEEA68C50E61
:1016F000E926000EEA22EFCF14F014340BE3D0C039
:10170000E9FFEA6AE9BEEA68C50EE926000EEA22A8
:10171000170EEF6E45D00001C051060A33E0030AF0
:101720002AE0010A21E0070A11E0010A01E038D0AD
:10173000C107010EE76EC119E8AE02D0E73402D04E
:10174000E750C15D02E20A0EC16F2AD0C207010E46
:10175000E76EC219E8AE02D0E73402D0E750C25DAE
:1017600002E2050EC26F1CD00001DD07DD3502E389
:10177000170EDD6F15D00001DE07DE3502E33B0EEC
:10178000DE6F0ED0C307120EE76EC319E8AE02D0AB
:10179000E73402D0E750C35D02E2190EC36F00D0F8
:0217A000120035
:0E17A200DACFE4FFE2CFDAFFE9CFE4FFEACFCF
:1017B000E4FFF6CFE4FFF7CFE4FFF5CFE4FFF3CF8C
:1017C000E4FFF4CFE4FFFACFE4FF00EE00F0140EE4
:1017D000E80403E3EECFE4FFFBD700EE14F00A0EBB
:1017E000E80403E3EECFE4FFFBD7E652F2A43DD0DA
:1017F000DC0EE66E0B0EE66E2BEC06F0E552E552C3
:101800000001DF2B3C0E1E6EDF51E76E1E18E8AEA6
:1018100002D01E3403D0E750D8801E5423E3DF6B80
:10182000DE2B3C0E1E6EDE51E76E1E18E8AE02D0B7
:101830001E3403D0E750D8801E5414E3DE6BDD2B3A
:101840000001010EFD6F180E1E6E0001DD51E76EE6
:101850001E18E8AE02D01E3403D0E750D8801E54C4
:1018600001E3DD6B0001010EFC6F9EAA00D0C00EEB
:10187000F212E55200EE1DF00A0EE80403E3E5CF94
:10188000EDFFFBD700EE13F0140EE80403E3E5CF01
:10189000EDFFFBD7E5CFFAFFE5CFF4FFE5CFF3FF90
:1018A000E5CFF5FFE5CFF7FFE5CFF6FFE5CFEAFFA0
:0A18B000E5CFE9FFE5CFDAFF1100F4
:0618BA0023002C25303252
:1018C00069000D0A2432001B5B31353B304824315E
:1018D0002C253032692C253032692C253032692391
:1018E000000A0D54656D703A20253369000A0D4DCC
:1018F000696E3A20253369000A0D486F75723A20E7
:1019000025336900506F7274696F6E3A2025336910
:101910000053686564756C655F25693A20253369F5
:101920000A0D0053657474696E6720000A0D5368D0
:101930006564756C653A202533690A0D005465703D
:1019400065726174757265004D696E7574650048E5
:101950006F757200506F7274696F6E0053636865C3
:1019600064756C650052756E6E696E67000A0D0ACB
:101970000D4D6F64653A000A0D43757272656E74A1
:101980002054696D653A20253032693A2530326934
:101990003A25303269001B5B324A1B5B4850657444
:0D19A000487562205374617475730A0D0060
:0219AE00D9CF8F
:1019B000E6FFE1CFD9FF020EE126DE6ADD6AA2EC86
:1019C00006F0F00E80140001B46FB551B45D18E05C
:1019D000B4C0B5F0B451700A10E0C00A0BE0600A60
:1019E00006E0300A01E00CD080EC0AF009D0DEEC11
:1019F0000AF006D065EC0BF003D07FEC0AF000D0C3
:101A0000F00E0001B45D02E1F00EB56FBF5107E0CA
:101A1000010EE66EE2EC09F0E5520001BF6B000139
:101A2000FC5104E02EEC07F00001FC6BFD512BE0B3
:101A3000DE6ADD6ADECF14F0DDCF15F0BCC016F033
:101A4000176A16BE176815501718E8AE02D017347B
:101A500004D01650145C1750155813E2DECFE9FF7E
:101A6000DDCFEAFFD10EE926000EEA22EF50000199
:101A7000DD5D02E17FEC0AF0DF2A010E01E3DB2AE3
:101A8000D9D70001FD6B9DD7020EE15C02E2E16A4D
:0C1A9000E552E16EE552E7CFD9FF1200ED
:041A9C000E0EF66EC6
:101AA000000EF76E000EF86E01010900F550116F7F
:101AB0000900F550126F03E1116701D03DD0090014
:101AC000F5500C6F0900F5500D6F0900F5500E6FC1
:101AD00009000900F550E96E0900F550EA6E0900A9
:101AE00009000900F5500F6F0900F550106F09004B
:101AF0000900F6CF13F1F7CF14F1F8CF15F10CC1AF
:101B0000F6FF0DC1F7FF0EC1F8FF01010F5302E10F
:101B1000105307E00900F550EE6E0F07F8E21007CA
:101B2000F9D713C1F6FF14C1F7FF15C1F8FF010182
:0A1B30001107000E125BBFD7120070
:061B3A00D9CFE6FFDACF6F
:101B4000E6FFE1CFD9FFE2CFDAFFE652E652E652F6
:101B5000E652D950FB0F146EFF0EDA20156E14C03A
:101B6000DEFFDD6EDECFE6FFDDCFE6FFFB0EDBCF77
:101B7000E6FFFC0EDBCFE6FFFD0EDBCFE6FFFEC08F
:101B8000E6FFFFC0E6FF30EC00F0146E070EE15CEC
:101B900002E2E16AE552E16E1450020EF3CFDBFF80
:101BA000030EF4CFDBFF020EDBCF14F0030EDBCF0E
:101BB00015F014C0F3FF15C0F4FF040EE15C02E25F
:101BC000E16AE552E16EE552E5CFDAFFE7CFD9FFF2
:021BD000120001
:0E1BD200D9CFE6FFDACFE6FFE1CFD9FFE2CFB1
:101BE000DAFFFB0EDBCF14F0FC0EDBCF15F00001AB
:101BF000800E15141AE1FB0EDBCFE9FFFC0EDBCFE4
:101C0000EAFFEECFF3FFEDCFF4FFEE2A000EEF2256
:101C1000F3CFE9FFF4CFEAFFFD0EDBCFEFFFEF508C
:101C2000156AF36E15C0F4FF10D0FB0EDB50FE08F2
:101C300006E1FD0EDBCFE6FF17EC0FF005D0FD0E41
:101C4000DBCFE6FF03EC00F0E552E552E5CFDAFF2B
:061C5000E7CFD9FF1200EE
:0A1C560006500B02F3CF02F0F4CFAA
:101C600003F00C02F3500326000EF420046E06501D
:101C70000D02F3500426000EF420056E06500E02ED
:101C8000F350052607500B02F3500326F4500422AC
:101C9000000E052207500C02F3500426F4500522D2
:101CA00007500D02F350052608500B02F35004268E
:101CB000F450052208500C02F350052609500B027F
:061CC000F350052612009E
:0A1CC600FE0EE3CFE9FFFF0EE3CFAF
:101CD000EAFFF36AF46AEE5203E0F34AF42AFBD710
:101CE0001200FF0EE3CFF8FFE552FF0EE3CFF7FF40
:101CF000E552FF0EE3CFF6FFE552E66AE66AE66AD2
:101D00000900F55209E0FD0EE32A05E1FE0EE32A83
:101D100002E1FF0EE32AF4D7FD0EE3CF07F0FE0E3B
:0C1D2000E3CF08F0FF0EE3CF09F0120043
:041D2C0009C013F0E7
:101D300008C012F008500D02F4CF07F0F3CF06F000
:101D400009500E02F4CF09F0F3CF08F00D02F35062
:101D50000726F4500822E86A092212500E02F350B6
:101D60000726F4500822E86A09220EAEBCEF0EF0F6
:101D70001250085E1350095A13AE000C0D50085E45
:061D80000E50095A000C90
:0A1D8600056A046A036A026A200E6F
:101D9000E76ED8900636073608360936023603361F
:101DA000043605360B50025C0C5003580D50045895
:101DB0000E50055809E30B50025E0C50035A0D50AB
:0E1DC000045A0E50055A062AE72EE4D71200E8
:021DCE00F36AB6
:101DD000F46AFF0EE124E96EFF0EE220EA6EED6682
:101DE00007D02F0EEF6404D03A0EEF6001D0F32A33
:021DF0001200DF
:0E1DF200000EF36E00EE00F0060E01D8120097
:101E0000EA6002D0EE6AFCD7F350E9601200EE6A95
:021E1000FCD7FD
:0E1E120015EE00F025EE00F0F86A019C4EEC93
:0E1E20000DF02EEC0FF0D7EC0CF0FBD71200FB
:021E2E00FF0EA5
:101E3000E350ACBA04D0AF6AAB8EAC8A949CACA22F
:0A1E4000FED7AD6EF36EF46A1200D7
:061E4A0030313233343563
:0B1E5000363738396162636465660054
:021E5C00120072
:021E5E00FEFF85
:0C1E600000000000000000000000000076
:041E6C000102040863
:101E7000C20164007017CEFF0000A60423003C00DE
:0A1E8000B0040F0028002003000149
:020000040030CA
:0100010028D6
:0100020003FA
:010003003CC0
:01000500BD3D
:010006008178
:00000001FF
